:100000000C94A2010C94D3010C94D3010C94D30151
:100010000C94D3010C94D3010C94D3010C94D30110
:100020000C94D3010C94B0090C94B0090C94B00951
:100030000C94D3010C94BC030C94D3010C94D30105
:100040000C94D3010C9434060C94D3010C94D3017A
:100050000C94D3010C94D3010C94D3010C9472032F
:100060000C94D3010C942B050C9401050C94D30132
:100070000C94D3010C94D3010C94D3010C94D301B0
:100080000C94D3010C94D3010C94D3010C94D301A0
:100090000C94D3010C94D3010C94D3010C947E08DE
:1000A0000C94D3010C94D3010C94D3010C94D30180
:1000B0000C94D3010C94D3010C94D3010C945505EA
:1000C0000C94D3010C94D3010C94D3010C94D70459
:1000D0000C94AD040C94D3010C9483040C94590437
:1000E0000C94D301D509D809C709CB09D1090F0A46
:1000F000DC09E009E609EA09EE09F409F809FC0956
:100100000F0A020A060A0A0A07634236B79BD8A7F3
:100110001A39685618AEBAAB558C1D3CB7CC57632C
:10012000BD6DEDFD753EF6177231BF000000803FDA
:1001300008000000BE922449123EABAAAA2ABECDF6
:10014000CCCC4C3E00000080BEABAAAAAA3E000068
:100150000000BF000000803F000000000008417860
:10016000D3BB4387D1133D190E3CC3BD4282AD2B97
:100170003E68EC8276BED98FE1A93E4C80EFFFBE8F
:1001800001C4FF7F3F00000000000C9430020C947B
:100190006D070C94EE090C9422030C94F8090C944E
:1001A0006B070C94FF010C94D5090C946C070C940C
:1001B00023030C94E6090C94C5070C940E020C94CE
:1001C000020A0C947C070C94C9020C947C020C94D7
:1001D000E0090C940A0A0C946A070C9422020C940D
:1001E000C7090C9490070C94F4090C94FC090C9426
:1001F000D30E0C94D1090C9498070C94DC090C9440
:10020000EA090C94CB090C94D5010C94060A0C94C1
:10021000CD0E0C94D8090C940F0A0C9428030000FE
:1002200020002300260029002C002F0032000001AE
:10023000000003010601090102000021002400273B
:10024000002A002D003000330001010000040107E6
:10025000010A0100002200250028002B002E003199
:1002600000340002010000050108010B010505052D
:1002700005070508080808020202020A0A0808041D
:10028000040404010101010101010103030303034B
:10029000030303040707070C0C0C0C0C0C0C0C02DA
:1002A00002020206060606060606060B0B0B0B0BE1
:1002B0000B0B0B01021020200808102040102040DA
:1002C000800201020108040201010204081020401A
:1002D0008080402010080402018004020180402038
:1002E0001008040201080402010102040810204061
:1002F00080010204081020408000000A0B02090C53
:100300000D0E0807030401000000000000000000BB
:1003100000000000000000000000000000000000DD
:10032000000000000012111000000000000000009A
:1003300000000000000000000000000000000000BD
:10034000D30ECD0E11241FBECFEFD1E2DEBFCDBF45
:1003500000E00CBF12E0A0E0B2E0E4E9FEE200E061
:100360000BBF02C007900D92A236B107D9F727E064
:10037000A2E6B2E001C01D92A334B207E1F711E09A
:10038000C1EAD1E000E006C021970109802FFE01FB
:100390000E946F12C03AD10780E00807A9F70E94B7
:1003A000B50A0C9438170C940000CF92DF92EF92AC
:1003B000FF920F931F93CF93DF936C017A018B0110
:1003C000C0E0D0E0CE15DF0581F0D8016D918D0140
:1003D000D601ED91FC910190F081E02DC6011995B7
:1003E000892B11F02196EECF7E01C701DF91CF91CD
:1003F0001F910F91FF90EF90DF90CF900895FC0137
:10040000538D448D252F30E0842F90E0821B930B79
:10041000541710F0CF96089501970895FC01918D1F
:10042000828D981761F0828DDF01A80FB11D5D9656
:100430008C91928D9F5F9F73928F90E008958FEFC4
:100440009FEF0895FC01918D828D981731F0828D78
:10045000E80FF11D858D90E008958FEF9FEF0895CF
:10046000FC01918D228D892F90E0805C9F4F821B33
:1004700091098F739927089582EA92E00E943002D1
:1004800021E0892B09F420E0822F08958FE393E087
:100490000E94300221E0892B09F420E0822F089588
:1004A0008CED93E00E94300221E0892B09F420E0DA
:1004B000822F0895FC01848DDF01A80FB11DA35A7E
:1004C000BF4F2C91848D90E001968F739927848F74
:1004D000A689B7892C93A089B1898C918370806497
:1004E0008C93938D848D981306C00288F389E02D38
:1004F00080818F7D80830895EF92FF920F931F93E9
:10050000CF93DF93EC0181E0888F9B8D8C8D9813C6
:1005100005C0E889F989808185FD26C0F62E0B8DFE
:1005200010E00F5F1F4F0F731127E02E8C8DE81224
:100530000CC00FB607FCFACFE889F989808185FFE6
:10054000F5CFCE010E945A02F1CF8B8DFE01E80F4C
:10055000F11DE35AFF4FF0829FB7F8940B8FEA89A1
:10056000FB89808180620AC09FB7F894EE89FF8979
:100570006083E889F98980818370806480839FBF6C
:1005800081E090E0DF91CF911F910F91FF90EF906C
:100590000895CF93DF93EC01888D8823C9F0EA8911
:1005A000FB89808185FD05C0A889B9898C9186FD6C
:1005B0000FC00FB607FCF5CF808185FFF2CFA88969
:1005C000B9898C9185FFEDCFCE010E945A02E7CF09
:1005D000DF91CF910895E0E0F0E0199480E090E0A1
:1005E000892B21F00E945002811119C080E090E017
:1005F000892B41F080E090E0892B21F00E940000DF
:10060000811110C00E94460281110FC080E090E06D
:10061000892B81F00E943C0281110AC008950E943A
:100620000000E4CF0E940000EDCF0E94EB02EECF6D
:100630000C94000008958EBD00000DB407FEFDCFA0
:100640008EB50895089580E090E008950E942317E4
:100650000F931F93CF93DF938C01C62FD62FD07F9C
:10066000D1606D2F0E943D086D2FC8010E94500877
:1006700080E1C89FB0011124C62FC1606C2FC80152
:100680000E943D086C2FC8010E94500881E090E054
:10069000DF91CF911F910F9108953FB7F89480910A
:1006A000870290918802A0918902B0918A0226B5B2
:1006B000A89B05C02F3F19F00196A11DB11D3FBF9A
:1006C000BA2FA92F982F8827820F911DA11DB11D28
:1006D000BC01CD0142E0660F771F881F991F4A9524
:1006E000D1F708951F920F920FB60F9211242F93F6
:1006F0003F938F939F93AF93BF9380918302909189
:100700008402A0918502B09186023091820223E09A
:10071000230F2D3720F40196A11DB11D05C026E839
:10072000230F0296A11DB11D2093820280938302A4
:1007300090938402A0938502B093860280918702F1
:1007400090918802A0918902B0918A020196A11D20
:10075000B11D8093870290938802A0938902B09381
:100760008A02BF91AF919F918F913F912F910F90EE
:100770000FBE0F901F9018951F920F920FB60F92F9
:1007800011240BB60F922F933F934F935F936F9368
:100790007F938F939F93AF93BF93EF93FF9380913A
:1007A0007D0290917E02A0917F02B0918002892B00
:1007B0008A2B8B2B49F190917C0280910000892734
:1007C0008093000080917D0290917E02A0917F0233
:1007D000B0918002181619061A061B060CF056C0B6
:1007E00080917D0290917E02A0917F02B091800263
:1007F0000197A109B10980937D0290937E02A09395
:100800007F02B093800242C080910002E8E3F2E0F0
:10081000E4919FEF90930002E230C9F050F4EE2390
:1008200099F0E13081F590916F009D7F90936F007A
:100830002AC0E43019F1E0F0E53029F59091730019
:100840009D7F909373001FC010926E001CC090910A
:1008500070009D7F9093700091E09093B000909114
:10086000B100987F94609093B1001092B3000BC0D8
:10087000909171009D7F9093710005C090917200DE
:100880009D7F9093720060E00E94100AFF91EF91AB
:10089000BF91AF919F918F917F916F915F914F9198
:1008A0003F912F910F900BBE0F900FBE0F901F9096
:1008B00018951F920F920FB60F9211240BB60F923C
:1008C0002F933F934F935F936F937F938F939F9358
:1008D000AF93BF93EF93FF9382EA92E00E945A0294
:1008E000FF91EF91BF91AF919F918F917F916F9108
:1008F0005F914F913F912F910F900BBE0F900FBEC4
:100900000F901F9018951F920F920FB60F921124FF
:100910000BB60F922F933F934F935F936F937F93F9
:100920008F939F93AF93BF93EF93FF9382EA92E0ED
:100930000E946508FF91EF91BF91AF919F918F91B8
:100940007F916F915F914F913F912F910F900BBECF
:100950000F900FBE0F901F9018951F920F920FB619
:100960000F9211240BB60F922F933F934F935F93E7
:100970006F937F938F939F93AF93BF93EF93FF9367
:100980008FE393E00E945A02FF91EF91BF91AF91E4
:100990009F918F917F916F915F914F913F912F9197
:1009A0000F900BBE0F900FBE0F901F9018951F92C7
:1009B0000F920FB60F9211240BB60F922F933F9305
:1009C0004F935F936F937F938F939F93AF93BF9357
:1009D000EF93FF938FE393E00E946508FF91EF91FF
:1009E000BF91AF919F918F917F916F915F914F9147
:1009F0003F912F910F900BBE0F900FBE0F901F9045
:100A000018951F920F920FB60F9211240BB60F92EA
:100A10002F933F934F935F936F937F938F939F9306
:100A2000AF93BF93EF93FF938CED93E00E945A0234
:100A3000FF91EF91BF91AF919F918F917F916F91B6
:100A40005F914F913F912F910F900BBE0F900FBE72
:100A50000F901F9018951F920F920FB60F921124AE
:100A60000BB60F922F933F934F935F936F937F93A8
:100A70008F939F93AF93BF93EF93FF938CED93E08E
:100A80000E946508FF91EF91BF91AF919F918F9167
:100A90007F916F915F914F913F912F910F900BBE7E
:100AA0000F900FBE0F901F9018951F920F920FB6C8
:100AB0000F9211240BB60F922F933F934F935F9396
:100AC0006F937F938F939F93AF93BF93CF93DF9356
:100AD000EF93FF9320917A0430E0F901E750FD4F46
:100AE0008491F901ED54FD4FD491F901E359FD4F83
:100AF000C491CC2379F081110E94BA09EC2FF0E067
:100B0000EE0FFF1FE25EFD4FA591B491EC91ED2336
:100B100081E009F480E020917E0430917F042F5F12
:100B20003F4F30937F0420937E0490917D0495364F
:100B300018F096E090937904909179049430C9F17B
:100B400028F4923069F09330D1F05EC0953009F40A
:100B500051C0963009F058C091E090934A0551C0B9
:100B6000811152C020917E0430917F0424363105DA
:100B700008F442C010924A0510927D041CC08130D6
:100B800009F042C0E0917D0491E09E0F90937D04B6
:100B9000F0E020917E0430917F04EE0FFF1FE758B4
:100BA000FB4F3087278310927F0410927E0494E0DD
:100BB00029C0811117C0E0917D0491E09E0F9093B0
:100BC0007D04F0E020917E0430917F04EE0FFF1F42
:100BD000E758FB4F3087278310927F0410927E04E2
:100BE00093E010C020917E0430917F0425363105BA
:100BF00058F007C0811108C010927F0410927E0443
:100C000003C095E09093790490917C049923B9F006
:100C100081110AC080917B04882321F080917B049C
:100C200061E009C02F9A0BC080917B04882331F0CA
:100C300080917B0460E00E94100A01C02F98FF9110
:100C4000EF91DF91CF91BF91AF919F918F917F9164
:100C50006F915F914F913F912F910F900BBE0F902D
:100C60000FBE0F901F9018951F920F920FB60F9204
:100C700011240BB60F922F933F934F935F936F9373
:100C80007F938F939F93AF93BF93EF93FF93809145
:100C90007B0287FF05C0109285001092840016C069
:100CA00020917B02022E000C330B8091870590E08F
:100CB000281739075CF430917B0225E03203F001FC
:100CC0001124E55BFA4F808186FD15C080917B027F
:100CD0008F5F80937B0220917B02022E000C330BEE
:100CE0008091870590E02817390794F480917B0262
:100CF0008C302CF10DC030917B023203F0011124B5
:100D0000E55BFA4F808160E08F730E94100ADECFAE
:100D1000809184009091850084349C4918F480E48B
:100D20009CE905C080918400909185000496909381
:100D30008900809388008FEF80937B022AC04091C6
:100D400084005091850030917B0225E03203F00150
:100D50001124E55BFA4F81819281840F951F909356
:100D600089008093880030917B023203F0011124C6
:100D7000E55BFA4F808186FF0CC030917B02320325
:100D8000F0011124E55BFA4F808161E08F730E94CE
:100D9000100AFF91EF91BF91AF919F918F917F9139
:100DA0006F915F914F913F912F910F900BBE0F90DC
:100DB0000FBE0F901F90189530919502313208F0B8
:100DC0004BC0809193028111FCCF9091760622E076
:100DD0002093930221E0209392022FEF2093540658
:100DE0001092530630935206E6E5F6E0A2E3B6E031
:100DF00020E0321721F041914D932F5FFACF1092EE
:100E0000310620913106990F922B909331069091E3
:100E10009102913061F41092910290913106909379
:100E2000BB009091BC0093FDF8CF95EC01C095EE0E
:100E30009093BC00909193029230E1F3909154060C
:100E40009F3F79F080915406803241F080915406A2
:100E5000803331F084E005C081E003C082E001C04E
:100E600083E0109294021092950210925506089514
:100E700085ED8093BC008091BC0084FDFCCF109276
:100E80009302089540910E06262F30E0240F311D65
:100E900021323105DCF4209193022430C9F4FC01A5
:100EA00080E090E0861758F430910E062191DC0125
:100EB000A251BA4FA30FB11D2C930196F3CF80918D
:100EC0000E06680F60930E0680E0089581E0089595
:100ED00082E00895089508950895E0918C0280912C
:100EE0008B02E81730F4F0E0E253FA4F808190E093
:100EF00008958FEF9FEF089590918C0280918B025F
:100F0000981750F4E92FF0E0E253FA4F208130E0D7
:100F10009F5F90938C0202C02FEF3FEFC9010895AD
:100F200080918B0290E020918C02821B91090895A0
:100F3000CF92DF92EF92FF920F931F93CF93DF93A5
:100F40007C01CB018A0120915506222389F0EB0117
:100F50006B01C40ED51ECC15DD0569F06991D70172
:100F6000ED91FC910190F081E02DC7011995F3CF2F
:100F7000642F0E944207C801DF91CF911F910F910A
:100F8000FF90EF90DF90CF900895CF93DF931F9263
:100F9000CDB7DEB76983209155062223D1F0209189
:100FA0009502203240F021E030E0FC0133832283BF
:100FB00080E090E015C080919402E82FF0E0EA5ABA
:100FC000F94F998190838F5F80939402809395026B
:100FD00005C061E0CE0101960E94420781E090E0E9
:100FE0000F90DF91CF910895009769F0FC01019077
:100FF0000020E9F73197AF01481B590BBC018CED7C
:1010000093E00C94D50180E090E008950F931F9336
:10101000CF93DF93162F072FCFE8D5E09C8521E0F3
:1010200020935506909376061092940210929502A2
:10103000AA85BB85ED91FC9111970190F081E02D7F
:10104000682FCD0119958A859B85DC01ED91FC9176
:101050000190F081E02D602F19958A859B85DC0138
:10106000ED91FC910190F081E02D612F1995DF91B8
:10107000CF911F910F910C94DC06FC01248131E08B
:1010800030935506209376061092940210929502A2
:101090008485682B86E992E00E94C5070C94DC06E3
:1010A0000F931F93CF938C01C62F64600E943D085D
:1010B0006C2F6B7FC8010E943D0883EC90E0019784
:1010C000F1F7CF911F910F910895FC01A089B1898B
:1010D0008C91A689B78982FD0FC09C91818D8F5F0D
:1010E0008F73228D821749F0218DDF01A20FB11D70
:1010F0005D969C93818F08958C9108951F920F9215
:101100000FB60F9211240BB60F922F933F934F936C
:101110005F936F937F938F939F93AF93BF93EF935F
:10112000FF938091B900887F803609F49CC068F5F0
:10113000883209F45BC090F4803109F454C038F46B
:10114000882309F4F6C0883009F44DC0F6C0883110
:1011500009F44CC0803209F45DC0EFC0803409F45A
:1011600068C048F4803309F455C0883309F0E5C0FD
:1011700080935406D8C0803509F44FC0883509F4EF
:101180005DC0883409F0D9C0D6C0883909F4C7C019
:10119000A8F4883709F467C038F4883609F463C0C6
:1011A000803709F460C0C9C0883809F4B8C08039F4
:1011B00009F45FC0803809F0C0C05BC0803B09F40F
:1011C00086C038F4803A09F466C0883A09F47FC0D2
:1011D000B4C0803C09F4A7C0883C09F4A4C0883B93
:1011E00009F48AC0AAC08091310610C090915306BC
:1011F00080915206981770F5E091530681E08E0FAA
:1012000080935306F0E0EE5CF94F80818093BB0041
:1012100085EC86C0809354068EC0E091530681E031
:101220008E0F809353068091BB00F0E0EE5CF94F87
:10123000808390915306809152066EC0E0915306D0
:1012400081E08E0F809353068091BB00F0E0EE5C4E
:10125000F94F80838091920281116DC081E080936B
:10126000910284EA61C083E0809393021092300679
:10127000CFCF80913006803208F051C0E091300627
:1012800081E08E0F809330068091BB00F0E0E05F3C
:10129000F94F8083BDCF85EC8093BC001092930200
:1012A00080913006803230F4E0913006F0E0E05F6B
:1012B000F94F10826091300670E0E0918F02F0915A
:1012C000900280E196E019951092300636C084E0D5
:1012D0008093930210920F0610920E06E0918D02F9
:1012E000F0918E02199580910E06811105C081E062
:1012F00080930E061092EE05E0910F0681E08E0FAE
:1013000080930F06F0E0E251FA4F80818093BB009A
:1013100090910F0680910E06981708F479CF85E812
:101320008093BC000AC085EC8093BC0010929302AD
:1013300004C0109254060E943807FF91EF91BF91AC
:10134000AF919F918F917F916F915F914F913F915D
:101350002F910F900BBE0F900FBE0F901F901895FE
:101360001F920F920FB60F9211240F900FBE0F9085
:101370001F90189590E0FC013197E231F10508F0DB
:101380004EC08827EE58FF4F8F4F0C946F128091FC
:1013900080008F7703C0809180008F7D80938000D4
:1013A000089580918000877FF9CF84B58F7702C040
:1013B00084B58F7D84BD08958091B0008F7703C080
:1013C0008091B0008F7D8093B0000895809190004F
:1013D0008F7707C0809190008F7D03C0809190002F
:1013E000877F8093900008958091A0008F7707C039
:1013F0008091A0008F7D03C08091A000877F8093A3
:10140000A0000895809120018F7707C0809120016E
:101410008F7D03C080912001877F809320010895F4
:101420001F93CF93DF93282F30E0F901E750FD4F52
:101430008491F901ED54FD4FD491F901E359FD4F29
:10144000C491CC23C1F0162F81110E94BA09EC2F50
:10145000F0E0EE0FFF1FED5AFD4FA591B4919FB73D
:10146000F894111104C08C91D095D82302C0EC914E
:10147000DE2BDC939FBFDF91CF911F910895CF9317
:10148000DF9390E0FC01ED54FD4F2491FC01E35902
:10149000FD4F8491882361F190E0880F991FFC0132
:1014A000E75CFD4FC591D491FC01ED5AFD4FA5912C
:1014B000B491611109C09FB7F89488812095822367
:1014C0008883EC912E230BC0623061F49FB7F894AF
:1014D0008881322F309583238883EC912E2B2C9397
:1014E0009FBF06C08FB7F894E8812E2B28838FBF4B
:1014F000DF91CF9108958F929F92AF92BF92CF923A
:10150000DF92EF92FF926B017C010E944D034B0131
:101510005C01C114D104E104F104F1F00E944D0317
:10152000DC01CB0188199909AA09BB09883E9340BF
:10153000A105B10570F321E0C21AD108E108F10854
:1015400088EE880E83E0981EA11CB11CC114D10442
:10155000E104F10419F7DDCFFF90EF90DF90CF9019
:10156000BF90AF909F908F900895CF93DF93CDB7AA
:10157000DEB7E2970FB6F894DEBF0FBECDBF78940A
:1015800084B5826084BD84B5816084BD85B5826088
:1015900085BD85B5816085BD80916E008160809339
:1015A0006E001092810080918100826080938100A2
:1015B00080918100816080938100809180008160B2
:1015C000809380008091B10084608093B10080910D
:1015D000B00081608093B000809191008260809320
:1015E00091008091910081608093910080919000A2
:1015F0008160809390008091A10082608093A1001F
:101600008091A10081608093A1008091A000816001
:101610008093A000809121018260809321018091BC
:10162000210181608093210180912001816080935C
:10163000200180917A00846080937A0080917A0002
:10164000826080937A0080917A00816080937A0032
:1016500080917A00806880937A001092C100E091B6
:10166000EC03F091ED0382E08083E091E803F091D8
:10167000E9031082E091EA03F091EB038FEC8083A1
:101680001092F403E091F003F091F10386E080837F
:10169000E091EE03F091EF03808180618083E0911F
:1016A000EE03F091EF03808188608083E091EE0388
:1016B000F091EF03808180688083E091EE03F091E8
:1016C000EF0380818F7D808361E0809190050E948F
:1016D0003F0A60E0809190050E94100A60E08091CE
:1016E0008F050E943F0A86E992E090939A058093C5
:1016F000990510928C0210928B0210929402109213
:1017000095021092930281E08093920210929102CE
:1017100061E084E10E94100A61E085E10E94100A04
:101720008091B9008E7F8093B9008091B9008D7F40
:101730008093B90088E48093B80085E48093BC006E
:101740008AE697E090938E0280938D028BE697E075
:101750009093900280938F0280E090E1A0E0B0E04F
:1017600080939C0590939D05A0939E05B0939F0543
:101770008AE090E0A0E0B0E08093A0059093A105FE
:10178000A093A205B093A30580E090E0A0E0B0E4B0
:101790008093A4059093A505A093A605B093A705F3
:1017A00060E070E185E00E9406086FE979E380E07F
:1017B0000E940608BFE8EB2EB5E0FB2E6701312C36
:1017C00082EA482E82E0582E98EE692E92E0792E19
:1017D0002BECA22E27E0B22E3BE8832E9924939483
:1017E000D60114969C91149712968C91F701818FD3
:1017F000928F61E00E943F0A61E0D7015A968C9176
:101800000E943F0AF60190858681D7015D968C93F0
:101810005D975E969C9361E00E943F0A60E0F7014D
:10182000868D0E943F0A61E0D7015D968C910E94EF
:10183000100A2FB6F89480918102811125C0F2011F
:101840008491F3019491E82FF0E0EE0FFF1FE75C25
:10185000FD4FA591B4918C91982321F461E085E32B
:101860000E94100A61E085E30E943F0A8CB5806106
:101870008CBD8CB580648CBD61E084E30E943F0A1E
:1018800061E083E30E943F0A809181028F5F809331
:1018900081022FBEC5010197F1F760E0D7015D9687
:1018A0008C910E94100A88E80E941B0383E00E942A
:1018B0001B0361E0F701858D0E94100AC5010197A5
:1018C000F1F760E0D7015D968C910E94100A88E9DB
:1018D0000E941B0380E00E941B0380E00E941B0308
:1018E00080E00E941B0380E00E941B0361E0F7017F
:1018F000858D0E94100AC4010197F1F760E0D701BD
:101900005D968C910E94100A80EE0E941B0361E09C
:10191000F701858D0E94100A3394FFEFCF1ADF0A7A
:1019200022E0E20EF11C82E038125ACF74EBC72E8F
:1019300075E0D72EE8EBEE2EE5E0FE2E60E0D60156
:101940008D916D010E943F0AB8EBCB16B5E0DB0626
:10195000A9F720EBC22E25E0D22E3AEBA32E35E0DC
:10196000B32E45E0942E5CE0752E62E0862EF701E2
:1019700061907F0187818C3008F048C061E0862D3E
:101980000E943F0AD70117968C91989EF00111246E
:10199000E55BFA4F962D9F732081207C622E692A89
:1019A000608213821482672D0E946312BCE08B9FB9
:1019B000A001112420E030E0BA01620F731F969E4F
:1019C000F001979EF00D1124E55BFA4F908196FD92
:1019D00012C02F5F3F4F2C30310571F781110BC0C2
:1019E00010928000809281001092850010928400F5
:1019F00086BA80926F00D7011796EC919E9EF001F7
:101A00001124E55BFA4F808180648083F701958122
:101A10008381D60152968C93529753969C9360E0A3
:101A20000E943F0A61E0F60183890E943F0A60E05C
:101A3000D60153968C910E94100AB2E0CB0ED11CB5
:101A4000AE14BF0409F093CFF8941092200189E0FE
:101A50008093210180E293E09093290180932801F3
:101A6000109225011092240182E0809373007894F3
:101A70008093790410927D0480917A0460E00E9442
:101A80003F0A8AE0482E512C612C712C1E01E3E3A1
:101A90002E0E311CCC24CA9493E0D92EE12CF12CCB
:101AA0006AE070E080E090E00E947B0A60ED77E001
:101AB00080E090E00E947B0ACE0101965C0180915B
:101AC000C6059091C705853058F080E492E00E94E9
:101AD000F4078FE492E00E94F40780E090E029C0D0
:101AE0009927FC01E055FA4F8081863308F0865330
:101AF00090917B00282F2870977F922B90937B00EA
:101B00002091010290E4299F900111248770822B7B
:101B100080937C0080917A00806480937A00809129
:101B20007A0086FDFCCF809178002091790090E0CA
:101B3000922BD5018D939D935D012A163B0609F0EA
:101B4000BECF88E190E0FE01319620E030E0A1E0D8
:101B5000281739078CF461917191408151814617A2
:101B600057073CF4DF0112974D935C9371836083B8
:101B7000A0E02F5F3F4FECCFA11102C0019719F7F2
:101B80008091C8059091C905A091CA05B091CB0577
:101B90008833E4E09E07A105B105F9F4A98DBA8D5B
:101BA00028E833E10E947712A70196010E941312E0
:101BB000CA01B9010E94F61020E030E04AE754E47F
:101BC0000E94EB122DED34E246E95FEB0E94981380
:101BD0002DE637EE4FEE51E449C0863BFEE49F0709
:101BE000A105B105F9F4A98DBA8D28E833E10E9469
:101BF0007712A70196010E941312CA01B9010E942F
:101C0000F61020E030E04AE754E40E94EB1221EEA7
:101C10003AE744E95FEB0E9498132AEF3EE741E779
:101C200052E424C08E3A21E09207A105B10509F5DE
:101C3000A98DBA8D28E833E10E947712A701960199
:101C40000E941312CA01B9010E94F61020E030E090
:101C50004AE754E40E94EB122BE83CE647E85FEBCE
:101C60000E9498132EEA37E441E451E40E94551192
:101C700044C084399848A140B10509F044C0A98DF9
:101C8000BA8D28E833E10E947712A70196010E94DD
:101C90001312CA01B9010E94F6104B015C0120E049
:101CA00030E04FEA54E40E94EF1087FD2AC020E0A4
:101CB00030E44EE455E4C501B4010E9493131816B4
:101CC00004F120E030EA4CE854E4C501B4010E947C
:101CD0007E1220E030E04AE754E40E94EB1220E05C
:101CE00030E849E053E40E94EB129B01AC0160E054
:101CF00070E080E89FE30E94EB120E945D138B016D
:101D000002C000E010E082E592E00E94F407480182
:101D1000012E000CAA08BB08B7FE20C06DE28CEDB6
:101D200093E00E947C0222273327A9012819390950
:101D30004A095B0919A2CE0181965C01CA01B90169
:101D4000A30192010E943212605DD5016E935D0184
:101D5000211531054105510589F715C0A5019401EB
:101D600019A2FE01B1965F01CA01B901A301920156
:101D70000E943212605DD5016E935D01211531051F
:101D80004105510589F7C5010E94F4078FE492E0EF
:101D90000E94F4070E94EE0283CE80918805909104
:101DA00089050C94B515CF92DF92EF92FF921092B5
:101DB00099021092980288EE93E0A0E0B0E0809340
:101DC0009A0290939B02A0939C02B0939D0224E1FF
:101DD00032E030939702209396021092A50210925F
:101DE000A4028093A6029093A702A093A802B093A6
:101DF000A90226E232E03093A3022093A20245E337
:101E000051E05093AF024093AE0244E351E050934F
:101E1000B1024093B00240E351E05093B3024093CB
:101E2000B20241E351E05093B5024093B40242E361
:101E300051E05093B7024093B60246E351E050930D
:101E4000B9024093B8021092BB021092BC021092E9
:101E5000BD021092BE021092420310924103809381
:101E6000430390934403A0934503B09346033093F8
:101E7000400320933F0345ED50E050934C034093C3
:101E80004B0344ED50E050934E0340934D0340ED1F
:101E900050E05093500340934F0341ED50E0509376
:101EA00052034093510342ED50E05093540340934A
:101EB000530346ED50E05093560340935503109260
:101EC00058031092590310925A0310925B03109218
:101ED000DF031092DE038093E0039093E103A0936D
:101EE000E203B093E3033093DD032093DC0385EC3E
:101EF00090E09093E9038093E80384EC90E0909362
:101F0000EB038093EA0380EC90E09093ED038093E1
:101F1000EC0381EC90E09093EF038093EE0382EC6E
:101F200090E09093F1038093F00386EC90E090931F
:101F3000F3038093F2031092F5031092F6031092CC
:101F4000F7031092F8038091080290910902A09182
:101F50000A02B0910B028093B0059093B105A09353
:101F6000B205B093B30580910C0290910D02A0913F
:101F70000E02B0910F028093B4059093B505A09323
:101F8000B605B093B70584E08093B80587E08093E9
:101F9000B9051092BA0584EB8093BB0586E1809366
:101FA000BC0588E18093BD0587E18093BE0589E18A
:101FB0008093BF05E0918705EC3020F08FEF809390
:101FC000C00510C081E08E0F80938705E093C005A7
:101FD00085E0E89FF0011124E55BFA4F88EB9BE078
:101FE00092838183E0918705EC3020F08FEF80931E
:101FF000C10510C081E08E0F80938705E093C10575
:1020000085E0E89FF0011124E55BFA4F88EB9BE047
:10201000928381838CE080938F0584E28093900586
:1020200086E08093910585E0809392058FE180930F
:1020300093058EE18093940583E28093950582E277
:102040008093960585E48093970584E480939805B2
:1020500080E480939B051092A0051092A105109238
:10206000A2051092A3051092A4051092A505109246
:10207000A6051092A705EBE7F6E029E337E08FEF1E
:102080009FEFDC011282138214821582168217825E
:102090001086118683879487A587B6878787908B5C
:1020A000A18BB28B12861182108273962E173F0776
:1020B00049F78DE090E00E941D15FC011382128209
:1020C00088E392E091838083118687E2848384E1B0
:1020D000828784E083871486F0937806E0937706FE
:1020E0001092790610927A0685E280937A04109213
:1020F0007C04109289051092880510928B0510922D
:102100008A0510928D0510928C0561E070E080E0E8
:1021100090E00E943E16009791F09093890580937D
:10212000880510928B0510928A0520918C053091BC
:102130008D05232B09F046C0FC01108243C080911D
:10214000880590918905009711F00E94B5151092AD
:1021500089051092880510928D0510928C051092B9
:102160008B0510928A0581E090E09093C7058093DB
:10217000C60598E3C92E94E0D92EE12CF12CC0922B
:10218000C805D092C905E092CA05F092CB0560E07F
:102190000E943F0A81E08093010282E090E09093E8
:1021A0003A0780933907C0923B07D0923C07E092F0
:1021B0003D07F0923E0760E0FF90EF90DF90CF90F8
:1021C0000C943F0A10928D0510928C0561E572E027
:1021D00080918805909189050E943117C4CF0E9493
:1021E000311108F481E00895E89409C097FB3EF4AA
:1021F00090958095709561957F4F8F4F9F4F992354
:10220000A9F0F92F96E9BB279395F69587957795D1
:102210006795B795F111F8CFFAF4BB0F11F460FF91
:102220001BC06F5F7F4F8F4F9F4F16C0882311F0E9
:1022300096E911C0772321F09EE8872F762F05C0FD
:10224000662371F096E8862F70E060E02AF09A9598
:10225000660F771F881FDAF7880F9695879597F98D
:102260000895990F0008550FAA0BE0E8FEEF161627
:102270001706E807F907C0F012161306E407F5077A
:1022800098F0621B730B840B950B39F40A2661F0EE
:10229000232B242B252B21F408950A2609F4A14091
:1022A000A6958FEF811D811D08950E9468110C94E1
:1022B000D9110E94CB1138F00E94D21120F0952341
:1022C00011F00C94C2110C94C81111240C940D122D
:1022D0000E94EA1170F3959FC1F3950F50E0551FCE
:1022E000629FF001729FBB27F00DB11D639FAA276B
:1022F000F00DB11DAA1F649F6627B00DA11D661FBA
:10230000829F2227B00DA11D621F739FB00DA11DDA
:10231000621F839FA00D611D221F749F3327A00D94
:10232000611D231F849F600D211D822F762F6A2F30
:1023300011249F5750409AF0F1F088234AF0EE0F95
:10234000FF1FBB1F661F771F881F91505040A9F7C2
:102350009E3F510580F00C94C2110C940D125F3F0A
:10236000E4F3983ED4F3869577956795B795F795FE
:10237000E7959F5FC1F7FE2B880F911D9695879576
:1023800097F9089597F99F6780E870E060E00895F5
:102390009FEF80EC089500240A941616170618067D
:1023A0000906089500240A94121613061406050659
:1023B0000895092E0394000C11F4882352F0BB0FEA
:1023C00040F4BF2B11F460FF04C06F5F7F4F8F4F4D
:1023D0009F4F089557FD9058440F551F59F05F3F88
:1023E00071F04795880F97FB991F61F09F3F79F037
:1023F00087950895121613061406551FF2CF4695B9
:10240000F1DF08C0161617061806991FF1CF86953A
:102410007105610508940895E894BB27662777271E
:10242000CB0197F90895052E97FB1EF400940E94A6
:102430002A1257FD07D00E94321207FC03D04EF437
:102440000C942A1250954095309521953F4F4F4F4F
:102450005F4F089590958095709561957F4F8F4F50
:102460009F4F0895A1E21A2EAA1BBB1BFD010DC0B0
:10247000AA1FBB1FEE1FFF1FA217B307E407F50734
:1024800020F0A21BB30BE40BF50B661F771F881F10
:10249000991F1A9469F760957095809590959B01A6
:1024A000AC01BD01CF010895A29FB001B39FC0014F
:1024B000A39F700D811D1124911DB29F700D811D70
:1024C0001124911D0895991B79E004C0991F961756
:1024D00008F0961B881F7A95C9F780950895EE0F2E
:1024E000FF1F881F8BBF0790F691E02D19940E9463
:1024F0005412B7FF0895821B930B08955058BB27C1
:10250000AA270E9496120C94D9110E94CB1138F080
:102510000E94D21120F039F49F3F19F426F40C9454
:10252000C8110EF4E095E7FB0C94C211E92F0E944C
:10253000EA1158F3BA17620773078407950720F06A
:1025400079F4A6F50C940C120EF4E0950B2EBA2F2C
:10255000A02D0B01B90190010C01CA01A0011124A9
:10256000FF27591B99F0593F50F4503E68F11A1655
:10257000F040A22F232F342F4427585FF3CF4695E6
:1025800037952795A795F0405395C9F77EF41F1608
:10259000BA0B620B730B840BBAF09150A1F0FF0FD2
:1025A000BB1F661F771F881FC2F70EC0BA0F621FBE
:1025B000731F841F48F4879577956795B795F795AE
:1025C0009E3F08F0B0CF9395880F08F09927EE0F43
:1025D0009795879508950E94FF120C94D9110E9437
:1025E000D21158F00E94CB1140F029F45F3F29F03E
:1025F0000C94C21151110C940D120C94C8110E942C
:10260000EA1168F39923B1F3552391F3951B550B08
:10261000BB27AA2762177307840738F09F5F5F4FB5
:10262000220F331F441FAA1FA9F335D00E2E3AF0F4
:10263000E0E832D091505040E695001CCAF72BD00C
:10264000FE2F29D0660F771F881FBB1F261737075D
:102650004807AB07B0E809F0BB0B802DBF01FF278F
:1026600093585F4F3AF09E3F510578F00C94C21199
:102670000C940D125F3FE4F3983ED4F38695779562
:102680006795B795F7959F5FC9F7880F911D969548
:10269000879597F90895E1E0660F771F881FBB1FA4
:1026A000621773078407BA0720F0621B730B840B51
:1026B000BA0BEE1F88F7E09508950E9464136894A2
:1026C000B1110C940D1208950E94F21188F09F57D9
:1026D00098F0B92F9927B751B0F0E1F0660F771F46
:1026E000881F991F1AF0BA95C9F714C0B13091F03C
:1026F0000E940C12B1E008950C940C12672F782FF1
:102700008827B85F39F0B93FCCF386957795679500
:10271000B395D9F73EF490958095709561957F4F6C
:102720008F4F9F4F08950E94311108F48FEF089545
:10273000FA01EE0FFF1F309621053105A1F1611559
:10274000710561F48038BFE39B0749F168949038C4
:10275000810561F08038BFEF9B0741F099234AF56E
:10276000FF3FE1053105210519F1E8940894E7954B
:10277000D901AA2329F4AB2FBE2FF85FD0F310C0E4
:10278000FF5F70F4A695E0F7F73950F019F0FF3AC3
:1027900038F49F779F930DD00F9007FC90580895C1
:1027A00046F00C94C81160E070E080E89FE3089563
:1027B0004FE79F775F934F933F932F930E9493141C
:1027C0002F913F914F915F910E9455110C94F013FE
:1027D00029F416F00C94C2110C940C120C94C8112C
:1027E0000E94F211A8F39638A0F707F80F92E89428
:1027F0002BE33AEA48EB5FE70E946B110F920F92CE
:102800000F924DB75EB70F920E94DB14E8E0F1E043
:102810000E9422144F915F91EF91FF91E595EE1F79
:10282000FF1F49F0FE57E0684427EE0F441FFA955A
:10283000E1F74195550B0E9455140F9007FE0C943B
:1028400049140895DF93CF931F930F93FF92EF9254
:10285000DF927B018C01689406C0DA2EEF010E94A2
:102860006811FE01E894A591259135914591559106
:10287000A6F3EF010E949612FE019701A801DA94D7
:1028800069F7DF90EF90FF900F911F91CF91DF914B
:1028900008959B01AC0160E070E080E89FE30C9438
:1028A000EB120C94C2110C940F150E94F211D8F384
:1028B0009923C9F3940F511DA3F39150504094F004
:1028C00059F0882332F0660F771F881F91505040CF
:1028D000C1F79E3F51052CF7880F911D969587955E
:1028E00097F908955F3FACF0983E9CF0BB27869522
:1028F00077956795B79508F4B1609395C1F7BB0FCD
:1029000058F711F460FFE8CF6F5F7F4F8F4F9F4FF5
:10291000E3CF0C940D1216F00C940F150C94C81103
:1029200068940C94C2110E94F211A8F39923C1F388
:10293000AEF3DF93CF931F930F93FF92C92FDD2741
:1029400088232AF02197660F771F881FDAF720E087
:1029500030E040E85FEB9FE3883920F0803E38F0BC
:1029600021968F770E947F12E0E3F1E004C00E947D
:102970007F12EDE5F1E00E9422148B01BE01EC0113
:10298000FB2E6F5771097595771F880B990B0E9465
:10299000F61028E132E741E35FE30E946811AF2DB2
:1029A0009801AE01FF900F911F91CF91DF910E948E
:1029B00096120C94D911FA01DC01AA0FBB1F9B01DE
:1029C000AC01BF5728F4222733274427507820C072
:1029D000B75190F4AB2F0024469537952795011CED
:1029E000A395D2F3002071F0220F331F441FB3953B
:1029F000DAF30ED00C947E1261307105A0E88A07DC
:102A0000B94630F49B01AC01662777278827907878
:102A1000309621F0208331834283538308959F3F72
:102A200031F0915020F4879577956795B795880F89
:102A3000911D9695879597F908950F931F93CF93BE
:102A4000DF938230910510F482E090E0E09141073D
:102A5000F091420720E030E0A0E0B0E0309719F1BB
:102A6000408151810281138148175907C8F08417AA
:102A7000950769F4109731F012960C9312971396FC
:102A80001C9327C0009341071093420722C02115D1
:102A9000310519F04217530718F49A01BD01EF01EF
:102AA000DF01F801DBCF21153105F9F0281B390BC7
:102AB0002430310580F48A819B816115710521F0F4
:102AC000FB019383828304C0909342078093410764
:102AD000FE01329644C0FE01E20FF31F81939193F1
:102AE00022503109398328833AC020913F07309121
:102AF0004007232B41F420910402309105023093CA
:102B0000400720933F0720910202309103022115D4
:102B1000310541F42DB73EB74091060250910702AE
:102B2000241B350BE0913F07F0914007E217F307B4
:102B3000A0F42E1B3F0B2817390778F0AC014E5F2D
:102B40005F4F2417350748F04E0F5F1F5093400723
:102B500040933F078193919302C0E0E0F0E0CF0102
:102B6000DF91CF911F910F910895CF93DF9300973D
:102B700009F481C0FC01329713821282A0914107AF
:102B8000B0914207109781F420813181820F931F09
:102B900020913F07309140072817390751F5F093EE
:102BA0004007E0933F0767C0ED0120E030E0CE171B
:102BB000DF0740F44A815B819E0141155105F1F028
:102BC000EA01F5CFD383C28340815181840F951FE1
:102BD000C817D90759F488819981840F951F0296E7
:102BE000918380838A819B81938382832115310520
:102BF00029F4F0934207E09341073DC0E901FB83CC
:102C0000EA8349915991C40FD51FEC17FD0761F470
:102C100080819181840F951F0296E90199838883B1
:102C2000828193819B838A83E0E0F0E012968D910C
:102C30009C911397009719F0FD01DC01F7CF8D915E
:102C40009C9111979D012E5F3F4F820F931F209102
:102C50003F07309140072817390769F4309729F466
:102C6000109242071092410702C013821282B09361
:102C70004007A0933F07DF91CF9108956F927F9215
:102C80008F929F92AF92BF92CF92DF92EF92FF927C
:102C90000F931F93CF93DF93009789F4CB01DF91BC
:102CA000CF911F910F91FF90EF90DF90CF90BF9049
:102CB000AF909F908F907F906F900C941D15FC01AA
:102CC000E60FF71F9C0122503109E217F30708F4C1
:102CD000A9C0EC01D9010D911C9111970617170796
:102CE000B0F00530110508F49BC0C80104978617A1
:102CF000970708F495C002501109061B170B0193A2
:102D000011936D937C93CF010E94B51589C05B012F
:102D1000A01AB10A4C01800E911EA0914107B091FA
:102D20004207612C712CE12CF12C109709F446C05C
:102D30008D919C911197A815B905B1F56C0142E0F0
:102D4000C40ED11CCA14DB0478F14C018A189B080C
:102D5000640142E0C40ED11C1296BC9012971396E7
:102D6000AC91B5E0CB16D10440F0B282A38391823E
:102D70008082D9016D937C9309C00E5F1F4F800F35
:102D8000911FF90191838083EB2DFA2FE114F10457
:102D900031F0D7011396FC93EE93129741C0F09354
:102DA0004207E09341073CC06816790608F43C01ED
:102DB0007D0112960D90BC91A02DB7CF80913F0759
:102DC0009091400788169906E1F466167706C8F4D4
:102DD0008091020290910302009741F48DB79EB753
:102DE0004091060250910702841B950BE817F907E2
:102DF000C8F4F0934007E0933F07F90171836083C3
:102E00000FC0CB010E941D157C01009759F0A8014D
:102E1000BE010E942817CE010E94B515C70104C04B
:102E2000CE0102C080E090E0DF91CF911F910F9121
:102E3000FF90EF90DF90CF90BF90AF909F908F90DA
:102E40007F906F90089581E090E0F8940C9438178B
:102E5000FB01DC0102C001900D9241505040D8F7B7
:102E60000895FB01DC0101900D920020E1F7089527
:102E700011E0C1EAD1E000E006C0802FFE010E940F
:102E80006F122196011DC23AD10780E00807A9F709
:042E9000F894FFCFE4
:102E9400FF01000043072000363738391B1D1A1C78
:102EA40000000000C507980723036C0790077C0700
:102EB4006D07000000007C02D501FF01C902300249
:102EC4000E022202000000002803D501230322037E
:102ED400496E76616C696420495220696421000D51
:102EE4000A004D65616E2064697374616E63653AAE
:022EF4002000BC
:00000001FF
