:100000000C94D6010C9407020C9407020C9407027E
:100010000C9407020C9407020C9407020C9407023C
:100020000C9407020C94D90D0C94D90D0C94D90D95
:100030000C9407020C9478030C9407020C940702AA
:100040000C9407020C94DA080C9407020C94070233
:100050000C9407020C9407020C9407020C941010E5
:100060000C9407020C94E7040C94BD040C94070252
:100070000C9407020C9407020C9407020C940702DC
:100080000C9407020C9407020C9407020C940702CC
:100090000C9407020C9407020C9407020C94E30DD5
:1000A0000C9407020C9407020C9407020C940702AC
:1000B0000C9407020C9407020C9407020C944A0655
:1000C0000C9407020C9407020C9407020C949304FE
:1000D0000C9469040C9407020C943F040C941504CE
:1000E0000C9407028A078F0794079E07A807210828
:1000F000B207BA07C207CC07D607E007EF07F90730
:10010000210803080D081708300F330F220F260FA0
:100110002C0F6A0F370F3B0F410F450F490F4F0F41
:10012000530F570F6A0F5D0F610F650F076342365C
:10013000B79BD8A71A39685618AEBAAB558C1D3C78
:10014000B7CC5763BD6DEDFD753EF6177231BF003C
:100150000000803F08000000BE922449123EABAA76
:10016000AA2ABECDCCCC4C3E00000080BEABAAAAD1
:10017000AA3E00000000BF000000803F0000000019
:1001800000084178D3BB4387D1133D190E3CC3BD52
:100190004282AD2B3E68EC8276BED98FE1A93E4CFF
:1001A00080EFFFBE01C4FF7F3F00000000000C9401
:1001B000650F0C944F030C946A0F0C9433020C944B
:1001C0002B0D0C9442020C94850D0C94300F0C9462
:1001D00053030C94EF070C94570F0C943B0F0C94A3
:1001E0003C0D0C942D0D0C9409020C940D080C94EC
:1001F0005D0F0C9450030C9421080C94450F0C9443
:10020000260F0C94580D0C94B2070C94B0020C9469
:100210008A070C94500D0C94490F0C94BA070C9457
:100220004F0F0C94220F0C9464020C9403080C944E
:100230002C0D0C94F9070C94FD020C948F070C9470
:10024000A8070C9417080C94CC070C94610F0C941D
:10025000530F0C94370F0C94330F0C94E0070C944D
:10026000D6070C942A0D0C9412150C9494070C9438
:1002700056020C949E070C94410F0C94C2070C94E8
:100280002C0F0C945A100000200023002600290097
:100290002C002F00320000010000030106010901BB
:1002A0000200002100240027002A002D0030003326
:1002B0000001010000040107010A010000220025DD
:1002C0000028002B002E0031003400020100000540
:1002D0000108010B010505050507050808080802C6
:1002E0000202020A0A0808040404040101010101CF
:1002F0000101010303030303030303040707070CBE
:100300000C0C0C0C0C0C0C02020202060606060673
:100310000606060B0B0B0B0B0B0B0B010210202020
:100320000808102040102040800201020108040249
:1003300001010204081020408080402010080402BF
:100340000180040201804020100804020108040218
:10035000010102040810204080010204081020401E
:100360008000000A0B02090C0D0E080703040100AF
:10037000000000000000000000000000000000007D
:10038000000000000000000000000000001211103A
:10039000000000000000000000000000000000005D
:1003A000000000000000000012155A1011241FBEAA
:1003B000CFEFD1E2DEBFCDBF00E00CBF12E0A0E086
:1003C000B2E0E2E1FBE300E00BBF02C007900D9258
:1003D000A635B107D9F727E0A6E5B2E001C01D9226
:1003E000A733B207E1F711E0C5EDD1E000E006C0A8
:1003F00021970109802FFE010E94AE18C43DD1074C
:1004000080E00807A9F70E9460100C94771D0C94F7
:100410000000CF92DF92EF92FF920F931F93CF9342
:10042000DF936C017A018B01C0E0D0E0CE15DF05CF
:1004300081F0D8016D918D01D601ED91FC91019073
:10044000F081E02DC6011995892B11F02196EECF90
:100450007E01C701DF91CF911F910F91FF90EF9027
:10046000DF90CF900895FC01538D448D252F30E00F
:10047000842F90E0821B930B541710F0CF960895B1
:1004800001970895FC01918D828D981761F0828DFE
:10049000DF01A80FB11D5D968C91928D9F5F9F73B8
:1004A000928F90E008958FEF9FEF0895FC01918D5A
:1004B000828D981731F0828DE80FF11D858D90E0C7
:1004C00008958FEF9FEF0895FC01918D228D892F64
:1004D00090E0805C9F4F821B91098F73992708954C
:1004E0008CEC92E00E94640221E0892B09F420E068
:1004F000822F089589E693E00E94640221E0892B0F
:1005000009F420E0822F089586E094E00E946402BE
:1005100021E0892B09F420E0822F0895FC01848DCD
:10052000DF01A80FB11DA35ABF4F2C91848D90E01D
:1005300001968F739927848FA689B7892C93A089F8
:10054000B1898C91837080648C93938D848D981382
:1005500006C00288F389E02D80818F7D8083089515
:10056000EF92FF920F931F93CF93DF93EC0181E003
:10057000888F9B8D8C8D981305C0E889F9898081BF
:1005800085FD26C0F62E0B8D10E00F5F1F4F0F73F9
:100590001127E02E8C8DE8120CC00FB607FCFACFA5
:1005A000E889F989808185FFF5CFCE010E948E020E
:1005B000F1CF8B8DFE01E80FF11DE35AFF4FF08262
:1005C0009FB7F8940B8FEA89FB89808180620AC00B
:1005D0009FB7F894EE89FF896083E889F989808163
:1005E0008370806480839FBF81E090E0DF91CF9132
:1005F0001F910F91FF90EF900895CF93DF93EC013F
:10060000888D8823C9F0EA89FB89808185FD05C032
:10061000A889B9898C9186FD0FC00FB607FCF5CF6C
:10062000808185FFF2CFA889B9898C9185FFEDCFB4
:10063000CE010E948E02E7CFDF91CF910895E0E0D6
:10064000F0E0199480E090E0892B21F00E94840270
:10065000811119C080E090E0892B41F080E090E0AA
:10066000892B21F00E940000811110C00E947A02A3
:1006700081110FC080E090E0892B81F00E94700210
:1006800081110AC008950E940000E4CF0E9400007A
:10069000EDCF0E941F03EECF0C9400000895089543
:1006A00080E090E008950F931F93CF93DF938C0128
:1006B000C62FD62FD07FD1606D2F0E94B70C6D2F23
:1006C000C8010E94CA0C80E1C89FB0011124C62F46
:1006D000C1606C2FC8010E94B70C6C2FC8010E942A
:1006E000CA0C81E090E0DF91CF911F910F910895A6
:1006F0001F920F920FB60F9211240BB60F922F93E9
:100700003F934F935F936F937F938F939F93AF9399
:10071000BF93EF93FF938091710290917202A09129
:100720007302B0917402892B8A2B8B2B49F1909123
:1007300070028091000089278093000080917102EF
:1007400090917202A0917302B0917402181619066A
:100750001A061B060CF056C080917102909172022D
:10076000A0917302B09174020197A109B10980931D
:10077000710290937202A0937302B093740242C00C
:1007800080910002E0EAF2E0E4919FEF9093000292
:10079000E230C9F050F4EE2399F0E13081F5909108
:1007A0006F009D7F90936F002AC0E43019F1E0F054
:1007B000E53029F5909173009D7F909373001FC0E1
:1007C00010926E001CC0909170009D7F90937000FD
:1007D00091E09093B0009091B100987F94609093D5
:1007E000B1001092B3000BC0909171009D7F909367
:1007F000710005C0909172009D7F9093720060E03F
:100800000E946B0FFF91EF91BF91AF919F918F91DC
:100810007F916F915F914F913F912F910F900BBE00
:100820000F900FBE0F901F9018951F920F920FB64A
:100830000F9211240BB60F922F933F934F935F9318
:100840006F937F938F939F93AF93BF93EF93FF9398
:100850008CEC92E00E948E02FF91EF91BF91AF91DC
:100860009F918F917F916F915F914F913F912F91C8
:100870000F900BBE0F900FBE0F901F9018951F92F8
:100880000F920FB60F9211240BB60F922F933F9336
:100890004F935F936F937F938F939F93AF93BF9388
:1008A000EF93FF938CEC92E00E94DF0CFF91EF91AD
:1008B000BF91AF919F918F917F916F915F914F9178
:1008C0003F912F910F900BBE0F900FBE0F901F9076
:1008D00018951F920F920FB60F9211240BB60F921C
:1008E0002F933F934F935F936F937F938F939F9338
:1008F000AF93BF93EF93FF9389E693E00E948E023C
:10090000FF91EF91BF91AF919F918F917F916F91E7
:100910005F914F913F912F910F900BBE0F900FBEA3
:100920000F901F9018951F920F920FB60F921124DF
:100930000BB60F922F933F934F935F936F937F93D9
:100940008F939F93AF93BF93EF93FF9389E693E0C9
:100950000E94DF0CFF91EF91BF91AF919F918F911A
:100960007F916F915F914F913F912F910F900BBEAF
:100970000F900FBE0F901F9018951F920F920FB6F9
:100980000F9211240BB60F922F933F934F935F93C7
:100990006F937F938F939F93AF93BF93EF93FF9347
:1009A00086E094E00E948E02FF91EF91BF91AF919B
:1009B0009F918F917F916F915F914F913F912F9177
:1009C0000F900BBE0F900FBE0F901F9018951F92A7
:1009D0000F920FB60F9211240BB60F922F933F93E5
:1009E0004F935F936F937F938F939F93AF93BF9337
:1009F000EF93FF9386E094E00E94DF0CFF91EF916C
:100A0000BF91AF919F918F917F916F915F914F9126
:100A10003F912F910F900BBE0F900FBE0F901F9024
:100A20001895CF92DF92EF92FF920F931F93CF937F
:100A3000DF93CDB7DEB7E2970FB6F894DEBF0FBEF7
:100A4000CDBF8C01AE014D5C5F4FFE013196D801E8
:100A50009C91963308F0965380917B00292F287043
:100A6000877F822B80937B0020910102B0E42B9F33
:100A7000900111249770922B90937C0080917A00C2
:100A8000806480937A0080917A0086FDFCCF20916B
:100A900078008091790030E0382B219331934E1704
:100AA0005F07A9F688E190E0FE01319620E030E092
:100AB00041E0281739079CF4E190F190C080D18083
:100AC000CE14DF044CF4AF0142505109DA01CD924B
:100AD000DC92F182E08240E02F5F3F4FEACF41118C
:100AE00002C0019709F7F80182819381A481B58141
:100AF0008833F4E09F07A105B10509F5A98DBA8DEA
:100B000028E833E10E94B6182FEF33E040E050E0D0
:100B10000E945218CA01B9010E94351720E030E046
:100B20004AE754E40E942A192DED34E246E95FEBCE
:100B30000E94D7192DE637EE4FEE51E44DC0863BAB
:100B40002EE49207A105B10509F5A98DBA8D28E813
:100B500033E10E94B6182FEF33E040E050E00E94EE
:100B60005218CA01B9010E94351720E030E04AE767
:100B700054E40E942A1921EE3AE744E95FEB0E940F
:100B8000D7192AEF3EE741E752E426C08E3AE1E06A
:100B90009E07A105B10519F5A98DBA8D28E833E1A5
:100BA0000E94B6182FEF33E040E050E00E94521848
:100BB000CA01B9010E94351720E030E04AE754E449
:100BC0000E942A192BE83CE647E85FEB0E94D71900
:100BD0002EEA37E441E451E40E94941746C0843978
:100BE0009848A140B10509F045C0A98DBA8D28E803
:100BF00033E10E94B6182FEF33E040E050E00E944E
:100C00005218CA01B9010E9435176B017C0120E01E
:100C100030E04FEA54E40E942E1787FD29C020E0FF
:100C200030E44EE455E4C701B6010E94D21918160B
:100C3000FCF020E030EA4CE854E4C701B6010E9421
:100C4000BD1820E030E04AE754E40E942A1920E071
:100C500030E849E053E40E942A199B01AC0160E0AE
:100C600070E080E89FE30E942A190E949C1902C04C
:100C700060E070E0CB01E2960FB6F894DEBF0FBEE5
:100C8000CDBFDF91CF911F910F91FF90EF90DF903B
:100C9000CF9008951F920F920FB60F9211240BB6AA
:100CA0000F922F933F934F935F936F937F938F9305
:100CB0009F93AF93BF93CF93DF93EF93FF932091D5
:100CC000A40430E0F901EF59FC4F8491F901E55E8D
:100CD000FC4FD491F901EB52FD4FC491CC2379F034
:100CE00081110E94150FEC2FF0E0EE0FFF1FEA5765
:100CF000FD4FA591B491EC91ED2381E009F480E0E2
:100D00002091A8043091A9042F5F3F4F3093A9048C
:100D10002093A8049091A704953618F096E090933C
:100D2000A3049091A3049430C9F128F4923069F09F
:100D30009330D1F05EC0953009F451C0963009F07F
:100D400058C091E09093740551C0811152C0209118
:100D5000A8043091A9042436310508F442C0109249
:100D600074051092A7041CC0813009F042C0E091C4
:100D7000A70491E09E0F9093A704F0E02091A804AF
:100D80003091A904EE0FFF1FED55FB4F30872783ED
:100D90001092A9041092A80494E029C0811117C0F0
:100DA000E091A70491E09E0F9093A704F0E02091BA
:100DB000A8043091A904EE0FFF1FED55FB4F3087BB
:100DC00027831092A9041092A80493E010C02091E8
:100DD000A8043091A9042536310558F007C08111C7
:100DE00008C01092A9041092A80403C095E0909343
:100DF000A3049091A6049923B9F081110AC08091AF
:100E0000A504882321F08091A50461E009C02F9AF0
:100E10000BC08091A504882331F08091A50460E087
:100E20000E946B0F01C02F98FF91EF91DF91CF913E
:100E3000BF91AF919F918F917F916F915F914F91F2
:100E40003F912F910F900BBE0F900FBE0F901F90F0
:100E500018958F929F92AF92BF92CF92DF92EF92AE
:100E6000FF920F931F93CF93DF938C016A017B0155
:100E700020E030E04FE753E4C701B6010E94941729
:100E80004B015C0120E030E0A9010E94D219181644
:100E90001CF4C501B40103C0C501B40190580E94FF
:100EA0009C19EB0120E030E0A901C701B6010E94C6
:100EB000D219181614F460E001C061E0F8018181D4
:100EC0000E946B0FCF3FD10509F014F4DD2702C05B
:100ED000CFEFD0E0F801108161E0812F0E949A0FDE
:100EE000209709F4B1C0CF3FD10509F4AFC0E12F7D
:100EF000F0E0EF59FC4FE4918E2F90E0FC01319728
:100F0000E231F10508F09DC08827EE58FF4F8F4F62
:100F10000C94AE1884B5806884BDC7BDA7C084B5E5
:100F2000806284BDC8BDA2C080918000806880932B
:100F30008000D0938900C093880098C08091800081
:100F4000806280938000D0938B00C0938A008EC013
:100F500080918000886080938000D0938D00C09342
:100F60008C0084C08091B00080688093B000C093F2
:100F7000B3007CC08091B00080628093B000C093C9
:100F8000B40074C080919000806880939000D093EA
:100F90009900C09398006AC080919000806280930D
:100FA0009000D0939B00C0939A0060C08091900005
:100FB000886080939000D0939D00C0939C0056C0A1
:100FC0008091A00080688093A0008091A0008F7B1A
:100FD0008093A000D093A900C093A80047C080913F
:100FE000A00080628093A000D093AB00C093AA00C1
:100FF0003DC08091A00088608093A000D093AD0098
:10100000C093AC0033C080912001806880932001A0
:10101000D0932901C093280129C0809120018062CA
:1010200080932001D0932B01C0932A011FC080918F
:101030002001886080932001D0932D01C0932C0162
:1010400015C0C038D10514F460E001C061E0812F03
:10105000DF91CF911F910F91FF90EF90DF90CF9094
:10106000BF90AF909F908F900C946B0FDF91CF91BA
:101070001F910F91FF90EF90DF90CF90BF90AF90B6
:101080009F908F9008958EBD00000DB407FEFDCF98
:101090008EB50895CF93DF93EC0160E088810E94C4
:1010A0006B0F88E90E94430880E00E94430880E0BB
:1010B0000E94430880E00E94430880E00E944308A9
:1010C00061E088810E946B0F8BE891E00197F1F756
:1010D00060E088810E946B0F80EE0E94430861E00F
:1010E0008881DF91CF910C946B0FAF92BF92CF921A
:1010F000DF92EF92FF920F931F93CF93DF93CDB7C1
:10110000DEB760970FB6F894DEBF0FBECDBF5C01AF
:1011100060E0FC0180810E946B0F80E60E94430822
:101120008E010F5F1F4F7E01F1E1EF0EF11C680190
:1011300080E00E94430890E0A0E0B0E0F6018193D7
:101140009193A193B1936F01EE15FF0589F761E0CB
:10115000F50180810E946B0F80E090E0DC01F801D6
:1011600041915191619171918F01BA2FA92F982FBF
:101170008827840F951FA61FB71FEE15FF0579F767
:101180009C01AD0166277727CB01621B730B840B93
:10119000950B60960FB6F894DEBF0FBECDBFDF9102
:1011A000CF911F910F91FF90EF90DF90CF90BF9064
:1011B000AF9008951F920F920FB60F9211240BB6A5
:1011C0000F922F933F934F935F936F937F938F93E0
:1011D0009F93AF93BF93EF93FF9380916F0287FF2D
:1011E00005C0109285001092840016C020916F02F5
:1011F000022E000C330B8091B10590E028173907BF
:101200005CF430916F0225E03203F0011124EB58B9
:10121000FA4F808186FD15C080916F028F5F8093A9
:101220006F0220916F02022E000C330B8091B105EA
:1012300090E02817390794F480916F028C302CF1DC
:101240000DC030916F023203F0011124EB58FA4FB8
:10125000808160E08F730E946B0FDECF80918400ED
:101260009091850084349C4918F480E49CE905C081
:1012700080918400909185000496909389008093DA
:1012800088008FEF80936F022AC0409184005091B4
:10129000850030916F0225E03203F0011124EB58F4
:1012A000FA4F81819281840F951F909389008093DA
:1012B000880030916F023203F0011124EB58FA4F8D
:1012C000808186FF0CC030916F023203F00111243F
:1012D000EB58FA4F808161E08F730E946B0FFF9192
:1012E000EF91BF91AF919F918F917F916F915F919E
:1012F0004F913F912F910F900BBE0F900FBE0F900B
:101300001F9018952F923F924F925F926F927F920B
:101310008F929F92AF92BF92CF92DF92EF92FF9205
:101320000F931F93CF93DF93CDB7DEB760970FB6C0
:10133000F894DEBF0FBECDBF9E838D8385E12D81E6
:101340003E81829FB001839F700D1124072E000CF7
:10135000880B990B0E94351769837A838B839C8352
:1013600020E030E0A9010E942E1787FF09C0898183
:101370009A81AB81BC81B05889839A83AB83BC834B
:1013800086ED95E00E944A0888ED95E00E944A08A3
:10139000AD81BE811A161B060CF0F7C04DEC5CEC5B
:1013A0006CE47EE382ED95E00E9429074DEC5CEC55
:1013B0006CE47EE384ED95E00E9429071A86198685
:1013C00018861F82188A1F8600E010E08DEC882E98
:1013D0008CEC982E8CE4A82E8EEBB82E20E030E01A
:1013E00040E450E469817A818B819C810E94BD1820
:1013F0006B017C01B801012E000C880B990B0E9437
:101400003517A70196010E942E1787FD11C04F8541
:101410005889BA01550F880B990B0E9435179B010B
:10142000AC01C701B6010E94D21918160CF059C1BF
:1014300088ED95E00E9475086B877C878D879E8775
:101440008B859C859195819591099E838D8386EDF1
:1014500095E00E947508442455243201461A570A23
:10146000680A790A1201C201AF81B8858A1B9B0BF9
:10147000080F191F8D819E8129853A85821B930B48
:101480004F855889480F591F588B4F8755E6451689
:1014900051040CF444C088ED95E00E944A0886EDA2
:1014A00095E00E944A086B857C85640D751D072EAA
:1014B000000C880B990B0E94351727E137EB41EDA3
:1014C00058E30E9494172B013C01B8018F8598893D
:1014D000681B790B072E000C880B990B0E9435179F
:1014E0002CEA35EC47EA57E30E9494179B01AC01C4
:1014F000C301B2010E94BE189B01AC01C501B40139
:101500000E94BD184B015C01AB01BC01705884ED19
:1015100095E00E9429071E821D82212C312CB801E2
:10152000012E000C880B990B0E9435179B01AC0112
:10153000C701B6010E942E1787FF07C040E050E0A8
:10154000BA0182ED95E00E942907AF85B889BD01F7
:10155000BB0F880B990B0E9435179B01AC01C7018B
:10156000B6010E942E1787FD07C02D813E813A8764
:10157000298738862F8232CF40E050E060E070E863
:1015800084ED95E00E942907F0CF2D813E81232B29
:1015900009F4A7C04DEC5CEC6CE47EEB82ED95E0C9
:1015A0000E9429074DEC5CEC6CE47EEB84ED95E049
:1015B0000E942907C12CD12CA12CB12CE12CF12C9B
:1015C00000E010E020E030E040E450E469817A81FE
:1015D0008B819C810E94BD182B013C01B801012E1A
:1015E000000C880B990B0E943517A30192010E94F1
:1015F0002E1787FD10C0B7010F2C000C880B990B1C
:101600000E9435179B01AC01C301B2010E94D2199F
:1016100018160CF066C086ED95E00E9475089B01D7
:10162000AC0188279927DC01821B930BA40BB50B17
:1016300044275527481B590B5E834D8388ED95E061
:101640000E9475084B012D813E812A193B09020F2A
:10165000131FAB014C195D09E40EF51E8D819E81AF
:101660008536910564F088ED95E00E944A0886ED84
:1016700095E00E944A08812C912C1E821D82B8019F
:10168000012E000C880B990B0E9435179B01AC01B1
:10169000C301B2010E942E1787FF07C040E050E04F
:1016A000BA0182ED95E00E942907B7010F2C000CCA
:1016B000880B990B0E9435179B01AC01C301B20145
:1016C0000E942E1787FD04C06401AD80BE807ACFD2
:1016D00040E050E060E070E884ED95E00E9429076A
:1016E000F3CF40E050E0BA0182ED95E00E94290777
:1016F00040E050E060E070E884ED95E060960FB661
:10170000F894DEBF0FBECDBFDF91CF911F910F9137
:10171000FF90EF90DF90CF90BF90AF909F908F9011
:101720007F906F905F904F903F902F900C9429077F
:101730003091BF02313208F04BC080919C02811180
:10174000FCCF9091FC0522E020939C0221E02093A5
:101750009B022FEF20939A021092990230939802E5
:10176000EFE9F2E0A8E7B2E020E0321721F0419182
:101770004D932F5FFACF1092770220917702990F45
:10178000922B9093770290917602913061F41092AF
:101790007602909177029093BB009091BC0093FDEC
:1017A000F8CF95EC01C095EE9093BC0090919C020F
:1017B0009230E1F390919A029F3F79F080919A02E2
:1017C000803241F080919A02803331F084E005C08C
:1017D00081E003C082E001C083E010929E0210927B
:1017E000BF0210929D020895009769F0FC010190DC
:1017F0000020E9F73197AF01481B590BBC0186E087
:1018000094E00C94090280E090E008958F929F92FA
:10181000AF92BF920F931F93CF93DF93CDB7DEB7F5
:10182000A1970FB6F894DEBF0FBECDBF19A242300C
:1018300008F44AE08E010F5D1F4F842E912CA12CDD
:10184000B12CA50194010E947118E62FB901CA01BB
:1018500001501109EA3014F4E05D01C0E95CD801DF
:10186000EC93232B242B252B61F7C8010E94F40B4A
:10187000A1960FB6F894DEBF0FBECDBFDF91CF911A
:101880001F910F91BF90AF909F908F900895CF922E
:10189000DF92EF92FF92CF93DF936B017C016DE2B9
:1018A00086E094E00E94B002EC0166277727CB0126
:1018B0006C197D098E099F094AE00E94060C8C0F65
:1018C0009D1FDF91CF91FF90EF90DF90CF90089513
:1018D000CF93DF93BC01990F880B990B97FF03C03F
:1018E0000E94470C03C04AE00E94060CEC0180E411
:1018F00092E00E94F40B8C0F9D1FDF91CF91089511
:101900000F931F93CF93DF93162F072FC9EBD5E0CB
:101910009C8521E020939D029093FC0510929E02ED
:101920001092BF02AA85BB85ED91FC9111970190A1
:10193000F081E02D682FCD0119958A859B85DC010A
:10194000ED91FC910190F081E02D602F19958A8531
:101950009B85DC01ED91FC910190F081E02D612FE0
:101960001995DF91CF911F910F910C94980BFC0169
:10197000248131E030939D022093FC0510929E0259
:101980001092BF028485682B80EC92E00E94850D46
:101990000C94980B0F931F93CF938C01C62F646008
:1019A0000E94B70C6C2F6B7FC8010E94B70C83ECB0
:1019B00090E00197F1F7CF911F910F910895FC01ED
:1019C000A089B1898C91A689B78982FD0FC09C91AD
:1019D000818D8F5F8F73228D821749F0218DDF01FA
:1019E000A20FB11D5D969C93818F08958C910895EF
:1019F00085ED8093BC008091BC0084FDFCCF1092EB
:101A00009C02089540910E07262F30E0240F311DCF
:101A100021323105DCF420919C022430C9F4FC0110
:101A200080E090E0861758F430910E072191DC0198
:101A3000A251B94FA30FB11D2C930196F3CF809102
:101A40000E07680F60930E0780E0089581E0089507
:101A500082E00895089508950895E091C006809168
:101A6000BF06E81730F4F0E0E253F94F808190E0D0
:101A700008958FEF9FEF08959091C0068091BF0663
:101A8000981750F4E92FF0E0E253F94F208130E04D
:101A90009F5F9093C00602C02FEF3FEFC9010895EA
:101AA0008091BF0690E02091C006821B91090895A5
:101AB000CF92DF92EF92FF920F931F93CF93DF931A
:101AC0007C01CB018A0120919D02222389F0EB0148
:101AD0006B01C40ED51ECC15DD0569F06991D701E7
:101AE000ED91FC910190F081E02DC7011995F3CFA4
:101AF000642F0E94020DC801DF91CF911F910F91B9
:101B0000FF90EF90DF90CF900895CF93DF931F92D7
:101B1000CDB7DEB7698320919D022223D1F02091B9
:101B2000BF02203240F021E030E0FC013383228309
:101B300080E090E015C080919E02E82FF0E0E15631
:101B4000FD4F998190838F5F80939E028093BF02A7
:101B500005C061E0CE0101960E94020D81E090E097
:101B60000F90DF91CF9108953FB7F8948091CA0606
:101B70009091CB06A091CC06B091CD0626B5A89B3E
:101B800005C02F3F19F00196A11DB11D3FBFBA2F0F
:101B9000A92F982F8827820F911DA11DB11DBC016F
:101BA000CD0142E0660F771F881F991F4A95D1F734
:101BB00008951F920F920FB60F9211240F900FBE2F
:101BC0000F901F9018951F920F920FB60F9211242D
:101BD0000BB60F922F933F934F935F936F937F9327
:101BE0008F939F93AF93BF93EF93FF938091B9002F
:101BF000887F803609F49CC068F5883209F45BC0A0
:101C000090F4803109F454C038F4882309F4F6C004
:101C1000883009F44DC0F6C0883109F44CC08032D8
:101C200009F45DC0EFC0803409F468C048F4803323
:101C300009F455C0883309F0E5C080939A02D8C0F2
:101C4000803509F44FC0883509F45DC0883409F047
:101C5000D9C0D6C0883909F4C7C0A8F4883709F4B8
:101C600067C038F4883609F463C0803709F460C06F
:101C7000C9C0883809F4B8C0803909F45FC0803819
:101C800009F0C0C05BC0803B09F486C038F4803ADC
:101C900009F466C0883A09F47FC0B4C0803C09F4F6
:101CA000A7C0883C09F4A4C0883B09F48AC0AAC034
:101CB0008091770210C090919902809198029817B4
:101CC00070F5E091990281E08E0F80939902F0E027
:101CD000E858FD4F80818093BB0085EC86C08093DF
:101CE0009A028EC0E091990281E08E0F8093990252
:101CF0008091BB00F0E0E858FD4F808390919902FD
:101D0000809198026EC0E091990281E08E0F8093DD
:101D100099028091BB00F0E0E858FD4F80838091EC
:101D20009B0281116DC081E08093760284EA61C0DC
:101D300083E080939C0210923007CFCF80913007D0
:101D4000803208F051C0E091300781E08E0F80931F
:101D500030078091BB00F0E0E05FF84F8083BDCF9B
:101D600085EC8093BC0010929C02809130078032F9
:101D700030F4E0913007F0E0E05FF84F10826091BE
:101D8000300770E0E091C306F091C40680E197E06F
:101D900019951092300736C084E080939C0210920F
:101DA0000F0710920E07E091C106F091C206199537
:101DB00080910E07811105C081E080930E0710927B
:101DC000EE06E0910F0781E08E0F80930F07F0E0A1
:101DD000E251F94F80818093BB0090910F07809171
:101DE0000E07981708F479CF85E88093BC000AC0E5
:101DF00085EC8093BC0010929C0204C010929A0261
:101E00000E94F80CFF91EF91BF91AF919F918F913C
:101E10007F916F915F914F913F912F910F900BBEEA
:101E20000F900FBE0F901F90189590E0FC01319716
:101E3000E231F10508F04EC08827EC57FF4F8F4F75
:101E40000C94AE18809180008F7703C08091800041
:101E50008F7D80938000089580918000877FF9CFE7
:101E600084B58F7702C084B58F7D84BD089580913D
:101E7000B0008F7703C08091B0008F7D8093B00059
:101E80000895809190008F7707C0809190008F7D9A
:101E900003C080919000877F809390000895809187
:101EA000A0008F7707C08091A0008F7D03C0809134
:101EB000A000877F8093A0000895809120018F77F4
:101EC00007C0809120018F7D03C080912001877F12
:101ED0008093200108951F93CF93DF93282F30E044
:101EE000F901EF59FC4F8491F901E55EFC4FD49163
:101EF000F901EB52FD4FC491CC23C1F0162F811193
:101F00000E94150FEC2FF0E0EE0FFF1FE554FD4F80
:101F1000A591B4919FB7F894111104C08C91D095FC
:101F2000D82302C0EC91DE2BDC939FBFDF91CF91D1
:101F30001F910895CF93DF9390E0FC01E55EFC4F85
:101F40002491FC01EB52FD4F8491882361F190E0D4
:101F5000880F991FFC01EF55FD4FC591D491FC01ED
:101F6000E554FD4FA591B491611109C09FB7F89454
:101F70008881209582238883EC912E230BC06230C8
:101F800061F49FB7F8948881322F3095832388833A
:101F9000EC912E2B2C939FBF06C08FB7F894E8814D
:101FA0002E2B28838FBFDF91CF9108958F929F9220
:101FB000AF92BF92CF92DF92EF92FF926B017C01C2
:101FC0000E94B40D4B015C01C114D104E104F10481
:101FD000F1F00E94B40DDC01CB0188199909AA091E
:101FE000BB09883E9340A105B10570F321E0C21AF8
:101FF000D108E108F10888EE880E83E0981EA11C44
:10200000B11CC114D104E104F10419F7DDCFFF9034
:10201000EF90DF90CF90BF90AF909F908F900895FA
:102020001F920F920FB60F9211242F933F938F930D
:102030009F93AF93BF938091C6069091C706A091DE
:10204000C806B091C9063091C50623E0230F2D378D
:1020500020F40196A11DB11D05C026E8230F0296AC
:10206000A11DB11D2093C5068093C6069093C70697
:10207000A093C806B093C9068091CA069091CB067A
:10208000A091CC06B091CD060196A11DB11D809303
:10209000CA069093CB06A093CC06B093CD06BF9111
:1020A000AF919F918F913F912F910F900FBE0F9005
:1020B0001F9018958091B2059091B3050C94F91B6F
:1020C000CF93DF93CDB7DEB72C970FB6F894DEBF72
:1020D0000FBECDBF789484B5826084BD84B5816025
:1020E00084BD85B5826085BD85B5816085BD8091E3
:1020F0006E00816080936E0010928100809181005B
:102100008260809381008091810081608093810052
:10211000809180008160809380008091B100846014
:102120008093B1008091B00081608093B000809175
:1021300091008260809391008091910081608093F2
:102140009100809190008160809390008091A10027
:1021500082608093A1008091A10081608093A100A2
:102160008091A00081608093A00080912101826015
:1021700080932101809121018160809321018091D0
:10218000200181608093200180917A008460809397
:102190007A0080917A00826080937A0080917A0040
:1021A000816080937A0080917A00806880937A00C1
:1021B0001092C100E0911604F091170482E0808330
:1021C000E0911204F09113041082E0911404F09154
:1021D00015048FEC808310921E04E0911A04F09194
:1021E0001B0486E08083E0911804F091190480813B
:1021F00080618083E0911804F091190480818860E7
:102200008083E0911804F0911904808180688083B4
:10221000E0911804F091190480818F7D808361E042
:102220008091BA050E949A0F60E08091BA050E94E1
:102230006B0F60E08091B9050E949A0F80EC92E0EC
:102240009093C4058093C3051092C0061092BF06F8
:1022500010929E021092BF0210929C0281E0809325
:102260009B021092760261E084E10E946B0F61E0B4
:1022700085E10E946B0F8091B9008E7F8093B90039
:102280008091B9008D7F8093B90088E48093B80075
:1022900085E48093BC008AE29DE09093C20680931F
:1022A000C1068BE29DE09093C4068093C30680E054
:1022B00090E1A0E0B0E08093C6059093C705A0939D
:1022C000C805B093C9058AE090E0A0E0B0E0809333
:1022D000CA059093CB05A093CC05B093CD0580E0C3
:1022E00090E0A0E0B0E48093CE059093CF05A0935A
:1022F000D005B093D10560E070E185E00E94800CCC
:102300006FE979E380E00E94800C09EB15E0780129
:10231000512CBAE06B2EB3E07B2E80E5882E83E053
:10232000982E9BECC92E97E0D92ED70114969C913C
:10233000149712968C91F801818F928F61E00E9420
:102340009A0F61E0D8015A968C910E949A0FF7017A
:10235000908586815801FDE1AF0EB11CD8015D96D4
:102360008C935D975E969C9361E00E949A0F60E06B
:10237000F801868D0E949A0F61E0D8015D968C91DC
:102380000E946B0F4FB6F89480917502811126C0A0
:10239000F3018491F4012491E82FF0E0EE0FFF1F88
:1023A000EF55FD4FA591B4919C91822F892321F483
:1023B00061E085E30E946B0F61E085E30E949A0F64
:1023C0008CB580618CBD8CB580648CBD61E084E38C
:1023D0000E949A0F61E083E30E949A0F8091750238
:1023E0008F5F809375024FBEC6010197F1F760E0E1
:1023F000D8015D968C910E946B0F88E80E9443087B
:1024000083E00E94430861E0F801858D0E946B0F14
:10241000C6010197F1F7C5010E944A085394FFEFE6
:10242000EF1AFF0A0E5F1F4F22E052127ECFEEED31
:10243000EE2EE5E0FE2E02EE15E060E0D7018D9174
:102440007D010E949A0FB2EEEB16B5E0FB06A9F7EC
:102450003AEDE32E35E0F32E44EEC42E45E0D42EC3
:1024600055E0B52E6CE0962E72E0A72EF801819013
:102470008F0187818C3008F048C061E0882D0E9470
:102480009A0FD80117968C91B89EF0011124EB5841
:10249000FA4F982D9F732081207C822E892A80827A
:1024A00013821482692D0E94A218BCE08B9FA001A8
:1024B000112420E030E0BA01620F731FB69EF001D4
:1024C000B79EF00D1124EB58FA4F908196FD12C083
:1024D0002F5F3F4F2C30310571F781110BC01092E7
:1024E0008000A09281001092850010928400A6BA0C
:1024F000A0926F00D8011796EC91BE9EF0011124B6
:10250000EB58FA4F808180648083F8019581838144
:10251000D70152968C93529753969C9360E00E94F9
:102520009A0F61E0F70183890E949A0F60E0D7015A
:1025300053968C910E946B0FB2E0EB0EF11CC0160B
:10254000D10609F093CFF8941092200189E080938E
:10255000210180E293E09093290180932801109259
:1025600025011092240182E0809373007894809377
:10257000A3041092A7048091A40460E00E949A0F23
:102580006AE070E080E090E00E94D60FEDB7FEB701
:10259000FA83E9832DB73EB72A5231090FB6F89472
:1025A0003EBF0FBE2DBF4DB75EB74F5F5F4F3A01C5
:1025B0008DB79EB78A970FB6F8949EBF0FBE8DBF9A
:1025C000ADB7BEB711962D01EE57F1090FB6F894CD
:1025D000FEBF0FBEEDBF235531093E832D838EE133
:1025E00090E00E948209120143013AE2830E911C9D
:1025F0005201830164EF71E080E090E00E94D60F09
:1026000086EF95E00E9411056C01D8018D939D9392
:102610008D0180EF95E00E9411057C01F501819309
:1026200091935F01C6010E94680CC7010E94680C6B
:102630008EEF9FEF0E94820980169106D9F6ED81F8
:10264000FE8100E010E040E050E020E030E0D30107
:102650008D919D913D01D1016D917D911D01861B53
:10266000970B81939193481759072CF48634910561
:1026700014F48901AC012F5F3F4F2531310539F743
:102680008EE190E00E9482097801EE0CFF1C0E0D95
:102690001F1D8EE190E0801B910B0E948209F201C8
:1026A000EE0DFF1D00811181E981FA810FB6F894CA
:1026B000FEBF0FBEEDBF68EE73E080E090E00E94C9
:1026C000D60FC801880F991F080F191F20E83CE09A
:1026D000029FC001039F900D129F900D11240E9434
:1026E000680C20E83CE0D8010E94B6180E9435171B
:1026F00020E030E044EC51E40E942A190E949C1929
:1027000069837A838B839C8386ED95E00E944A08D7
:1027100088ED95E00E94750888ED95E00E944A08D2
:102720004AE959E969E97EEB84ED95E00E942907C1
:102730004AE959E969E97EE382ED95E00E942907BB
:1027400000E010E0212C312C8AE999E9A9E9BEE3E7
:102750008D839E83AF83B88729813A814B815C81C9
:10276000215E31094109510929873A874B875C87E6
:10277000C101032C000CAA0BBB0B29853A854B85A4
:102780005C8582179307A407B5075CF0C801012E8A
:10279000000CAA0BBB0B82179307A407B5070CF01C
:1027A0001BC188ED95E00E9475084B015C0186ED28
:1027B00095E00E947508CC24DD247601C61AD70A5C
:1027C000E80AF90A88ED95E00E944A0886ED95E04E
:1027D0000E944A0889819A81AB81BC81B7FF05C0FC
:1027E000BC01CD010E94470C07C04AE069817A8193
:1027F0008B819C810E94060C80E492E00E94F40B85
:10280000C1010E94680CC8010E94680C2C0C3D1C80
:10281000080D191DB60168197909072E000C880BDF
:10282000990B0E94351727E137EB41ED58E30E94E1
:1028300094176B017C01B101601B710B072E000C1A
:10284000880B990B0E9435172CEA35EC47EA57E3C1
:102850000E9494179B01AC01C701B6010E94BE18EB
:102860006B017C019B01AC010E94271A882319F09F
:1028700083E492E01AC046015701E894B7F82FEFBD
:102880003FEF4FE75FE7C501B4010E94271A8111AE
:102890000FC02FEF3FEF4FE75FE7C501B4010E9484
:1028A0002E1718162CF487E492E00E94F40B76C0E1
:1028B0002FEF3FEF4FE75FE4C701B6010E94D21947
:1028C00018161CF48BE492E0F0CF2FEF3FEF4FE7A8
:1028D0005FECC701B6010E942E1787FDF3CF20E001
:1028E00030E0A901C701B6010E942E1787FF09C079
:1028F0006DE286E094E00E94B002C701B6019058F4
:1029000002C0C701B6012AE037ED43EA5BE30E944B
:10291000BE182B013C010E94A3194B015C010E94CF
:1029200033179B01AC01C301B2010E94BD182B01FA
:102930003C014AE0C501B4010E94060C6EE286E04B
:1029400094E00E94B00220E030E040E251E4C30194
:10295000B2010E9494172B013C010E94A3194B0164
:10296000A12CB12C4AE0C501B4010E94060CC5019E
:10297000B4010E9433179B01AC01C301B2010E9454
:10298000BD1820E030E040E251E40E9494170E941C
:10299000A31980E090E04AE00E94060C80E492E0F7
:1029A0000E94F40BA70196016D817E818F8198852D
:1029B0000E94BE186D837E838F839887AB01BC0114
:1029C000705884ED95E00E94290762E370E080E092
:1029D00090E00E94D60FCCCE8FE492E00E94F40BE0
:1029E00080E492E00E94F40B40E050E0BA0182EDF6
:1029F00095E00E94290740E050E060E070E884ED37
:102A000095E00E94290764E670E080E090E00E9473
:102A1000D60F64EF71E080E090E00E94D60F0E9434
:102A20002203AECDCF92DF92EF92FF921092C302BB
:102A30001092C20288EE93E0A0E0B0E08093C4025E
:102A40009093C502A093C602B093C70224E132E07E
:102A50003093C1022093C0021092CF021092CE0296
:102A60008093D0029093D102A093D202B093D3026C
:102A700026E232E03093CD022093CC0245E351E0D0
:102A80005093D9024093D80244E351E05093DB02C3
:102A90004093DA0240E351E05093DD024093DC02C0
:102AA00041E351E05093DF024093DE0242E351E004
:102AB0005093E1024093E00246E351E05093E30279
:102AC0004093E2021092E5021092E6021092E702B1
:102AD0001092E80210926C0310926B0380936D03C6
:102AE00090936E03A0936F03B093700330936A03C7
:102AF0002093690345ED50E05093760340937503AE
:102B000044ED50E0509378034093770340ED50E05C
:102B100050937A034093790341ED50E050937C0346
:102B200040937B0342ED50E050937E0340937D033E
:102B300046ED50E05093800340937F031092820350
:102B4000109283031092840310928503109209045B
:102B50001092080480930A0490930B04A0930C0431
:102B6000B0930D04309307042093060485EC90E0A5
:102B7000909313048093120484EC90E090931504D6
:102B80008093140480EC90E09093170480931604D3
:102B900081EC90E0909319048093180482EC90E00B
:102BA00090931B0480931A0486EC90E090931D048C
:102BB00080931C0410921F04109220041092210490
:102BC000109222048091080290910902A0910A02B9
:102BD000B0910B028093DA059093DB05A093DC059E
:102BE000B093DD0580910C0290910D02A0910E0230
:102BF000B0910F028093DE059093DF05A093E0056E
:102C0000B093E10584E08093E20587E08093E305DB
:102C10001092E40584EB8093E50586E18093E60558
:102C200088E18093E70587E18093E80589E1809357
:102C3000E905E091B105EC3020F08FEF8093EA05D3
:102C400010C081E08E0F8093B105E093EA0585E026
:102C5000E89FF0011124EB58FA4F88EB9BE0928338
:102C60008183E091B105EC3020F08FEF8093EB058C
:102C700010C081E08E0F8093B105E093EB0585E0F5
:102C8000E89FF0011124EB58FA4F88EB9BE0928308
:102C900081838CE08093B90584E28093BA0586E055
:102CA0008093BB0585E08093BC058FE18093BD05D3
:102CB0008EE18093BE0583E28093BF0582E280931C
:102CC000C00585E48093C10584E48093C20580E457
:102CD0008093C5051092CA051092CB051092CC05C1
:102CE0001092CD051092CE051092CF051092D0050E
:102CF0001092D105E1E0F6E02FEB36E08FEF9FEF89
:102D0000DC011282138214821582168217821086C9
:102D1000118683879487A587B6878787908BA18B39
:102D2000B28B12861182108273962E173F0749F7D5
:102D30008DE090E00E94611BFC011382128288E307
:102D400092E091838083118687E2848384E1828785
:102D500084E083871486F093FE05E093FD051092CE
:102D6000FF051092000685E28093A4041092A60449
:102D70001092B3051092B2051092B5051092B405E9
:102D80001092B7051092B60561E070E080E090E027
:102D90000E94821C009791F09093B3058093B20536
:102DA0001092B5051092B4052091B6053091B70583
:102DB000232B09F046C0FC01108243C08091B2056C
:102DC0009091B305009711F00E94F91B1092B30582
:102DD0001092B2051092B7051092B6051092B50583
:102DE0001092B4058FE390E09093F7058093F60579
:102DF00098E3C92E94E0D92EE12CF12CC092F8056D
:102E0000D092F905E092FA05F092FB0560E00E948D
:102E10009A0F81E0809301028EE390E09093F10598
:102E20008093F005C092F205D092F305E092F4058C
:102E3000F092F50560E0FF90EF90DF90CF900C945A
:102E40009A0F1092B7051092B60562E472E0809175
:102E5000B2059091B3050E94701DC4CF0E947017F7
:102E600008F481E00895E89409C097FB3EF490953A
:102E70008095709561957F4F8F4F9F4F9923A9F053
:102E8000F92F96E9BB279395F695879577956795E2
:102E9000B795F111F8CFFAF4BB0F11F460FF1BC026
:102EA0006F5F7F4F8F4F9F4F16C0882311F096E9B9
:102EB00011C0772321F09EE8872F762F05C0662367
:102EC00071F096E8862F70E060E02AF09A95660F20
:102ED000771F881FDAF7880F9695879597F90895D9
:102EE000990F0008550FAA0BE0E8FEEF161617061B
:102EF000E807F907C0F012161306E407F50798F083
:102F0000621B730B840B950B39F40A2661F0232B9B
:102F1000242B252B21F408950A2609F4A140A69517
:102F20008FEF811D811D08950E94A7170C9418181A
:102F30000E940A1838F00E94111820F0952311F011
:102F40000C9401180C94071811240C944C180E942E
:102F5000291870F3959FC1F3950F50E0551F629F9C
:102F6000F001729FBB27F00DB11D639FAA27F00DE2
:102F7000B11DAA1F649F6627B00DA11D661F829F09
:102F80002227B00DA11D621F739FB00DA11D621FEE
:102F9000839FA00D611D221F749F3327A00D611D0B
:102FA000231F849F600D211D822F762F6A2F1124ED
:102FB0009F5750409AF0F1F088234AF0EE0FFF1F20
:102FC000BB1F661F771F881F91505040A9F79E3F77
:102FD000510580F00C9401180C944C185F3FE4F3F9
:102FE000983ED4F3869577956795B795F795E795CD
:102FF0009F5FC1F7FE2B880F911D9695879597F9D6
:10300000089597F99F6780E870E060E008959FEF6A
:1030100080EC089500240A9416161706180609066F
:10302000089500240A94121613061406050608953E
:10303000092E0394000C11F4882352F0BB0F40F4C6
:10304000BF2B11F460FF04C06F5F7F4F8F4F9F4F06
:10305000089557FD9058440F551F59F05F3F71F088
:103060004795880F97FB991F61F09F3F79F08795EF
:103070000895121613061406551FF2CF4695F1DF78
:1030800008C0161617061806991FF1CF8695710508
:10309000610508940895E894BB2766277727CB013C
:1030A00097F90895052E97FB1EF400940E94691865
:1030B00057FD07D00E94711807FC03D04EF40C9402
:1030C000691850954095309521953F4F4F4F5F4F70
:1030D000089590958095709561957F4F8F4F9F4F84
:1030E0000895A1E21A2EAA1BBB1BFD010DC0AA1F49
:1030F000BB1FEE1FFF1FA217B307E407F50720F061
:10310000A21BB30BE40BF50B661F771F881F991FDB
:103110001A9469F760957095809590959B01AC0124
:10312000BD01CF010895A29FB001B39FC001A39F2D
:10313000700D811D1124911DB29F700D811D1124F0
:10314000911D0895991B79E004C0991F961708F006
:10315000961B881F7A95C9F780950895EE0FFF1F7B
:10316000881F8BBF0790F691E02D19940E94931849
:10317000B7FF0895821B930B08955058BB27AA27C9
:103180000E94D5180C9418180E940A1838F00E9452
:10319000111820F039F49F3F19F426F40C94071805
:1031A0000EF4E095E7FB0C940118E92F0E94291812
:1031B00058F3BA17620773078407950720F079F46C
:1031C000A6F50C944B180EF4E0950B2EBA2FA02DFB
:1031D0000B01B90190010C01CA01A0011124FF27C4
:1031E000591B99F0593F50F4503E68F11A16F040BF
:1031F000A22F232F342F4427585FF3CF46953795BE
:103200002795A795F0405395C9F77EF41F16BA0B82
:10321000620B730B840BBAF09150A1F0FF0FBB1F30
:10322000661F771F881FC2F70EC0BA0F621F731F79
:10323000841F48F4879577956795B795F7959E3FD6
:1032400008F0B0CF9395880F08F09927EE0F979567
:10325000879508950E943E190C9418180E94111821
:1032600058F00E940A1840F029F45F3F29F00C94AE
:10327000011851110C944C180C9407180E9429182D
:1032800068F39923B1F3552391F3951B550BBB2795
:10329000AA2762177307840738F09F5F5F4F220FDA
:1032A000331F441FAA1FA9F335D00E2E3AF0E0E8D1
:1032B00032D091505040E695001CCAF72BD0FE2F1B
:1032C00029D0660F771F881FBB1F261737074807AF
:1032D000AB07B0E809F0BB0B802DBF01FF27935867
:1032E0005F4F3AF09E3F510578F00C9401180C9412
:1032F0004C185F3FE4F3983ED4F386957795679535
:10330000B795F7959F5FC9F7880F911D969587959B
:1033100097F90895E1E0660F771F881FBB1F6217BA
:1033200073078407BA0720F0621B730B840BBA0B78
:10333000EE1F88F7E09508950E94A3196894B111D3
:103340000C944C1808950E94311888F09F5798F0FB
:10335000B92F9927B751B0F0E1F0660F771F881F9A
:10336000991F1AF0BA95C9F714C0B13091F00E94B4
:103370004B18B1E008950C944B18672F782F8827CD
:10338000B85F39F0B93FCCF3869577956795B395DB
:10339000D9F73EF490958095709561957F4F8F4F4A
:1033A0009F4F08950E94701708F48FEF0895FA0157
:1033B000EE0FFF1F309621053105A1F16115710552
:1033C00061F48038BFE39B0749F168949038810528
:1033D00061F08038BFEF9B0741F099234AF5FF3F2A
:1033E000E1053105210519F1E8940894E795D90123
:1033F000AA2329F4AB2FBE2FF85FD0F310C0FF5FD4
:1034000070F4A695E0F7F73950F019F0FF3A38F468
:103410009F779F930DD00F9007FC9058089546F02A
:103420000C94071860E070E080E89FE308954FE790
:103430009F775F934F933F932F930E94D71A2F91BB
:103440003F914F915F910E9494170C94341A0E94FF
:103450007017880B990B089529F416F00C94011835
:103460000C944B180C9407180E943118A8F3963846
:10347000A0F707F80F92E8942BE33AEA48EB5FE7EE
:103480000E94AA170F920F920F924DB75EB70F923C
:103490000E941F1BECE2F1E00E94661A4F915F91BF
:1034A000EF91FF91E595EE1FFF1F49F0FE57E06891
:1034B0004427EE0F441FFA95E1F74195550B0E9402
:1034C000991A0F9007FE0C948D1A0895DF93CF93ED
:1034D0001F930F93FF92EF92DF927B018C01689410
:1034E00006C0DA2EEF010E94A717FE01E894A5910D
:1034F0002591359145915591A6F3EF010E94D5187C
:10350000FE019701A801DA9469F7DF90EF90FF9030
:103510000F911F91CF91DF9108959B01AC0160E065
:1035200070E080E89FE30C942A190C9401180C9425
:10353000531B0E943118D8F39923C9F3940F511DDE
:10354000A3F39150504094F059F0882332F0660F65
:10355000771F881F91505040C1F79E3F51052CF7AF
:10356000880F911D9695879597F908955F3FACF068
:10357000983E9CF0BB27869577956795B79508F49C
:10358000B1609395C1F7BB0F58F711F460FFE8CF16
:103590006F5F7F4F8F4F9F4FE3CF0C944C1816F007
:1035A0000C94531B0C94071868940C9401180E94F7
:1035B0003118A8F39923C1F3AEF3DF93CF931F9390
:1035C0000F93FF92C92FDD2788232AF02197660FDA
:1035D000771F881FDAF720E030E040E85FEB9FE3D9
:1035E000883920F0803E38F021968F770E94BE18EF
:1035F000E4E5F1E004C00E94BE18E1E8F1E00E94B9
:10360000661A8B01BE01EC01FB2E6F57710975958F
:10361000771F880B990B0E94351728E132E741E3A9
:103620005FE30E94A717AF2D9801AE01FF900F91A5
:103630001F91CF91DF910E94D5180C941818FA01B0
:10364000DC01AA0FBB1F9B01AC01BF5728F4222746
:1036500033274427507820C0B75190F4AB2F002473
:10366000469537952795011CA395D2F3002071F05C
:10367000220F331F441FB395DAF30ED00C94BD18FC
:1036800061307105A0E88A07B94630F49B01AC01AE
:103690006627772788279078309621F0208331831A
:1036A0004283538308959F3F31F0915020F48795D2
:1036B00077956795B795880F911D9695879597F99A
:1036C00008950F931F93CF93DF938230910510F4E9
:1036D00082E090E0E0913507F091360720E030E09D
:1036E000A0E0B0E0309719F140815181028113814F
:1036F00048175907C8F08417950769F4109731F0F7
:1037000012960C93129713961C9327C000933507BB
:103710001093360722C02115310519F042175307BF
:1037200018F49A01BD01EF01DF01F801DBCF21158B
:103730003105F9F0281B390B2430310580F48A81DA
:103740009B816115710521F0FB019383828304C085
:103750009093360780933507FE01329644C0FE01F0
:10376000E20FF31F8193919322503109398328830B
:103770003AC02091330730913407232B41F4209134
:1037800004023091050230933407209333072091CF
:103790000202309103022115310541F42DB73EB7E5
:1037A0004091060250910702241B350BE09133072C
:1037B000F0913407E217F307A0F42E1B3F0B2817F4
:1037C000390778F0AC014E5F5F4F2417350748F09A
:1037D0004E0F5F1F509334074093330781939193AB
:1037E00002C0E0E0F0E0CF01DF91CF911F910F9197
:1037F0000895CF93DF93009709F481C0FC013297BD
:1038000013821282A0913507B0913607109781F488
:1038100020813181820F931F20913307309134072B
:103820002817390751F5F0933407E093330767C041
:10383000ED0120E030E0CE17DF0740F44A815B81E4
:103840009E0141155105F1F0EA01F5CFD383C28302
:1038500040815181840F951FC817D90759F4888179
:103860009981840F951F0296918380838A819B8121
:10387000938382832115310529F4F0933607E09371
:1038800035073DC0E901FB83EA8349915991C40F93
:10389000D51FEC17FD0761F480819181840F951F7E
:1038A0000296E90199838883828193819B838A832D
:1038B000E0E0F0E012968D919C911397009719F03B
:1038C000FD01DC01F7CF8D919C9111979D012E5F39
:1038D0003F4F820F931F20913307309134072817F1
:1038E000390769F4309729F410923607109235079A
:1038F00002C013821282B0933407A0933307DF9182
:10390000CF9108956F927F928F929F92AF92BF92C4
:10391000CF92DF92EF92FF920F931F93CF93DF939B
:10392000009789F4CB01DF91CF911F910F91FF9008
:10393000EF90DF90CF90BF90AF909F908F907F904F
:103940006F900C94611BFC01E60FF71F9C01225045
:103950003109E217F30708F4A9C0EC01D9010D9170
:103960001C91119706171707B0F00530110508F4E0
:103970009BC0C80104978617970708F495C00250AA
:103980001109061B170B019311936D937C93CF01C3
:103990000E94F91B89C05B01A01AB10A4C01800E7C
:1039A000911EA0913507B0913607612C712CE12C46
:1039B000F12C109709F446C08D919C911197A81590
:1039C000B905B1F56C0142E0C40ED11CCA14DB0488
:1039D00078F14C018A189B08640142E0C40ED11CA6
:1039E0001296BC9012971396AC91B5E0CB16D10409
:1039F00040F0B282A38391828082D9016D937C933F
:103A000009C00E5F1F4F800F911FF90191838083C2
:103A1000EB2DFA2FE114F10431F0D7011396FC934A
:103A2000EE93129741C0F0933607E09335073CC000
:103A30006816790608F43C017D0112960D90BC9140
:103A4000A02DB7CF8091330790913407881699063F
:103A5000E1F466167706C8F48091020290910302A1
:103A6000009741F48DB79EB740910602509107022E
:103A7000841B950BE817F907C8F4F0933407E0931B
:103A80003307F901718360830FC0CB010E94611B72
:103A90007C01009759F0A801BE010E94671DCE016C
:103AA0000E94F91BC70104C0CE0102C080E090E073
:103AB000DF91CF911F910F91FF90EF90DF90CF900A
:103AC000BF90AF909F908F907F906F900895FB0173
:103AD000DC0102C001900D9241505040D8F708958A
:103AE000FB01DC0101900D920020E1F7089511E047
:103AF000C5EDD1E000E006C0802FFE010E94AE18A7
:103B00002196011DC63DD10780E00807A9F7F8946A
:023B1000FFCFE5
:103B1200FF01000037072000363738391B1D1A1CF9
:103B220000000000850D580D50032C0D500D3C0D6A
:103B32002D0D00000000B00209023302FD026402F2
:103B420042025602000000005303090250034F03D1
:103B52000D0A006E616E00696E66006F7666007017
:063B62006174617465004E
:00000001FF
