:100000000C94D6010C9407020C9407020C9407027E
:100010000C9407020C9407020C9407020C9407023C
:100020000C9407020C94AD0E0C94AD0E0C94AD0E16
:100030000C9407020C9478030C9407020C940702AA
:100040000C9407020C94DA080C9407020C94070233
:100050000C9407020C9407020C9407020C94D90F1D
:100060000C9407020C94E7040C94BD040C94070252
:100070000C9407020C9407020C9407020C940702DC
:100080000C9407020C9407020C9407020C940702CC
:100090000C9407020C9407020C9407020C947B0D3D
:1000A0000C9407020C9407020C9407020C940702AC
:1000B0000C9407020C9407020C9407020C944A0655
:1000C0000C9407020C9407020C9407020C949304FE
:1000D0000C9469040C9407020C943F040C941504CE
:1000E0000C9407028A078F0794079E07A807210828
:1000F000B207BA07C207CC07D607E007EF07F90730
:10010000210803080D081708D20ED50EC40EC80E1C
:10011000CE0E0C0FD90EDD0EE30EE70EEB0EF10E38
:10012000F50EF90E0C0FFF0E030F070F0763423693
:10013000B79BD8A71A39685618AEBAAB558C1D3C78
:10014000B7CC5763BD6DEDFD753EF6177231BF003C
:100150000000803F08000000BE922449123EABAA76
:10016000AA2ABECDCCCC4C3E00000080BEABAAAAD1
:10017000AA3E00000000BF000000803F0000000019
:1001800000084178D3BB4387D1133D190E3CC3BD52
:100190004282AD2B3E68EC8276BED98FE1A93E4CFF
:1001A00080EFFFBE01C4FF7F3F00000000000C9401
:1001B0008A070C94380C0C94D90E0C94280C0C94CF
:1001C000F90E0C94B0020C94E30E0C94F50E0C9402
:1001D0008F070C94A8070C94C2070C94C80E0C94BB
:1001E0000D080C9429100C94290C0C9453030C94B6
:1001F000F10E0C9403080C94FD020C9433020C9441
:10020000DD0E0C949E070C940C0F0C94BA070C9402
:1002100094070C944F030C9421080C94810C0C94BB
:1002200042020C9450030C94030F0C94E70E0C94B0
:10023000CE0E0C94EF070C94260C0C9423100C9407
:1002400009020C94D6070C94FF0E0C9464020C94D3
:10025000CC070C9456020C94C40E0C94D50E0C943E
:10026000270C0C94D20E0C94540C0C94F9070C949B
:10027000EB0E0C944C0C0C9417080C94070F0C9478
:10028000B2070C94E007000020002300260029009C
:100290002C002F00320000010000030106010901BB
:1002A0000200002100240027002A002D0030003326
:1002B0000001010000040107010A010000220025DD
:1002C0000028002B002E0031003400020100000540
:1002D0000108010B010505050507050808080802C6
:1002E0000202020A0A0808040404040101010101CF
:1002F0000101010303030303030303040707070CBE
:100300000C0C0C0C0C0C0C02020202060606060673
:100310000606060B0B0B0B0B0B0B0B010210202020
:100320000808102040102040800201020108040249
:1003300001010204081020408080402010080402BF
:100340000180040201804020100804020108040218
:10035000010102040810204080010204081020401E
:100360008000000A0B02090C0D0E080703040100AF
:10037000000000000000000000000000000000007D
:10038000000000000000000000000000001211103A
:10039000000000000000000000000000000000005D
:1003A00000000000000000002910231011241FBECF
:1003B000CFEFD1E2DEBFCDBF00E00CBF12E0A0E086
:1003C000B2E0E2E5F9E300E00BBF02C007900D9256
:1003D000A434B107D9F727E0A4E4B2E001C01D922C
:1003E000A532B207E1F711E0C5EDD1E000E006C0AB
:1003F00021970109802FFE010E94CE17C43DD1072D
:1004000080E00807A9F70E9445120C94971C0C94F1
:100410000000CF92DF92EF92FF920F931F93CF9342
:10042000DF936C017A018B01C0E0D0E0CE15DF05CF
:1004300081F0D8016D918D01D601ED91FC91019073
:10044000F081E02DC6011995892B11F02196EECF90
:100450007E01C701DF91CF911F910F91FF90EF9027
:10046000DF90CF900895FC01538D448D252F30E00F
:10047000842F90E0821B930B541710F0CF960895B1
:1004800001970895FC01918D828D981761F0828DFE
:10049000DF01A80FB11D5D968C91928D9F5F9F73B8
:1004A000928F90E008958FEF9FEF0895FC01918D5A
:1004B000828D981731F0828DE80FF11D858D90E0C7
:1004C00008958FEF9FEF0895FC01918D228D892F64
:1004D00090E0805C9F4F821B91098F73992708954C
:1004E0008AE792E00E94640221E0892B09F420E06F
:1004F000822F089587E193E00E94640221E0892B16
:1005000009F420E0822F089584EB93E00E946402B6
:1005100021E0892B09F420E0822F0895FC01848DCD
:10052000DF01A80FB11DA35ABF4F2C91848D90E01D
:1005300001968F739927848FA689B7892C93A089F8
:10054000B1898C91837080648C93938D848D981382
:1005500006C00288F389E02D80818F7D8083089515
:10056000EF92FF920F931F93CF93DF93EC0181E003
:10057000888F9B8D8C8D981305C0E889F9898081BF
:1005800085FD26C0F62E0B8D10E00F5F1F4F0F73F9
:100590001127E02E8C8DE8120CC00FB607FCFACFA5
:1005A000E889F989808185FFF5CFCE010E948E020E
:1005B000F1CF8B8DFE01E80FF11DE35AFF4FF08262
:1005C0009FB7F8940B8FEA89FB89808180620AC00B
:1005D0009FB7F894EE89FF896083E889F989808163
:1005E0008370806480839FBF81E090E0DF91CF9132
:1005F0001F910F91FF90EF900895CF93DF93EC013F
:10060000888D8823C9F0EA89FB89808185FD05C032
:10061000A889B9898C9186FD0FC00FB607FCF5CF6C
:10062000808185FFF2CFA889B9898C9185FFEDCFB4
:10063000CE010E948E02E7CFDF91CF910895E0E0D6
:10064000F0E0199480E090E0892B21F00E94840270
:10065000811119C080E090E0892B41F080E090E0AA
:10066000892B21F00E940000811110C00E947A02A3
:1006700081110FC080E090E0892B81F00E94700210
:1006800081110AC008950E940000E4CF0E9400007A
:10069000EDCF0E941F03EECF0C9400000895089543
:1006A00080E090E008950F931F93CF93DF938C0128
:1006B000C62FD62FD07FD1606D2F0E943A0D6D2F9F
:1006C000C8010E944D0D80E1C89FB0011124C62FC2
:1006D000C1606C2FC8010E943A0D6C2FC8010E94A6
:1006E0004D0D81E090E0DF91CF911F910F91089522
:1006F0001F920F920FB60F9211240BB60F922F93E9
:100700003F934F935F936F937F938F939F93AF9399
:10071000BF93EF93FF9380915F0290916002A0914D
:100720006102B0916202892B8A2B8B2B49F1909147
:100730005E028091000089278093000080915F0213
:1007400090916002A0916102B091620218161906A0
:100750001A061B060CF056C080915F029091600251
:10076000A0916102B09162020197A109B109809341
:100770005F0290936002A0936102B093620242C054
:1007800080910002E0EAF2E0E4919FEF9093000292
:10079000E230C9F050F4EE2399F0E13081F5909108
:1007A0006F009D7F90936F002AC0E43019F1E0F054
:1007B000E53029F5909173009D7F909373001FC0E1
:1007C00010926E001CC0909170009D7F90937000FD
:1007D00091E09093B0009091B100987F94609093D5
:1007E000B1001092B3000BC0909171009D7F909367
:1007F000710005C0909172009D7F9093720060E03F
:100800000E940D0FFF91EF91BF91AF919F918F913A
:100810007F916F915F914F913F912F910F900BBE00
:100820000F900FBE0F901F9018951F920F920FB64A
:100830000F9211240BB60F922F933F934F935F9318
:100840006F937F938F939F93AF93BF93EF93FF9398
:100850008AE792E00E948E02FF91EF91BF91AF91E3
:100860009F918F917F916F915F914F913F912F91C8
:100870000F900BBE0F900FBE0F901F9018951F92F8
:100880000F920FB60F9211240BB60F922F933F9336
:100890004F935F936F937F938F939F93AF93BF9388
:1008A000EF93FF938AE792E00E94620DFF91EF9130
:1008B000BF91AF919F918F917F916F915F914F9178
:1008C0003F912F910F900BBE0F900FBE0F901F9076
:1008D00018951F920F920FB60F9211240BB60F921C
:1008E0002F933F934F935F936F937F938F939F9338
:1008F000AF93BF93EF93FF9387E193E00E948E0243
:10090000FF91EF91BF91AF919F918F917F916F91E7
:100910005F914F913F912F910F900BBE0F900FBEA3
:100920000F901F9018951F920F920FB60F921124DF
:100930000BB60F922F933F934F935F936F937F93D9
:100940008F939F93AF93BF93EF93FF9387E193E0D0
:100950000E94620DFF91EF91BF91AF919F918F9196
:100960007F916F915F914F913F912F910F900BBEAF
:100970000F900FBE0F901F9018951F920F920FB6F9
:100980000F9211240BB60F922F933F934F935F93C7
:100990006F937F938F939F93AF93BF93EF93FF9347
:1009A00084EB93E00E948E02FF91EF91BF91AF9193
:1009B0009F918F917F916F915F914F913F912F9177
:1009C0000F900BBE0F900FBE0F901F9018951F92A7
:1009D0000F920FB60F9211240BB60F922F933F93E5
:1009E0004F935F936F937F938F939F93AF93BF9337
:1009F000EF93FF9384EB93E00E94620DFF91EF91E0
:100A0000BF91AF919F918F917F916F915F914F9126
:100A10003F912F910F900BBE0F900FBE0F901F9024
:100A20001895CF92DF92EF92FF920F931F93CF937F
:100A3000DF93CDB7DEB7E2970FB6F894DEBF0FBEF7
:100A4000CDBF8C01AE014D5C5F4FFE013196D801E8
:100A50009C91963308F0965380917B00292F287043
:100A6000877F822B80937B0020910102B0E42B9F33
:100A7000900111249770922B90937C0080917A00C2
:100A8000806480937A0080917A0086FDFCCF20916B
:100A900078008091790030E0382B219331934E1704
:100AA0005F07A9F688E190E0FE01319620E030E092
:100AB00041E0281739079CF4E190F190C080D18083
:100AC000CE14DF044CF4AF0142505109DA01CD924B
:100AD000DC92F182E08240E02F5F3F4FEACF41118C
:100AE00002C0019709F7F80182819381A481B58141
:100AF0008833F4E09F07A105B10509F5A98DBA8DEA
:100B000028E833E10E94D6172FEF33E040E050E0B1
:100B10000E947217CA01B9010E94551620E030E008
:100B20004AE754E40E944A182DED34E246E95FEBAF
:100B30000E94F7182DE637EE4FEE51E44DC0863B8C
:100B40002EE49207A105B10509F5A98DBA8D28E813
:100B500033E10E94D6172FEF33E040E050E00E94CF
:100B60007217CA01B9010E94551620E030E04AE729
:100B700054E40E944A1821EE3AE744E95FEB0E94F0
:100B8000F7182AEF3EE741E752E426C08E3AE1E04B
:100B90009E07A105B10519F5A98DBA8D28E833E1A5
:100BA0000E94D6172FEF33E040E050E00E9472170A
:100BB000CA01B9010E94551620E030E04AE754E42A
:100BC0000E944A182BE83CE647E85FEB0E94F718C2
:100BD0002EEA37E441E451E40E94B41646C0843959
:100BE0009848A140B10509F045C0A98DBA8D28E803
:100BF00033E10E94D6172FEF33E040E050E00E942F
:100C00007217CA01B9010E9455166B017C0120E0E0
:100C100030E04FEA54E40E944E1687FD29C020E0E0
:100C200030E44EE455E4C701B6010E94F2181816EC
:100C3000FCF020E030EA4CE854E4C701B6010E9421
:100C4000DD1720E030E04AE754E40E944A1820E033
:100C500030E849E053E40E944A189B01AC0160E08F
:100C600070E080E89FE30E944A180E94BC1802C00E
:100C700060E070E0CB01E2960FB6F894DEBF0FBEE5
:100C8000CDBFDF91CF911F910F91FF90EF90DF903B
:100C9000CF9008951F920F920FB60F9211240BB6AA
:100CA0000F922F933F934F935F936F937F938F9305
:100CB0009F93AF93BF93CF93DF93EF93FF932091D5
:100CC000520430E0F901EF59FC4F8491F901E55EDF
:100CD000FC4FD491F901EB52FD4FC491CC2379F034
:100CE00081110E94B70EEC2FF0E0EE0FFF1FEA57C4
:100CF000FD4FA591B491EC91ED2381E009F480E0E2
:100D000020915604309157042F5F3F4F3093570482
:100D10002093560490915504953618F096E09093E0
:100D20005104909151049430C9F128F4923069F043
:100D30009330D1F05EC0953009F451C0963009F07F
:100D400058C091E09093220551C0811152C020916A
:100D50005604309157042436310508F442C01092ED
:100D60002205109255041CC0813009F042C0E09168
:100D7000550491E09E0F90935504F0E020915604A5
:100D800030915704EE0FFF1FEF5AFB4F3087278338
:100D9000109257041092560494E029C0811117C094
:100DA000E091550491E09E0F90935504F0E020915E
:100DB000560430915704EE0FFF1FEF5AFB4F308758
:100DC0002783109257041092560493E010C020918C
:100DD0005604309157042536310558F007C081116B
:100DE00008C0109257041092560403C095E09093E7
:100DF0005104909154049923B9F081110AC0809153
:100E00005304882321F08091530461E009C02F9A94
:100E10000BC080915304882331F08091530460E02B
:100E20000E940D0F01C02F98FF91EF91DF91CF919C
:100E3000BF91AF919F918F917F916F915F914F91F2
:100E40003F912F910F900BBE0F900FBE0F901F90F0
:100E500018958F929F92AF92BF92CF92DF92EF92AE
:100E6000FF920F931F93CF93DF938C016A017B0155
:100E700020E030E04FE753E4C701B6010E94B4160A
:100E80004B015C0120E030E0A9010E94F218181625
:100E90001CF4C501B40103C0C501B40190580E94FF
:100EA000BC18EB0120E030E0A901C701B6010E94A7
:100EB000F218181614F460E001C061E0F8018181B5
:100EC0000E940D0FCF3FD10509F014F4DD2702C0B9
:100ED000CFEFD0E0F801108161E0812F0E943C0F3C
:100EE000209709F4B1C0CF3FD10509F4AFC0E12F7D
:100EF000F0E0EF59FC4FE4918E2F90E0FC01319728
:100F0000E231F10508F09DC08827EE58FF4F8F4F62
:100F10000C94CE1784B5806884BDC7BDA7C084B5C6
:100F2000806284BDC8BDA2C080918000806880932B
:100F30008000D0938900C093880098C08091800081
:100F4000806280938000D0938B00C0938A008EC013
:100F500080918000886080938000D0938D00C09342
:100F60008C0084C08091B00080688093B000C093F2
:100F7000B3007CC08091B00080628093B000C093C9
:100F8000B40074C080919000806880939000D093EA
:100F90009900C09398006AC080919000806280930D
:100FA0009000D0939B00C0939A0060C08091900005
:100FB000886080939000D0939D00C0939C0056C0A1
:100FC0008091A00080688093A0008091A0008F7B1A
:100FD0008093A000D093A900C093A80047C080913F
:100FE000A00080628093A000D093AB00C093AA00C1
:100FF0003DC08091A00088608093A000D093AD0098
:10100000C093AC0033C080912001806880932001A0
:10101000D0932901C093280129C0809120018062CA
:1010200080932001D0932B01C0932A011FC080918F
:101030002001886080932001D0932D01C0932C0162
:1010400015C0C038D10514F460E001C061E0812F03
:10105000DF91CF911F910F91FF90EF90DF90CF9094
:10106000BF90AF909F908F900C940D0FDF91CF9118
:101070001F910F91FF90EF90DF90CF90BF90AF90B6
:101080009F908F9008958EBD00000DB407FEFDCF98
:101090008EB50895CF93DF93EC0160E088810E94C4
:1010A0000D0F88E90E94430880E00E94430880E019
:1010B0000E94430880E00E94430880E00E944308A9
:1010C00061E088810E940D0F8BE891E00197F1F7B4
:1010D00060E088810E940D0F80EE0E94430861E06D
:1010E0008881DF91CF910C940D0FAF92BF92CF9278
:1010F000DF92EF92FF920F931F93CF93DF93CDB7C1
:10110000DEB760970FB6F894DEBF0FBECDBF5C01AF
:1011100060E0FC0180810E940D0F80E60E94430880
:101120008E010F5F1F4F7E01F1E1EF0EF11C680190
:1011300080E00E94430890E0A0E0B0E0F6018193D7
:101140009193A193B1936F01EE15FF0589F761E0CB
:10115000F50180810E940D0F80E090E0DC01F80134
:1011600041915191619171918F01BA2FA92F982FBF
:101170008827840F951FA61FB71FEE15FF0579F767
:101180009C01AD0166277727CB01621B730B840B93
:10119000950B60960FB6F894DEBF0FBECDBFDF9102
:1011A000CF911F910F91FF90EF90DF90CF90BF9064
:1011B000AF9008951F920F920FB60F9211240BB6A5
:1011C0000F922F933F934F935F936F937F938F93E0
:1011D0009F93AF93BF93EF93FF9380915D0287FF3F
:1011E00005C0109285001092840016C020915D0207
:1011F000022E000C330B80915F0590E02817390711
:101200005CF430915D0225E03203F0011124ED5DC4
:10121000FA4F808186FD15C080915D028F5F8093BB
:101220005D0220915D02022E000C330B80915F0560
:1012300090E02817390794F480915D028C302CF1EE
:101240000DC030915D023203F0011124ED5DFA4FC3
:10125000808160E08F730E940D0FDECF809184004B
:101260009091850084349C4918F480E49CE905C081
:1012700080918400909185000496909389008093DA
:1012800088008FEF80935D022AC0409184005091C6
:10129000850030915D0225E03203F0011124ED5DFF
:1012A000FA4F81819281840F951F909389008093DA
:1012B000880030915D023203F0011124ED5DFA4F98
:1012C000808186FF0CC030915D023203F001112451
:1012D000ED5DFA4F808161E08F730E940D0FFF91E9
:1012E000EF91BF91AF919F918F917F916F915F919E
:1012F0004F913F912F910F900BBE0F900FBE0F900B
:101300001F9018952F923F924F925F926F927F920B
:101310008F929F92AF92BF92CF92DF92EF92FF9205
:101320000F931F93CF93DF93CDB7DEB760970FB6C0
:10133000F894DEBF0FBECDBF9E838D8385E12D81E6
:101340003E81829FB001839F700D1124072E000CF7
:10135000880B990B0E94551669837A838B839C8333
:1013600020E030E0A9010E944E1687FF09C0898164
:101370009A81AB81BC81B05889839A83AB83BC834B
:1013800084E895E00E944A0886E895E00E944A08B1
:10139000AD81BE811A161B060CF0F7C04DEC5CEC5B
:1013A0006CE47EE380E895E00E9429074DEC5CEC5C
:1013B0006CE47EE382E895E00E9429071A8619868C
:1013C00018861F82188A1F8600E010E08DEC882E98
:1013D0008CEC982E8CE4A82E8EEBB82E20E030E01A
:1013E00040E450E469817A818B819C810E94DD1701
:1013F0006B017C01B801012E000C880B990B0E9437
:101400005516A70196010E944E1687FD11C04F8503
:101410005889BA01550F880B990B0E9455169B01EC
:10142000AC01C701B6010E94F21818160CF059C1A0
:1014300086E895E00E9475086B877C878D879E877C
:101440008B859C859195819591099E838D8384E8F8
:1014500095E00E947508442455243201461A570A23
:10146000680A790A1201C201AF81B8858A1B9B0BF9
:10147000080F191F8D819E8129853A85821B930B48
:101480004F855889480F591F588B4F8755E6451689
:1014900051040CF444C086E895E00E944A0884E8B0
:1014A00095E00E944A086B857C85640D751D072EAA
:1014B000000C880B990B0E94551627E137EB41ED84
:1014C00058E30E94B4162B013C01B8018F8598891E
:1014D000681B790B072E000C880B990B0E94551680
:1014E0002CEA35EC47EA57E30E94B4169B01AC01A5
:1014F000C301B2010E94DE179B01AC01C501B4011A
:101500000E94DD174B015C01AB01BC01705882E801
:1015100095E00E9429071E821D82212C312CB801E2
:10152000012E000C880B990B0E9455169B01AC01F3
:10153000C701B6010E944E1687FF07C040E050E089
:10154000BA0180E895E00E942907AF85B889BD01FE
:10155000BB0F880B990B0E9455169B01AC01C7016C
:10156000B6010E944E1687FD07C02D813E813A8745
:10157000298738862F8232CF40E050E060E070E863
:1015800082E895E00E942907F0CF2D813E81232B30
:1015900009F4A7C04DEC5CEC6CE47EEB80E895E0D0
:1015A0000E9429074DEC5CEC6CE47EEB82E895E050
:1015B0000E942907C12CD12CA12CB12CE12CF12C9B
:1015C00000E010E020E030E040E450E469817A81FE
:1015D0008B819C810E94DD172B013C01B801012EFB
:1015E000000C880B990B0E945516A30192010E94D2
:1015F0004E1687FD10C0B7010F2C000C880B990BFD
:101600000E9455169B01AC01C301B2010E94F21861
:1016100018160CF066C084E895E00E9475089B01DE
:10162000AC0188279927DC01821B930BA40BB50B17
:1016300044275527481B590B5E834D8386E895E068
:101640000E9475084B012D813E812A193B09020F2A
:10165000131FAB014C195D09E40EF51E8D819E81AF
:101660008536910564F086E895E00E944A0884E892
:1016700095E00E944A08812C912C1E821D82B8019F
:10168000012E000C880B990B0E9455169B01AC0192
:10169000C301B2010E944E1687FF07C040E050E030
:1016A000BA0180E895E00E942907B7010F2C000CD1
:1016B000880B990B0E9455169B01AC01C301B20126
:1016C0000E944E1687FD04C06401AD80BE807ACFB3
:1016D00040E050E060E070E882E895E00E94290771
:1016E000F3CF40E050E0BA0180E895E00E9429077E
:1016F00040E050E060E070E882E895E060960FB668
:10170000F894DEBF0FBECDBFDF91CF911F910F9137
:10171000FF90EF90DF90CF90BF90AF909F908F9011
:101720007F906F905F904F903F902F900C9429077F
:1017300030916D02313208F04BC080916B02811103
:10174000FCCF9091540622E020936B0221E020937D
:101750006A022FEF20933206109231063093300642
:10176000E4E3F6E0A0E1B6E020E0321721F0419199
:101770004D932F5FFACF10920F0620910F06990F0D
:10178000922B90930F0690916902913061F4109220
:10179000690290910F069093BB009091BC0093FD5D
:1017A000F8CF95EC01C095EE9093BC0090916B0240
:1017B0009230E1F3909132069F3F79F080913206AA
:1017C000803241F080913206803331F084E005C0F0
:1017D00081E003C082E001C083E010926C021092AD
:1017E0006D0210923306089585ED8093BC008091C0
:1017F000BC0084FDFCCF10926B0208954091EC0573
:10180000262F30E0240F311D21323105DCF42091E8
:101810006B022430C9F4FC0180E090E0861758F494
:101820003091EC052191DC01A453BA4FA30FB11DF7
:101830002C930196F3CF8091EC05680F6093EC0533
:1018400080E0089581E0089582E008950895089564
:101850000895E091640280916302E81730F4F0E0AB
:10186000E455FA4F808190E008958FEF9FEF08953F
:101870009091640280916302981750F4E92FF0E090
:10188000E455FA4F208130E09F5F9093640202C0DC
:101890002FEF3FEFC90108958091630290E02091FE
:1018A0006402821B91090895CF92DF92EF92FF921A
:1018B0000F931F93CF93DF937C01CB018A0120917B
:1018C0003306222389F0EB016B01C40ED51ECC1523
:1018D000DD0569F06991D701ED91FC910190F081EE
:1018E000E02DC7011995F3CF642F0E94FE0BC801AC
:1018F000DF91CF911F910F91FF90EF90DF90CF90EC
:101900000895CF93DF931F92CDB7DEB769832091FF
:1019100033062223D1F020916D02203240F021E0E5
:1019200030E0FC013383228380E090E015C0809199
:101930006C02E82FF0E0EC5CF94F998190838F5FA7
:1019400080936C0280936D0205C061E0CE01019628
:101950000E94FE0B81E090E00F90DF91CF910895FF
:10196000009769F0FC0101900020E9F73197AF0181
:10197000481B590BBC0184EB93E00C94090280E0F6
:1019800090E008958F929F92AF92BF920F931F9312
:10199000CF93DF93CDB7DEB7A1970FB6F894DEBF34
:1019A0000FBECDBF19A2423008F44AE08E010F5D90
:1019B0001F4F842E912CA12CB12CA50194010E94C3
:1019C0009117E62FB901CA0101501109EA3014F448
:1019D000E05D01C0E95CD801EC93232B242B252B7F
:1019E00061F7C8010E94B00CA1960FB6F894DEBF53
:1019F0000FBECDBFDF91CF911F910F91BF90AF90E0
:101A00009F908F9008950F931F93CF93DF93162F7E
:101A1000072FC7E6D5E09C8521E0209333069093FD
:101A2000540610926C0210926D02AA85BB85ED914E
:101A3000FC9111970190F081E02D682FCD0119954F
:101A40008A859B85DC01ED91FC910190F081E02D70
:101A5000602F19958A859B85DC01ED91FC910190A1
:101A6000F081E02D612F1995DF91CF911F910F919A
:101A70000C94980BFC01248131E0309333062093C1
:101A8000540610926C0210926D028485682B8EE6CB
:101A900092E00E94810C0C94980B0F931F93CF93AC
:101AA0008C01C62F64600E943A0D6C2F6B7FC801B9
:101AB0000E943A0D83EC90E00197F1F7CF911F91CE
:101AC0000F910895FC01A089B1898C91A689B789ED
:101AD00082FD0FC09C91818D8F5F8F73228D821745
:101AE00049F0218DDF01A20FB11D5D969C93818F7E
:101AF00008958C9108951F920F920FB60F921124A2
:101B00000BB60F922F933F934F935F936F937F93F7
:101B10008F939F93AF93BF93EF93FF938091B900FF
:101B2000887F803609F49CC068F5883209F45BC070
:101B300090F4803109F454C038F4882309F4F6C0D5
:101B4000883009F44DC0F6C0883109F44CC08032A9
:101B500009F45DC0EFC0803409F468C048F48033F4
:101B600009F455C0883309F0E5C080933206D8C027
:101B7000803509F44FC0883509F45DC0883409F018
:101B8000D9C0D6C0883909F4C7C0A8F4883709F489
:101B900067C038F4883609F463C0803709F460C040
:101BA000C9C0883809F4B8C0803909F45FC08038EA
:101BB00009F0C0C05BC0803B09F486C038F4803AAD
:101BC00009F466C0883A09F47FC0B4C0803C09F4C7
:101BD000A7C0883C09F4A4C0883B09F48AC0AAC005
:101BE00080910F0610C090913106809130069817B1
:101BF00070F5E091310681E08E0F80933106F0E0C0
:101C0000E05FF94F80818093BB0085EC86C08093B4
:101C100032068EC0E091310681E08E0F809331064E
:101C20008091BB00F0E0E05FF94F80839091310636
:101C3000809130066EC0E091310681E08E0F809376
:101C400031068091BB00F0E0E05FF94F8083809126
:101C50006A0281116DC081E08093690284EA61C0EB
:101C600083E080936B0210920E06CFCF80910E0618
:101C7000803208F051C0E0910E0681E08E0F809313
:101C80000E068091BB00F0E0E251FA4F8083BDCF99
:101C900085EC8093BC0010926B0280910E0680321E
:101CA00030F4E0910E06F0E0E251FA4F10826091BC
:101CB0000E0670E0E0916702F09168028EEE95E00A
:101CC000199510920E0636C084E080936B02109234
:101CD000ED051092EC05E0916502F0916602199510
:101CE0008091EC05811105C081E08093EC05109294
:101CF000CC05E091ED0581E08E0F8093ED05F0E0DD
:101D0000E453FA4F80818093BB009091ED05809160
:101D1000EC05981708F479CF85E88093BC000AC0D9
:101D200085EC8093BC0010926B0204C010923206C6
:101D30000E94F40BFF91EF91BF91AF919F918F9112
:101D40007F916F915F914F913F912F910F900BBEBB
:101D50000F900FBE0F901F9018951F920F920FB605
:101D60000F9211240F900FBE0F901F90189590E0C6
:101D7000FC013197E231F10508F04EC08827EC579D
:101D8000FF4F8F4F0C94CE17809180008F7703C048
:101D9000809180008F7D80938000089580918000E5
:101DA000877FF9CF84B58F7702C084B58F7D84BDDE
:101DB00008958091B0008F7703C08091B0008F7D2F
:101DC0008093B0000895809190008F7707C0809134
:101DD00090008F7D03C080919000877F809390005A
:101DE00008958091A0008F7707C08091A0008F7D1B
:101DF00003C08091A000877F8093A0000895809108
:101E000020018F7707C0809120018F7D03C08091D2
:101E10002001877F8093200108951F93CF93DF9344
:101E2000282F30E0F901EF59FC4F8491F901E55E6C
:101E3000FC4FD491F901EB52FD4FC491CC23C1F07A
:101E4000162F81110E94B70EEC2FF0E0EE0FFF1F4E
:101E5000E554FD4FA591B4919FB7F894111104C0BA
:101E60008C91D095D82302C0EC91DE2BDC939FBFE0
:101E7000DF91CF911F910895CF93DF9390E0FC0104
:101E8000E55EFC4F2491FC01EB52FD4F84918823C9
:101E900061F190E0880F991FFC01EF55FD4FC5914E
:101EA000D491FC01E554FD4FA591B491611109C095
:101EB0009FB7F8948881209582238883EC912E2304
:101EC0000BC0623061F49FB7F8948881322F30954F
:101ED00083238883EC912E2B2C939FBF06C08FB752
:101EE000F894E8812E2B28838FBFDF91CF9108953E
:101EF0003FB7F89480911D0790911E07A0911F078E
:101F0000B091200726B5A89B05C02F3F19F0019678
:101F1000A11DB11D3FBFBA2FA92F982F8827820F6F
:101F2000911DA11DB11DBC01CD0142E0660F771FBF
:101F3000881F991F4A95D1F708958F929F92AF926B
:101F4000BF92CF92DF92EF92FF926B017C010E94D1
:101F5000780F4B015C01C114D104E104F104F1F0EC
:101F60000E94780FDC01CB0188199909AA09BB09E5
:101F7000883E9340A105B10570F321E0C21AD10853
:101F8000E108F10888EE880E83E0981EA11CB11CC0
:101F9000C114D104E104F10419F7DDCFFF90EF90F3
:101FA000DF90CF90BF90AF909F908F9008950E9448
:101FB000821C1F920F920FB60F9211242F933F9302
:101FC0008F939F93AF93BF938091190790911A07B6
:101FD000A0911B07B0911C073091180723E0230F35
:101FE0002D3720F40196A11DB11D05C026E8230F51
:101FF0000296A11DB11D2093180780931907909395
:102000001A07A0931B07B0931C0780911D0790919E
:102010001E07A0911F07B09120070196A11DB11DB9
:1020200080931D0790931E07A0931F07B09320076E
:10203000BF91AF919F918F913F912F910F900FBEC4
:102040000F901F90189580916005909161050C94F8
:10205000141BCF92DF92EF92FF92109271021092B6
:10206000700288EE93E0A0E0B0E08093720290935B
:102070007302A0937402B093750224E132E03093AE
:102080006F0220936E0210927D0210927C02809368
:102090007E0290937F02A0938002B093810226E299
:1020A00032E030937B0220937A0245E351E0509373
:1020B00087024093860244E351E0509389024093A3
:1020C000880240E351E050938B0240938A0241E33F
:1020D00051E050938D0240938C0242E351E05093C3
:1020E0008F0240938E0246E351E050939102409359
:1020F0009002109293021092940210929502109204
:10210000960210921A031092190380931B03909366
:102110001C03A0931D03B0931E0330931803209358
:10212000170345ED50E0509324034093230344EDFF
:1021300050E0509326034093250340ED50E0509328
:1021400028034093270341ED50E050932A03409326
:10215000290342ED50E050932C0340932B0346EDAE
:1021600050E050932E0340932D03109230031092B1
:10217000310310923203109233031092B70310927E
:10218000B6038093B8039093B903A093BA03B093B6
:10219000BB033093B5032093B40385EC90E0909398
:1021A000C1038093C00384EC90E09093C3038093B9
:1021B000C20380EC90E09093C5038093C40381EC4C
:1021C00090E09093C7038093C60382EC90E09093D5
:1021D000C9038093C80386EC90E09093CB0380936F
:1021E000CA031092CD031092CE031092CF03109227
:1021F000D0038091080290910902A0910A02B09147
:102200000B028093880590938905A0938A05B0936B
:102210008B0580910C0290910D02A0910E02B0915D
:102220000F0280938C0590938D05A0938E05B0933B
:102230008F0584E08093900587E08093910510924C
:10224000920584EB8093930586E18093940588E161
:102250008093950587E18093960589E180939705A2
:10226000E0915F05EC3020F08FEF8093980510C06F
:1022700081E08E0F80935F05E093980585E0E89FED
:10228000F0011124ED5DFA4F88EB9BE0928381838E
:10229000E0915F05EC3020F08FEF8093990510C03E
:1022A00081E08E0F80935F05E093990585E0E89FBC
:1022B000F0011124ED5DFA4F88EB9BE0928381835E
:1022C0008CE08093670584E28093680586E08093C4
:1022D000690585E080936A058FE180936B058EE147
:1022E00080936C0583E280936D0582E280936E0596
:1022F00085E480936F0584E48093700580E4809387
:102300007305109278051092790510927A05109253
:102310007B0510927C0510927D0510927E0510922F
:102320007F05E9E5F6E027E137E08FEF9FEFDC017D
:1023300012821382148215821682178210861186E9
:1023400083879487A587B6878787908BA18BB28B6D
:1023500012861182108273962E173F0749F78DE07F
:1023600090E00E947C1AFC011382128288E392E0C2
:1023700091838083118687E2848384E1828784E06D
:1023800083871486F0935606E093550610925706FD
:102390001092580685E280935204109254041092D1
:1023A000610510926005109263051092620510920B
:1023B00065051092640561E070E080E090E00E94A5
:1023C0009D1B009791F0909361058093600510929A
:1023D0006305109262052091640530916505232BF9
:1023E00009F046C0FC01108243C0809160059091C5
:1023F0006105009711F00E94141B10926105109264
:1024000060051092650510926405109263051092A4
:1024100062058FE390E09093A5058093A40598E36F
:10242000C92E94E0D92EE12CF12CC092A605D092B1
:10243000A705E092A805F092A90560E00E943C0F74
:1024400081E0809301028EE390E090939F0580935A
:102450009E05C092A005D092A105E092A205F0923F
:10246000A30560E0FF90EF90DF90CF900C943C0FBD
:10247000109265051092640562E472E08091600537
:10248000909161050E94901CC4CFCF93DF93CDB78C
:10249000DEB72A970FB6F894DEBF0FBECDBF789493
:1024A00084B5826084BD84B5816084BD85B5826059
:1024B00085BD85B5816085BD80916E00816080930A
:1024C0006E00109281008091810082608093810073
:1024D0008091810081608093810080918000816083
:1024E000809380008091B10084608093B1008091DE
:1024F000B00081608093B0008091910082608093F1
:102500009100809191008160809391008091900072
:102510008160809390008091A10082608093A100EF
:102520008091A10081608093A1008091A0008160D2
:102530008093A0008091210182608093210180918D
:10254000210181608093210180912001816080932D
:10255000200180917A00846080937A0080917A00D3
:10256000826080937A0080917A00816080937A0003
:1025700080917A00806880937A001092C100E09187
:10258000C403F091C50382E08083E091C003F09121
:10259000C1031082E091C203F091C3038FEC8083EA
:1025A0001092CC03E091C803F091C90386E08083C8
:1025B000E091C603F091C703808180618083E09140
:1025C000C603F091C703808188608083E091C603D1
:1025D000F091C703808180688083E091C603F09109
:1025E000C70380818F7D808361E0809168050E94B0
:1025F0003C0F60E0809168050E940D0F60E08091C3
:1026000067050E943C0F8EE692E0909372058093DE
:102610007105109264021092630210926C02109283
:102620006D0210926B0281E080936A02109269023F
:1026300061E084E10E940D0F61E085E10E940D0FD1
:102640008091B9008E7F8093B9008091B9008D7F11
:102650008093B90088E48093B80085E48093BC003F
:1026600086E29CE0909366028093650287E29CE09C
:10267000909368028093670280E090E1A0E0B0E070
:102680008093740590937505A0937605B0937705B4
:102690008AE090E0A0E0B0E080937805909379051F
:1026A000A0937A05B0937B0580E090E0A0E0B0E4D1
:1026B00080937C0590937D05A0937E05B0937F0564
:1026C00060E070E185E00E94030D6FE979E380E04E
:1026D0000E94030D07E615E07801512CBAE06B2E3D
:1026E000B3E07B2E80E5882E83E0982E9BECC92EEC
:1026F00097E0D92ED70114969C91149712968C913D
:10270000F801818F928F61E00E943C0F61E0D80157
:102710005A968C910E943C0FF70190858681580152
:10272000FDE1AF0EB11CD8015D968C935D975E966E
:102730009C9361E00E943C0F60E0F801868D0E944E
:102740003C0F61E0D8015D968C910E940D0F4FB651
:10275000F89480911707811126C0F3018491F40148
:102760002491E82FF0E0EE0FFF1FEF55FD4FA591EC
:10277000B4919C91822F892321F461E085E30E942A
:102780000D0F61E085E30E943C0F8CB580618CBD2C
:102790008CB580648CBD61E084E30E943C0F61E0F5
:1027A00083E30E943C0F809117078F5F8093170788
:1027B0004FBEC6010197F1F760E0D8015D968C919C
:1027C0000E940D0F88E80E94430883E00E9443089E
:1027D00061E0F801858D0E940D0FC6010197F1F7A8
:1027E000C5010E944A085394FFEFEF1AFF0A0E5FDB
:1027F0001F4F22E052127ECFECE8EE2EE5E0FE2ED7
:1028000000E915E060E0D7018D917D010E943C0F49
:102810000E151F05B9F738E8E32E35E0F32E42E92F
:10282000C42E45E0D42E55E0B52E6CE0962E72E015
:10283000A72EF80181908F0187818C3008F048C065
:1028400061E0882D0E943C0FD80117968C91B89EAC
:10285000F0011124ED5DFA4F982D9F732081207CAB
:10286000822E892A808213821482692D0E94C217C7
:10287000BCE08B9FA001112420E030E0BA01620F80
:10288000731FB69EF001B79EF00D1124ED5DFA4F57
:10289000908196FD12C02F5F3F4F2C30310571F7AC
:1028A00081110BC010928000A092810010928500CF
:1028B00010928400A6BAA0926F00D8011796EC91EE
:1028C000BE9EF0011124ED5DFA4F8081806480830B
:1028D000F80195818381D70152968C935297539634
:1028E0009C9360E00E943C0F61E0F70183890E94A5
:1028F0003C0F60E0D70153968C910E940D0FB2E01F
:10290000EB0EF11CC016D10609F093CFF89410928B
:10291000200189E08093210180E293E090932901D6
:1029200080932801109225011092240182E0809367
:10293000730078948093510410925504809152044E
:1029400060E00E943C0F6AE070E080E090E00E944E
:102950009D0FEDB7FEB7FE83ED838DB79EB78A97C7
:102960000FB6F8949EBF0FBE8DBFADB7BEB7119620
:102970006D01E455F1090FB6F894FEBF0FBEEDBF2F
:1029800089975C01A555B1090FB6F894BEBF0FBE7B
:10299000ADBFB997FA87E9878CE390E00E9482097E
:1029A000BA82A982C6018A9698878F83350146012B
:1029B00064EF71E080E090E00E949D0F84EA95E072
:1029C0000E9411057C01D4018D939D934D018EE9E8
:1029D00095E00E9411058C01F301819391933F01D1
:1029E0001701FF0C4408550857FE0EC06DE284EB3A
:1029F00093E00E94B00266277727CB016219730922
:102A0000840995094AE003C04AE0C201B1010E946D
:102A1000C20C80E492E00E94B00C1801110F44082F
:102A2000550857FE0EC06DE284EB93E00E94B002A1
:102A300066277727CB0162197309840995094AE053
:102A400003C04AE0C201B1010E94C20C80E492E0DE
:102A50000E94B00C8CEF9FEF0E9482098F819885B5
:102A60008815990509F0A4CFE985FA8500E010E002
:102A700040E050E020E030E0D6018D919D916D0165
:102A8000A981BA816D917D91BA83A983861B970B29
:102A900081939193481759072CF48634910514F4C7
:102AA0008901AC012F5F3F4F2531310529F78CE3B8
:102AB00090E00E948209B6E0B09F9001B19F300D76
:102AC00011248CE390E0821B930B0E948209000F7B
:102AD000111FF501E00FF11F00811181ED81FE81D1
:102AE0000FB6F894FEBF0FBEEDBF68EE73E080E056
:102AF00090E00E949D0FD801AA0FBB1FA00FB11F2D
:102B000020E83CE00E94D6170E94551620E030E0F5
:102B100044EC51E40E944A180E94BC186B017C01ED
:102B200084E895E00E944A0886E895E00E947508CE
:102B300086E895E00E944A084AE959E969E97EE396
:102B400080E895E00E9429074AE959E969E97EEBA6
:102B500082E895E00E942907212C312C00E010E04A
:102B60002AE9822E29E9922EA92C2EE3B22E2601E3
:102B70003701F1EE4F1A510861087108C801012EA2
:102B8000000CAA0BBB0B84159505A605B7055CF0D8
:102B9000C101032C000CAA0BBB0B84159505A605DF
:102BA000B7050CF05DC086E895E00E947508698362
:102BB0007A838B839C8384E895E00E947508CC24FB
:102BC000DD247601C61AD70AE80AF90A86E895E0F4
:102BD0000E944A0884E895E00E944A080C0D1D1DD9
:102BE00089819A81280E391EB601681B790B072E40
:102BF000000C880B990B0E94551627E137EB41E535
:102C000059E30E94B4166B017C01B8016219730983
:102C1000072E000C880B990B0E9455162CEA35ECF8
:102C200047E258E30E94B4169B01AC01C701B6010C
:102C30000E94DE179B01AC01C501B4010E94DE17A2
:102C40004B015C01AB01BC01705882E895E00E9429
:102C5000290762E370E080E090E00E949D0F8ECF34
:102C600040E050E0BA0180E895E00E94290740E08A
:102C700050E060E070E882E895E00E94290764E691
:102C800070E080E090E00E949D0F64EF71E080E0D2
:102C900090E00E949D0F0E94220355CE0E94901644
:102CA00008F481E00895E89409C097FB3EF49095FC
:102CB0008095709561957F4F8F4F9F4F9923A9F015
:102CC000F92F96E9BB279395F695879577956795A4
:102CD000B795F111F8CFFAF4BB0F11F460FF1BC0E8
:102CE0006F5F7F4F8F4F9F4F16C0882311F096E97B
:102CF00011C0772321F09EE8872F762F05C0662329
:102D000071F096E8862F70E060E02AF09A95660FE1
:102D1000771F881FDAF7880F9695879597F908959A
:102D2000990F0008550FAA0BE0E8FEEF16161706DC
:102D3000E807F907C0F012161306E407F50798F044
:102D4000621B730B840B950B39F40A2661F0232B5D
:102D5000242B252B21F408950A2609F4A140A695D9
:102D60008FEF811D811D08950E94C7160C9438179E
:102D70000E942A1738F00E94311720F0952311F095
:102D80000C9421170C94271711240C946C170E9493
:102D9000491770F3959FC1F3950F50E0551F629F3F
:102DA000F001729FBB27F00DB11D639FAA27F00DA4
:102DB000B11DAA1F649F6627B00DA11D661F829FCB
:102DC0002227B00DA11D621F739FB00DA11D621FB0
:102DD000839FA00D611D221F749F3327A00D611DCD
:102DE000231F849F600D211D822F762F6A2F1124AF
:102DF0009F5750409AF0F1F088234AF0EE0FFF1FE2
:102E0000BB1F661F771F881F91505040A9F79E3F38
:102E1000510580F00C9421170C946C175F3FE4F37C
:102E2000983ED4F3869577956795B795F795E7958E
:102E30009F5FC1F7FE2B880F911D9695879597F997
:102E4000089597F99F6780E870E060E008959FEF2C
:102E500080EC089500240A94161617061806090631
:102E6000089500240A941216130614060506089500
:102E7000092E0394000C11F4882352F0BB0F40F488
:102E8000BF2B11F460FF04C06F5F7F4F8F4F9F4FC8
:102E9000089557FD9058440F551F59F05F3F71F04A
:102EA0004795880F97FB991F61F09F3F79F08795B1
:102EB0000895121613061406551FF2CF4695F1DF3A
:102EC00008C0161617061806991FF1CF86957105CA
:102ED000610508940895E894BB2766277727CB01FE
:102EE00097F90895052E97FB1EF400940E94891708
:102EF00057FD07D00E94911707FC03D04EF40C94A5
:102F0000891750954095309521953F4F4F4F5F4F12
:102F1000089590958095709561957F4F8F4F9F4F45
:102F20000895A1E21A2EAA1BBB1BFD010DC0AA1F0A
:102F3000BB1FEE1FFF1FA217B307E407F50720F022
:102F4000A21BB30BE40BF50B661F771F881F991F9D
:102F50001A9469F760957095809590959B01AC01E6
:102F6000BD01CF010895A29FB001B39FC001A39FEF
:102F7000700D811D1124911DB29F700D811D1124B2
:102F8000911D0895991B79E004C0991F961708F0C8
:102F9000961B881F7A95C9F780950895EE0FFF1F3D
:102FA000881F8BBF0790F691E02D19940E94B317EC
:102FB000B7FF0895821B930B08955058BB27AA278B
:102FC0000E94F5170C9438170E942A1738F00E94B7
:102FD000311720F039F49F3F19F426F40C94271789
:102FE0000EF4E095E7FB0C942117E92F0E94491796
:102FF00058F3BA17620773078407950720F079F42E
:10300000A6F50C946B170EF4E0950B2EBA2FA02D9D
:103010000B01B90190010C01CA01A0011124FF2785
:10302000591B99F0593F50F4503E68F11A16F04080
:10303000A22F232F342F4427585FF3CF469537957F
:103040002795A795F0405395C9F77EF41F16BA0B44
:10305000620B730B840BBAF09150A1F0FF0FBB1FF2
:10306000661F771F881FC2F70EC0BA0F621F731F3B
:10307000841F48F4879577956795B795F7959E3F98
:1030800008F0B0CF9395880F08F09927EE0F979529
:10309000879508950E945E180C9438170E94311786
:1030A00058F00E942A1740F029F45F3F29F00C9451
:1030B000211751110C946C170C9427170E94491773
:1030C00068F39923B1F3552391F3951B550BBB2757
:1030D000AA2762177307840738F09F5F5F4F220F9C
:1030E000331F441FAA1FA9F335D00E2E3AF0E0E893
:1030F00032D091505040E695001CCAF72BD0FE2FDD
:1031000029D0660F771F881FBB1F26173707480770
:10311000AB07B0E809F0BB0B802DBF01FF27935828
:103120005F4F3AF09E3F510578F00C9421170C94B4
:103130006C175F3FE4F3983ED4F3869577956795D7
:10314000B795F7959F5FC9F7880F911D969587955D
:1031500097F90895E1E0660F771F881FBB1F62177C
:1031600073078407BA0720F0621B730B840BBA0B3A
:10317000EE1F88F7E09508950E94C3186894B11176
:103180000C946C1708950E94511788F09F5798F07F
:10319000B92F9927B751B0F0E1F0660F771F881F5C
:1031A000991F1AF0BA95C9F714C0B13091F00E9476
:1031B0006B17B1E008950C946B17672F782F882751
:1031C000B85F39F0B93FCCF3869577956795B3959D
:1031D000D9F73EF490958095709561957F4F8F4F0C
:1031E0009F4F08950E94901608F48FEF0895FA01FA
:1031F000EE0FFF1F309621053105A1F16115710514
:1032000061F48038BFE39B0749F1689490388105E9
:1032100061F08038BFEF9B0741F099234AF5FF3FEB
:10322000E1053105210519F1E8940894E795D901E4
:10323000AA2329F4AB2FBE2FF85FD0F310C0FF5F95
:1032400070F4A695E0F7F73950F019F0FF3A38F42A
:103250009F779F930DD00F9007FC9058089546F0EC
:103260000C94271760E070E080E89FE308954FE733
:103270009F775F934F933F932F930E94F2192F9163
:103280003F914F915F910E94B4160C944F1929F40D
:1032900016F00C9421170C946B170C9427170E94AE
:1032A0005117A8F39638A0F707F80F92E8942BE38C
:1032B0003AEA48EB5FE70E94CA160F920F920F920C
:1032C0004DB75EB70F920E943A1AECE2F1E00E940D
:1032D00081194F915F91EF91FF91E595EE1FFF1FCF
:1032E00049F0FE57E0684427EE0F441FFA95E1F7D6
:1032F0004195550B0E94B4190F9007FE0C94A81924
:103300000895DF93CF931F930F93FF92EF92DF9275
:103310007B018C01689406C0DA2EEF010E94C7166B
:10332000FE01E894A5912591359145915591A6F31B
:10333000EF010E94F517FE019701A801DA9469F7E1
:10334000DF90EF90FF900F911F91CF91DF91089543
:103350009B01AC0160E070E080E89FE30C944A18A8
:103360000C9421170C946E1A0E945117D8F39923CC
:10337000C9F3940F511DA3F39150504094F059F0AC
:10338000882332F0660F771F881F91505040C1F795
:103390009E3F51052CF7880F911D9695879597F9BB
:1033A00008955F3FACF0983E9CF0BB2786957795DB
:1033B0006795B79508F4B1609395C1F7BB0F58F7BF
:1033C00011F460FFE8CF6F5F7F4F8F4F9F4FE3CFC8
:1033D0000C946C1716F00C946E1A0C9427176894C2
:1033E0000C9421170E945117A8F39923C1F3AEF34F
:1033F000DF93CF931F930F93FF92C92FDD2788236D
:103400002AF02197660F771F881FDAF720E030E057
:1034100040E85FEB9FE3883920F0803E38F021964A
:103420008F770E94DE17E4E5F1E004C00E94DE170A
:10343000E1E8F1E00E9481198B01BE01EC01FB2E55
:103440006F5771097595771F880B990B0E94551658
:1034500028E132E741E35FE30E94C716AF2D9801F0
:10346000AE01FF900F911F91CF91DF910E94F51750
:103470000C943817FA01DC01AA0FBB1F9B01AC01A9
:10348000BF5728F4222733274427507820C0B7514C
:1034900090F4AB2F0024469537952795011CA395F2
:1034A000D2F3002071F0220F331F441FB395DAF3DB
:1034B0000ED00C94DD1761307105A0E88A07B9467B
:1034C00030F49B01AC0166277727882790783096E7
:1034D00021F0208331834283538308959F3F31F04D
:1034E000915020F4879577956795B795880F911D32
:1034F0009695879597F908950F931F93CF93DF9330
:103500008230910510F482E090E0E0912307F09181
:10351000240720E030E0A0E0B0E0309719F14081CE
:1035200051810281138148175907C8F08417950704
:1035300069F4109731F012960C93129713961C931E
:1035400027C0009323071093240722C021153105BB
:1035500019F04217530718F49A01BD01EF01DF017A
:10356000F801DBCF21153105F9F0281B390B243088
:10357000310580F48A819B816115710521F0FB0181
:103580009383828304C09093240780932307FE01D2
:10359000329644C0FE01E20FF31F819391932250B3
:1035A0003109398328833AC02091210730912207BD
:1035B000232B41F42091040230910502309322071D
:1035C0002093210720910202309103022115310539
:1035D00041F42DB73EB74091060250910702241BDB
:1035E000350BE0912107F0912207E217F307A0F4D1
:1035F0002E1B3F0B2817390778F0AC014E5F5F4F49
:103600002417350748F04E0F5F1F50932207409351
:1036100021078193919302C0E0E0F0E0CF01DF91B8
:10362000CF911F910F910895CF93DF93009709F4E5
:1036300081C0FC01329713821282A0912307B091BE
:103640002407109781F420813181820F931F2091EC
:103650002107309122072817390751F5F0932207E7
:10366000E093210767C0ED0120E030E0CE17DF07CF
:1036700040F44A815B819E0141155105F1F0EA0158
:10368000F5CFD383C28340815181840F951FC81722
:10369000D90759F488819981840F951F02969183E7
:1036A00080838A819B81938382832115310529F44C
:1036B000F0932407E09323073DC0E901FB83EA83ED
:1036C00049915991C40FD51FEC17FD0761F4808112
:1036D0009181840F951F0296E901998388838281E5
:1036E00093819B838A83E0E0F0E012968D919C9118
:1036F0001397009719F0FD01DC01F7CF8D919C9194
:1037000011979D012E5F3F4F820F931F209121073C
:10371000309122072817390769F4309729F410925D
:1037200024071092230702C013821282B09322074B
:10373000A0932107DF91CF9108956F927F928F928E
:103740009F92AF92BF92CF92DF92EF92FF920F9330
:103750001F93CF93DF93009789F4CB01DF91CF9133
:103760001F910F91FF90EF90DF90CF90BF90AF909F
:103770009F908F907F906F900C947C1AFC01E60FC5
:10378000F71F9C0122503109E217F30708F4A9C082
:10379000EC01D9010D911C91119706171707B0F094
:1037A0000530110508F49BC0C801049786179707D8
:1037B00008F495C002501109061B170B01931193D1
:1037C0006D937C93CF010E94141B89C05B01A01AEA
:1037D000B10A4C01800E911EA0912307B0912407DD
:1037E000612C712CE12CF12C109709F446C08D91BD
:1037F0009C911197A815B905B1F56C0142E0C40E72
:10380000D11CCA14DB0478F14C018A189B086401AE
:1038100042E0C40ED11C1296BC9012971396AC9144
:10382000B5E0CB16D10440F0B282A38391828082AE
:10383000D9016D937C9309C00E5F1F4F800F911FBC
:10384000F90191838083EB2DFA2FE114F10431F01B
:10385000D7011396FC93EE93129741C0F09324077F
:10386000E09323073CC06816790608F43C017D010B
:1038700012960D90BC91A02DB7CF80912107909109
:10388000220788169906E1F466167706C8F4809137
:10389000020290910302009741F48DB79EB74091C8
:1038A000060250910702841B950BE817F907C8F42C
:1038B000F0932207E0932107F901718360830FC021
:1038C000CB010E947C1A7C01009759F0A801BE012F
:1038D0000E94871CCE010E94141BC70104C0CE01A8
:1038E00002C080E090E0DF91CF911F910F91FF9097
:1038F000EF90DF90CF90BF90AF909F908F907F9090
:103900006F90089581E090E0F8940C94971CFB016F
:10391000DC0102C001900D9241505040D8F708954B
:10392000FB01DC0101900D920020E1F7089511E008
:10393000C5EDD1E000E006C0802FFE010E94CE1749
:103940002196011DC63DD10780E00807A9F7F8942C
:02395000FFCFA7
:10395200FF01000025072000363738391B1D1A1CCD
:1039620000000000810C540C5003280C4C0C380C45
:10397200290C00000000B00209023302FD026402B9
:1039820042025602000000005303090250034F0393
:043992000D0A00001A
:00000001FF
