:100000000C9495010C94C6010C94C6010C94C60185
:100010000C94C6010C94C6010C94C6010C94C60144
:100020000C94C6010C943E110C943E110C943E119C
:100030000C94C6010C9439030C94C6010C94C601AF
:100040000C94C6010C949C070C94C6010C94C60138
:100050000C94C6010C94C6010C94C6010C94201497
:100060000C94C6010C94A8040C947E040C94C60154
:100070000C94C6010C94C6010C94C6010C94C601E4
:100080000C94C6010C94C6010C94C6010C94C601D4
:100090000C94C6010C94C6010C94C6010C94481132
:1000A0000C94C6010C94C6010C94C6010C94C601B4
:1000B0000C94C6010C94C6010C94C6010C94D20495
:1000C0000C94C6010C94C6010C94C6010C94540403
:1000D0000C942A040C94C6010C9400040C94D603CE
:1000E0000C94C601F105F605FB0505060F0688060A
:1000F00019062106290633063D0647065606600600
:1001000088066A0674067E06D510D810C710CB1074
:10011000D1100F11DC10E010E610EA10EE10F41010
:10012000F810FC100F11021106110A110C94880628
:100130000C946F020C94D1100C9460060C94321045
:100140000C9401020C940E030C940F110C94F10505
:100150000C9456060C94E0100C9474060C94EA105F
:100160000C9433100C9442100C943D060C94E61041
:100170000C9429060C9430100C94F8100C94210661
:100180000C9496190C9456100C94FC100C9431108D
:100190000C940F030C945E100C947E060C943306A2
:1001A0000C948B100C9490190C9405060C940A1165
:1001B0000C9415020C94EE100C94BC020C94CB1011
:1001C0000C946A060C94C7100C940F060C9406113C
:1001D0000C94FB050C9402110C94F4100C94DC109C
:1001E0000C94C8010C9423020C94D5100C94F605C1
:1001F0000C94D8100C9419060C9414030C94470614
:100200000C94F2010200002100240027002A002D96
:10021000003000330001010000040107010A010061
:10022000002200250028002B002E0031003400029F
:10023000010000050108010B010000200023002639
:100240000029002C002F00320000010000030106ED
:10025000010901050505050705080808080202024D
:10026000020A0A0808040404040101010101010151
:10027000010303030303030303040707070C0C0C28
:100280000C0C0C0C0C020202020606060606060600
:10029000060B0B0B0B0B0B0B0B010210202008089D
:1002A00010204010204080020102010804020101D8
:1002B00002040810204080804020100804020180C1
:1002C0000402018040201008040201080402010118
:1002D0000204081020408001020408102040800021
:1002E000000A0B02090C0D0E0807030401000000B0
:1002F00000000000000000000000000000000000FE
:1003000000000000000000000000001211100000BA
:1003100000000000000000000000000000000000DD
:100320000000000000009619901911241FBECFEFA5
:10033000D1E2DEBFCDBF00E00CBF12E0A0E0B2E032
:10034000E0E3F2E400E00BBF02C007900D92A23997
:10035000B107D9F727E0A2E9B2E001C01D92AE369D
:10036000B207E1F711E0C4E9D1E000E006C021974F
:100370000109802FFE010E944C1DC339D10780E086
:100380000807A9F70E946A140C9406210C94000037
:10039000CF92DF92EF92FF920F931F93CF93DF9351
:1003A0006C017A018B01C0E0D0E0CE15DF0581F051
:1003B000D8016D918D01D601ED91FC910190F081F4
:1003C000E02DC6011995892B11F02196EECF7E0103
:1003D000C701DF91CF911F910F91FF90EF90DF90B8
:1003E000CF900895FC01538D448D252F30E0842F4C
:1003F00090E0821B930B541710F0CF96089501974D
:100400000895FC01918D828D981761F0828DDF0136
:10041000A80FB11D5D968C91928D9F5F9F73928FF7
:1004200090E008958FEF9FEF0895FC01918D828DEC
:10043000981731F0828DE80FF11D858D90E00895B9
:100440008FEF9FEF0895FC01918D228D892F90E011
:10045000805C9F4F821B91098F739927089582EFCB
:1004600092E00E94230221E0892B09F420E0822FF0
:1004700008958FE893E00E94230221E0892B09F47C
:1004800020E0822F08958CE294E00E94230221E074
:10049000892B09F420E0822F0895FC01848DDF016F
:1004A000A80FB11DA35ABF4F2C91848D90E00196E7
:1004B0008F739927848FA689B7892C93A089B189D6
:1004C0008C91837080648C93938D848D981306C077
:1004D0000288F389E02D80818F7D80830895EF92DB
:1004E000FF920F931F93CF93DF93EC0181E0888FEE
:1004F0009B8D8C8D981305C0E889F989808185FDD5
:1005000026C0F62E0B8D10E00F5F1F4F0F731127C3
:10051000E02E8C8DE8120CC00FB607FCFACFE889EC
:10052000F989808185FFF5CFCE010E944D02F1CF80
:100530008B8DFE01E80FF11DE35AFF4FF0829FB74C
:10054000F8940B8FEA89FB89808180620AC09FB78B
:10055000F894EE89FF896083E889F9898081837046
:10056000806480839FBF81E090E0DF91CF911F91F5
:100570000F91FF90EF900895CF93DF93EC01888D5A
:100580008823C9F0EA89FB89808185FD05C0A88997
:10059000B9898C9186FD0FC00FB607FCF5CF80811D
:1005A00085FFF2CFA889B9898C9185FFEDCFCE0167
:1005B0000E944D02E7CFDF91CF910895E0E0F0E097
:1005C000199480E090E0892B21F00E944302811170
:1005D00019C080E090E0892B41F080E090E0892B09
:1005E00021F00E940000811110C00E943902811187
:1005F0000FC080E090E0892B81F00E942F028111D2
:100600000AC008950E940000E4CF0E940000EDCFD0
:100610000E94DE02EECF0C9400000895089580E061
:1006200090E008950E94F1200F931F93CF93DF93E2
:100630008C01C62FD62FD07FD1606D2F0E94E90F7D
:100640006D2FC8010E94101180E1C89FB0011124D4
:10065000C62FC1606C2FC8010E94E90F6C2FC80122
:100660000E94101181E090E0DF91CF911F910F91D6
:1006700008951F920F920FB60F9211240BB60F928E
:100680002F933F934F935F936F937F938F939F939A
:10069000AF93BF93EF93FF93809195029091960251
:1006A000A0919702B0919802892B8A2B8B2B49F14C
:1006B000909194028091000089278093000080919E
:1006C000950290919602A0919702B0919802181607
:1006D00019061A061B060CF056C0809195029091DF
:1006E0009602A0919702B09198020197A109B109D1
:1006F0008093950290939602A0939702B0939802EC
:1007000042C080910002E4E0F2E0E4919FEF909318
:100710000002E230C9F050F4EE2399F0E13081F5A7
:1007200090916F009D7F90936F002AC0E43019F183
:10073000E0F0E53029F5909173009D7F9093730070
:100740001FC010926E001CC0909170009D7F90930E
:10075000700091E09093B0009091B100987F946008
:100760009093B1001092B3000BC0909171009D7FE7
:100770009093710005C0909172009D7F90937200DC
:1007800060E00E94FF12FF91EF91BF91AF919F91A6
:100790008F917F916F915F914F913F912F910F902A
:1007A0000BBE0F900FBE0F901F9018951F920F92C7
:1007B0000FB60F9211240BB60F922F933F934F93C6
:1007C0005F936F937F938F939F93AF93BF93EF93B9
:1007D000FF9382EF92E00E944D02FF91EF91BF9153
:1007E000AF919F918F917F916F915F914F913F91C9
:1007F0002F910F900BBE0F900FBE0F901F9018956A
:100800001F920F920FB60F9211240BB60F922F93D7
:100810003F934F935F936F937F938F939F93AF9388
:10082000BF93EF93FF9382EF92E00E942511FF9117
:10083000EF91BF91AF919F918F917F916F915F9158
:100840004F913F912F910F900BBE0F900FBE0F90C5
:100850001F9018951F920F920FB60F9211240BB68E
:100860000F922F933F934F935F936F937F938F9349
:100870009F93AF93BF93EF93FF938FE893E00E9412
:100880004D02FF91EF91BF91AF919F918F917F9119
:100890006F915F914F913F912F910F900BBE0F90F1
:1008A0000FBE0F901F9018951F920F920FB60F92C8
:1008B00011240BB60F922F933F934F935F936F9337
:1008C0007F938F939F93AF93BF93EF93FF938FE8A3
:1008D00093E00E942511FF91EF91BF91AF919F91FD
:1008E0008F917F916F915F914F913F912F910F90D9
:1008F0000BBE0F900FBE0F901F9018951F920F9276
:100900000FB60F9211240BB60F922F933F934F9374
:100910005F936F937F938F939F93AF93BF93EF9367
:10092000FF938CE294E00E944D02FF91EF91BF9102
:10093000AF919F918F917F916F915F914F913F9177
:100940002F910F900BBE0F900FBE0F901F90189518
:100950001F920F920FB60F9211240BB60F922F9386
:100960003F934F935F936F937F938F939F93AF9337
:10097000BF93EF93FF938CE294E00E942511FF91C7
:10098000EF91BF91AF919F918F917F916F915F9107
:100990004F913F912F910F900BBE0F900FBE0F9074
:1009A0001F9018951F920F920FB60F9211240BB63D
:1009B0000F922F933F934F935F936F937F938F93F8
:1009C0009F93AF93BF93EF93FF938091CA040E94CC
:1009D000D6122091CE043091CF042F5F3F4F309339
:1009E000CF042093CE049091CD04953618F096E074
:1009F0009093C9049091C9049430C9F128F49230BD
:100A000069F09330D1F05EC0953009F451C0963052
:100A100009F058C091E090939A0551C0811152C0DD
:100A20002091CE043091CF042436310508F442C021
:100A300010929A051092CD041CC0813009F042C07A
:100A4000E091CD0491E09E0F9093CD04F0E02091D1
:100A5000CE043091CF04EE0FFF1FE753FB4F3087DA
:100A600027831092CF041092CE0494E029C0811104
:100A700017C0E091CD0491E09E0F9093CD04F0E07B
:100A80002091CE043091CF04EE0FFF1FE753FB4FB0
:100A9000308727831092CF041092CE0493E010C0C9
:100AA0002091CE043091CF042536310558F007C08F
:100AB000811108C01092CF041092CE0403C095E0BB
:100AC0009093C9049091CC049923B9F081110AC084
:100AD0008091CB04882321F08091CB0461E009C090
:100AE0002F9A0BC08091CB04882331F08091CB04E6
:100AF00060E00E94FF1201C02F98FF91EF91BF911B
:100B0000AF919F918F917F916F915F914F913F91A5
:100B10002F910F900BBE0F900FBE0F901F90189546
:100B20008F929F92AF92BF92CF92DF92EF92FF92FD
:100B30000F931F93CF93DF938C016A017B0120E019
:100B400030E04FE753E4C701B6010E94271C4B0178
:100B50005C0120E030E0A9010E94E61E18161CF49A
:100B6000C501B40103C0C501B40190580E945C1EC8
:100B7000EB0120E030E0A901C701B6010E94E61EAA
:100B8000181614F460E001C061E0F80181810E9450
:100B9000FF12CF3FD10509F014F4DD2702C0CFEFDB
:100BA000D0E0F801108161E0812F0E94601320974E
:100BB00009F4B1C0CF3FD10509F4AFC0E12FF0E097
:100BC000E152FD4FE4918E2F90E0FC013197E2312C
:100BD000F10508F09DC08827EE58FF4F8F4F0C9409
:100BE0004C1D84B5806884BDC7BDA7C084B5806234
:100BF00084BDC8BDA2C080918000806880938000C1
:100C0000D0938900C093880098C080918000806252
:100C100080938000D0938B00C0938A008EC0809117
:100C20008000886080938000D0938D00C0938C00FA
:100C300084C08091B00080688093B000C093B300FE
:100C40007CC08091B00080628093B000C093B400FB
:100C500074C080919000806880939000D093990038
:100C6000C09398006AC08091900080628093900049
:100C7000D0939B00C0939A0060C0809190008860E0
:100C800080939000D0939D00C0939C0056C08091AB
:100C9000A00080688093A0008091A0008F7B80934B
:100CA000A000D093A900C093A80047C08091A000E5
:100CB00080628093A000D093AB00C093AA003DC097
:100CC0008091A00088608093A000D093AD00C09375
:100CD000AC0033C080912001806880932001D093C4
:100CE0002901C093280129C080912001806280934E
:100CF0002001D0932B01C0932A011FC080912001B5
:100D0000886080932001D0932D01C0932C0115C0E1
:100D1000C038D10514F460E001C061E0812FDF919B
:100D2000CF911F910F91FF90EF90DF90CF90BF90E8
:100D3000AF909F908F900C94FF12DF91CF911F91F5
:100D40000F91FF90EF90DF90CF90BF90AF909F906A
:100D50008F9008958EBD00000DB407FEFDCF8EB5B7
:100D60000895CF93DF93EC0160E088810E94FF1229
:100D700088E90E94AA0680E00E94AA0680E00E94FC
:100D8000AA0680E00E94AA0680E00E94AA0661E00E
:100D900088810E94FF128BE891E00197F1F760E0F3
:100DA00088810E94FF1280EE0E94AA0661E088817D
:100DB000DF91CF910C94FF12AF92BF92CF92DF924E
:100DC000EF92FF920F931F93CF93DF93CDB7DEB7D0
:100DD00060970FB6F894DEBF0FBECDBF5C0160E038
:100DE000FC0180810E94FF1280E60E94AA068E010B
:100DF0000F5F1F4F7E01F1E1EF0EF11C680180E0F3
:100E00000E94AA0690E0A0E0B0E0F60181939193E1
:100E1000A193B1936F01EE15FF0589F761E0F5012C
:100E200080810E94FF1280E090E0DC01F801419196
:100E30005191619171918F01BA2FA92F982F882715
:100E4000840F951FA61FB71FEE15FF0579F79C01AC
:100E5000AD0166277727CB01621B730B840B950BC3
:100E600060960FB6F894DEBF0FBECDBFDF91CF9175
:100E70001F910F91FF90EF90DF90CF90BF90AF90B8
:100E800008951F93CF93DF93EC01162F88818C3048
:100E900008F04DC061E0812F0E946013E88195E069
:100EA0009E9FF0011124E556FA4F1F738081807CCC
:100EB000182B10831382E8819E9FF0011124E556C0
:100EC000FA4F148288816CE00E94401D9CE0899F4B
:100ED000A001112420E030E095E0BA01620F731FF9
:100EE000969FF001979FF00D1124E556FA4F60810F
:100EF00066FD13C02F5F3F4F2C30310571F7811114
:100F00000CC01092800082E08093810010928500D6
:100F10001092840086BB80936F00E88185E0E89F93
:100F2000F0011124E556FA4F808180648083888126
:100F3000DF91CF911F9108951F920F920FB60F92DC
:100F400011240BB60F922F933F934F935F936F93A0
:100F50007F938F939F93AF93BF93EF93FF93809172
:100F6000930287FF05C0109285001092840016C07E
:100F700020919302022E000C330B8091D70590E054
:100F8000281739075CF43091930225E03203F00111
:100F90001124E556FA4F808186FD15C08091930299
:100FA0008F5F8093930220919302022E000C330BEB
:100FB0008091D70590E02817390794F48091930227
:100FC0008C302CF10DC0309193023203F0011124CA
:100FD000E556FA4F808160E08F730E94FF12DECFEA
:100FE000809184009091850084349C4918F480E4B9
:100FF0009CE905C0809184009091850004969093AF
:101000008900809388008FEF809393022AC04091DB
:101010008400509185003091930225E03203F00165
:101020001124E556FA4F81819281840F951F909388
:10103000890080938800309193023203F0011124DB
:10104000E556FA4F808186FF0CC03091930232033F
:10105000F0011124E556FA4F808161E08F730E9400
:10106000FF12FF91EF91BF91AF919F918F917F916F
:101070006F915F914F913F912F910F900BBE0F9009
:101080000FBE0F901F9018954F925F926F927F92B4
:101090008F929F92AF92BF92CF92DF92EF92FF9288
:1010A0000F931F93CF93DF9300D000D0CDB7DEB75F
:1010B00020E83CE0DC010E94541D0E94C81B20E097
:1010C00030E044EC51E40E94EA1D0E945C1E6B017A
:1010D0007C018CEF95E00E94B1068EEF95E00E94B6
:1010E000DC068EEF95E00E94B1064AE959E969E90C
:1010F0007EEB8AEF95E00E9490054AE959E969E99B
:101100007EE388EF95E00E94900500E010E01E82EB
:101110001D828AE9882E89E9982EA92C8EE3B82EA3
:101120002601370121EE421A5108610871082D810C
:101130003E81C901330FAA0BBB0B84159505A6058B
:10114000B7055CF0C801012E000CAA0BBB0B84157F
:101150009505A605B7050CF062C08EEF95E00E94DC
:10116000DC0669837A838B839C838CEF95E00E94F5
:10117000DC06CC24DD247601C61AD70AE80AF90A6F
:101180008EEF95E00E94B1068CEF95E00E94B106CB
:101190008D819E818C0D9D1D9E838D8329813A8139
:1011A000020F131FB601621B730B072E000C880B76
:1011B000990B0E94C81B27E137EB41ED58E30E94D1
:1011C000271C6B017C016D817E81601B710B072EDA
:1011D000000C880B990B0E94C81B2CEA35EC47EADF
:1011E00057E30E94271C9B01AC01C701B6010E9476
:1011F0007E1D9B01AC01C501B4010E947E1D4B0107
:101200005C01AB01BC0170588AEF95E00E9490052B
:1012100062E370E080E090E00E94C11388CF40E07C
:1012200050E0BA0188EF95E00E94900540E050E060
:1012300060E070E88AEF95E00E94900564E670E057
:1012400080E090E026960FB6F894DEBF0FBECDBFCB
:10125000DF91CF911F910F91FF90EF90DF90CF9092
:10126000BF90AF909F908F907F906F905F904F90C6
:101270000C94C1138F929F92AF92BF92CF92DF9244
:10128000EF92FF920F931F93CF93DF93CDB7DEB70B
:101290002C970FB6F894DEBF0FBECDBFCE010196DE
:1012A0004C018CE0F40111928A95E9F783E0A82EB5
:1012B000B12C0E94C60E80E40E949A0E8C0182E43A
:1012C0000E949A0E6C0184E40E949A0E7C0186E4CE
:1012D0000E949A0EC016D1067CF4E016F106BCF40A
:1012E000C801855F9140833F914088F489819A814C
:1012F00001969A8389830BC00C151D0544F4EC14E8
:10130000FD042CF48B819C8101969C838B830E15AC
:101310001F0544F4CE14DF042CF48D819E810196C8
:101320009E838D83053823E0120784F085E8C81674
:1013300083E0D8067CF090E2E91693E0F9067CF4AD
:101340008F819885019698878F8309C0053FE1E0DA
:101350001E0784F0F5EFCF16F1E0DF06ECF0F5EFB5
:10136000EF16F1E0FF06C4F089859A8501969A8709
:10137000898712C0043F114079F084EFC81681E0DC
:10138000D80654F494EFE91691E0F9062CF48B8515
:101390009C8501969C878B876AE070E080E090E0F6
:1013A0000E94C113E1E0AE1AB10809F082CFF40146
:1013B000AE01435F5F4F80E090E021913191821751
:1013C00093070CF4C9014E175F07B9F729813A81D9
:1013D00028173907E1F02B813C8128173907B9F02C
:1013E0002D813E812817390791F02F8138852817E4
:1013F000390769F029853A852817390759F02B856F
:101400003C852817390749F08FEF9FEF08C081E02E
:1014100090E005C080E090E002C082E090E02C9671
:101420000FB6F894DEBF0FBECDBFDF91CF911F91F5
:101430000F91FF90EF90DF90CF90BF90AF909F9073
:101440008F9008952F923F924F925F926F927F926A
:101450008F929F92AF92BF92CF92DF92EF92FF92C4
:101460000F931F93CF93DF93CDB7DEB760970FB67F
:10147000F894DEBF0FBECDBF9E838D8385E12D81A5
:101480003E81829FB001839F700D1124072E000CB6
:10149000880B990B0E94C81B69837A838B839C837A
:1014A00020E030E0A9010E94C11B87FF09C08981AB
:1014B0009A81AB81BC81B05889839A83AB83BC830A
:1014C0008CEF95E00E94B1068EEF95E00E94B10688
:1014D000AD81BE811A161B060CF0F6C04DEC5CEC1B
:1014E0006CEC7DE388EF95E00E9490054DEC5CECA0
:1014F0006CEC7DE38AEF95E00E9490051A861986D0
:1015000018861F82188A1F8600E010E08DEC882E56
:101510008CEC982EA92C8DEBB82E20E030E040E426
:1015200050E469817A818B819C810E947D1D6B01D1
:101530007C01B801012E000C880B990B0E94C81B7E
:10154000A70196010E94C11B87FD11C04F855889D4
:10155000BA01550F880B990B0E94C81B9B01AC0167
:10156000C701B6010E94E61E18160CF059C18EEF95
:1015700095E00E94DC066B877C878D879E878B8534
:101580009C859195819591099E838D838CEF95E043
:101590000E94DC06442455243201461A570A680A80
:1015A000790A1201C201AF81B8858A1B9B0B080F13
:1015B000191F8D819E8129853A85821B930B4F854A
:1015C0005889480F591F588B4F8755E645165104C7
:1015D0000CF444C08EEF95E00E94B1068CEF95E0CC
:1015E0000E94B1066B857C85640D751D072E000C6D
:1015F000880B990B0E94C81B27E137EB41ED58E39C
:101600000E94271C2B013C01B8018F859889681B1B
:10161000790B072E000C880B990B0E94C81B2CEA33
:1016200035EC47EA57E30E94271C9B01AC01C3013C
:10163000B2010E947E1D9B01AC01C501B4010E9454
:101640007D1D4B015C01AB01BC0170588AEF95E038
:101650000E9490051E821D82212C312CB801012E82
:10166000000C880B990B0E94C81B9B01AC01C701A1
:10167000B6010E94C11B87FF07C040E050E0BA01DD
:1016800088EF95E00E949005AF85B889BD01BB0F3A
:10169000880B990B0E94C81B9B01AC01C701B601C6
:1016A0000E94C11B87FD07C02D813E813A87298793
:1016B00038862F8232CF40E050E060E070E88AEF59
:1016C00095E00E949005F0CF2D813E81232B09F4F7
:1016D000A7C04DEC5CEC6CEC7DEB88EF95E00E94D4
:1016E00090054DEC5CEC6CEC7DEB8AEF95E00E9494
:1016F0009005C12CD12CA12CB12CE12CF12C00E0B7
:1017000010E020E030E040E450E469817A818B8190
:101710009C810E947D1D2B013C01B801012E000C13
:10172000880B990B0E94C81BA30192010E94C11B48
:1017300087FD10C0B7010F2C000C880B990B0E947D
:10174000C81B9B01AC01C301B2010E94E61E181622
:101750000CF066C08CEF95E00E94DC069B01AC01AA
:1017600088279927DC01821B930BA40BB50B442718
:101770005527481B590B5E834D838EEF95E00E94E1
:10178000DC064B012D813E812A193B09020F131FF4
:10179000AB014C195D09E40EF51E8D819E818536E5
:1017A000910564F08EEF95E00E94B1068CEF95E014
:1017B0000E94B106812C912C1E821D82B801012E3F
:1017C000000C880B990B0E94C81B9B01AC01C30144
:1017D000B2010E94C11B87FF07C040E050E0BA0180
:1017E00088EF95E00E949005B7010F2C000C880B44
:1017F000990B0E94C81B9B01AC01C301B2010E945E
:10180000C11B87FD04C06401AD80BE807ACF40E07B
:1018100050E060E070E88AEF95E00E949005F3CF19
:1018200040E050E0BA0188EF95E00E94900540E06A
:1018300050E060E070E88AEF95E060960FB6F894AB
:10184000DEBF0FBECDBFDF91CF911F910F91FF90F3
:10185000EF90DF90CF90BF90AF909F908F907F9050
:101860006F905F904F903F902F900C9490052F9227
:101870003F924F925F926F927F928F929F92AF9220
:10188000BF92CF92DF92EF92FF920F931F93CF936D
:10189000DF93CDB7DEB7E1970FB6F894DEBF0FBE8A
:1018A000CDBF89E592E00E948C0E8DE30E949C13CF
:1018B0008CE30E949C138BE30E949C138AE30E949A
:1018C0009C1386E30E949C1387E30E949C1388E389
:1018D0000E949C1389E30E949C131AA21BA21CA2C3
:1018E0001DA21EA21FA218A619A6A12CB12CC12CA4
:1018F000D12CE12CF12C00E010E00E943A09019774
:1019000009F47FC1809107060E94D612892B09F045
:1019100078C18BE692E00E947A0E0E943A092C016F
:10192000990F6608770877FE22C06DE28CE294E09A
:101930000E946F0222273327A9012419350946097D
:10194000570919A2CE0181964C01CA01B9012AE0BA
:1019500030E040E050E00E940F1D605DF4016293B2
:101960004F01211531054105510579F717C0A30134
:10197000920119A2CE0181964C01CA01B9012AE057
:1019800030E040E050E00E940F1D605DF401629382
:101990004F01211531054105510579F7C4010E9418
:1019A0007A0E88E692E00E947A0E8CE30E949C13E5
:1019B0003C018BE30E949C134C018AE30E949C1320
:1019C0001C0189E30E949C139BA78AA788E30E94BD
:1019D0009C132C0187E30E949C13F4E1F69DA00167
:1019E000F79D500D11246AE0689D9001699D300DAE
:1019F0001124240F351F220E331E649D9001659D16
:101A0000300D1124EAA5FBA52E0F3F1F64E1AC01A8
:101A1000649FC001659F900D1124820F931F281AA7
:101A2000390A932C990C99089101492D592D692D4A
:101A3000792D892D992D0E94741D2AA73CA7842EEB
:101A40005DA76EA77FA788AB99ABB101032C000CF3
:101A5000880B990B0E94C81B2B013C0120E23CEB38
:101A60004EEB5BEC0E94E61E181654F020E23CEBB5
:101A70004EEB5BE4C301B2010E94C11B87FF19C09A
:101A80009101492D592D692D792D892D992DAAA0C6
:101A9000BBA0CCA0DDA0EEA0FFA008A519A50E94C8
:101AA0006B1D2AA33BA34CA35DA36EA37FA388A7B2
:101AB00099A72AA13BA14CA15DA16EA17FA188A5F8
:101AC00099A50E94921E2DEB37E346E855E30E944C
:101AD000271C6B017C012CEA35EC47E257E3C3017C
:101AE000B2010E94271C9B01AC01C701B6010E94F4
:101AF0007E1D6B017C012AA53CA5482D5DA56EA528
:101B00007FA588A999A90E94921E2CEA35EC47E28C
:101B100057E30E94271C9B01AC01C701B6010E943C
:101B20007E1D6B017C019101492D592D692D792D67
:101B3000892D992D0E945B1D0E94921E2CEA35EC86
:101B400047E257E30E94271C2B013C012AA13BA13D
:101B50004CA15DA16EA17FA188A599A50E945B1DE6
:101B60000E94921E2DEB37E346E855E30E94271CA6
:101B70009B01AC01C301B2010E947E1D2B013C01FF
:101B80002AA53CA5482D5DA56EA57FA588A999A984
:101B90000E945B1D0E94921E2CEA35EC47E257E33F
:101BA0000E94271C9B01AC01C301B2010E947E1D53
:101BB0002AE939E949E95EE30E947E1DAB01BC01D7
:101BC00088EF95E00E9490052AE939E949E95EE34A
:101BD000C701B6010E947E1DAB01BC0170588AEF9F
:101BE00095E00E9490056AE070E080E090E00E943D
:101BF000C1135101C92CD92CE92CF92C092D192D0F
:101C00007CCEE1960FB6F894DEBF0FBECDBFDF915C
:101C1000CF911F910F91FF90EF90DF90CF90BF90E9
:101C2000AF909F908F907F906F905F904F903F907C
:101C30002F90089591E09093E50294E79093E40249
:101C40001092E3021092E202682F86EE92E00E9468
:101C50008B1086EE92E00E947A128091BF02811171
:101C6000FCCF81E08093BF028093BE029FEF9093F0
:101C7000BD021092BC021092BB028093BA02809106
:101C8000BA02886E8093BA028091B902813061F401
:101C90001092B9028091BA028093BB008091BC007F
:101CA00083FDF8CF85EC01C085EE8093BC00809168
:101CB000BF028130E1F38091BC02811103C0909199
:101CC000BC0201C091E0E9E9F2E0A2ECB2E080E000
:101CD000891721F021912D938F5FFACF1092C102C5
:101CE0008093C002811101C0FFCF86EE92E00E9476
:101CF00042100895009769F0FC0101900020E9F777
:101D00003197AF01481B590BBC018CE294E00C9455
:101D1000C80180E090E00895CF93DF930E947A0E8F
:101D2000EC0188E692E00E947A0E8C0F9D1FDF91F5
:101D3000CF910895CF93DF93C82F0E941A0ED82F0A
:101D400081E08C0F0E941A0E90E0982F88278D0F4B
:101D5000911DDF91CF910895CF93C82F81E080939B
:101D6000E50284E78093E4021092E3021092E2021B
:101D700086EE92E00E948B106C2F86EE92E00E941D
:101D80008B1086EE92E0CF910C947A1260E081E0A5
:101D90000E94AC0E80E00E941A0E8111FBCF0895C4
:101DA000ECE2F4E0A089B18982E08C93A485B5854A
:101DB0001C92A685B7858FEC8C93108EA489B5896B
:101DC00086E08C93A289B3898C9180618C93A289DF
:101DD000B3898C9188608C93A289B3898C91806837
:101DE0008C930288F389E02D80818F7D8083089514
:101DF0000F931F93CF93611590E1790774F48B01D2
:101E0000C82F682F802F0E94AC0E61E06C0F812FCD
:101E1000CF911F910F910C94AC0ECF911F910F9108
:101E20000895CF92DF92EF92FF92CF93DF9390913C
:101E30000A06891720F090910B06981750F485E751
:101E400092E0DF91CF91FF90EF90DF90CF900C94D4
:101E50008C0EC0911006CC3008F07BC0282F30E0EB
:101E6000D0E0283C3105E4F595E09C9FF0019D9F72
:101E7000F00D1124E556FA4F938128E830E069010E
:101E8000C91AD10897FDD394CC0CDD1CCC0CDD1CF9
:101E90000D2C000CEE08FF08948128E532E0291B88
:101EA000310997FD3395220F331F220F331FA901EC
:101EB000330F660B770B9A01AB012C193D094E09C4
:101EC0005F09A82FB0E00E94041D24EB30E040E041
:101ED00050E00E94E51CC20ED31EE41EF51E27C072
:101EE00085E08C9FF0018D9FF00D1124E556FA4F8F
:101EF000838148E850E06A01C81AD10887FDD3946D
:101F0000CC0CDD1CCC0CDD1C2C153D0584F0448173
:101F100088E592E0841B910947FD9395880F991FEE
:101F2000880F991F69018C159D050CF46C018FB702
:101F3000F89495E09C9FF0019D9FF00D1124E556CB
:101F4000FA4F96E0C91AD108CC0CDD1CD282C182AE
:101F50008FBFDF91CF91FF90EF90DF90CF900895EA
:101F60000F931F93CF93DF93162F072FCFEDD5E05D
:101F70009C8521E02093E5029093E4021092E30215
:101F80001092E202AA85BB85ED91FC911197019018
:101F9000F081E02D682FCD0119958A859B85DC01A4
:101FA000ED91FC910190F081E02D602F19958A85CB
:101FB0009B85DC01ED91FC910190F081E02D612F7A
:101FC00019958A859B85DF91CF911F910F910C9474
:101FD0007A12FC01248131E03093E5022093E4027F
:101FE0001092E3021092E2028485682B86EE92E062
:101FF0000E948B1086EE92E00C947A1285ED80930D
:10200000BC008091BC0084FDFCCF1092BF020895FB
:1020100040913A07262F30E0240F311D213231053F
:10202000DCF42091BF022430C9F4FC0180E090E090
:10203000861758F430913A072191DC01A85EB84F19
:10204000A30FB11D2C930196F3CF80913A07680F2F
:1020500060933A0780E0089581E0089582E0089552
:10206000089508950895E091C1028091C002E81793
:1020700030F4F0E0EE53FD4F808190E008958FEF53
:102080009FEF08959091C1028091C002981750F47B
:10209000E92FF0E0EE53FD4F208130E09F5F9093F9
:1020A000C10202C02FEF3FEFC90108958091C00225
:1020B00090E02091C102821B91090895CF92DF9296
:1020C000EF92FF920F931F93CF93DF937C01CB018D
:1020D0008A012091E502222389F0EB016B01C40EF5
:1020E000D51ECC15DD0569F06991D701ED91FC9104
:1020F0000190F081E02DC7011995F3CF642F0E9464
:102100000810C801DF91CF911F910F91FF90EF90C0
:10211000DF90CF900895CF93DF931F92CDB7DEB7B6
:1021200069832091E5022223D1F02091E20220323E
:1021300040F021E030E0FC013383228380E090E036
:1021400015C08091E302E82FF0E0E850F94F998143
:1021500090838F5F8093E3028093E20205C061E089
:10216000CE0101960E94081081E090E00F90DF916F
:10217000CF91089590E0FC013197E231F10508F02C
:102180004EC08827EC57FF4F8F4F0C944C1D809109
:1021900080008F7703C0809180008F7D80938000C6
:1021A000089580918000877FF9CF84B58F7702C032
:1021B00084B58F7D84BD08958091B0008F7703C072
:1021C0008091B0008F7D8093B00008958091900041
:1021D0008F7707C0809190008F7D03C08091900021
:1021E000877F8093900008958091A0008F7707C02B
:1021F0008091A0008F7D03C08091A000877F809395
:10220000A0000895809120018F7707C08091200160
:102210008F7D03C080912001877F809320010895E6
:102220000F931F93CF938C01C62F64600E94E90F18
:102230006C2F6B7FC8010E94E90F83EC90E001973F
:10224000F1F7CF911F910F910895FC01A089B189F9
:102250008C91A689B78982FD0FC09C91818D8F5F7B
:102260008F73228D821749F0218DDF01A20FB11DDE
:102270005D969C93818F08958C9108951F920F9283
:102280000FB60F9211240F900FBE0F901F9018954C
:102290001F920F920FB60F9211240BB60F922F932D
:1022A0003F934F935F936F937F938F939F93AF93DE
:1022B000BF93EF93FF938091B900887F803609F434
:1022C0009CC068F5883209F45BC090F4803109F451
:1022D00054C038F4882309F4F6C0883009F44DC09E
:1022E000F6C0883109F44CC0803209F45DC0EFC0FB
:1022F000803409F468C048F4803309F455C0883349
:1023000009F0E5C08093BD02D8C0803509F44FC004
:10231000883509F45DC0883409F0D9C0D6C0883941
:1023200009F4C7C0A8F4883709F467C038F48836C0
:1023300009F463C0803709F460C0C9C0883809F463
:10234000B8C0803909F45FC0803809F0C0C05BC0F4
:10235000803B09F486C038F4803A09F466C0883AB4
:1023600009F47FC0B4C0803C09F4A7C0883C09F4DC
:10237000A4C0883B09F48AC0AAC08091BA0210C0E8
:102380009091BC028091BB02981770F5E091BC025D
:1023900081E08E0F8093BC02F0E0E756FD4F808114
:1023A0008093BB0085EC86C08093BD028EC0E09117
:1023B000BC0281E08E0F8093BC028091BB00F0E0F4
:1023C000E756FD4F80839091BC028091BB026EC0A6
:1023D000E091BC0281E08E0F8093BC028091BB0033
:1023E000F0E0E756FD4F80838091BE0281116DC001
:1023F00081E08093B90284EA61C083E08093BF02E8
:1024000010925E07CFCF80915E07803208F051C0F6
:10241000E0915E0781E08E0F80935E078091BB00A4
:10242000F0E0E25CF84F8083BDCF85EC8093BC0088
:102430001092BF0280915E07803230F4E0915E0717
:10244000F0E0E25CF84F108260915E0770E0E0918E
:102450003C07F0913D078EE397E0199510925E07D7
:1024600036C084E08093BF0210923B0710923A0777
:10247000E0913807F0913907199580913A07811159
:1024800005C081E080933A0710921807E0913B075E
:1024900081E08E0F80933B07F0E0E85EF84F80818B
:1024A0008093BB0090913B0780913A07981708F4FE
:1024B00079CF85E88093BC000AC085EC8093BC008E
:1024C0001092BF0204C01092BD020E94FE0FFF9145
:1024D000EF91BF91AF919F918F917F916F915F919C
:1024E0004F913F912F910F900BBE0F900FBE0F9009
:1024F0001F9018953091E202313208F04BC0809164
:10250000BF028111FCCF9091E40222E02093BF0230
:1025100021E02093BE022FEF2093BD021092BC0257
:102520003093BB02E8EFF6E0A9E9B2E020E0321711
:1025300021F041914D932F5FFACF1092BA02209172
:10254000BA02990F922B9093BA029091B9029130EE
:1025500061F41092B9029091BA029093BB009091ED
:10256000BC0093FDF8CF95EC01C095EE9093BC00B4
:102570009091BF029230E1F39091BD029F3F79F0BC
:102580008091BD02803241F08091BD02803331F0F4
:1025900084E005C081E003C082E001C083E01092C6
:1025A000E3021092E2021092E5020895CF93DF93C6
:1025B000282F30E0F901E152FD4F8491F901E756EF
:1025C000FD4FD491F901ED5AFD4FC491CC2391F008
:1025D00081110E94BA10EC2FF0E0EE0FFF1FE75CB4
:1025E000FD4FA591B491EC91ED2381E090E021F4B1
:1025F00080E002C080E090E0DF91CF9108951F93CA
:10260000CF93DF93282F30E0F901E152FD4F849101
:10261000F901E756FD4FD491F901ED5AFD4FC491F0
:10262000CC23C1F0162F81110E94BA10EC2FF0E0DC
:10263000EE0FFF1FE15EFD4FA591B4919FB7F89497
:10264000111104C08C91D095D82302C0EC91DE2BDF
:10265000DC939FBFDF91CF911F9108951092C1022B
:102660001092C0021092E3021092E2021092BF0296
:1026700081E08093BE021092B90261E084E10E9481
:10268000FF1261E085E10E94FF12E9EBF0E080813A
:102690008E7F808380818D7F808388E48093B800E3
:1026A00085E48093BC0080E390E1909339078093A8
:1026B000380781E390E190933D0780933C070895AC
:1026C000CF93DF9390E0FC01E756FD4F2491FC018E
:1026D000ED5AFD4F8491882361F190E0880F991F96
:1026E000FC01EB5FFD4FC591D491FC01E15EFD4F14
:1026F000A591B491611109C09FB7F8948881209584
:1027000082238883EC912E230BC0623061F49FB743
:10271000F8948881322F309583238883EC912E2B77
:102720002C939FBF06C08FB7F894E8812E2B288387
:102730008FBFDF91CF910895863308F08653909133
:102740007B00282F2870977F922B90937B002091FD
:10275000010290E4299F900111248770822B8093BD
:102760007C0080917A00806480937A0080917A0066
:1027700086FDFCCF809178002091790090E0922B2B
:1027800008958F929F92AF92BF92CF92DF92EF9275
:10279000FF926B017C010E94FB134B015C01C11491
:1027A000D104E104F104F1F00E94FB13DC01CB0140
:1027B00088199909AA09BB09883E9340A105B1056A
:1027C00070F321E0C21AD108E108F10888EE880E02
:1027D00083E0981EA11CB11CC114D104E104F104D2
:1027E00019F7DDCFFF90EF90DF90CF90BF90AF90C3
:1027F0009F908F9008953FB7F894809166079091CD
:102800006707A0916807B091690726B5A89B05C026
:102810002F3F19F00196A11DB11D3FBFBA2FA92F5F
:10282000982F8827820F911DA11DB11DBC01CD01DC
:1028300042E0660F771F881F991F4A95D1F70895C8
:102840001F920F920FB60F9211242F933F938F93E5
:102850009F93AF93BF938091620790916307A0917C
:102860006407B09165073091610723E0230F2D378E
:1028700020F40196A11DB11D05C026E8230F029684
:10288000A11DB11D20936107809362079093630798
:10289000A0936407B09365078091660790916707DE
:1028A000A0916807B09169070196A11DB11D8093A1
:1028B000660790936707A0936807B0936907BF9175
:1028C000AF919F918F913F912F910F900FBE0F90DD
:1028D0001F901895CF93DF9300D01F92CDB7DEB72E
:1028E000789484B5826084BD84B5816084BD85B5EB
:1028F000826085BD85B5816085BD80916E008160F7
:1029000080936E001092810080918100826080939C
:10291000810080918100816080938100809180009E
:102920008160809380008091B10084608093B100C9
:102930008091B00081608093B000809191008260AE
:1029400080939100809191008160809391008091AB
:1029500090008160809390008091A10082608093BC
:10296000A1008091A10081608093A1008091A000CE
:1029700081608093A0008091210182608093210179
:1029800080912101816080932101809120018160EB
:102990008093200180917A00846080937A008091F6
:1029A0007A00826080937A0080917A0081608093BF
:1029B0007A0080917A00806880937A001092C1003A
:1029C0000E94D00E61E08091E0050E94601360E0FB
:1029D0008091E0050E94FF1260E08091DF050E9477
:1029E000601386EE92E09093EA058093E9050E94D9
:1029F0002E1380E090E1A0E0B0E08093EC0590938E
:102A0000ED05A093EE05B093EF058AE090E0A0E01D
:102A1000B0E08093F0059093F105A093F205B09398
:102A2000F30580E090E0A0E0B0E48093F40590939B
:102A3000F505A093F605B093F70560E070E185E039
:102A40000E94B00F6FE979E380E00E94B00F2FED94
:102A500035E03A8329838901B2E07B2E88E8A82EED
:102A600082E0B82E9EEC892E92E0992E2BECE22E7D
:102A700027E0F22EF80194818281E981FA81818F29
:102A8000928F61E00E94601361E0E981FA81828D9A
:102A90000E946013F80190858681C980DA80FDE18B
:102AA000CF0ED11CE981FA81858F968F61E00E945B
:102AB000601360E0E981FA81868D0E94601361E015
:102AC000E981FA81858D0E94FF126FB6F89480919A
:102AD0009202811126C0F5018491F4012491E82F1E
:102AE000F0E0EE0FFF1FEB5FFD4FA591B4919C91BD
:102AF000822F892321F461E085E30E94FF1261E0C7
:102B000085E30E9460138CB580618CBD8CB58064B8
:102B10008CBD61E084E30E94601361E083E30E9466
:102B20006013809192028F5F809392026FBEC70103
:102B30000197F1F760E0E981FA81858D0E94FF122B
:102B400088E80E94AA0683E00E94AA0661E0E98163
:102B5000FA81858D0E94FF12C7010197F1F7C60126
:102B60000E94B1067A940F5F1F4F29813A812E5F30
:102B70003F4F3A83298371107DCF04E016E048E08F
:102B800056E05A83498360E0F80181918F010E94E9
:102B9000601329813A8120173107A9F700E016E078
:102BA000E980FA803FEFE31AF30AE981FA81608154
:102BB00070E0CF0108960E944107F701958183815B
:102BC000F801828B938B60E00E94601361E0F80152
:102BD00083890E94601360E0F80183890E94FF12DC
:102BE0000E5F1F4FFA82E98297012A503640C1F6E4
:102BF000F8941092200189E08093210180E293E013
:102C000090932901809328011092250110922401AC
:102C100082E08093730078948093C9041092CD046D
:102C20008091CA0460E00E946013A12CE8E0BE2EEF
:102C30006AE070E080E090E00E94C113C090160648
:102C4000D0901706809107060E94D612892B09F0B2
:102C50007BC077C032E0C316D10409F0B6C286EA61
:102C60009FEF0E94220A83E290E00E94440883EDD5
:102C70009FEF0E94220A0E94370C8EE190E00E9492
:102C8000440887E80E94110F68EE73E080E090E04E
:102C90000E94C11383E70E94110F4DEC5CEC6CECB9
:102CA0007DEB88EF95E00E9490054DEC5CEC6CECC0
:102CB0007DEB88EF95E00E94900564E670E080E08F
:102CC00090E00E94C11340E050E0BA0188EF95E027
:102CD0000E94900540E050E0BA0188EF95E00E9424
:102CE000900583EC90E00E94220A84E690E00E9426
:102CF000440886E40E94110F4DEC5CEC6CE47EEB22
:102D000088EF95E00E9490054DEC5CEC6CE47EE36E
:102D10008AEF95E00E94900560E47FE180E090E01A
:102D20000E94C11340E050E0BA0188EF95E00E9494
:102D3000900540E050E060E070E88AEF95E00E9486
:102D400090050E94E10274CF0E94D00E0E94D00E26
:102D500080E492E00E947A0E61E0809118060E9461
:102D6000601386EE92E00E942E1361E070E080E036
:102D700090E00E94C11389E080931A0680931B069D
:102D800092E090931C06E5E0E0931D06B0921F06CA
:102D9000A0921E06B0922106A0922006B0922306B1
:102DA000A0922206B0922506A092240666E00E9418
:102DB000AC0E80911B0667E08F700E94AC0E809174
:102DC0001C0668E08F700E94AC0E80911D0669E0C1
:102DD0008F700E94AC0E6AE080911E060E94AC0EBD
:102DE00080911E0690911F069F716BE0892F0E94B3
:102DF000AC0E6EE0809122060E94AC0E80912206FD
:102E0000909123069F716FE0892F0E94AC0E6CE0B9
:102E1000809120060E94AC0E8091200690912106A0
:102E20009F716DE0892F0E94AC0E60E180912406B5
:102E30000E94AC0E80912406909125069F7161E15D
:102E4000892F0E94AC0E61E0809118060E94FF124B
:102E500085E492E00E948C0E62E070E080E090E0F9
:102E60000E94C11300E010E0E12C90E1F92EC701AF
:102E7000801B910B9A83898397FF03C001969A83E5
:102E80008983E981FA81F595E795E00FF11FFA83CF
:102E9000E983E017F10709F445C0BF018AE090E03B
:102EA0000E94F80E69817A818CE090E00E94F80E11
:102EB00069817A818EE090E00E94F80E0E94C60E31
:102EC00080E40E949A0E97FD05C080E40E949A0E4D
:102ED0004C0102C0812C912C82E40E949A0E88152C
:102EE000990524F082E40E949A0E4C0184E40E9429
:102EF0009A0E8815990524F084E40E949A0E4C01DC
:102F0000F9EE8F16F3E09F0634F428EE821623E0E4
:102F1000920629F407C0E980FA801A83098309819F
:102F20001A81A5CF00E010E0E12C80E1F82EA70186
:102F3000401B510B5A83498357FF04C04F5F5F4FBB
:102F40005A83498389819A8195958795800F911F2E
:102F50009A8389838017910799F0BC0180E190E002
:102F60000E94F80E0E94C60E86E40E949A0E893EC8
:102F7000E3E09E070CF0CAC0883E934009F0CAC047
:102F800028E833E13A832983412C512C212C312C20
:102F9000612C712C66E0862D0E94AC0E67E0822DBC
:102FA0000E94AC0E68E0842D0E94AC0E8AE00E9464
:102FB0009A0E9C838B83BC018AE090E00E94F80EFD
:102FC0006B817C818CE090E00E94F80E6B817C81AB
:102FD0008EE090E00E94F80E54E0852E912CE12CBA
:102FE000F12C1C821B8200E010E00E94C60E80E4DF
:102FF0000E949A0E080F191F82E40E949A0E2B81DC
:103000003C81280F391F3C832B8384E40E949A0E55
:10301000E80EF91E31E0831A910839F717FF02C054
:103020000D5F1F4F15950795159507954B815C8191
:1030300057FF04C04D5F5F4F5C834B838B819C8146
:1030400095958795959587959C838B83F7FE03C00F
:1030500093E0E90EF11CF594E794F594E794302F92
:10306000212FEB81FC810E171F0714F43B812C816B
:10307000832F922F97FF02C080E090E09701E8161F
:10308000F9060CF49C01502F412F8B819C818017F5
:10309000910714F45B814C81852F942F8130E0E1FE
:1030A0009E0714F080E090E1A7018E159F050CF4B7
:1030B000AC01C901841B950B49815A81841795077E
:1030C00061F10217130741F45FE06516710424F4FF
:1030D000EFEF6E1A7E0A21C14B815C8142175307C4
:1030E00041F45FE02516310424F4EFEF2E1A3E0A76
:1030F00014C1E216F30609F010C1FFE04F165104A7
:103100000CF00BC12FEF421A520A07C1E980FA8076
:103110001A83098309811A810ACF8BE492E00E9405
:103120008C0E6091080670E080E196E00E944107F5
:1031300086E40E94110F31E0C316D10409F08ACD54
:103140008AE590E00E94220A85E290E00E9444080D
:103150008DE290E00E94220A0E94370C8DE190E0FF
:103160000E9444088CE80E94110F68EE73E080E032
:1031700090E00E94C1138EE60E94110F4DEC5CECB2
:103180006CEC7DEB88EF95E00E9490054DEC5CECDB
:103190006CEC7DEB88EF95E00E94900564E670E0B2
:1031A00080E090E00E94C11340E050E0BA0188EF57
:1031B00095E00E94900540E050E0BA0188EF95E06C
:1031C0000E9490058EEB90E0A3C043E0C416D104AA
:1031D00009F04DC083ED9FEF0E94220A86E490E043
:1031E0000E9444088AE590E00E94220A8CE190E067
:1031F0000E94440886EA9FEF0E94220A0E94370C30
:103200008CE190E00E94440887E80E94110F68EE6C
:1032100073E080E090E00E94C1138EE60E94110FDF
:103220004DEC5CEC6CEC7DEB88EF95E00E9490053A
:103230004DEC5CEC6CEC7DEB88EF95E00E9490052A
:1032400064E670E080E090E00E94C11340E050E04E
:10325000BA0188EF95E00E94900540E050E0BA0185
:1032600088EF95E00E94900582EC90E03CCD54E020
:10327000C516D10409F03DCD8DE290E00E94220AEE
:103280008AE590E00E94440886EA9FEF0E94220AA5
:1032900087E190E00E9444088AE590E00E94220ABB
:1032A0000E94370C8CE190E00E94440887E80E945D
:1032B000110F68EE73E080E090E00E94C1138EE68B
:1032C0000E94110F4DEC5CEC6CEC7DEB88EF95E00F
:1032D0000E9490054DEC5CEC6CEC7DEB88EF95E08A
:1032E0000E94900564E670E080E090E00E94C113C7
:1032F00040E050E0BA0188EF95E00E94900540E080
:1033000050E0BA0188EF95E00E9490058CEB90E0C8
:103310000E94220A89E690E0EACC9A8389833ACE19
:103320008091D8059091D9050C94831FCF92DF929C
:10333000EF92FF92CF93DF931092E9021092E8028E
:1033400088EE93E0A0E0B0E08093EA029093EB0275
:10335000A093EC02B093ED0224E132E03093E70257
:103360002093E6021092F5021092F4028093F60286
:103370009093F702A093F802B093F90226E232E0AC
:103380003093F3022093F20245E351E05093FF02A1
:103390004093FE0244E351E0509301034093000345
:1033A00040E351E0509303034093020341E351E0B3
:1033B000509305034093040342E351E05093070305
:1033C0004093060346E351E05093090340930803FA
:1033D00010920B0310920C0310920D0310920E0327
:1033E000109292031092910380939303909394030D
:1033F000A0939503B09396033093900320938F038B
:1034000045ED50E050939C0340939B0344ED50E006
:1034100050939E0340939D0340ED50E05093A003D2
:1034200040939F0341ED50E05093A2034093A103CA
:1034300042ED50E05093A4034093A30346ED50E0C7
:103440005093A6034093A5031092A8031092A903DA
:103450001092AA031092AB0310922F0410922E0424
:103460008093300490933104A0933204B0933304DA
:1034700030932D0420932C0485EC90E09093390434
:103480008093380484EC90E090933B0480933A045A
:1034900080EC90E090933D0480933C0481EC90E0BC
:1034A00090933F0480933E0482EC90E0909341041B
:1034B0008093400486EC90E0909343048093420410
:1034C000109245041092460410924704109248044A
:1034D0008091080290910902A0910A02B0910B021A
:1034E0008093000690930106A0930206B093030612
:1034F00080910C0290910D02A0910E02B0910F02EA
:103500008093040690930506A0930606B0930706E1
:1035100084E08093080687E08093090610920A06EB
:1035200084EB80930B0686E180930C0688E1809300
:103530000D0687E180930E0689E180930F06E091E6
:10354000D705EC3020F08FEF8093100610C081E09B
:103550008E0F8093D705E093100685E0E89FF00179
:103560001124E556FA4F88EB9BE092838183E0912A
:10357000D705EC3020F08FEF8093110610C081E06A
:103580008E0F8093D705E093110685E0E89FF00148
:103590001124E556FA4F88EB9BE0928381838CE0FF
:1035A0008093DF0584E28093E00586E08093E10567
:1035B00085E08093E2058FE18093E3058EE18093BF
:1035C000E40583E28093E50582E28093E60585E4E5
:1035D0008093E70584E48093E80580E48093EB051D
:1035E0001092F0051092F1051092F2051092F30579
:1035F0001092F4051092F5051092F6051092F70559
:10360000EEE2F6E02CEE36E08FEF9FEFDC01128267
:103610001382148215821682178210861186838780
:103620009487A587B6878787908BA18BB28B1286EC
:103630001182108273962E173F0749F78DE090E0B4
:103640000E94EB1EFC011382128288E392E09183B8
:103650008083118687E2848384E1828784E0838784
:103660001486F0932B06E0932A0610922C061092F3
:103670002D0685E28093CA041092CC041092D905DD
:103680001092D8051092DB051092DA051092DD0534
:103690001092DC0561E070E080E090E00E940C2078
:1036A000009791F09093D9058093D8051092DB058F
:1036B0001092DA052091DC053091DD05232B09F00D
:1036C00053C0FC01108250C08091D8059091D9055B
:1036D000009711F00E94831F1092D9051092D8050F
:1036E0001092DD051092DC051092DB051092DA05D0
:1036F000C2E0D0E0D0931706C09316068EE390E0A8
:103700009093F3068093F20698E3C92E94E0D92EA5
:10371000E12CF12CC092F406D092F506E092F60668
:10372000F092F70660E00E94601381E0809301024E
:1037300082E490E09093ED068093EC06C092EE0652
:10374000D092EF06E092F006F092F10660E00E945F
:103750006013D0931906C0931806DF91CF91FF90A4
:10376000EF90DF90CF9008951092DD051092DC0568
:103770006AE672E08091D8059091D9050E94FF20F9
:10378000B7CF0E94031C08F481E00895E89409C0B3
:1037900097FB3EF490958095709561957F4F8F4F84
:1037A0009F4F9923A9F0F92F96E9BB279395F6959A
:1037B000879577956795B795F111F8CFFAF4BB0F18
:1037C00011F460FF1BC06F5F7F4F8F4F9F4F16C07C
:1037D000882311F096E911C0772321F09EE8872F06
:1037E000762F05C0662371F096E8862F70E060E0C2
:1037F0002AF09A95660F771F881FDAF7880F96953B
:10380000879597F90895990F0008550FAA0BE0E8DE
:10381000FEEF16161706E807F907C0F01216130692
:10382000E407F50798F0621B730B840B950B39F4D2
:103830000A2661F0232B242B252B21F408950A2638
:1038400009F4A140A6958FEF811D811D08950E9466
:103850003A1C0C94AB1C0E949D1C38F00E94A41CC6
:1038600020F0952311F00C94941C0C949A1C1124B4
:103870000C94DF1C0E94BC1C70F3959FC1F3950F44
:1038800050E0551F629FF001729FBB27F00DB11DE4
:10389000639FAA27F00DB11DAA1F649F6627B00D74
:1038A000A11D661F829F2227B00DA11D621F739F5D
:1038B000B00DA11D621F839FA00D611D221F749F6B
:1038C0003327A00D611D231F849F600D211D822FB2
:1038D000762F6A2F11249F5750409AF0F1F08823D9
:1038E0004AF0EE0FFF1FBB1F661F771F881F915006
:1038F0005040A9F79E3F510580F00C94941C0C9405
:10390000DF1C5F3FE4F3983ED4F386957795679587
:10391000B795F795E7959F5FC1F7FE2B880F911D2F
:103920009695879597F9089597F99F6780E870E0D5
:1039300060E008959FEF80EC089500240A94161625
:10394000170618060906089500240A94121613068D
:10395000140605060895092E0394000C11F488231B
:1039600052F0BB0F40F4BF2B11F460FF04C06F5F37
:103970007F4F8F4F9F4F089557FD9058440F551F0D
:1039800059F05F3F71F04795880F97FB991F61F0E1
:103990009F3F79F087950895121613061406551F58
:1039A000F2CF4695F1DF08C0161617061806991FC4
:1039B000F1CF86957105610508940895E894BB27B9
:1039C00066277727CB0197F90895052E97FB1EF4FC
:1039D00000940E94FC1C57FD07D00E940F1D07FC9D
:1039E00003D04EF40C94FC1C5095409530952195D5
:1039F0003F4F4F4F5F4F089590958095709561951B
:103A00007F4F8F4F9F4F08950E94311DA59F900DAE
:103A1000B49F900DA49F800D911D11240895A1E2E3
:103A20001A2EAA1BBB1BFD010DC0AA1FBB1FEE1F38
:103A3000FF1FA217B307E407F50720F0A21BB30B83
:103A4000E40BF50B661F771F881F991F1A9469F7FF
:103A500060957095809590959B01AC01BD01CF015B
:103A60000895A29FB001B39FC001A39F700D811D57
:103A70001124911DB29F700D811D1124911D089577
:103A8000991B79E004C0991F961708F0961B881FB0
:103A90007A95C9F780950895EE0FFF1F881F8BBF99
:103AA0000790F691E02D19940E94311DB7FF0895FB
:103AB000821B930B08956095709580959095309535
:103AC0004095509521953F4F4F4F5F4F6F4F7F4F20
:103AD0008F4F9F4F08952A0D3B1D4C1D5D1D6E1D80
:103AE0007F1D801F911F08952A193B094C095D090C
:103AF0006E097F09800B910B08955058BB27AA27A8
:103B00000E94951D0C94AB1C0E949D1C38F00E94D5
:103B1000A41C20F039F49F3F19F426F40C949A1C4D
:103B20000EF4E095E7FB0C94941CE92F0E94BC1C5A
:103B300058F3BA17620773078407950720F079F4E2
:103B4000A6F50C94DE1C0EF4E0950B2EBA2FA02DDA
:103B50000B01B90190010C01CA01A0011124FF273A
:103B6000591B99F0593F50F4503E68F11A16F04035
:103B7000A22F232F342F4427585FF3CF4695379534
:103B80002795A795F0405395C9F77EF41F16BA0BF9
:103B9000620B730B840BBAF09150A1F0FF0FBB1FA7
:103BA000661F771F881FC2F70EC0BA0F621F731FF0
:103BB000841F48F4879577956795B795F7959E3F4D
:103BC00008F0B0CF9395880F08F09927EE0F9795DE
:103BD000879508950E94FE1D0C94AB1C0E94A41CA6
:103BE00058F00E949D1C40F029F45F3F29F00C948E
:103BF000941C51110C94DF1C0C949A1C0E94BC1C48
:103C000068F39923B1F3552391F3951B550BBB270B
:103C1000AA2762177307840738F09F5F5F4F220F50
:103C2000331F441FAA1FA9F335D00E2E3AF0E0E847
:103C300032D091505040E695001CCAF72BD0FE2F91
:103C400029D0660F771F881FBB1F26173707480725
:103C5000AB07B0E809F0BB0B802DBF01FF279358DD
:103C60005F4F3AF09E3F510578F00C94941C0C94F1
:103C7000DF1C5F3FE4F3983ED4F386957795679514
:103C8000B795F7959F5FC9F7880F911D9695879512
:103C900097F90895E1E0660F771F881FBB1F621731
:103CA00073078407BA0720F0621B730B840BBA0BEF
:103CB000EE1F88F7E09508950E94631E6894B11185
:103CC0000C94DF1C08950E94C41C88F09F5798F044
:103CD000B92F9927B751B0F0E1F0660F771F881F11
:103CE000991F1AF0BA95C9F714C0B13091F00E942B
:103CF000DE1CB1E008950C94DE1C672F782F882716
:103D0000B85F39F0B93FCCF3869577956795B39551
:103D1000D9F73EF490958095709561957F4F8F4FC0
:103D20009F4F089597FB16F40E94D61E0C94991E7F
:103D3000E894F92F96EBFF2381F012161306140670
:103D4000440B9395F69587957795679557954040E1
:103D5000FF23B9F71BC099270895882351F4985081
:103D6000D2F7872B762F652F542F432F322F20E049
:103D7000B1F3121613061406440B88233AF09A95F1
:103D8000440F551F661F771F881FCAF755234AF433
:103D9000440F551F11F460FF04C06F5F7F4F8F4FBA
:103DA0009F4F880F9695879597F9089590958095E0
:103DB0007095609550954095309521953F4F4F4FA8
:103DC0005F4F6F4F7F4F8F4F9F4F08950E94031C8F
:103DD00008F48FEF08950F931F93CF93DF938230F2
:103DE000910510F482E090E0E0916C07F0916D078E
:103DF00020E030E0A0E0B0E0309719F1408151813F
:103E00000281138148175907C8F08417950769F490
:103E1000109731F012960C93129713961C9327C0AB
:103E200000936C0710936D0722C02115310519F01E
:103E30004217530718F49A01BD01EF01DF01F801A1
:103E4000DBCF21153105F9F0281B390B2430310562
:103E500080F48A819B816115710521F0FB019383B8
:103E6000828304C090936D0780936C07FE013296A5
:103E700044C0FE01E20FF31F819391932250310958
:103E8000398328833AC020916A0730916B07232B2E
:103E900041F4209104023091050230936B07209386
:103EA0006A0720910202309103022115310541F485
:103EB0002DB73EB74091060250910702241B350BE7
:103EC000E0916A07F0916B07E217F307A0F42E1B4D
:103ED0003F0B2817390778F0AC014E5F5F4F24176E
:103EE000350748F04E0F5F1F50936B0740936A07EA
:103EF0008193919302C0E0E0F0E0CF01DF91CF9198
:103F00001F910F910895CF93DF93009709F481C01B
:103F1000FC01329713821282A0916C07B0916D0759
:103F2000109781F420813181820F931F20916A07BD
:103F300030916B072817390751F5F0936B07E09321
:103F40006A0767C0ED0120E030E0CE17DF0740F4DC
:103F50004A815B819E0141155105F1F0EA01F5CFDF
:103F6000D383C28340815181840F951FC817D9071D
:103F700059F488819981840F951F029691838083DB
:103F80008A819B81938382832115310529F4F093E3
:103F90006D07E0936C073DC0E901FB83EA8349911B
:103FA0005991C40FD51FEC17FD0761F480819181F1
:103FB000840F951F0296E9019983888382819381FA
:103FC0009B838A83E0E0F0E012968D919C91139799
:103FD000009719F0FD01DC01F7CF8D919C911197AD
:103FE0009D012E5F3F4F820F931F20916A073091F2
:103FF0006B072817390769F4309729F410926D0779
:1040000010926C0702C013821282B0936B07A093C8
:104010006A07DF91CF9108956F927F928F929F925E
:10402000AF92BF92CF92DF92EF92FF920F931F93C6
:10403000CF93DF93009789F4CB01DF91CF911F914C
:104040000F91FF90EF90DF90CF90BF90AF909F9037
:104050008F907F906F900C94EB1EFC01E60FF71F82
:104060009C0122503109E217F30708F4A9C0EC01C2
:10407000D9010D911C91119706171707B0F0053063
:10408000110508F49BC0C80104978617970708F428
:1040900095C002501109061B170B019311936D93E4
:1040A0007C93CF010E94831F89C05B01A01AB10AD3
:1040B0004C01800E911EA0916C07B0916D07612C90
:1040C000712CE12CF12C109709F446C08D919C9134
:1040D0001197A815B905B1F56C0142E0C40ED11CC9
:1040E000CA14DB0478F14C018A189B08640142E091
:1040F000C40ED11C1296BC9012971396AC91B5E0E9
:10410000CB16D10440F0B282A38391828082D90180
:104110006D937C9309C00E5F1F4F800F911FF901B3
:1041200091838083EB2DFA2FE114F10431F0D70154
:104130001396FC93EE93129741C0F0936D07E093B2
:104140006C073CC06816790608F43C017D011296A4
:104150000D90BC91A02DB7CF80916A0790916B070D
:1041600088169906E1F466167706C8F48091020273
:1041700090910302009741F48DB79EB740910602DB
:1041800050910702841B950BE817F907C8F4F093C8
:104190006B07E0936A07F901718360830FC0CB015D
:1041A0000E94EB1E7C01009759F0A801BE010E94FD
:1041B000F620CE010E94831FC70104C0CE0102C0B9
:1041C00080E090E0DF91CF911F910F91FF90EF90F1
:1041D000DF90CF90BF90AF909F908F907F906F9027
:1041E000089581E090E0F8940C940621FB01DC0135
:1041F00002C001900D9241505040D8F70895FB0144
:10420000DC0101900D920020E1F7089511E0C4E96E
:10421000D1E000E006C0802FFE010E944C1D2196D7
:10422000011DC539D10780E00807A9F7F894FFCF31
:10423000FF0100006E072000363738391B1D1A1C9D
:10424000000000008B105E100F0332105610421059
:104250003310000000006F02C801F201BC0223020B
:1042600001021502000000001403C8010F030E0331
:10427000696E6974006C65646F6E0066696E2063B8
:10428000616C6962726174650072656E747265203A
:1042900063617074657572000D0A00636F756C65FB
:1042A00075723A2000536572766F20616E676C6597
:1042B000206973206F7574206F662072616E676568
:0242C0002100DB
:00000001FF
