:100000000C9495010C94C6010C94C6010C94C60185
:100010000C94C6010C94C6010C94C6010C94C60144
:100020000C94C6010C949A0E0C949A0E0C949A0E91
:100030000C94C6010C9439030C94C6010C94C601AF
:100040000C94C6010C9441070C94C6010C94C60193
:100050000C94C6010C94C6010C94C6010C94C910F2
:100060000C94C6010C94A8040C947E040C94C60154
:100070000C94C6010C94C6010C94C6010C94C601E4
:100080000C94C6010C94C6010C94C6010C94C601D4
:100090000C94C6010C94C6010C94C6010C94A40ED9
:1000A0000C94C6010C94C6010C94C6010C94C601B4
:1000B0000C94C6010C94C6010C94C6010C94D20495
:1000C0000C94C6010C94C6010C94C6010C94540403
:1000D0000C942A040C94C6010C9400040C94D603CE
:1000E0000C94C601F105F605FB0505060F0688060A
:1000F00019062106290633063D0647065606600600
:1001000088066A0674067E060A0E0D0EFC0D000EA9
:10011000060E440E110E150E1B0E1F0E230E290E79
:100120002D0E310E440E370E3B0E3F0E0C9456062C
:100130000C940F060C94680D0C941B0E0C94000E7E
:100140000C94110E0C9423020C946F020C94660D07
:100150000C94150E0C940E030C94930D0C94140334
:100160000C9460060C948B0D0C9405060C94770D82
:100170000C94060E0C94F1050C94310E0C94290687
:100180000C9447060C94BC020C94290E0C940102AA
:100190000C943B0E0C94C8010C94FF140C94670D46
:1001A0000C940D0E0C9474060C9413110C94FB0516
:1001B0000C94F2010C943D060C9433060C941F0E23
:1001C0000C94650D0C947E060C942D0E0C94150267
:1001D0000C94230E0C9488060C94FC0D0C942106B0
:1001E0000C940A0E0C94370E0C943F0E0C941906C6
:1001F0000C946A060C94F6050C94C00D0C94440EF5
:100200000C940F030200002100240027002A002D77
:10021000003000330001010000040107010A010061
:10022000002200250028002B002E0031003400029F
:10023000010000050108010B010000200023002639
:100240000029002C002F00320000010000030106ED
:10025000010901050505050705080808080202024D
:10026000020A0A0808040404040101010101010151
:10027000010303030303030303040707070C0C0C28
:100280000C0C0C0C0C020202020606060606060600
:10029000060B0B0B0B0B0B0B0B010210202008089D
:1002A00010204010204080020102010804020101D8
:1002B00002040810204080804020100804020180C1
:1002C0000402018040201008040201080402010118
:1002D0000204081020408001020408102040800021
:1002E000000A0B02090C0D0E0807030401000000B0
:1002F00000000000000000000000000000000000FE
:1003000000000000000000000000001211100000BA
:1003100000000000000000000000000000000000DD
:10032000000000000000FF14131111241FBECFEFC6
:10033000D1E2DEBFCDBF00E00CBF12E0A0E0B2E032
:10034000EEE4F7E300E00BBF02C007900D92AE367B
:10035000B107D9F727E0AEE6B2E001C01D92A7349D
:10036000B207E1F711E0C4E9D1E000E006C021974F
:100370000109802FFE010E945318C339D10780E084
:100380000807A9F70E9419110C94951B0C94000002
:10039000CF92DF92EF92FF920F931F93CF93DF9351
:1003A0006C017A018B01C0E0D0E0CE15DF0581F051
:1003B000D8016D918D01D601ED91FC910190F081F4
:1003C000E02DC6011995892B11F02196EECF7E0103
:1003D000C701DF91CF911F910F91FF90EF90DF90B8
:1003E000CF900895FC01538D448D252F30E0842F4C
:1003F00090E0821B930B541710F0CF96089501974D
:100400000895FC01918D828D981761F0828DDF0136
:10041000A80FB11D5D968C91928D9F5F9F73928FF7
:1004200090E008958FEF9FEF0895FC01918D828DEC
:10043000981731F0828DE80FF11D858D90E00895B9
:100440008FEF9FEF0895FC01918D228D892F90E011
:10045000805C9F4F821B91098F739927089589EEC5
:1004600092E00E94230221E0892B09F420E0822FF0
:10047000089586E893E00E94230221E0892B09F485
:1004800020E0822F089583E294E00E94230221E07D
:10049000892B09F420E0822F0895FC01848DDF016F
:1004A000A80FB11DA35ABF4F2C91848D90E00196E7
:1004B0008F739927848FA689B7892C93A089B189D6
:1004C0008C91837080648C93938D848D981306C077
:1004D0000288F389E02D80818F7D80830895EF92DB
:1004E000FF920F931F93CF93DF93EC0181E0888FEE
:1004F0009B8D8C8D981305C0E889F989808185FDD5
:1005000026C0F62E0B8D10E00F5F1F4F0F731127C3
:10051000E02E8C8DE8120CC00FB607FCFACFE889EC
:10052000F989808185FFF5CFCE010E944D02F1CF80
:100530008B8DFE01E80FF11DE35AFF4FF0829FB74C
:10054000F8940B8FEA89FB89808180620AC09FB78B
:10055000F894EE89FF896083E889F9898081837046
:10056000806480839FBF81E090E0DF91CF911F91F5
:100570000F91FF90EF900895CF93DF93EC01888D5A
:100580008823C9F0EA89FB89808185FD05C0A88997
:10059000B9898C9186FD0FC00FB607FCF5CF80811D
:1005A00085FFF2CFA889B9898C9185FFEDCFCE0167
:1005B0000E944D02E7CFDF91CF910895E0E0F0E097
:1005C000199480E090E0892B21F00E944302811170
:1005D00019C080E090E0892B41F080E090E0892B09
:1005E00021F00E940000811110C00E943902811187
:1005F0000FC080E090E0892B81F00E942F028111D2
:100600000AC008950E940000E4CF0E940000EDCFD0
:100610000E94DE02EECF0C9400000895089580E061
:1006200090E008950E94801B0F931F93CF93DF9358
:100630008C01C62FD62FD07FD1606D2F0E94590E0E
:100640006D2FC8010E946C0E80E1C89FB00111247B
:10065000C62FC1606C2FC8010E94590E6C2FC801B3
:100660000E946C0E81E090E0DF91CF911F910F917D
:1006700008951F920F920FB60F9211240BB60F928E
:100680002F933F934F935F936F937F938F939F939A
:10069000AF93BF93EF93FF938091890290918A0269
:1006A000A0918B02B0918C02892B8A2B8B2B49F164
:1006B00090918802809100008927809300008091AA
:1006C000890290918A02A0918B02B0918C02181637
:1006D00019061A061B060CF056C0809189029091EB
:1006E0008A02A0918B02B0918C020197A109B109F5
:1006F0008093890290938A02A0938B02B0938C021C
:1007000042C080910002E4E0F2E0E4919FEF909318
:100710000002E230C9F050F4EE2399F0E13081F5A7
:1007200090916F009D7F90936F002AC0E43019F183
:10073000E0F0E53029F5909173009D7F9093730070
:100740001FC010926E001CC0909170009D7F90930E
:10075000700091E09093B0009091B100987F946008
:100760009093B1001092B3000BC0909171009D7FE7
:100770009093710005C0909172009D7F90937200DC
:1007800060E00E94FF0FFF91EF91BF91AF919F91A9
:100790008F917F916F915F914F913F912F910F902A
:1007A0000BBE0F900FBE0F901F9018951F920F92C7
:1007B0000FB60F9211240BB60F922F933F934F93C6
:1007C0005F936F937F938F939F93AF93BF93EF93B9
:1007D000FF9389EE92E00E944D02FF91EF91BF914D
:1007E000AF919F918F917F916F915F914F913F91C9
:1007F0002F910F900BBE0F900FBE0F901F9018956A
:100800001F920F920FB60F9211240BB60F922F93D7
:100810003F934F935F936F937F938F939F93AF9388
:10082000BF93EF93FF9389EE92E00E94810EFF91B8
:10083000EF91BF91AF919F918F917F916F915F9158
:100840004F913F912F910F900BBE0F900FBE0F90C5
:100850001F9018951F920F920FB60F9211240BB68E
:100860000F922F933F934F935F936F937F938F9349
:100870009F93AF93BF93EF93FF9386E893E00E941B
:100880004D02FF91EF91BF91AF919F918F917F9119
:100890006F915F914F913F912F910F900BBE0F90F1
:1008A0000FBE0F901F9018951F920F920FB60F92C8
:1008B00011240BB60F922F933F934F935F936F9337
:1008C0007F938F939F93AF93BF93EF93FF9386E8AC
:1008D00093E00E94810EFF91EF91BF91AF919F91A4
:1008E0008F917F916F915F914F913F912F910F90D9
:1008F0000BBE0F900FBE0F901F9018951F920F9276
:100900000FB60F9211240BB60F922F933F934F9374
:100910005F936F937F938F939F93AF93BF93EF9367
:10092000FF9383E294E00E944D02FF91EF91BF910B
:10093000AF919F918F917F916F915F914F913F9177
:100940002F910F900BBE0F900FBE0F901F90189518
:100950001F920F920FB60F9211240BB60F922F9386
:100960003F934F935F936F937F938F939F93AF9337
:10097000BF93EF93FF9383E294E00E94810EFF9177
:10098000EF91BF91AF919F918F917F916F915F9107
:100990004F913F912F910F900BBE0F900FBE0F9074
:1009A0001F9018951F920F920FB60F9211240BB63D
:1009B0000F922F933F934F935F936F937F938F93F8
:1009C0009F93AF93BF93EF93FF938091C1040E94D5
:1009D000D60F2091C5043091C6042F5F3F4F30934E
:1009E000C6042093C5049091C404953618F096E08F
:1009F0009093C0049091C0049430C9F128F49230CF
:100A000069F09330D1F05EC0953009F451C0963052
:100A100009F058C091E09093910551C0811152C0E6
:100A20002091C5043091C6042436310508F442C033
:100A3000109291051092C4041CC0813009F042C08C
:100A4000E091C40491E09E0F9093C404F0E02091E3
:100A5000C5043091C604EE0FFF1FE054FB4F3087F2
:100A600027831092C6041092C50494E029C0811116
:100A700017C0E091C40491E09E0F9093C404F0E08D
:100A80002091C5043091C604EE0FFF1FE054FB4FC8
:100A9000308727831092C6041092C50493E010C0DB
:100AA0002091C5043091C6042536310558F007C0A1
:100AB000811108C01092C6041092C50403C095E0CD
:100AC0009093C0049091C3049923B9F081110AC096
:100AD0008091C204882321F08091C20461E009C0A2
:100AE0002F9A0BC08091C204882331F08091C204F8
:100AF00060E00E94FF0F01C02F98FF91EF91BF911E
:100B0000AF919F918F917F916F915F914F913F91A5
:100B10002F910F900BBE0F900FBE0F901F90189546
:100B20008F929F92AF92BF92CF92DF92EF92FF92FD
:100B30000F931F93CF93DF938C016A017B0120E019
:100B400030E04FE753E4C701B6010E944D174B0157
:100B50005C0120E030E0A9010E94701918161CF415
:100B6000C501B40103C0C501B40190580E943A19EF
:100B7000EB0120E030E0A901C701B6010E94701925
:100B8000181614F460E001C061E0F80181810E9450
:100B9000FF0FCF3FD10509F014F4DD2702C0CFEFDE
:100BA000D0E0F801108161E0812F0E942E10209783
:100BB00009F4B1C0CF3FD10509F4AFC0E12FF0E097
:100BC000E152FD4FE4918E2F90E0FC013197E2312C
:100BD000F10508F09DC08827EE58FF4F8F4F0C9409
:100BE000531884B5806884BDC7BDA7C084B5806232
:100BF00084BDC8BDA2C080918000806880938000C1
:100C0000D0938900C093880098C080918000806252
:100C100080938000D0938B00C0938A008EC0809117
:100C20008000886080938000D0938D00C0938C00FA
:100C300084C08091B00080688093B000C093B300FE
:100C40007CC08091B00080628093B000C093B400FB
:100C500074C080919000806880939000D093990038
:100C6000C09398006AC08091900080628093900049
:100C7000D0939B00C0939A0060C0809190008860E0
:100C800080939000D0939D00C0939C0056C08091AB
:100C9000A00080688093A0008091A0008F7B80934B
:100CA000A000D093A900C093A80047C08091A000E5
:100CB00080628093A000D093AB00C093AA003DC097
:100CC0008091A00088608093A000D093AD00C09375
:100CD000AC0033C080912001806880932001D093C4
:100CE0002901C093280129C080912001806280934E
:100CF0002001D0932B01C0932A011FC080912001B5
:100D0000886080932001D0932D01C0932C0115C0E1
:100D1000C038D10514F460E001C061E0812FDF919B
:100D2000CF911F910F91FF90EF90DF90CF90BF90E8
:100D3000AF909F908F900C94FF0FDF91CF911F91F8
:100D40000F91FF90EF90DF90CF90BF90AF909F906A
:100D50008F9008958EBD00000DB407FEFDCF8EB5B7
:100D60000895CF93DF93EC0160E088810E94FF0F2C
:100D700088E90E94AA0680E00E94AA0680E00E94FC
:100D8000AA0680E00E94AA0680E00E94AA0661E00E
:100D900088810E94FF0F8BE891E00197F1F760E0F6
:100DA00088810E94FF0F80EE0E94AA0661E0888180
:100DB000DF91CF910C94FF0FAF92BF92CF92DF9251
:100DC000EF92FF920F931F93CF93DF93CDB7DEB7D0
:100DD00060970FB6F894DEBF0FBECDBF5C0160E038
:100DE000FC0180810E94FF0F80E60E94AA068E010E
:100DF0000F5F1F4F7E01F1E1EF0EF11C680180E0F3
:100E00000E94AA0690E0A0E0B0E0F60181939193E1
:100E1000A193B1936F01EE15FF0589F761E0F5012C
:100E200080810E94FF0F80E090E0DC01F801419199
:100E30005191619171918F01BA2FA92F982F882715
:100E4000840F951FA61FB71FEE15FF0579F79C01AC
:100E5000AD0166277727CB01621B730B840B950BC3
:100E600060960FB6F894DEBF0FBECDBFDF91CF9175
:100E70001F910F91FF90EF90DF90CF90BF90AF90B8
:100E800008951F920F920FB60F9211240BB60F9276
:100E90002F933F934F935F936F937F938F939F9382
:100EA000AF93BF93EF93FF938091870287FF05C0B5
:100EB000109285001092840016C020918702022EA5
:100EC000000C330B8091CE0590E0281739075CF4B5
:100ED0003091870225E03203F0011124EE56FA4FDB
:100EE000808186FD15C0809187028F5F8093870285
:100EF00020918702022E000C330B8091CE0590E0EA
:100F00002817390794F4809187028C302CF10DC09A
:100F1000309187023203F0011124EE56FA4F80819E
:100F200060E08F730E94FF0FDECF8091840090916C
:100F3000850084349C4918F480E49CE905C08091C4
:100F40008400909185000496909389008093880096
:100F50008FEF809387022AC04091840050918500D2
:100F60003091870225E03203F0011124EE56FA4F4A
:100F700081819281840F951F9093890080938800CE
:100F8000309187023203F0011124EE56FA4F80812E
:100F900086FF0CC0309187023203F0011124EE5617
:100FA000FA4F808161E08F730E94FF0FFF91EF91F4
:100FB000BF91AF919F918F917F916F915F914F9171
:100FC0003F912F910F900BBE0F900FBE0F901F906F
:100FD00018952F923F924F925F926F927F928F92CD
:100FE0009F92AF92BF92CF92DF92EF92FF920F93B8
:100FF0001F93CF93DF93CDB7DEB766970FB6F89404
:10100000DEBF0FBECDBF97FD05C021E030E03E83BF
:101010002D8304C04FEF5FEF5E834D834D815E8172
:10102000489F9001499F300D589F300D11243C8BF3
:101030002B8B86EB93E0489F9001499F300D589F82
:10104000300D11243C832B8337FF05C0319521954A
:1010500031093C832B834B815C81435051095A8B6E
:10106000498B1C861B8658874F838B819C810297F6
:101070009A8789872B853C854B895C89241735079E
:101080000CF0DBC183E492E00E944D0B8B819C81CC
:101090000E941B0D83EF95E00E94B10685EF95E05D
:1010A0000E94B1068D819E81019709F0C5C04DEC6B
:1010B0005CEC6CE47EE381EF95E00E9490054DECE2
:1010C0005CEC6CE47EE38FEE95E00E949005188A5C
:1010D0001F861E861D861A821982212C312C00E063
:1010E00010E01E8A1D8A8DEC482E8CEC582E8CE464
:1010F000682E8EEB782E2F8138854D895E894217B8
:10110000530724F0021713070CF04FC185EF95E049
:101110000E94DC064B015C018827992788199909F0
:101120009A83898383EF95E00E94DC06CC24DD243A
:101130007601C61AD70AE80AF90A1601C6012D85F2
:101140003E85821B930B4D895E89480F591F5E8B2C
:101150004D8B89819A812F853889821B930B080FCB
:10116000191F39E5C31632E0D3060CF442C085EFEF
:1011700095E00E94B10683EF95E00E94B106C80C8D
:10118000D91CB601DD0C880B990B0E94EE1627E1E5
:1011900037EB41ED58E30E944D176B017C016D89DF
:1011A0007E89601B710B072E000C880B990B0E9427
:1011B000EE162CEA35EC47EA57E30E944D179B01E7
:1011C000AC01C701B6010E945C189B01AC01C301D0
:1011D000B2010E945B182B013C01AB01BC017058AD
:1011E00081EF95E00E949005188A1F861E861D8655
:1011F00006C049815A81588B4F87DE86CD868D89FE
:101200009E8929853A85821793073CF040E050E09B
:10121000BA018FEE95E00E94900549855A85041722
:1012200015070CF468CF40E050E060E070E881EF13
:1012300095E00E9490055FCF8D819E81019609F017
:10124000ACC04DEC5CEC6CE47EEB81EF95E00E9471
:1012500090054DEC5CEC6CE47EEB8FEE95E00E942B
:101260009005E12CF12CC12CD12C1A821982212C51
:10127000312C00E010E01E8A1D8A4F8158858D892F
:101280009E898417950724F0041715070CF08DC06C
:1012900088E492E00E944D0B83EF95E00E94DC060B
:1012A0009B01AC0188279927DC01821B930BA40BBF
:1012B000B50B22243324281A390A85EF95E00E94C1
:1012C000DC064B015C017A836983C1018C199D099D
:1012D0004D895E89480F591F5E8B4D8BC4018E1955
:1012E0009F09080F191F59E5251652E03506B4F17C
:1012F00085EF95E00E94B10683EF95E00E94B1066C
:10130000B10168197909072E000C880B990B0E940E
:10131000EE1627E137EB41ED58E30E944D176B01C4
:101320007C016D897E89601B710B072E000C880B78
:10133000990B0E94EE162CEA35EC47EA57E30E941F
:101340004D179B01AC01C701B6010E945C180E94B9
:101350002F0CE12CF12CC12CD12C02C074016101A5
:101360008D899E8929853A85821793073CF040E054
:1013700050E0BA018FEE95E00E94900549855A85AC
:10138000041715070CF479CF40E050E060E070E8F6
:1013900081EF95E00E94900570CF1A821982212C6E
:1013A000312C00E010E01E8A1D8A40E050E0BA01B6
:1013B0008FEE95E00E94900540E050E060E070E81C
:1013C00081EF95E00E9490058D899E890E941B0DFA
:1013D000C8010E941B0D8DE492E00E944D0B89898B
:1013E0009A890E941B0D81E592E00E944D0BC1017C
:1013F0000E941B0D89819A810E941B0D83EF95E04D
:101400000E94DC0690958095709561957F4F8F4F77
:101410009F4F0E94450E85EF95E00E94DC060E94DA
:10142000450E64E670E080E090E00E946A108B85D3
:101430009C8501969C878B871DCE66960FB6F89487
:10144000DEBF0FBECDBFDF91CF911F910F91FF90F7
:10145000EF90DF90CF90BF90AF909F908F907F9054
:101460006F905F904F903F902F9008954F925F92B2
:101470006F927F928F929F92AF92BF92CF92DF92A4
:10148000EF92FF920F931F93CF93DF9300D000D082
:10149000CDB7DEB79B01AC01A0E8BCE00E940B1801
:1014A0006B017C010E94450EC701B6010E94EE1639
:1014B00020E030E044EC51E40E94C8180E943A1940
:1014C0006B017C0183EF95E00E94B10685EF95E00A
:1014D0000E94DC0685EF95E00E94B1064AE959E9D1
:1014E00069E97EEB81EF95E00E9490054AE959E9B0
:1014F00069E97EE38FEE95E00E94900500E010E040
:101500001E821D828AE9882E89E9982EA92C8EE3F5
:10151000B82E2601370121EE421A510861087108E0
:101520002D813E81C901330FAA0BBB0B8415950594
:10153000A605B7055CF0C801012E000CAA0BBB0B79
:1015400084159505A605B7050CF066C085EF95E0F6
:101550000E94DC0669837A838B839C8383EF95E00A
:101560000E94DC06CC24DD247601C61AD70AE80ADC
:10157000F90A85EF95E00E94B10683EF95E00E949D
:10158000B1068D819E818C0D9D1D9E838D83298149
:101590003A81020F131FB601621B730B072E000C5A
:1015A000880B990B0E94EE1627E137EB41ED58E3CB
:1015B0000E944D176B017C016D817E81601B710B58
:1015C000072E000C880B990B0E94EE162CEA35ECC6
:1015D00047EA57E30E944D179B01AC01C701B601D2
:1015E0000E945C186B017C010E942F0CA7019601E0
:1015F000C501B4010E945C184B015C01AB01BC0148
:10160000705881EF95E00E94900562E370E080E001
:1016100090E00E946A1084CF88E592E00E944D0B12
:1016200040E050E0BA018FEE95E00E94900540E066
:1016300050E060E070E881EF95E00E94900564E67C
:1016400070E080E090E026960FB6F894DEBF0FBE03
:10165000CDBFDF91CF911F910F91FF90EF90DF9061
:10166000CF90BF90AF909F908F907F906F905F9042
:101670004F900C946A10009769F0FC0101900020D3
:10168000E9F73197AF01481B590BBC0183E294E0A5
:101690000C94C80180E090E00895CF93DF930E94FE
:1016A0003B0BEC018FE592E00E943B0B8C0F9D1FE2
:1016B000DF91CF9108953091DC02313208F04BC0B8
:1016C0008091B8028111FCCF9091DB0222E020933F
:1016D000B80221E02093B7022FEF2093B6021092B8
:1016E000B5023093B402EBEBF2E0A4E9B2E020E003
:1016F000321721F041914D932F5FFACF1092930250
:1017000020919302990F922B9093930290919202C1
:10171000913061F410929202909193029093BB00E9
:101720009091BC0093FDF8CF95EC01C095EE90939D
:10173000BC009091B8029230E1F39091B6029F3FC5
:1017400079F08091B602803241F08091B602803308
:1017500031F084E005C081E003C082E001C083E095
:101760001092BA021092DC021092B90208950F93FF
:101770001F93CF93DF93162F072FC6EDD5E09C85DF
:1017800021E02093B9029093DB021092BA021092EA
:10179000DC02AA85BB85ED91FC9111970190F08147
:1017A000E02D682FCD0119958A859B85DC01ED918F
:1017B000FC910190F081E02D602F19958A859B8521
:1017C000DC01ED91FC910190F081E02D612F1995E4
:1017D000DF91CF911F910F910C945B0B8F929F9291
:1017E000AF92BF920F931F93CF93DF93CDB7DEB726
:1017F000A1970FB6F894DEBF0FBECDBF19A242303D
:1018000008F44AE08E010F5D1F4F842E912CA12C0D
:10181000B12CA50194010E941618E62FB901CA0146
:1018200001501109EA3014F4E05D01C0E95CD8010F
:10183000EC93232B242B252B61F7C8010E943B0B33
:10184000A1960FB6F894DEBF0FBECDBFDF91CF914A
:101850001F910F91BF90AF909F908F9008954F92DE
:101860005F926F927F928F929F92AF92BF92CF9230
:10187000DF92EF92FF926B017C019B01AC010E9411
:101880007519882319F082E692E01AC046015701C3
:10189000E894B7F82FEF3FEF4FE75FE7C501B401DA
:1018A0000E947519811110C02FEF3FEF4FE75FE7DE
:1018B000C501B4010E94E716181634F486E692E0DA
:1018C0000E943B0B7C0183C02FEF3FEF4FE75FE4AB
:1018D000C701B6010E94701918161CF48AE692E03E
:1018E000EFCF2FEF3FEF4FE75FECC701B6010E944C
:1018F000E71687FDF3CF20E030E0A901C701B6016C
:101900000E94E71687FF0BC06DE283E294E00E941D
:101910006F025C01F7FAF094F7F8F09402C0A12C82
:10192000B12C2AE037ED43EA5BE3C701B6010E9420
:101930005C182B013C010E9441196B017C010E9443
:10194000EC169B01AC01C301B2010E945B182B0194
:101950003C014AE0C701B6010E94EE0B7C01EA0C93
:10196000FB1C6EE283E294E00E946F02E80EF91E17
:1019700020E030E040E251E4C301B2010E944D1783
:101980002B013C010E9441194B01A12CB12C4AE0D2
:10199000C501B4010E94EE0BE80EF91EC501B401A9
:1019A0000E94EC169B01AC01C301B2010E945B18BE
:1019B00020E030E040E251E40E944D170E944119BE
:1019C00080E090E04AE00E94EE0BE80EF91E8FE501
:1019D00092E00E943B0B8E0D9F1DFF90EF90DF90D9
:1019E000CF90BF90AF909F908F907F906F905F90BF
:1019F0004F900895CF92DF92EF92FF92CF93DF93B3
:101A00006B017C016DE283E294E00E946F02EC01C5
:101A100066277727CB016C197D098E099F094AE05B
:101A20000E94EE0B8C0F9D1FDF91CF91FF90EF90E6
:101A3000DF90CF900895CF93DF93BC01990F880B6F
:101A4000990B97FF03C00E94FA0C03C04AE00E9462
:101A5000EE0BEC018FE592E00E943B0B8C0F9D1F7B
:101A6000DF91CF91089585ED8093BC008091BC00FB
:101A700084FDFCCF1092B802089540911507262FDF
:101A800030E0240F311D21323105DCF42091B80201
:101A90002430C9F4FC0180E090E0861758F43091BE
:101AA00015072191DC01AB50B94FA30FB11D2C9349
:101AB0000196F3CF80911507680F6093150780E0BA
:101AC000089581E0089582E00895089508950895A5
:101AD000E091D0068091CF06E81730F4F0E0EB52A9
:101AE000F94F808190E008958FEF9FEF08959091D6
:101AF000D0068091CF06981750F4E92FF0E0EB5212
:101B0000F94F208130E09F5F9093D00602C02FEF05
:101B10003FEFC90108958091CF0690E02091D00653
:101B2000821B91090895CF92DF92EF92FF920F935B
:101B30001F93CF93DF937C01CB018A012091B902DF
:101B4000222389F0EB016B01C40ED51ECC15DD05F7
:101B500069F06991D701ED91FC910190F081E02D40
:101B6000C7011995F3CF642F0E943D0DC801DF9185
:101B7000CF911F910F91FF90EF90DF90CF9008953C
:101B8000CF93DF931F92CDB7DEB769832091B9025F
:101B90002223D1F02091DC02203240F021E030E01D
:101BA000FC013383228380E090E015C08091BA026B
:101BB000E82FF0E0E554FD4F998190838F5F80938B
:101BC000BA028093DC0205C061E0CE0101960E945A
:101BD0003D0D81E090E00F90DF91CF91089590E06E
:101BE000FC013197E231F10508F04EC08827EC572F
:101BF000FF4F8F4F0C945318809180008F7703C054
:101C0000809180008F7D8093800008958091800076
:101C1000877FF9CF84B58F7702C084B58F7D84BD6F
:101C200008958091B0008F7703C08091B0008F7DC0
:101C30008093B0000895809190008F7707C08091C5
:101C400090008F7D03C080919000877F80939000EB
:101C500008958091A0008F7707C08091A0008F7DAC
:101C600003C08091A000877F8093A0000895809199
:101C700020018F7707C0809120018F7D03C0809164
:101C80002001877F809320010895CF93DF9397FFF2
:101C900003C00E94FA0C03C04AE00E94EE0BEC0164
:101CA0008FE592E00E943B0B8C0F9D1FDF91CF913F
:101CB0000895FC01248131E03093B9022093DB02C6
:101CC0001092BA021092DC028485682B8DED92E0AE
:101CD0000E94C00D0C945B0B0F931F93CF938C014C
:101CE000C62F64600E94590E6C2F6B7FC8010E9442
:101CF000590E83EC90E00197F1F7CF911F910F916E
:101D00000895FC01A089B1898C91A689B78982FDCB
:101D10000FC09C91818D8F5F8F73228D821749F048
:101D2000218DDF01A20FB11D5D969C93818F0895D7
:101D30008C9108951F920F920FB60F9211240F905D
:101D40000FBE0F901F9018951F920F920FB60F9213
:101D500011240BB60F922F933F934F935F936F9382
:101D60007F938F939F93AF93BF93EF93FF93809154
:101D7000B900887F803609F49CC068F5883209F480
:101D80005BC090F4803109F454C038F4882309F41E
:101D9000F6C0883009F44DC0F6C0883109F44CC053
:101DA000803209F45DC0EFC0803409F468C048F4A3
:101DB000803309F455C0883309F0E5C08093B6023A
:101DC000D8C0803509F44FC0883509F45DC0883427
:101DD00009F0D9C0D6C0883909F4C7C0A8F488373B
:101DE00009F467C038F4883609F463C0803709F411
:101DF00060C0C9C0883809F4B8C0803909F45FC030
:101E0000803809F0C0C05BC0803B09F486C038F45C
:101E1000803A09F466C0883A09F47FC0B4C0803CB7
:101E200009F4A7C0883C09F4A4C0883B09F48AC01F
:101E3000AAC08091930210C09091B5028091B40223
:101E4000981770F5E091B50281E08E0F8093B5028E
:101E5000F0E0EC56FD4F80818093BB0085EC86C09E
:101E60008093B6028EC0E091B50281E08E0F809320
:101E7000B5028091BB00F0E0EC56FD4F808390915D
:101E8000B5028091B4026EC0E091B50281E08E0F80
:101E90008093B5028091BB00F0E0EC56FD4F80834B
:101EA0008091B70281116DC081E08093920284EA33
:101EB00061C083E08093B80210923707CFCF809142
:101EC0003707803208F051C0E091370781E08E0F6C
:101ED000809337078091BB00F0E0E95EF84F808384
:101EE000BDCF85EC8093BC001092B802809137077B
:101EF000803230F4E0913707F0E0E95EF84F10826D
:101F00006091370770E0E091D306F091D40687E145
:101F100097E019951092370736C084E08093B80295
:101F20001092160710921507E091D106F091D20693
:101F3000199580911507811105C081E080931507DF
:101F40001092F506E091160781E08E0F8093160738
:101F5000F0E0EB50F94F80818093BB009091160721
:101F600080911507981708F479CF85E88093BC0015
:101F70000AC085EC8093BC001092B80204C0109295
:101F8000B6020E94330DFF91EF91BF91AF919F91E7
:101F90008F917F916F915F914F913F912F910F9012
:101FA0000BBE0F900FBE0F901F901895CF93DF932D
:101FB000282F30E0F901E152FD4F8491F901E756F5
:101FC000FD4FD491F901ED5AFD4FC491CC2391F00E
:101FD00081110E94EF0DEC2FF0E0EE0FFF1FE75C88
:101FE000FD4FA591B491EC91ED2381E090E021F4B7
:101FF00080E002C080E090E0DF91CF9108951F93D0
:10200000CF93DF93282F30E0F901E152FD4F849107
:10201000F901E756FD4FD491F901ED5AFD4FC491F6
:10202000CC23C1F0162F81110E94EF0DEC2FF0E0B0
:10203000EE0FFF1FE15EFD4FA591B4919FB7F8949D
:10204000111104C08C91D095D82302C0EC91DE2BE5
:10205000DC939FBFDF91CF911F910895CF93DF93C2
:1020600090E0FC01E756FD4F2491FC01ED5AFD4F35
:102070008491882361F190E0880F991FFC01EB5F48
:10208000FD4FC591D491FC01E15EFD4FA591B49146
:10209000611109C09FB7F8948881209582238883B5
:1020A000EC912E230BC0623061F49FB7F8948881C5
:1020B000322F309583238883EC912E2B2C939FBF56
:1020C00006C08FB7F894E8812E2B28838FBFDF914D
:1020D000CF9108958F929F92AF92BF92CF92DF924D
:1020E000EF92FF926B017C010E94A4104B015C01F6
:1020F000C114D104E104F104F1F00E94A410DC0148
:10210000CB0188199909AA09BB09883E9340A1050A
:10211000B10570F321E0C21AD108E108F10888EE98
:10212000880E83E0981EA11CB11CC114D104E104E7
:10213000F10419F7DDCFFF90EF90DF90CF90BF90C3
:10214000AF909F908F9008953FB7F89480913F078C
:1021500090914007A0914107B091420726B5A89BF6
:1021600005C02F3F19F00196A11DB11D3FBFBA2F29
:10217000A92F982F8827820F911DA11DB11DBC0189
:10218000CD0142E0660F771F881F991F4A95D1F74E
:1021900008951F920F920FB60F9211242F933F9321
:1021A0008F939F93AF93BF9380913B0790913C0790
:1021B000A0913D07B0913E0730913A0723E0230FED
:1021C0002D3720F40196A11DB11D05C026E8230F6F
:1021D0000296A11DB11D20933A0780933B0790936F
:1021E0003C07A0933D07B0933E0780913F07909135
:1021F0004007A0914107B09142070196A11DB11D72
:1022000080933F0790934007A0934107B093420704
:10221000BF91AF919F918F913F912F910F900FBEE2
:102220000F901F9018958091CF059091D0050C9438
:10223000121A789484B5826084BD84B5816084BDAF
:1022400085B5826085BD85B5816085BD80916E0054
:10225000816080936E001092810080918100826085
:1022600080938100809181008160809381008091C2
:1022700080008160809380008091B10084608093B1
:10228000B1008091B00081608093B0008091910096
:102290008260809391008091910081608093910091
:1022A000809190008160809390008091A100826075
:1022B0008093A1008091A10081608093A100809112
:1022C000A00081608093A0008091210182608093B2
:1022D0002101809121018160809321018091200161
:1022E00081608093200180917A00846080937A00DD
:1022F00080917A00826080937A0080917A00816078
:1023000080937A0080917A00806880937A0010929E
:10231000C100E0913304F091340482E08083E091C5
:102320002F04F09130041082E0913104F0913204D6
:102330008FEC808310923B04E0913704F0913804D5
:1023400086E08083E0913504F091360480818061DD
:102350008083E0913504F091360480818860808329
:10236000E0913504F0913604808180688083E091AB
:102370003504F091360480818F7D808361E0809107
:10238000D7050E942E1060E08091D7050E94FF0FB4
:1023900060E08091D6050E942E108DED92E0909322
:1023A000E1058093E0051092D0061092CF061092BE
:1023B000BA021092DC021092B80281E08093B70258
:1023C0001092920261E084E10E94FF0F61E085E1DA
:1023D0000E94FF0F8091B9008E7F8093B900809199
:1023E000B9008D7F8093B90088E48093B80085E4BC
:1023F0008093BC0085E69DE09093D2068093D10641
:1024000086E69DE09093D4068093D30680E090E129
:10241000A0E0B0E08093E3059093E405A093E50588
:10242000B093E6058AE090E0A0E0B0E08093E70595
:102430009093E805A093E905B093EA0580E090E069
:10244000A0E0B0E48093EB059093EC05A093ED053C
:10245000B093EE0560E070E185E00E94B70B6FE994
:1024600079E380E00E94B70BC6EDD5E08E0152E023
:10247000752E68E8A62E62E0B62E7EEC872E72E0FE
:10248000972EEBECEE2EE7E0FE2EF8019481828190
:10249000898F9A8F61E00E942E1061E08A8D0E94E0
:1024A0002E10F801908586816E01FDE1CF0ED11CC2
:1024B0008D8F9E8F61E00E942E1060E08E8D0E94B5
:1024C0002E1061E08D8D0E94FF0F6FB6F894809101
:1024D0008D02811126C0F5018491F4012491E82F29
:1024E000F0E0EE0FFF1FEB5FFD4FA591B4919C91C3
:1024F000822F892321F461E085E30E94FF0F61E0D0
:1025000085E30E942E108CB580618CBD8CB58064F3
:102510008CBD61E084E30E942E1061E083E30E94A1
:102520002E1080918D028F5F80938D026FBEC70148
:102530000197F1F760E08D8D0E94FF0F88E80E94FF
:10254000AA0683E00E94AA0661E08D8D0E94FF0F1B
:10255000C7010197F1F7C6010E94B1067A940F5F97
:102560001F4F2296711091CF0BEF15E0CFEFD5E002
:1025700060E0F80181918F010E942E10C017D107F1
:10258000B9F707EF15E095E0E92E2CE0C22E32E016
:10259000D32EF9908F818C3008F044C061E08F2DEC
:1025A0000E942E108F81E89EF0011124EE56FA4F02
:1025B0009F2D9F732081207CF22EF92AF0821382B6
:1025C00014826C2D0E944718FCE08F9FA0011124FB
:1025D00020E030E0BA01620F731FE69EF001E79E33
:1025E000F00D1124EE56FA4F908196FD12C02F5F28
:1025F0003F4F2C30310571F781110BC010928000D4
:10260000D09281001092850010928400D6BAD092A8
:102610006F00EF81EE9EF0011124EE56FA4F80819B
:10262000806480839D818B81F801828B938B60E035
:102630000E942E1061E0F80183890E942E1060E054
:10264000F80183890E94FF0F0E5F1F4FF6E0C13033
:10265000DF0709F09ECFF8941092200189E0809363
:10266000210180E293E09093290180932801109248
:1026700025011092240182E0809373007894809366
:10268000C0041092C4048091C10460E00E942E1026
:1026900087EA482E87E0582E612C712C8091FD0529
:1026A0000E94D60F892B09F40FC160E87BEB80E014
:1026B00090E00E94450E83EF95E00E94B10685EF01
:1026C00095E00E94DC0685EF95E00E94B1064DEC96
:1026D0005CEC6CE47EE38FEE95E00E949005409107
:1026E000010250910202609103027091040270583D
:1026F00081EF95E00E94900500E010E0C0E0D0E09E
:102700008091900290919102092E000CAA0BBB0BB4
:10271000B301A201481B590B6A0B7B0BCE010D2E96
:10272000000CAA0BBB0B84179507A607B707CCF0C4
:1027300080918E0290918F02092E000CAA0BBB0B88
:10274000B301A201481B590B6A0B7B0BC801012E78
:10275000000CAA0BBB0B84179507A607B7070CF054
:1027600069C085EF95E00E94DC064B015C0183EFB8
:1027700095E00E94DC06CC24DD247601C61AD70A37
:10278000E80AF90A85EF95E00E94B10683EF95E02B
:102790000E94B106CC0DDD1D080D191DB60168198A
:1027A0007909072E000C880B990B0E94EE1627E181
:1027B00037EB41ED58E30E944D176B017C01BE01E0
:1027C000601B710B072E000C880B990B0E94EE16F4
:1027D0002CEA35EC47EA57E30E944D179B01AC0108
:1027E000C701B6010E945C186B017C010E942F0C8E
:1027F00020910102309102024091030250910402A3
:10280000C701B6010E945C18609301027093020236
:102810008093030290930402AB01BC01705881EFD6
:1028200095E00E94900564E670E080E090E00E94F0
:102830006A1066CF83EF95E00E94DC069B01AC0135
:1028400088279927DC01821B930BA40BB50BC75A71
:10285000D740C80FD91FD0939102C093900285EF43
:1028600095E00E94DC06600F711F675A77407093F5
:102870008F0260938E02CE010E941B0D80918E020A
:1028800090918F020E941B0D6091010270910202D3
:1028900080910302909104020E942F0C6DEC7CEC5D
:1028A0008CE49EE30E942F0C40E050E0BA018FEED2
:1028B00095E00E94900540E050E060E070E881EF14
:1028C00095E00E94900598C08091FE050E94D60F69
:1028D000892B09F491C06CE770E080E090E00E94E1
:1028E000360A8EEF9FEF0E94E90764E670E080E011
:1028F00090E00E94360A82E090E00E94E9076DE2D3
:1029000070E080E090E00E94360A82E090E00E9451
:10291000E90767E370E080E090E00E94360A8EEFFE
:102920009FEF0E94E90762ED70E080E090E00E9476
:10293000360A82E090E00E94E9076DE270E080E0F4
:1029400090E00E94360A8EEF9FEF0E94E9076CE844
:1029500070E080E090E00E94360A8CEF9FEF0E94CA
:10296000E9076AEF70E080E090E00E94360A83EFAA
:1029700095E00E94DC0683EF95E00E94B10685EFAA
:1029800095E00E94DC0685EF95E00E94B10683EF9A
:1029900095E00E94DC0685EF95E00E94DC064DEC98
:1029A0005CEC6CE47EE38FEE95E00E9490054DECCC
:1029B0005CEC6CE47EE381EF95E00E94900540E0E2
:1029C00050E0BA018FEE95E00E94900540E050E0A3
:1029D00060E070E881EF95E00E94900564E670E0A9
:1029E00080E090E00E946A1080E090E00E941B0D61
:1029F00080E090E00E941B0D0E94E1024FCE1092F9
:102A0000E0021092DF0288EE93E0A0E0B0E0809355
:102A1000E1029093E202A093E302B093E40227E183
:102A200032E03093DE022093DD021092EC0210922D
:102A3000EB028093ED029093EE02A093EF02B0932D
:102A4000F00229E232E03093EA022093E90245E302
:102A500051E05093F6024093F50244E351E0509365
:102A6000F8024093F70240E351E05093FA0240939A
:102A7000F90241E351E05093FC024093FB0242E330
:102A800051E05093FE024093FD0246E351E0509323
:102A900000034093FF02109202031092030310926E
:102AA0000403109205031092890310928803809307
:102AB0008A0390938B03A0938C03B0938D03309380
:102AC00087032093860345ED50E050939303409392
:102AD000920344ED50E0509395034093940340EDEE
:102AE00050E0509397034093960341ED50E050938C
:102AF00099034093980342ED50E050939B03409319
:102B00009A0346ED50E050939D0340939C0310922E
:102B10009F031092A0031092A1031092A20310929F
:102B20002604109225048093270490932804A093F0
:102B30002904B0932A04309324042093230485ECC1
:102B400090E09093300480932F0484EC90E0909375
:102B500032048093310480EC90E0909334048093AD
:102B6000330481EC90E0909336048093350482EC3A
:102B700090E0909338048093370486EC90E0909333
:102B80003A048093390410923C0410923D04109250
:102B90003E0410923F0480910B0290910C02A09190
:102BA0000D02B0910E028093F7059093F805A09363
:102BB000F905B093FA0580910F0290911002A0914F
:102BC0001102B09112028093FB059093FC05A09333
:102BD000FD05B093FE0584E08093FF0587E08093B8
:102BE00000061092010684EB8093020686E1809332
:102BF000030688E18093040687E18093050689E156
:102C000080930606E091CE05EC3020F08FEF8093A4
:102C1000070610C081E08E0F8093CE05E093070673
:102C200085E0E89FF0011124EE56FA4F88EB9BE017
:102C300092838183E091CE05EC3020F08FEF80937A
:102C4000080610C081E08E0F8093CE05E093080641
:102C500085E0E89FF0011124EE56FA4F88EB9BE0E7
:102C6000928381838CE08093D60584E28093D7059C
:102C700086E08093D80585E08093D9058FE1809325
:102C8000DA058EE18093DB0583E28093DC0582E246
:102C90008093DD0585E48093DE0584E48093DF0581
:102CA00080E48093E2051092E7051092E805109207
:102CB000E9051092EA051092EB051092EC051092CE
:102CC000ED051092EE05E1E1F6E02FEC36E08FEF36
:102CD0009FEFDC0112821382148215821682178202
:102CE0001086118683879487A587B6878787908B00
:102CF000A18BB28B12861182108273962E173F071A
:102D000049F78DE090E00E947A19FC01138212824B
:102D10008BE392E091838083118687E2848384E150
:102D2000828784E083871486F0930E06E0930D0675
:102D300010920F061092100685E28093C104109243
:102D4000C3041092D0051092CF051092D2051092B4
:102D5000D1051092D4051092D30561E070E080E0B7
:102D600090E00E949B1A009789F09093D005809381
:102D7000CF051092D2051092D1052091D305309144
:102D8000D405232BC1F4FC01108215C08091CF051E
:102D90009091D005009711F00E94121A1092D00560
:102DA0001092CF051092D4051092D3051092D2053F
:102DB0001092D10508951092D4051092D30561E6C2
:102DC00072E08091CF059091D0050C948E1B0E94EB
:102DD000291708F481E00895E89409C097FB3EF4B0
:102DE00090958095709561957F4F8F4F9F4F992358
:102DF000A9F0F92F96E9BB279395F69587957795D6
:102E00006795B795F111F8CFFAF4BB0F11F460FF95
:102E10001BC06F5F7F4F8F4F9F4F16C0882311F0ED
:102E200096E911C0772321F09EE8872F762F05C001
:102E3000662371F096E8862F70E060E02AF09A959C
:102E4000660F771F881FDAF7880F9695879597F991
:102E50000895990F0008550FAA0BE0E8FEEF16162B
:102E60001706E807F907C0F012161306E407F5077E
:102E700098F0621B730B840B950B39F40A2661F0F2
:102E8000232B242B252B21F408950A2609F4A14095
:102E9000A6958FEF811D811D08950E9460170C94E7
:102EA000D1170E94C31738F00E94CA1720F095234B
:102EB00011F00C94BA170C94C01711240C94051837
:102EC0000E94E21770F3959FC1F3950F50E0551FD4
:102ED000629FF001729FBB27F00DB11D639FAA276F
:102EE000F00DB11DAA1F649F6627B00DA11D661FBE
:102EF000829F2227B00DA11D621F739FB00DA11DDF
:102F0000621F839FA00D611D221F749F3327A00D98
:102F1000611D231F849F600D211D822F762F6A2F34
:102F200011249F5750409AF0F1F088234AF0EE0F99
:102F3000FF1FBB1F661F771F881F91505040A9F7C6
:102F40009E3F510580F00C94BA170C9405185F3F12
:102F5000E4F3983ED4F3869577956795B795F79502
:102F6000E7959F5FC1F7FE2B880F911D969587957A
:102F700097F9089597F99F6780E870E060E00895F9
:102F80009FEF80EC089500240A9416161706180681
:102F90000906089500240A9412161306140605065D
:102FA0000895092E0394000C11F4882352F0BB0FEE
:102FB00040F4BF2B11F460FF04C06F5F7F4F8F4F51
:102FC0009F4F089557FD9058440F551F59F05F3F8C
:102FD00071F04795880F97FB991F61F09F3F79F03B
:102FE00087950895121613061406551FF2CF4695BD
:102FF000F1DF08C0161617061806991FF1CF86953F
:103000007105610508940895E894BB276627772722
:10301000CB0197F908950E943818A59F900DB49F91
:10302000900DA49F800D911D11240895A1E21A2EE8
:10303000AA1BBB1BFD010DC0AA1FBB1FEE1FFF1F5C
:10304000A217B307E407F50720F0A21BB30BE40BAC
:10305000F50B661F771F881F991F1A9469F76095F3
:103060007095809590959B01AC01BD01CF010895AD
:10307000A29FB001B39FC001A39F700D811D1124B9
:10308000911DB29F700D811D1124911D0895991BF2
:1030900079E004C0991F961708F0961B881F7A954F
:1030A000C9F780950895EE0FFF1F881F8BBF07900B
:1030B000F691E02D19945058BB27AA270E94731847
:1030C0000C94D1170E94C31738F00E94CA1720F041
:1030D00039F49F3F19F426F40C94C0170EF4E095D0
:1030E000E7FB0C94BA17E92F0E94E21758F3BA17BE
:1030F000620773078407950720F079F4A6F50C940E
:1031000004180EF4E0950B2EBA2FA02D0B01B90177
:1031100090010C01CA01A0011124FF27591B99F04D
:10312000593F50F4503E68F11A16F040A22F232F59
:10313000342F4427585FF3CF469537952795A795A9
:10314000F0405395C9F77EF41F16BA0B620B730B50
:10315000840BBAF09150A1F0FF0FBB1F661F771FC1
:10316000881FC2F70EC0BA0F621F731F841F48F476
:10317000879577956795B795F7959E3F08F0B0CFFF
:103180009395880F08F09927EE0F979587950895E6
:103190000E94DC180C94D1170E94CA1758F00E94A4
:1031A000C31740F029F45F3F29F00C94BA1751116E
:1031B0000C9405180C94C0170E94E21768F3992329
:1031C000B1F3552391F3951B550BBB27AA27621723
:1031D0007307840738F09F5F5F4F220F331F441F30
:1031E000AA1FA9F335D00E2E3AF0E0E832D0915064
:1031F0005040E695001CCAF72BD0FE2F29D0660F51
:10320000771F881FBB1F261737074807AB07B0E893
:1032100009F0BB0B802DBF01FF2793585F4F3AF099
:103220009E3F510578F00C94BA170C9405185F3F37
:10323000E4F3983ED4F3869577956795B795F7951F
:103240009F5FC9F7880F911D9695879597F9089507
:10325000E1E0660F771F881FBB1F621773078407A3
:10326000BA0720F0621B730B840BBA0BEE1F88F7B2
:10327000E09508950E9441196894B1110C940518C5
:1032800008950E94EA1788F09F5798F0B92F992760
:10329000B751B0F0E1F0660F771F881F991F1AF041
:1032A000BA95C9F714C0B13091F00E940418B1E08A
:1032B00008950C940418672F782F8827B85F39F089
:1032C000B93FCCF3869577956795B395D9F73EF4DA
:1032D00090958095709561957F4F8F4F9F4F089582
:1032E0000E94291708F48FEF08950E942917880B70
:1032F000990B08950F931F93CF93DF93823091051D
:1033000010F482E090E0E0914507F091460720E05C
:1033100030E0A0E0B0E0309719F1408151810281A6
:10332000138148175907C8F08417950769F4109757
:1033300031F012960C93129713961C9327C00093AA
:1033400045071093460722C02115310519F0421791
:10335000530718F49A01BD01EF01DF01F801DBCF3B
:1033600021153105F9F0281B390B2430310580F483
:103370008A819B816115710521F0FB019383828312
:1033800004C09093460780934507FE01329644C0DF
:10339000FE01E20FF31F819391932250310939838B
:1033A00028833AC02091430730914407232B41F4EE
:1033B000209107023091080230934407209343077D
:1033C00020910502309106022115310541F42DB7F7
:1033D0003EB74091090250910A02241B350BE0913F
:1033E0004307F0914407E217F307A0F42E1B3F0BAD
:1033F0002817390778F0AC014E5F5F4F2417350767
:1034000048F04E0F5F1F509344074093430781934A
:10341000919302C0E0E0F0E0CF01DF91CF911F91E6
:103420000F910895CF93DF93009709F481C0FC01B9
:10343000329713821282A0914507B09146071097E8
:1034400081F420813181820F931F209143073091B5
:1034500044072817390751F5F0934407E0934307D1
:1034600067C0ED0120E030E0CE17DF0740F44A816D
:103470005B819E0141155105F1F0EA01F5CFD3833F
:10348000C28340815181840F951FC817D90759F411
:1034900088819981840F951F0296918380838A8108
:1034A0009B81938382832115310529F4F09346078C
:1034B000E09345073DC0E901FB83EA8349915991B7
:1034C000C40FD51FEC17FD0761F480819181840F33
:1034D000951F0296E90199838883828193819B835A
:1034E0008A83E0E0F0E012968D919C91139700970B
:1034F00019F0FD01DC01F7CF8D919C9111979D0191
:103500002E5F3F4F820F931F209143073091440756
:103510002817390769F4309729F41092460710925A
:10352000450702C013821282B0934407A093430759
:10353000DF91CF9108956F927F928F929F92AF9279
:10354000BF92CF92DF92EF92FF920F931F93CF9390
:10355000DF93009789F4CB01DF91CF911F910F91F9
:10356000FF90EF90DF90CF90BF90AF909F908F90A3
:103570007F906F900C947A19FC01E60FF71F9C0165
:1035800022503109E217F30708F4A9C0EC01D90170
:103590000D911C91119706171707B0F00530110512
:1035A00008F49BC0C80104978617970708F495C0D4
:1035B00002501109061B170B019311936D937C9315
:1035C000CF010E94121A89C05B01A01AB10A4C01F6
:1035D000800E911EA0914507B0914607612C712C79
:1035E000E12CF12C109709F446C08D919C91119714
:1035F000A815B905B1F56C0142E0C40ED11CCA147E
:10360000DB0478F14C018A189B08640142E0C40E87
:10361000D11C1296BC9012971396AC91B5E0CB16C4
:10362000D10440F0B282A38391828082D9016D934C
:103630007C9309C00E5F1F4F800F911FF90191838A
:103640008083EB2DFA2FE114F10431F0D7011396AA
:10365000FC93EE93129741C0F0934607E093450721
:103660003CC06816790608F43C017D0112960D9065
:10367000BC91A02DB7CF8091430790914407881645
:103680009906E1F466167706C8F4809105029091D8
:103690000602009741F48DB79EB740910902509100
:1036A0000A02841B950BE817F907C8F4F093440746
:1036B000E0934307F901718360830FC0CB010E943F
:1036C0007A197C01009759F0A801BE010E94851B60
:1036D000CE010E94121AC70104C0CE0102C080E0D0
:1036E00090E0DF91CF911F910F91FF90EF90DF90CD
:1036F000CF90BF90AF909F908F907F906F900895E4
:1037000081E090E0F8940C94951BFB01DC0102C071
:1037100001900D9241505040D8F70895FB01DC0113
:1037200001900D920020E1F7089511E0C4E9D1E085
:1037300000E006C0802FFE010E9453182196011D53
:0E374000C539D10780E00807A9F7F894FFCF3C
:10374E00FFCDCC4C3E000047072000363738391BE2
:10375E001D1A1C00000000C00D930D0F03670D8B8A
:10376E000D770D680D000000006F02C801F201BC5C
:10377E0002230201021502000000001403C8010F0B
:10378E00030E03746F7572006C6F6C31006D65758E
:10379E000076616C65757200706174617465000D00
:0E37AE000A006E616E00696E66006F7666003E
:00000001FF
