:100000000C9495010C94C6010C94C6010C94C60185
:100010000C94C6010C94C6010C94C6010C94C60144
:100020000C94C6010C945B0F0C945B0F0C945B0F4B
:100030000C94C6010C9439030C94C6010C94C601AF
:100040000C94C6010C9441070C94C6010C94C60193
:100050000C94C6010C94C6010C94C6010C94291290
:100060000C94C6010C94A8040C947E040C94C60154
:100070000C94C6010C94C6010C94C6010C94C601E4
:100080000C94C6010C94C6010C94C6010C94C601D4
:100090000C94C6010C94C6010C94C6010C94650F17
:1000A0000C94C6010C94C6010C94C6010C94C601B4
:1000B0000C94C6010C94C6010C94C6010C94D20495
:1000C0000C94C6010C94C6010C94C6010C94540403
:1000D0000C942A040C94C6010C9400040C94D603CE
:1000E0000C94C601F105F605FB0505060F0688060A
:1000F00019062106290633063D0647065606600600
:1001000088066A0674067E06F20EF50EE40EE80E08
:10011000EE0E2C0FF90EFD0E030F070F0B0F110F34
:10012000150F190F2C0F1F0F230F270F0C941403FB
:100130000C9419060C947E060C94E40E0C942C0F6F
:100140000C944D0E0C94190F0C9460060C940E0335
:100150000C94070F0C94500E0C94F50E0C94C801DF
:100160000C945F0E0C9423020C94FB050C94110F5D
:100170000C9405060C946A060C943D060C946F02D0
:100180000C94F6050C9456060C94230F0C947312E1
:100190000C94EE0E0C9429060C94F20E0C94F105BE
:1001A0000C94730E0C940F060C947B0E0C94BC02F2
:1001B0000C94F2010C94270F0C9474060C943306E3
:1001C0000C940B0F0C9421060C946A180C941F0FBE
:1001D0000C94A80E0C94E80E0C944E0E0C94150F73
:1001E0000C940F030C9415020C94030F0C94010251
:1001F0000C944F0E0C9488060C94FD0E0C94F90E82
:100200000C9447060200002100240027002A002D3C
:10021000003000330001010000040107010A010061
:10022000002200250028002B002E0031003400029F
:10023000010000050108010B010000200023002639
:100240000029002C002F00320000010000030106ED
:10025000010901050505050705080808080202024D
:10026000020A0A0808040404040101010101010151
:10027000010303030303030303040707070C0C0C28
:100280000C0C0C0C0C020202020606060606060600
:10029000060B0B0B0B0B0B0B0B010210202008089D
:1002A00010204010204080020102010804020101D8
:1002B00002040810204080804020100804020180C1
:1002C0000402018040201008040201080402010118
:1002D0000204081020408001020408102040800021
:1002E000000A0B02090C0D0E0807030401000000B0
:1002F00000000000000000000000000000000000FE
:1003000000000000000000000000001211100000BA
:1003100000000000000000000000000000000000DD
:100320000000000000006A18731211241FBECFEFF6
:10033000D1E2DEBFCDBF00E00CBF12E0A0E0B2E032
:10034000E4EDFFE300E00BBF02C007900D92A2397D
:10035000B107D9F727E0A2E9B2E001C01D92A738A2
:10036000B207E1F711E0C4E9D1E000E006C021974F
:100370000109802FFE010E941E1CC339D10780E0B5
:100380000807A9F70E9479120C94D81F0C9400005A
:10039000CF92DF92EF92FF920F931F93CF93DF9351
:1003A0006C017A018B01C0E0D0E0CE15DF0581F051
:1003B000D8016D918D01D601ED91FC910190F081F4
:1003C000E02DC6011995892B11F02196EECF7E0103
:1003D000C701DF91CF911F910F91FF90EF90DF90B8
:1003E000CF900895FC01538D448D252F30E0842F4C
:1003F00090E0821B930B541710F0CF96089501974D
:100400000895FC01918D828D981761F0828DDF0136
:10041000A80FB11D5D968C91928D9F5F9F73928FF7
:1004200090E008958FEF9FEF0895FC01918D828DEC
:10043000981731F0828DE80FF11D858D90E00895B9
:100440008FEF9FEF0895FC01918D228D892F90E011
:10045000805C9F4F821B91098F73992708958BE0D1
:1004600093E00E94230221E0892B09F420E0822FEF
:10047000089588EA93E00E94230221E0892B09F481
:1004800020E0822F089585E494E00E94230221E079
:10049000892B09F420E0822F0895FC01848DDF016F
:1004A000A80FB11DA35ABF4F2C91848D90E00196E7
:1004B0008F739927848FA689B7892C93A089B189D6
:1004C0008C91837080648C93938D848D981306C077
:1004D0000288F389E02D80818F7D80830895EF92DB
:1004E000FF920F931F93CF93DF93EC0181E0888FEE
:1004F0009B8D8C8D981305C0E889F989808185FDD5
:1005000026C0F62E0B8D10E00F5F1F4F0F731127C3
:10051000E02E8C8DE8120CC00FB607FCFACFE889EC
:10052000F989808185FFF5CFCE010E944D02F1CF80
:100530008B8DFE01E80FF11DE35AFF4FF0829FB74C
:10054000F8940B8FEA89FB89808180620AC09FB78B
:10055000F894EE89FF896083E889F9898081837046
:10056000806480839FBF81E090E0DF91CF911F91F5
:100570000F91FF90EF900895CF93DF93EC01888D5A
:100580008823C9F0EA89FB89808185FD05C0A88997
:10059000B9898C9186FD0FC00FB607FCF5CF80811D
:1005A00085FFF2CFA889B9898C9185FFEDCFCE0167
:1005B0000E944D02E7CFDF91CF910895E0E0F0E097
:1005C000199480E090E0892B21F00E944302811170
:1005D00019C080E090E0892B41F080E090E0892B09
:1005E00021F00E940000811110C00E943902811187
:1005F0000FC080E090E0892B81F00E942F028111D2
:100600000AC008950E940000E4CF0E940000EDCFD0
:100610000E94DE02EECF0C9400000895089580E061
:1006200090E008950E94C31F0F931F93CF93DF9311
:100630008C01C62FD62FD07FD1606D2F0E94060E61
:100640006D2FC8010E942D0F80E1C89FB0011124B9
:10065000C62FC1606C2FC8010E94060E6C2FC80106
:100660000E942D0F81E090E0DF91CF911F910F91BB
:1006700008951F920F920FB60F9211240BB60F928E
:100680002F933F934F935F936F937F938F939F939A
:10069000AF93BF93EF93FF938091AD029091AE0221
:1006A000A091AF02B091B002892B8A2B8B2B49F11C
:1006B0009091AC0280910000892780930000809186
:1006C000AD029091AE02A091AF02B091B0021816A7
:1006D00019061A061B060CF056C08091AD029091C7
:1006E000AE02A091AF02B091B0020197A109B10989
:1006F0008093AD029093AE02A093AF02B093B0028C
:1007000042C080910002E4E0F2E0E4919FEF909318
:100710000002E230C9F050F4EE2399F0E13081F5A7
:1007200090916F009D7F90936F002AC0E43019F183
:10073000E0F0E53029F5909173009D7F9093730070
:100740001FC010926E001CC0909170009D7F90930E
:10075000700091E09093B0009091B100987F946008
:100760009093B1001092B3000BC0909171009D7FE7
:100770009093710005C0909172009D7F90937200DC
:1007800060E00E941C11FF91EF91BF91AF919F918A
:100790008F917F916F915F914F913F912F910F902A
:1007A0000BBE0F900FBE0F901F9018951F920F92C7
:1007B0000FB60F9211240BB60F922F933F934F93C6
:1007C0005F936F937F938F939F93AF93BF93EF93B9
:1007D000FF938BE093E00E944D02FF91EF91BF9158
:1007E000AF919F918F917F916F915F914F913F91C9
:1007F0002F910F900BBE0F900FBE0F901F9018956A
:100800001F920F920FB60F9211240BB60F922F93D7
:100810003F934F935F936F937F938F939F93AF9388
:10082000BF93EF93FF938BE093E00E94420FFF9101
:10083000EF91BF91AF919F918F917F916F915F9158
:100840004F913F912F910F900BBE0F900FBE0F90C5
:100850001F9018951F920F920FB60F9211240BB68E
:100860000F922F933F934F935F936F937F938F9349
:100870009F93AF93BF93EF93FF9388EA93E00E9417
:100880004D02FF91EF91BF91AF919F918F917F9119
:100890006F915F914F913F912F910F900BBE0F90F1
:1008A0000FBE0F901F9018951F920F920FB60F92C8
:1008B00011240BB60F922F933F934F935F936F9337
:1008C0007F938F939F93AF93BF93EF93FF9388EAA8
:1008D00093E00E94420FFF91EF91BF91AF919F91E2
:1008E0008F917F916F915F914F913F912F910F90D9
:1008F0000BBE0F900FBE0F901F9018951F920F9276
:100900000FB60F9211240BB60F922F933F934F9374
:100910005F936F937F938F939F93AF93BF93EF9367
:10092000FF9385E494E00E944D02FF91EF91BF9107
:10093000AF919F918F917F916F915F914F913F9177
:100940002F910F900BBE0F900FBE0F901F90189518
:100950001F920F920FB60F9211240BB60F922F9386
:100960003F934F935F936F937F938F939F93AF9337
:10097000BF93EF93FF9385E494E00E94420FFF91B1
:10098000EF91BF91AF919F918F917F916F915F9107
:100990004F913F912F910F900BBE0F900FBE0F9074
:1009A0001F9018951F920F920FB60F9211240BB63D
:1009B0000F922F933F934F935F936F937F938F93F8
:1009C0009F93AF93BF93EF93FF938091E3040E94B3
:1009D000F3102091E7043091E8042F5F3F4F3093EC
:1009E000E8042093E7049091E604953618F096E029
:1009F0009093E2049091E2049430C9F128F492308B
:100A000069F09330D1F05EC0953009F451C0963052
:100A100009F058C091E09093B30551C0811152C0C4
:100A20002091E7043091E8042436310508F442C0EF
:100A30001092B3051092E6041CC0813009F042C048
:100A4000E091E60491E09E0F9093E604F0E020919F
:100A5000E7043091E804EE0FFF1FEE51FB4F3087A3
:100A600027831092E8041092E70494E029C08111D2
:100A700017C0E091E60491E09E0F9093E604F0E049
:100A80002091E7043091E804EE0FFF1FEE51FB4F79
:100A9000308727831092E8041092E70493E010C097
:100AA0002091E7043091E8042536310558F007C05D
:100AB000811108C01092E8041092E70403C095E089
:100AC0009093E2049091E5049923B9F081110AC052
:100AD0008091E404882321F08091E40461E009C05E
:100AE0002F9A0BC08091E404882331F08091E404B4
:100AF00060E00E941C1101C02F98FF91EF91BF91FF
:100B0000AF919F918F917F916F915F914F913F91A5
:100B10002F910F900BBE0F900FBE0F901F90189546
:100B20008F929F92AF92BF92CF92DF92EF92FF92FD
:100B30000F931F93CF93DF938C016A017B0120E019
:100B400030E04FE753E4C701B6010E94F91A4B01A8
:100B50005C0120E030E0A9010E94B81D18161CF4C9
:100B6000C501B40103C0C501B40190580E942E1DF7
:100B7000EB0120E030E0A901C701B6010E94B81DD9
:100B8000181614F460E001C061E0F80181810E9450
:100B90001C11CF3FD10509F014F4DD2702C0CFEFBF
:100BA000D0E0F801108161E0812F0E946911209747
:100BB00009F4B1C0CF3FD10509F4AFC0E12FF0E097
:100BC000E152FD4FE4918E2F90E0FC013197E2312C
:100BD000F10508F09DC08827EE58FF4F8F4F0C9409
:100BE0001E1C84B5806884BDC7BDA7C084B5806263
:100BF00084BDC8BDA2C080918000806880938000C1
:100C0000D0938900C093880098C080918000806252
:100C100080938000D0938B00C0938A008EC0809117
:100C20008000886080938000D0938D00C0938C00FA
:100C300084C08091B00080688093B000C093B300FE
:100C40007CC08091B00080628093B000C093B400FB
:100C500074C080919000806880939000D093990038
:100C6000C09398006AC08091900080628093900049
:100C7000D0939B00C0939A0060C0809190008860E0
:100C800080939000D0939D00C0939C0056C08091AB
:100C9000A00080688093A0008091A0008F7B80934B
:100CA000A000D093A900C093A80047C08091A000E5
:100CB00080628093A000D093AB00C093AA003DC097
:100CC0008091A00088608093A000D093AD00C09375
:100CD000AC0033C080912001806880932001D093C4
:100CE0002901C093280129C080912001806280934E
:100CF0002001D0932B01C0932A011FC080912001B5
:100D0000886080932001D0932D01C0932C0115C0E1
:100D1000C038D10514F460E001C061E0812FDF919B
:100D2000CF911F910F91FF90EF90DF90CF90BF90E8
:100D3000AF909F908F900C941C11DF91CF911F91D9
:100D40000F91FF90EF90DF90CF90BF90AF909F906A
:100D50008F9008958EBD00000DB407FEFDCF8EB5B7
:100D60000895CF93DF93EC0160E088810E941C110D
:100D700088E90E94AA0680E00E94AA0680E00E94FC
:100D8000AA0680E00E94AA0680E00E94AA0661E00E
:100D900088810E941C118BE891E00197F1F760E0D7
:100DA00088810E941C1180EE0E94AA0661E0888161
:100DB000DF91CF910C941C11AF92BF92CF92DF9232
:100DC000EF92FF920F931F93CF93DF93CDB7DEB7D0
:100DD00060970FB6F894DEBF0FBECDBF5C0160E038
:100DE000FC0180810E941C1180E60E94AA068E01EF
:100DF0000F5F1F4F7E01F1E1EF0EF11C680180E0F3
:100E00000E94AA0690E0A0E0B0E0F60181939193E1
:100E1000A193B1936F01EE15FF0589F761E0F5012C
:100E200080810E941C1180E090E0DC01F80141917A
:100E30005191619171918F01BA2FA92F982F882715
:100E4000840F951FA61FB71FEE15FF0579F79C01AC
:100E5000AD0166277727CB01621B730B840B950BC3
:100E600060960FB6F894DEBF0FBECDBFDF91CF9175
:100E70001F910F91FF90EF90DF90CF90BF90AF90B8
:100E800008951F920F920FB60F9211240BB60F9276
:100E90002F933F934F935F936F937F938F939F9382
:100EA000AF93BF93EF93FF938091AB0287FF05C091
:100EB000109285001092840016C02091AB02022E81
:100EC000000C330B8091F00590E0281739075CF493
:100ED0003091AB0225E03203F0011124EC54FA4FBB
:100EE000808186FD15C08091AB028F5F8093AB023D
:100EF0002091AB02022E000C330B8091F00590E0A4
:100F00002817390794F48091AB028C302CF10DC076
:100F10003091AB023203F0011124EC54FA4F80817E
:100F200060E08F730E941C11DECF8091840090914D
:100F3000850084349C4918F480E49CE905C08091C4
:100F40008400909185000496909389008093880096
:100F50008FEF8093AB022AC04091840050918500AE
:100F60003091AB0225E03203F0011124EC54FA4F2A
:100F700081819281840F951F9093890080938800CE
:100F80003091AB023203F0011124EC54FA4F80810E
:100F900086FF0CC03091AB023203F0011124EC54F7
:100FA000FA4F808161E08F730E941C11FF91EF91D5
:100FB000BF91AF919F918F917F916F915F914F9171
:100FC0003F912F910F900BBE0F900FBE0F901F906F
:100FD00018954F925F926F927F928F929F92AF92ED
:100FE000BF92CF92DF92EF92FF920F931F93CF9316
:100FF000DF9300D000D0CDB7DEB720E83CE0DC01C5
:101000000E94261C0E949A1A20E030E044EC51E431
:101010000E94BC1C0E942E1D6B017C0185E196E0A4
:101020000E94B10687E196E00E94DC0687E196E027
:101030000E94B1064AE959E969E97EEB83E196E04D
:101040000E9490054AE959E969E97EE381E196E069
:101050000E94900500E010E01E821D828AE9882E21
:1010600089E9982EA92C8EE3B82E2601370121EEAE
:10107000421A5108610871082D813E81C901330F60
:10108000AA0BBB0B84159505A605B7055CF0C80136
:10109000012E000CAA0BBB0B84159505A605B70500
:1010A0000CF062C087E196E00E94DC0669837A83D7
:1010B0008B839C8385E196E00E94DC06CC24DD24B2
:1010C0007601C61AD70AE80AF90A87E196E00E9473
:1010D000B10685E196E00E94B1068D819E818C0D5E
:1010E0009D1D9E838D8329813A81020F131FB601B6
:1010F000621B730B072E000C880B990B0E949A1A27
:1011000027E137EB41ED58E30E94F91A6B017C01AE
:101110006D817E81601B710B072E000C880B990B73
:101120000E949A1A2CEA35EC47EA57E30E94F91A12
:101130009B01AC01C701B6010E94501C9B01AC0190
:10114000C501B4010E94501C4B015C01AB01BC0104
:10115000705883E196E00E94900562E370E080E0C1
:1011600090E00E94CA1188CF40E050E0BA0181E1CE
:1011700096E00E94900540E050E060E070E883E176
:1011800096E00E94900564E670E080E090E026968C
:101190000FB6F894DEBF0FBECDBFDF91CF911F9188
:1011A0000F91FF90EF90DF90CF90BF90AF909F9006
:1011B0008F907F906F905F904F900C94CA112F92F8
:1011C0003F924F925F926F927F928F929F92AF92D7
:1011D000BF92CF92DF92EF92FF920F931F93CF9324
:1011E000DF93CDB7DEB760970FB6F894DEBF0FBEC2
:1011F000CDBF9E838D8385E12D813E81829FB0018D
:10120000839F700D1124072E000C880B990B0E94F0
:101210009A1A69837A838B839C8320E030E0A9014A
:101220000E94931A87FF09C089819A81AB81BC8192
:10123000B05889839A83AB83BC8385E196E00E9492
:10124000B10687E196E00E94B106AD81BE811A1613
:101250001B060CF0F6C04DEC5CEC6CEC7DE381E120
:1012600096E00E9490054DEC5CEC6CEC7DE383E134
:1012700096E00E9490051A86198618861F82188AA1
:101280001F8600E010E08DEC882E8CEC982EA92CA7
:101290008DEBB82E20E030E040E450E469817A81A3
:1012A0008B819C810E944F1C6B017C01B801012E37
:1012B000000C880B990B0E949A1AA70196010E94B4
:1012C000931A87FD11C04F855889BA01550F880BB5
:1012D000990B0E949A1A9B01AC01C701B6010E94AA
:1012E000B81D18160CF059C187E196E00E94DC0683
:1012F0006B877C878D879E878B859C859195819553
:1013000091099E838D8385E196E00E94DC0644244A
:1013100055243201461A570A680A790A1201C20195
:10132000AF81B8858A1B9B0B080F191F8D819E8189
:1013300029853A85821B930B4F855889480F591F81
:10134000588B4F8755E6451651040CF444C087E18D
:1013500096E00E94B10685E196E00E94B1066B8599
:101360007C85640D751D072E000C880B990B0E945F
:101370009A1A27E137EB41ED58E30E94F91A2B0145
:101380003C01B8018F859889681B790B072E000CEA
:10139000880B990B0E949A1A2CEA35EC47EA57E31E
:1013A0000E94F91A9B01AC01C301B2010E94501CBA
:1013B0009B01AC01C501B4010E944F1C4B015C01B3
:1013C000AB01BC01705883E196E00E9490051E823B
:1013D0001D82212C312CB801012E000C880B990B99
:1013E0000E949A1A9B01AC01C701B6010E94931A90
:1013F00087FF07C040E050E0BA0181E196E00E941B
:101400009005AF85B889BD01BB0F880B990B0E9471
:101410009A1A9B01AC01C701B6010E94931A87FD7D
:1014200007C02D813E813A87298738862F8232CFA7
:1014300040E050E060E070E883E196E00E949005B3
:10144000F0CF2D813E81232B09F4A7C04DEC5CEC3D
:101450006CEC7DEB81E196E00E9490054DEC5CEC3C
:101460006CEC7DEB83E196E00E949005C12CD12CC1
:10147000A12CB12CE12CF12C00E010E020E030E0B8
:1014800040E450E469817A818B819C810E944F1CE9
:101490002B013C01B801012E000C880B990B0E9416
:1014A0009A1AA30192010E94931A87FD10C0B701F6
:1014B0000F2C000C880B990B0E949A1A9B01AC010F
:1014C000C301B2010E94B81D18160CF066C085E178
:1014D00096E00E94DC069B01AC0188279927DC017D
:1014E000821B930BA40BB50B44275527481B590BA4
:1014F0005E834D8387E196E00E94DC064B012D81DF
:101500003E812A193B09020F131FAB014C195D09DB
:10151000E40EF51E8D819E818536910564F087E18C
:1015200096E00E94B10685E196E00E94B106812C0A
:10153000912C1E821D82B801012E000C880B990B84
:101540000E949A1A9B01AC01C301B2010E94931A36
:1015500087FF07C040E050E0BA0181E196E00E94B9
:101560009005B7010F2C000C880B990B0E949A1A5A
:101570009B01AC01C301B2010E94931A87FD04C014
:101580006401AD80BE807ACF40E050E060E070E85A
:1015900083E196E00E949005F3CF40E050E0BA016D
:1015A00081E196E00E94900540E050E060E070E844
:1015B00083E196E060960FB6F894DEBF0FBECDBF14
:1015C000DF91CF911F910F91FF90EF90DF90CF901F
:1015D000BF90AF909F908F907F906F905F904F9053
:1015E0003F902F900C9490058F929F92AF92BF9254
:1015F000CF92DF92EF92FF920F931F93CF93DF93DF
:10160000CDB7DEB72C970FB6F894DEBF0FBECDBFB7
:10161000CE0101964C018CE0F40111928A95E9F714
:1016200083E0A82EB12C0E94880C80E40E945C0C00
:101630008C0182E40E945C0C6C0184E40E945C0CCE
:101640007C0186E40E945C0CC016D1067CF4E01696
:10165000F106BCF4C801855F9140833F914088F456
:1016600089819A8101969A8389830BC00C151D0587
:1016700044F4EC14FD042CF48B819C8101969C8332
:101680008B830E151F0544F4CE14DF042CF48D81DA
:101690009E8101969E838D83053823E0120784F096
:1016A00085E8C81683E0D8067CF090E2E91693E05E
:1016B000F9067CF48F819885019698878F8309C0FD
:1016C000053FE1E01E0784F0F5EFCF16F1E0DF06FD
:1016D000ECF0F5EFEF16F1E0FF06C4F089859A858E
:1016E00001969A87898712C0043F114079F084EFF0
:1016F000C81681E0D80654F494EFE91691E0F90693
:101700002CF48B859C8501969C878B876AE070E022
:1017100080E090E00E94CA11E1E0AE1AB10809F041
:1017200082CFF401AE01435F5F4F80E090E02191F2
:101730003191821793070CF4C9014E175F07B9F76F
:1017400029813A8128173907E1F02B813C8128173C
:101750003907B9F02D813E812817390791F02F8183
:1017600038852817390769F029853A8528173907F8
:1017700059F02B853C852817390749F08FEF9FEFEB
:1017800008C081E090E005C080E090E002C082E007
:1017900090E02C960FB6F894DEBF0FBECDBFDF9160
:1017A000CF911F910F91FF90EF90DF90CF90BF905E
:1017B000AF909F908F90089591E09093FE0294E7F0
:1017C0009093FD021092FC021092FB02682F8FEFA3
:1017D00092E00E94A80E8FEF92E00E9497108091F5
:1017E000D8028111FCCF81E08093D8028093D70288
:1017F0009FEF9093D6021092D5021092D40280935C
:10180000D3028091D302886E8093D3028091D2025A
:10181000813061F41092D2028091D3028093BB0098
:101820008091BC0083FDF8CF85EC01C085EE8093EC
:10183000BC008091D8028130E1F38091D502811102
:1018400003C09091D50201C091E0E2EBF2E0ABED74
:10185000B2E080E0891721F021912D938F5FFACFBC
:101860001092DA028093D902811101C0FFCF8FEF6D
:1018700092E00E945F0E0895009769F0FC010190CC
:101880000020E9F73197AF01481B590BBC0185E4F3
:1018900094E00C94C80180E090E00895CF93DF932A
:1018A0000E943C0CEC018BE492E00E943C0C8C0FFB
:1018B0009D1FDF91CF910895CF93DF93C82F0E9492
:1018C000DC0BD82F81E08C0F0E94DC0B90E0982F6E
:1018D00088278D0F911DDF91CF910895CF93C82F49
:1018E00081E08093FE0284E78093FD021092FC0267
:1018F0001092FB028FEF92E00E94A80E6C2F8FEFE8
:1019000092E00E94A80E8FEF92E0CF910C94971076
:1019100060E081E00E946E0C80E00E94DC0B81118F
:10192000FBCF0895E5E4F4E0A089B18982E08C93CF
:10193000A485B5851C92A685B7858FEC8C93108EF7
:10194000A489B58986E08C93A289B3898C91806142
:101950008C93A289B3898C9188608C93A289B38976
:101960008C9180688C930288F389E02D80818F7D33
:10197000808308950F931F93CF93611590E17907AA
:1019800074F48B01C82F682F802F0E946E0C61E0C9
:101990006C0F812FCF911F910F910C946E0CCF91F2
:1019A0001F910F9108951F93CF93DF93EC01162F92
:1019B00088818C3008F04DC061E0812F0E94691150
:1019C000E88195E09E9FF0011124EC54FA4F1F73BB
:1019D0008081807C182B10831382E8819E9FF00108
:1019E0001124EC54FA4F148288816CE00E94121C7E
:1019F0009CE0899FA001112420E030E095E0BA012D
:101A0000620F731F969FF001979FF00D1124EC5405
:101A1000FA4F608166FD13C02F5F3F4F2C303105B8
:101A200071F781110CC01092800082E080938100D8
:101A3000109285001092840086BB80936F00E8812D
:101A400085E0E89FF0011124EC54FA4F8081806416
:101A500080838881DF91CF911F910895CF92DF928B
:101A6000EF92FF92CF93DF9390912306891720F096
:101A700090912406981750F485E792E0DF91CF917A
:101A8000FF90EF90DF90CF900C944E0CC091290600
:101A9000CC3008F07BC0282F30E0D0E0283C310566
:101AA000E4F595E09C9FF0019D9FF00D1124EC540E
:101AB000FA4F938128E830E06901C91AD10897FDEF
:101AC000D394CC0CDD1CCC0CDD1C0D2C000CEE08D2
:101AD000FF08948128E532E0291B310997FD3395F1
:101AE000220F331F220F331FA901330F660B770B11
:101AF0009A01AB012C193D094E095F09A82FB0E0EE
:101B00000E94D61B24EB30E040E050E00E94B71B5F
:101B1000C20ED31EE41EF51E27C085E08C9FF00187
:101B20008D9FF00D1124EC54FA4F838148E850E06A
:101B30006A01C81AD10887FDD394CC0CDD1CCC0CEB
:101B4000DD1C2C153D0584F0448188E592E0841B62
:101B5000910947FD9395880F991F880F991F690177
:101B60008C159D050CF46C018FB7F89495E09C9F43
:101B7000F0019D9FF00D1124EC54FA4F96E0C91A24
:101B8000D108CC0CDD1CD282C1828FBFDF91CF91F6
:101B9000FF90EF90DF90CF9008950F931F93CF9316
:101BA000DF93162F072FC8EFD5E09C8521E0209307
:101BB000FE029093FD021092FC021092FB02AA8595
:101BC000BB85ED91FC9111970190F081E02D682F7C
:101BD000CD0119958A859B85DC01ED91FC910190E1
:101BE000F081E02D602F19958A859B85DC01ED91B0
:101BF000FC910190F081E02D612F19958A859B85DC
:101C0000DF91CF911F910F910C949710FC012481CB
:101C100031E03093FE022093FD021092FC021092FC
:101C2000FB028485682B8FEF92E00E94A80E8FEF55
:101C300092E00C94971085ED8093BC008091BC00DD
:101C400084FDFCCF1092D802089540915507262FAD
:101C500030E0240F311D21323105DCF42091D8020F
:101C60002430C9F4FC0180E090E0861758F43091EC
:101C700055072191DC01AB5CB84FA30FB11D2C932C
:101C80000196F3CF80915507680F6093550780E068
:101C9000089581E0089582E00895089508950895D3
:101CA000E091DA028091D902E81730F4F0E0E552D1
:101CB000FD4F808190E008958FEF9FEF0895909100
:101CC000DA028091D902981750F4E92FF0E0E5523A
:101CD000FD4F208130E09F5F9093DA0202C02FEF2A
:101CE0003FEFC90108958091D90290E02091DA0276
:101CF000821B91090895CF92DF92EF92FF920F938A
:101D00001F93CF93DF937C01CB018A012091FE02C8
:101D1000222389F0EB016B01C40ED51ECC15DD0525
:101D200069F06991D701ED91FC910190F081E02D6E
:101D3000C7011995F3CF642F0E94250EC801DF91CA
:101D4000CF911F910F91FF90EF90DF90CF9008956A
:101D5000CF93DF931F92CDB7DEB769832091FE0248
:101D60002223D1F02091FB02203240F021E030E02C
:101D7000FC013383228380E090E015C08091FC0257
:101D8000E82FF0E0EB5EF84F998190838F5F8093AE
:101D9000FC028093FB0205C061E0CE0101960E9427
:101DA000250E81E090E00F90DF91CF91089590E0B3
:101DB000FC013197E231F10508F04EC08827EC575D
:101DC000FF4F8F4F0C941E1C809180008F7703C0B3
:101DD000809180008F7D80938000089580918000A5
:101DE000877FF9CF84B58F7702C084B58F7D84BD9E
:101DF00008958091B0008F7703C08091B0008F7DEF
:101E00008093B0000895809190008F7707C08091F3
:101E100090008F7D03C080919000877F8093900019
:101E200008958091A0008F7707C08091A0008F7DDA
:101E300003C08091A000877F8093A00008958091C7
:101E400020018F7707C0809120018F7D03C0809192
:101E50002001877F8093200108950F931F93CF93D4
:101E60008C01C62F64600E94060E6C2F6B7FC80128
:101E70000E94060E83EC90E00197F1F7CF911F913D
:101E80000F910895FC01A089B1898C91A689B78929
:101E900082FD0FC09C91818D8F5F8F73228D821781
:101EA00049F0218DDF01A20FB11D5D969C93818FBA
:101EB00008958C9108951F920F920FB60F921124DE
:101EC0000F900FBE0F901F9018951F920F920FB694
:101ED0000F9211240BB60F922F933F934F935F9362
:101EE0006F937F938F939F93AF93BF93EF93FF93E2
:101EF0008091B900887F803609F49CC068F58832EB
:101F000009F45BC090F4803109F454C038F488239C
:101F100009F4F6C0883009F44DC0F6C0883109F4E0
:101F20004CC0803209F45DC0EFC0803409F468C051
:101F300048F4803309F455C0883309F0E5C0809334
:101F4000D602D8C0803509F44FC0883509F45DC089
:101F5000883409F0D9C0D6C0883909F4C7C0A8F4BC
:101F6000883709F467C038F4883609F463C08037CD
:101F700009F460C0C9C0883809F4B8C0803909F4D0
:101F80005FC0803809F0C0C05BC0803B09F486C0E8
:101F900038F4803A09F466C0883A09F47FC0B4C0C6
:101FA000803C09F4A7C0883C09F4A4C0883B09F42C
:101FB0008AC0AAC08091D30210C09091D5028091AE
:101FC000D402981770F5E091D50281E08E0F8093CE
:101FD000D502F0E0EE54FD4F80818093BB0085EC8C
:101FE00086C08093D6028EC0E091D50281E08E0F2C
:101FF0008093D5028091BB00F0E0EE54FD4F8083CA
:102000009091D5028091D4026EC0E091D50281E01A
:102010008E0F8093D5028091BB00F0E0EE54FD4F0F
:1020200080838091D70281116DC081E08093D202BC
:1020300084EA61C083E08093D80210927707CFCF03
:1020400080917707803208F051C0E091770781E0F6
:102050008E0F809377078091BB00F0E0E95AF84F2C
:102060008083BDCF85EC8093BC001092D802809114
:102070007707803230F4E0917707F0E0E95AF84FC3
:1020800010826091770770E0E0911307F0911407D8
:1020900087E597E019951092770736C084E0809322
:1020A000D8021092560710925507E0911107F0914F
:1020B0001207199580915507811105C081E0809321
:1020C000550710923507E091560781E08E0F8093F7
:1020D0005607F0E0EB5CF84F80818093BB00909155
:1020E000560780915507981708F479CF85E88093B3
:1020F000BC000AC085EC8093BC001092D80204C0DA
:102100001092D6020E941B0EFF91EF91BF91AF91EA
:102110009F918F917F916F915F914F913F912F91FF
:102120000F900BBE0F900FBE0F901F90189530911F
:10213000FB02313208F04BC08091D8028111FCCFF4
:102140009091FD0222E02093D80221E02093D70253
:102150002FEF2093D6021092D5023093D402E5E1FE
:10216000F7E0A2EBB2E020E0321721F041914D936D
:102170002F5FFACF1092D3022091D302990F922BA6
:102180009093D3029091D202913061F41092D202D6
:102190009091D3029093BB009091BC0093FDF8CF37
:1021A00095EC01C095EE9093BC009091D8029230CE
:1021B000E1F39091D6029F3F79F08091D602803270
:1021C00041F08091D602803331F084E005C081E097
:1021D00003C082E001C083E01092FC021092FB0277
:1021E0001092FE020895CF93DF93282F30E0F9017B
:1021F000E152FD4F8491F901E756FD4FD491F90169
:10220000ED5AFD4FC491CC2391F081110E94D70E5D
:10221000EC2FF0E0EE0FFF1FE75CFD4FA591B491AE
:10222000EC91ED2381E090E021F480E002C080E0B9
:1022300090E0DF91CF9108951F93CF93DF93282FE4
:1022400030E0F901E152FD4F8491F901E756FD4F6D
:10225000D491F901ED5AFD4FC491CC23C1F0162F52
:1022600081110E94D70EEC2FF0E0EE0FFF1FE15E10
:10227000FD4FA591B4919FB7F894111104C08C91B2
:10228000D095D82302C0EC91DE2BDC939FBFDF9169
:10229000CF911F9108951092D80281E08093D702C8
:1022A0001092D20261E084E10E941C1161E085E19C
:1022B0000E941C11E9EBF0E080818E7F8083808199
:1022C0008D7F808388E48093B80085E48093BC0090
:1022D0000895CF93DF9390E0FC01E756FD4F2491E2
:1022E000FC01ED5AFD4F8491882361F190E0880F45
:1022F000991FFC01EB5FFD4FC591D491FC01E15E9C
:10230000FD4FA591B491611109C09FB7F8948881E0
:10231000209582238883EC912E230BC0623061F4D8
:102320009FB7F8948881322F309583238883EC916E
:102330002E2B2C939FBF06C08FB7F894E8812E2BCD
:1023400028838FBFDF91CF910895863308F086539D
:1023500090917B00282F2870977F922B90937B0081
:102360002091010290E4299F900111248770822B13
:1023700080937C0080917A00806480937A008091C1
:102380007A0086FDFCCF809178002091790090E062
:10239000922B08958F929F92AF92BF92CF92DF922D
:1023A000EF92FF926B017C010E9404124B015C01D1
:1023B000C114D104E104F104F1F00E940412DC0123
:1023C000CB0188199909AA09BB09883E9340A10548
:1023D000B10570F321E0C21AD108E108F10888EED6
:1023E000880E83E0981EA11CB11CC114D104E10425
:1023F000F10419F7DDCFFF90EF90DF90CF90BF9001
:10240000AF909F908F9008953FB7F89480917F0789
:1024100090918007A0918107B091820726B5A89B73
:1024200005C02F3F19F00196A11DB11D3FBFBA2F66
:10243000A92F982F8827820F911DA11DB11DBC01C6
:10244000CD0142E0660F771F881F991F4A95D1F78B
:1024500008951F920F920FB60F9211242F933F935E
:102460008F939F93AF93BF9380917B0790917C074D
:10247000A0917D07B0917E0730917A0723E0230F6A
:102480002D3720F40196A11DB11D05C026E8230FAC
:102490000296A11DB11D20937A0780937B0790932C
:1024A0007C07A0937D07B0937E0780917F07909172
:1024B0008007A0918107B09182070196A11DB11DEF
:1024C00080937F0790938007A0938107B093820742
:1024D000BF91AF919F918F913F912F910F900FBE20
:1024E0000F901F9018958091F1059091F2050C9432
:1024F000551ECF93DF93CDB7DEB7E0970FB6F894B4
:10250000DEBF0FBECDBF789484B5826084BD84B534
:10251000816084BD85B5826085BD85B5816085BDDE
:1025200080916E00816080936E0010928100809196
:10253000810082608093810080918100816080931E
:102540008100809180008160809380008091B10043
:1025500084608093B1008091B00081608093B0006E
:1025600080919100826080939100809191008160C0
:102570008093910080919000816080939000809181
:10258000A10082608093A1008091A100816080936E
:10259000A1008091A00081608093A0008091210122
:1025A00082608093210180912101816080932101CB
:1025B0008091200181608093200180917A00846065
:1025C00080937A0080917A00826080937A00809173
:1025D0007A00816080937A0080917A00806880938D
:1025E0007A001092C1000E94920C61E08091F9057E
:1025F0000E94691160E08091F9050E941C1160E061
:102600008091F8050E9469118FEF92E09093030684
:10261000809302061092DA021092D9021092FC0204
:102620001092FB020E944B118DE49EE090931207E2
:10263000809311078EE49EE0909314078093130714
:1026400080E090E1A0E0B0E080930506909306065C
:10265000A0930706B09308068AE090E0A0E0B0E0FF
:102660008093090690930A06A0930B06B0930C067C
:1026700080E090E0A0E0B0E480930D0690930E0619
:10268000A0930F06B093100660E070E185E00E9411
:10269000CD0D6FE979E380E00E94CD0D08EF15E0E4
:1026A0007801512C88E8682E82E0782E9EEC892EE5
:1026B00092E0992E2BECC22E27E0D22EF7019481C6
:1026C0008281F801818F928F61E00E94691161E03F
:1026D000F801828D0E946911F70190858681580169
:1026E000FDE1AF0EB11CF801858F968F61E00E946D
:1026F000691160E0F801868D0E94691161E0F801BE
:10270000858D0E941C114FB6F8948091B102811101
:1027100026C0F3018491F4012491E82FF0E0EE0F3C
:10272000FF1FEB5FFD4FA591B4919C91822F8923F0
:1027300021F461E085E30E941C1161E085E30E94C1
:1027400069118CB580618CBD8CB580648CBD61E0F5
:1027500084E30E94691161E083E30E946911809122
:10276000B1028F5F8093B1024FBEC6010197F1F7AE
:1027700060E0F801858D0E941C1188E80E94AA067D
:1027800083E00E94AA0661E0F801858D0E941C1179
:10279000C6010197F1F7C5010E94B1065394FFEFFE
:1027A000EF1AFF0A0E5F1F4F22E0521287CFADE1F2
:1027B000EA2EA6E0FA2E01E216E060E0F701819130
:1027C0007F010E9469110E151F05B9F7F9E1EF2E7F
:1027D000F6E0FF2E6801FFEFCF1ADF0AF8016081F3
:1027E00070E0C80108960E94D30CF60195818381A0
:1027F000F701828B938B60E00E94691161E0F70121
:1028000083890E94691160E0F70183890E941C118D
:10281000F2E0EF0EF11C860126E003321207D1F63A
:10282000F8941092200189E08093210180E293E0E6
:102830009093290180932801109225011092240180
:1028400082E08093730078948093E2041092E6040F
:102850008091E30460E00E9469116AE070E080E02A
:1028600090E00E94CA1100912F06109130068091CD
:1028700020060E94F310892B09F4E2C26091210620
:1028800070E089E296E00E94D30C86E40E942E0D4F
:102890000130110539F48AE590E00E94DF0883E2F7
:1028A00090E00FC00230110519F486EA9FEF1BC0BB
:1028B0000330110559F483ED9FEF0E94DF0882E396
:1028C00090E00E94E9078DE290E00DC00430110510
:1028D00061F48DE290E00E94DF0882E390E00E94C4
:1028E000E90783ED9FEF0E94DF080E94920C0E948F
:1028F000920C80E492E00E943C0C61E080913106F1
:102900000E9469111092DA021092D9021092FC0210
:102910001092FB020E944B118DE49EE090931207EF
:1029200080931107EEE4FEE0F0931407E0931307A1
:1029300061E070E080E090E00E94CA1189E080933D
:1029400033068093340682E08093350685E08093D9
:10295000360620E038E0309338062093370630936F
:102960003A062093390630933C0620933B06309379
:102970003E0620933D0666E089E00E946E0C809141
:10298000340667E08F700E946E0C8091350668E017
:102990008F700E946E0C8091360669E08F700E94E5
:1029A0006E0C6AE0809137060E946E0C80913706AB
:1029B000909138069F716BE0892F0E946E0C6EE03B
:1029C00080913B060E946E0C80913B0690913C06E4
:1029D0009F716FE0892F0E946E0C6CE08091390628
:1029E0000E946E0C8091390690913A069F716DE0BD
:1029F000892F0E946E0C60E180913D060E946E0C52
:102A000080913D0690913E069F7161E1892F0E9461
:102A10006E0C61E0809131060E941C1185E492E009
:102A20000E944E0C62E070E080E090E00E94CA11CB
:102A3000C12CD12CA12CE0E1BE2E85010C191D0961
:102A400017FF02C00F5F1F4F159507950C0D1D1D39
:102A50000C151D0509F4FBC1B8018AE090E00E9445
:102A6000BA0CB8018CE090E00E94BA0CB8018EE07C
:102A700090E00E94BA0C0E94880C80E40E945C0CDA
:102A800097FD05C080E40E945C0C7C0102C0E12C33
:102A9000F12C82E40E945C0C8E159F0524F082E4E8
:102AA0000E945C0C7C0184E40E945C0C8E159F05E6
:102AB00024F084E40E945C0C7C0139EEE31633E0E0
:102AC000F3060CF0C0C148EEE41643E0F40609F04A
:102AD000BCC1BDC18EE492E00E943C0C0E94F40A8D
:102AE0002C01990F6608770877FEC0C26DE285E475
:102AF00094E00E946F0222273327A9012419350987
:102B00004609570919A28E010F5D1F4FCA01B9016D
:102B10002AE030E040E050E00E94E11B605DF801F7
:102B200062938F01211531054105510579F7C801DF
:102B30000E943C0C8BE492E00E943C0C8CE30E94CF
:102B4000A5111C018BE30E94A5112C018AE30E94B0
:102B5000A5113C0189E30E94A5118C0188E30E9424
:102B6000A5114C0187E30E94A511F4E1F29DA0019B
:102B7000F39D500D11246AE0649D9001659D300D18
:102B80001124240F351F620E731E689D9001699DEC
:102B9000300D1124020F131F24E1FC012E9FC001F0
:102BA0002F9F900D1124080F191F1301201A310AAD
:102BB000932C990C99089101492D592D692D792D46
:102BC000892D992D0AA11BA10E94461C2AA33BA373
:102BD000842E5CA76DA77EA78FA798ABB101032CAD
:102BE000000C880B990B0E949A1A2B013C0120E2E1
:102BF0003CEB4EEB5BEC0E94B81D18160CF44EC279
:102C000020E23CEB4EEB5BE4C301B2010E94931A5D
:102C100087FD44C22CA13DA14EA15FA168A579A565
:102C20008AA59BA50E94641D2DEB37E346E855E37A
:102C30000E94F91A6B017C012CEA35EC47E257E35C
:102C4000C301B2010E94F91A9B01AC01C701B60190
:102C50000E94501C6B017C012AA13BA1482D5CA560
:102C60006DA57EA58FA598A90E94641D2CEA35EC60
:102C700047E257E30E94F91A9B01AC01C701B60174
:102C80000E94501C6B017C019101492D592D692D29
:102C9000792D892D992D0E942D1C0E94641D2CEAEE
:102CA00035EC47E257E30E94F91A2B013C012CA1B5
:102CB0003DA14EA15FA168A579A58AA59BA50E940B
:102CC0002D1C0E94641D2DEB37E346E855E30E945E
:102CD000F91A9B01AC01C301B2010E94501C2B01E7
:102CE0003C012AA13BA1482D5CA56DA57EA58FA521
:102CF00098A90E942D1C0E94641D2CEA35EC47E225
:102D000057E30E94F91A9B01AC01C301B2010E9472
:102D1000501C2AE939E949E95EE30E94501CAB01E5
:102D2000BC0181E196E00E9490052AE939E949E970
:102D30005EE3C701B6010E94501CAB01BC01705894
:102D400083E196E00E9490056AE070E080E090E008
:102D50000E94CA115101C92CD92CE92CF92C9AA234
:102D60009BA20E94F40A892B09F07AC18091200667
:102D70000E94F310892B09F4ADCE80E290E00E940E
:102D8000E90787E80E942E0D68EE73E080E090E08E
:102D90000E94CA1183E70E942E0D4DEC5CEC6CEC96
:102DA0007DEB81E196E00E9490054DEC5CEC6CECD3
:102DB0007DEB81E196E00E94900564E670E080E0A2
:102DC00090E00E94CA1140E050E0BA0181E196E033
:102DD0000E94900540E050E0BA0181E196E00E9437
:102DE000900584EB90E00E94DF0884E690E00E946A
:102DF000E90786E40E942E0D4DEC5CEC6CEC7DEB5B
:102E000081E196E00E9490054DEC5CEC6CEC7DEB72
:102E100081E196E00E94900568EE73E080E090E02A
:102E20000E94CA1140E050E0BA0181E196E00E94A0
:102E3000900540E050E0BA0181E196E00E949005E3
:102E40000E94E1020ACD580186016801F6CDE12C0D
:102E5000F12CC12C90E1D92E86010E191F0917FF04
:102E600002C00F5F1F4F159507950E0D1F1D0E1504
:102E70001F05A9F0B80180E190E00E94BA0C0E9401
:102E8000880C86E40E945C0C893E63E096072CF473
:102E9000883E934021F0780186016801DDCF88E803
:102EA000282E83E1382E612C712C412C512CA12C21
:102EB000B12C66E08A2D0E946E0C67E0842D0E9482
:102EC0006E0C68E0862D0E946E0C8AE00E945C0CFD
:102ED0008C01BC018AE090E00E94BA0CB8018CE041
:102EE00090E00E94BA0CB8018EE090E00E94BA0C0B
:102EF00054E0852E912CC12CD12C00E010E0E12C67
:102F0000F12C0E94880C80E40E945C0CE80EF91EF3
:102F100082E40E945C0C080F191F84E40E945C0C80
:102F2000C80ED91EF1E08F1A910859F7F7FE03C0B9
:102F300023E0E20EF11CF594E794F594E79417FF73
:102F400002C00D5F1F4F1595079515950795D7FE84
:102F500003C033E0C30ED11CD594C794D594C79455
:102F60003E2D2F2DE016F10614F4302F212F832F44
:102F7000922F97FF02C080E090E09601C816D90614
:102F80000CF49C015E2D4F2D0E151F0514F4502FCF
:102F9000412F852F942F813040E1940714F080E079
:102FA00090E1A6018C159D050CF4AC01C901841BB0
:102FB000950B2816390619F1E216F30641F46FE075
:102FC000A616B10424F4EFEFAE1ABE0A81C00217B0
:102FD000130741F4FFE04F16510424F42FEF421A77
:102FE000520A76C0C216D30609F072C03FE06316DB
:102FF00071040CF06DC04FEF641A740A69C088E563
:1030000092E00E944E0C86E692E00E944E0C8DE308
:103010000E94A5118CE30E94A5118BE30E94A511CB
:103020008AE30E94A51186E30E94A51187E30E940E
:10303000A51188E30E94A51189E30E94A5111CA295
:103040001DA21EA21FA218A619A61AA61BA6A12C75
:10305000B12CC12CD12CE12CF12C1AA21BA281CEB7
:103060000E94F40A029709F088CE80CEA301920153
:1030700019A28E010F5D1F4FCA01B9012AE030E08D
:1030800040E050E00E94E11B605DF80162938F0117
:10309000211531054105510579F749CD9101492D9A
:1030A000592D692D792D892D992DACA0BDA0CEA0CB
:1030B000DFA0E8A4F9A40AA51BA50E943D1C2CA32F
:1030C0003DA34EA35FA368A779A78AA79BA7A2CD1C
:1030D0001C01EFCECF92DF92EF92FF92109202038B
:1030E0001092010388EE93E0A0E0B0E08093030328
:1030F00090930403A0930503B093060324E132E008
:10310000309300032093FF0210920E0310920D03E0
:1031100080930F0390931003A0931103B0931203B5
:1031200026E232E030930C0320930B0345E351E099
:10313000509318034093170344E351E050931A034C
:103140004093190340E351E050931C0340931B0349
:1031500041E351E050931E0340931D0342E351E0CD
:103160005093200340931F0346E351E05093220302
:1031700040932103109224031092250310922603FA
:10318000109227031092AB031092AA038093AC0312
:103190009093AD03A093AE03B093AF033093A90314
:1031A0002093A80345ED50E05093B5034093B4033A
:1031B00044ED50E05093B7034093B60340ED50E028
:1031C0005093B9034093B80341ED50E05093BB03D3
:1031D0004093BA0342ED50E05093BD034093BC03CB
:1031E00046ED50E05093BF034093BE031092C103DD
:1031F0001092C2031092C3031092C40310924804A9
:10320000109247048093490490934A04A0934B047E
:10321000B0934C04309346042093450485EC90E031
:10322000909352048093510484EC90E09093540462
:103230008093530480EC90E090935604809355045F
:1032400081EC90E0909358048093570482EC90E0D6
:1032500090935A048093590486EC90E090935C0418
:1032600080935B0410925E0410925F0410926004DD
:10327000109261048091080290910902A0910A02C3
:10328000B0910B028093190690931A06A0931B0627
:10329000B0931C0680910C0290910D02A0910E0239
:1032A000B0910F0280931D0690931E06A0931F06F7
:1032B000B093200684E08093210687E08093220665
:1032C0001092230684EB8093240686E180932506E2
:1032D00088E18093260687E18093270689E1809321
:1032E0002806E091F005EC3020F08FEF809329065E
:1032F00010C081E08E0F8093F005E093290685E0F1
:10330000E89FF0011124EC54FA4F88EB9BE0928384
:103310008183E091F005EC3020F08FEF80932A0656
:1033200010C081E08E0F8093F005E0932A0685E0BF
:10333000E89FF0011124EC54FA4F88EB9BE0928354
:1033400081838CE08093F80584E28093F90586E020
:103350008093FA0585E08093FB058FE18093FC055F
:103360008EE18093FD0583E28093FE0582E28093E7
:10337000FF0585E48093000684E48093010680E4E1
:10338000809304061092090610920A0610920B060A
:1033900010920C0610920D0610920E0610920F0657
:1033A00010921006E7E4F6E025E037E08FEF9FEF9C
:1033B000DC01128213821482158216821782108613
:1033C000118683879487A587B6878787908BA18B83
:1033D000B28B12861182108273962E173F0749F71F
:1033E0008DE090E00E94BD1DFC011382128288E3F3
:1033F00092E091838083118687E2848384E18287CF
:1034000084E083871486F0934406E0934306109289
:1034100045061092460685E28093E3041092E50487
:103420001092F2051092F1051092F4051092F30536
:103430001092F6051092F50561E070E080E090E0F2
:103440000E94DE1E009791F09093F2058093F105A3
:103450001092F4051092F3052091F5053091F605D0
:10346000232B09F053C0FC01108250C08091F1055C
:103470009091F205009711F00E94551E1092F205EE
:103480001092F1051092F6051092F5051092F405D0
:103490001092F30581E090E09093300680932F0620
:1034A0008EE390E090930C0780930B0798E3C92E6E
:1034B00094E0D92EE12CF12CC0920D07D0920E078A
:1034C000E0920F07F092100760E00E94691181E01E
:1034D0008093010282E490E09093060780930507B1
:1034E000C0920707D0920807E0920907F0920A07F6
:1034F00060E00E94691182E090E090933206809330
:103500003106FF90EF90DF90CF9008951092F6056E
:103510001092F5056DE472E08091F1059091F2054D
:103520000E94D11FB7CF0E94D51A08F481E00895F8
:10353000E89409C097FB3EF490958095709561954D
:103540007F4F8F4F9F4F9923A9F0F92F96E9BB2703
:103550009395F695879577956795B795F111F8CF7F
:10356000FAF4BB0F11F460FF1BC06F5F7F4F8F4FEA
:103570009F4F16C0882311F096E911C0772321F0E0
:103580009EE8872F762F05C0662371F096E8862F78
:1035900070E060E02AF09A95660F771F881FDAF7CF
:1035A000880F9695879597F90895990F0008550FFC
:1035B000AA0BE0E8FEEF16161706E807F907C0F0B9
:1035C00012161306E407F50798F0621B730B840BC1
:1035D000950B39F40A2661F0232B242B252B21F49B
:1035E00008950A2609F4A140A6958FEF811D811D3B
:1035F00008950E940C1B0C947D1B0E946F1B38F0D9
:103600000E94761B20F0952311F00C94661B0C94FD
:103610006C1B11240C94B11B0E948E1B70F3959FA0
:10362000C1F3950F50E0551F629FF001729FBB27B9
:10363000F00DB11D639FAA27F00DB11DAA1F649F55
:103640006627B00DA11D661F829F2227B00DA11D08
:10365000621F739FB00DA11D621F839FA00D611D8E
:10366000221F749F3327A00D611D231F849F600DAF
:10367000211D822F762F6A2F11249F5750409AF0D8
:10368000F1F088234AF0EE0FFF1FBB1F661F771F64
:10369000881F91505040A9F79E3F510580F00C942F
:1036A000661B0C94B11B5F3FE4F3983ED4F3869500
:1036B00077956795B795F795E7959F5FC1F7FE2BCF
:1036C000880F911D9695879597F9089597F99F67AB
:1036D00080E870E060E008959FEF80EC089500249A
:1036E0000A941616170618060906089500240A9467
:1036F00012161306140605060895092E0394000CED
:1037000011F4882352F0BB0F40F4BF2B11F460FF7B
:1037100004C06F5F7F4F8F4F9F4F089557FD9058A4
:10372000440F551F59F05F3F71F04795880F97FB85
:10373000991F61F09F3F79F087950895121613063F
:103740001406551FF2CF4695F1DF08C0161617066E
:103750001806991FF1CF86957105610508940895A3
:10376000E894BB2766277727CB0197F90895052EA4
:1037700097FB1EF400940E94CE1B57FD07D00E94B9
:10378000E11B07FC03D04EF40C94CE1B50954095E2
:10379000309521953F4F4F4F5F4F089590958095FD
:1037A000709561957F4F8F4F9F4F08950E94031C26
:1037B000A59F900DB49F900DA49F800D911D112485
:1037C0000895A1E21A2EAA1BBB1BFD010DC0AA1F62
:1037D000BB1FEE1FFF1FA217B307E407F50720F07A
:1037E000A21BB30BE40BF50B661F771F881F991FF5
:1037F0001A9469F760957095809590959B01AC013E
:10380000BD01CF010895A29FB001B39FC001A39F46
:10381000700D811D1124911DB29F700D811D112409
:10382000911D0895991B79E004C0991F961708F01F
:10383000961B881F7A95C9F780950895EE0FFF1F94
:10384000881F8BBF0790F691E02D19940E94031CEE
:10385000B7FF0895821B930B08956095709580952E
:10386000909530954095509521953F4F4F4F5F4F24
:103870006F4F7F4F8F4F9F4F08952A0D3B1D4C1D5B
:103880005D1D6E1D7F1D801F911F08952A193B0924
:103890004C095D096E097F09800B910B0895505802
:1038A000BB27AA270E94671C0C947D1B0E946F1BDC
:1038B00038F00E94761B20F039F49F3F19F426F46B
:1038C0000C946C1B0EF4E095E7FB0C94661BE92F3F
:1038D0000E948E1B58F3BA17620773078407950777
:1038E00020F079F4A6F50C94B01B0EF4E0950B2EA5
:1038F000BA2FA02D0B01B90190010C01CA01A00142
:103900001124FF27591B99F0593F50F4503E68F19C
:103910001A16F040A22F232F342F4427585FF3CFDD
:10392000469537952795A795F0405395C9F77EF4AE
:103930001F16BA0B620B730B840BBAF09150A1F0F7
:10394000FF0FBB1F661F771F881FC2F70EC0BA0F7D
:10395000621F731F841F48F4879577956795B79505
:10396000F7959E3F08F0B0CF9395880F08F0992700
:10397000EE0F9795879508950E94D01C0C947D1B9F
:103980000E94761B58F00E946F1B40F029F45F3FA5
:1039900029F00C94661B51110C94B11B0C946C1BF8
:1039A0000E948E1B68F39923B1F3552391F3951B65
:1039B000550BBB27AA2762177307840738F09F5F50
:1039C0005F4F220F331F441FAA1FA9F335D00E2EBD
:1039D0003AF0E0E832D091505040E695001CCAF72A
:1039E0002BD0FE2F29D0660F771F881FBB1F2617ED
:1039F00037074807AB07B0E809F0BB0B802DBF01C4
:103A0000FF2793585F4F3AF09E3F510578F00C9492
:103A1000661B0C94B11B5F3FE4F3983ED4F386958C
:103A200077956795B795F7959F5FC9F7880F911DB3
:103A30009695879597F90895E1E0660F771F881F9F
:103A4000BB1F621773078407BA0720F0621B730B52
:103A5000840BBA0BEE1F88F7E09508950E94351D80
:103A60006894B1110C94B11B08950E94961B88F0C4
:103A70009F5798F0B92F9927B751B0F0E1F0660F32
:103A8000771F881F991F1AF0BA95C9F714C0B13073
:103A900091F00E94B01BB1E008950C94B01B672F09
:103AA000782F8827B85F39F0B93FCCF386957795A2
:103AB0006795B395D9F73EF490958095709561958B
:103AC0007F4F8F4F9F4F089597FB16F40E94A81DBC
:103AD0000C946B1DE894F92F96EBFF2381F01216DE
:103AE00013061406440B9395F6958795779567957D
:103AF00057954040FF23B9F71BC0992708958823A5
:103B000051F49850D2F7872B762F652F542F432FDF
:103B1000322F20E0B1F3121613061406440B88234B
:103B20003AF09A95440F551F661F771F881FCAF7F2
:103B300055234AF4440F551F11F460FF04C06F5F12
:103B40007F4F8F4F9F4F880F9695879597F90895D0
:103B500090958095709560955095409530952195FC
:103B60003F4F4F4F5F4F6F4F7F4F8F4F9F4F089586
:103B70000E94D51A08F48FEF08950F931F93CF93E7
:103B8000DF938230910510F482E090E0E0918507A8
:103B9000F091860720E030E0A0E0B0E0309719F126
:103BA000408151810281138148175907C8F0841759
:103BB000950769F4109731F012960C9312971396AB
:103BC0001C9327C0009385071093860722C02115F8
:103BD000310519F04217530718F49A01BD01EF019E
:103BE000DF01F801DBCF21153105F9F0281B390B76
:103BF0002430310580F48A819B816115710521F0A3
:103C0000FB019383828304C090938607809385078A
:103C1000FE01329644C0FE01E20FF31F819391939F
:103C200022503109398328833AC02091830730918B
:103C30008407232B41F42091040230910502309334
:103C400084072093830720910202309103022115FB
:103C5000310541F42DB73EB740910602509107025D
:103C6000241B350BE0918307F0918407E217F307DB
:103C7000A0F42E1B3F0B2817390778F0AC014E5FDC
:103C80005F4F2417350748F04E0F5F1F509384078E
:103C9000409383078193919302C0E0E0F0E0CF016D
:103CA000DF91CF911F910F910895CF93DF930097EC
:103CB00009F481C0FC01329713821282A09185071A
:103CC000B0918607109781F420813181820F931F74
:103CD00020918307309184072817390751F5F09315
:103CE0008407E093830767C0ED0120E030E0CE1742
:103CF000DF0740F44A815B819E0141155105F1F0D7
:103D0000EA01F5CFD383C28340815181840F951F8F
:103D1000C817D90759F488819981840F951F029695
:103D2000918380838A819B819383828321153105CE
:103D300029F4F0938607E09385073DC0E901FB83F2
:103D4000EA8349915991C40FD51FEC17FD0761F41F
:103D500080819181840F951F0296E9019983888360
:103D6000828193819B838A83E0E0F0E012968D91BB
:103D70009C911397009719F0FD01DC01F7CF8D910D
:103D80009C9111979D012E5F3F4F820F931F2091B1
:103D90008307309184072817390769F4309729F48D
:103DA000109286071092850702C013821282B09388
:103DB0008407A0938307DF91CF9108956F927F923C
:103DC0008F929F92AF92BF92CF92DF92EF92FF922B
:103DD0000F931F93CF93DF93009789F4CB01DF916B
:103DE000CF911F910F91FF90EF90DF90CF90BF90F8
:103DF000AF909F908F907F906F900C94BD1DFC01B1
:103E0000E60FF71F9C0122503109E217F30708F46F
:103E1000A9C0EC01D9010D911C9111970617170744
:103E2000B0F00530110508F49BC0C801049786174F
:103E3000970708F495C002501109061B170B019350
:103E400011936D937C93CF010E94551E89C05B0135
:103E5000A01AB10A4C01800E911EA0918507B09165
:103E60008607612C712CE12CF12C109709F446C0C7
:103E70008D919C911197A815B905B1F56C0142E09F
:103E8000C40ED11CCA14DB0478F14C018A189B08BB
:103E9000640142E0C40ED11C1296BC901297139696
:103EA000AC91B5E0CB16D10440F0B282A3839182ED
:103EB0008082D9016D937C9309C00E5F1F4F800FE4
:103EC000911FF90191838083EB2DFA2FE114F10406
:103ED00031F0D7011396FC93EE93129741C0F09303
:103EE0008607E09385073CC06816790608F43C0114
:103EF0007D0112960D90BC91A02DB7CF80918307C4
:103F00009091840788169906E1F466167706C8F43E
:103F10008091020290910302009741F48DB79EB701
:103F20004091060250910702841B950BE817F90790
:103F3000C8F4F0938407E0938307F90171836083E9
:103F40000FC0CB010E94BD1D7C01009759F0A80154
:103F5000BE010E94C81FCE010E94551EC70104C0A9
:103F6000CE0102C080E090E0DF91CF911F910F91D0
:103F7000FF90EF90DF90CF90BF90AF909F908F9089
:103F80007F906F90089581E090E0F8940C94D81F92
:103F9000FB01DC0102C001900D9241505040D8F766
:103FA0000895FB01DC0101900D920020E1F70895D6
:103FB00011E0C4E9D1E000E006C0802FFE010E94BC
:103FC0001E1C2196011DC539D10780E00807A9F7FD
:043FD000F894FFCF93
:103FD400FF01000087072000363738391B1D1A1CE3
:103FE40000000000A80E7B0E0F034F0E730E5F0E31
:103FF400500E000000006F02C801F201BC0223024F
:1040040001021502000000001403C8010F030E038F
:10401400696E6974006C65646F6E000D0A00636FED
:10402400756C6575723A200066696E2063616C690F
:1040340062726174650072656E747265206361708A
:104044007465757200536572766F20616E676C6576
:10405400206973206F7574206F662072616E6765C6
:02406400210039
:00000001FF
