:100000000C94D6010C9407020C9407020C9407027E
:100010000C9407020C9407020C9407020C9407023C
:100020000C9407020C945D0D0C945D0D0C945D0D09
:100030000C9407020C947A030C9407020C940702A8
:100040000C9407020C9416090C9407020C940702F6
:100050000C9407020C9407020C9407020C942311D1
:100060000C9407020C94E9040C94BF040C9407024E
:100070000C9407020C9407020C9407020C940702DC
:100080000C9407020C9407020C9407020C940702CC
:100090000C9407020C9407020C9407020C94670D51
:1000A0000C9407020C9407020C9407020C940702AC
:1000B0000C9407020C9407020C9407020C944C0653
:1000C0000C9407020C9407020C9407020C949504FC
:1000D0000C946B040C9407020C9441040C941704C8
:1000E0000C9407026B07700775077F0789070208E2
:1000F00093079B07A307AD07B707C107D007DA0728
:100100000208E407EE07F807AA0CAD0C9C0CA00C43
:10011000A60CE40CB10CB50CBB0CBF0CC30CC90C89
:10012000CD0CD10CE40CD70CDB0CDF0C0763423692
:10013000B79BD8A71A39685618AEBAAB558C1D3C78
:10014000B7CC5763BD6DEDFD753EF6177231BF003C
:100150000000803F08000000BE922449123EABAA76
:10016000AA2ABECDCCCC4C3E00000080BEABAAAAD1
:10017000AA3E00000000BF000000803F0000000019
:1001800000084178D3BB4387D1133D190E3CC3BD52
:100190004282AD2B3E68EC8276BED98FE1A93E4CFF
:1001A00080EFFFBE01C4FF7F3F00000000000C9401
:1001B000080C0C94170C0C9450030C94330C0C94F6
:1001C0007F070C94BB0C0C94DB0C0C9442020C9437
:1001D000D70C0C94F8070C94C90C0C94070C0C94D5
:1001E000600C0C9455030C94B50C0C94D0070C9433
:1001F000E4070C94E40C0C946B070C94A3070C9488
:10020000B7070C9475070C94CD0C0C9493070C94C1
:1002100009020C9456020C9489070C9470070C94F4
:100220009C0C0C9464020C94DF0C0C944C150C94F4
:10023000C1070C94050C0C94A00C0C94C30C0C94EA
:100240006D110C94B10C0C942B0C0C94BF0C0C94F1
:10025000AD070C944F030C94D10C0C94DA070C945A
:10026000FD020C9433020C94A60C0C94AA0C0C9472
:10027000AD0C0C94B0020C9402080C94060C0C9477
:100280009B070C94EE070200002100240027002A9F
:10029000002D003000330001010000040107010AB5
:1002A0000100002200250028002B002E0031003420
:1002B0000002010000050108010B010000200023DD
:1002C00000260029002C002F00320000010000034E
:1002D00001060109010505050507050808080802CA
:1002E0000202020A0A0808040404040101010101CF
:1002F0000101010303030303030303040707070CBE
:100300000C0C0C0C0C0C0C02020202060606060673
:100310000606060B0B0B0B0B0B0B0B010210202020
:100320000808102040102040800201020108040249
:1003300001010204081020408080402010080402BF
:100340000180040201804020100804020108040218
:10035000010102040810204080010204081020401E
:100360008000000A0B02090C0D0E080703040100AF
:10037000000000000000000000000000000000007D
:10038000000000000000000000000000001211103A
:10039000000000000000000000000000000000005D
:1003A00000000000000000004C156D1111241FBE5C
:1003B000CFEFD1E2DEBFCDBF00E00CBF12E0A0E086
:1003C000B2E0EAEAFBE300E00BBF02C007900D9247
:1003D000A037B107D9F727E0A0E7B2E001C01D922E
:1003E000A336B207E1F711E0C5EDD1E000E006C0A9
:1003F00021970109802FFE010E94FA18C43DD10700
:1004000080E00807A9F70E9473110C94C31D0C9497
:100410000000CF92DF92EF92FF920F931F93CF9342
:10042000DF936C017A018B01C0E0D0E0CE15DF05CF
:1004300081F0D8016D918D01D601ED91FC91019073
:10044000F081E02DC6011995892B11F02196EECF90
:100450007E01C701DF91CF911F910F91FF90EF9027
:10046000DF90CF900895FC01538D448D252F30E00F
:10047000842F90E0821B930B541710F0CF960895B1
:1004800001970895FC01918D828D981761F0828DFE
:10049000DF01A80FB11D5D968C91928D9F5F9F73B8
:1004A000928F90E008958FEF9FEF0895FC01918D5A
:1004B000828D981731F0828DE80FF11D858D90E0C7
:1004C00008958FEF9FEF0895FC01918D228D892F64
:1004D00090E0805C9F4F821B91098F73992708954C
:1004E00082E593E00E94640221E0892B09F420E078
:1004F000822F08958FEE93E00E94640221E0892B01
:1005000009F420E0822F08958CE894E00E946402B0
:1005100021E0892B09F420E0822F0895FC01848DCD
:10052000DF01A80FB11DA35ABF4F2C91848D90E01D
:1005300001968F739927848FA689B7892C93A089F8
:10054000B1898C91837080648C93938D848D981382
:1005500006C00288F389E02D80818F7D8083089515
:10056000EF92FF920F931F93CF93DF93EC0181E003
:10057000888F9B8D8C8D981305C0E889F9898081BF
:1005800085FD26C0F62E0B8D10E00F5F1F4F0F73F9
:100590001127E02E8C8DE8120CC00FB607FCFACFA5
:1005A000E889F989808185FFF5CFCE010E948E020E
:1005B000F1CF8B8DFE01E80FF11DE35AFF4FF08262
:1005C0009FB7F8940B8FEA89FB89808180620AC00B
:1005D0009FB7F894EE89FF896083E889F989808163
:1005E0008370806480839FBF81E090E0DF91CF9132
:1005F0001F910F91FF90EF900895CF93DF93EC013F
:10060000888D8823C9F0EA89FB89808185FD05C032
:10061000A889B9898C9186FD0FC00FB607FCF5CF6C
:10062000808185FFF2CFA889B9898C9185FFEDCFB4
:10063000CE010E948E02E7CFDF91CF910895E0E0D6
:10064000F0E0199480E090E0892B21F00E94840270
:10065000811119C080E090E0892B41F080E090E0AA
:10066000892B21F00E940000811110C00E947A02A3
:1006700081110FC080E090E0892B81F00E94700210
:1006800081110AC008950E940000E4CF0E9400007A
:10069000EDCF0E941F03EECF0C9400000895089543
:1006A00080E090E008950E94AE1D0F931F93CF93BA
:1006B000DF938C01C62FD62FD07FD1606D2F0E9483
:1006C0001C0D6D2FC8010E942F0D80E1C89FB00145
:1006D0001124C62FC1606C2FC8010E941C0D6C2F05
:1006E000C8010E942F0D81E090E0DF91CF911F9112
:1006F0000F9108951F920F920FB60F9211240BB60F
:100700000F922F933F934F935F936F937F938F93AA
:100710009F93AF93BF93EF93FF9380918B02909140
:100720008C02A0918D02B0918E02892B8A2B8B2B8B
:1007300049F190918A0280910000892780930000FE
:1007400080918B0290918C02A0918D02B0918E02CB
:10075000181619061A061B060CF056C080918B025B
:1007600090918C02A0918D02B0918E020197A10907
:10077000B10980938B0290938C02A0938D02B09369
:100780008E0242C080910002E6E8F2E0E4919FEF21
:1007900090930002E230C9F050F4EE2399F0E1307A
:1007A00081F590916F009D7F90936F002AC0E43097
:1007B00019F1E0F0E53029F5909173009D7F909359
:1007C00073001FC010926E001CC0909170009D7F3E
:1007D0009093700091E09093B0009091B100987F59
:1007E00094609093B1001092B3000BC0909171008F
:1007F0009D7F9093710005C0909172009D7F9093B2
:10080000720060E00E94C20EFF91EF91BF91AF9124
:100810009F918F917F916F915F914F913F912F9118
:100820000F900BBE0F900FBE0F901F9018951F9248
:100830000F920FB60F9211240BB60F922F933F9386
:100840004F935F936F937F938F939F93AF93BF93D8
:10085000EF93FF9382E593E00E948E02FF91EF9168
:10086000BF91AF919F918F917F916F915F914F91C8
:100870003F912F910F900BBE0F900FBE0F901F90C6
:1008800018951F920F920FB60F9211240BB60F926C
:100890002F933F934F935F936F937F938F939F9388
:1008A000AF93BF93EF93FF9382E593E00E94440DD3
:1008B000FF91EF91BF91AF919F918F917F916F9138
:1008C0005F914F913F912F910F900BBE0F900FBEF4
:1008D0000F901F9018951F920F920FB60F92112430
:1008E0000BB60F922F933F934F935F936F937F932A
:1008F0008F939F93AF93BF93EF93FF938FEE93E00C
:100900000E948E02FF91EF91BF91AF919F918F91C5
:100910007F916F915F914F913F912F910F900BBEFF
:100920000F900FBE0F901F9018951F920F920FB649
:100930000F9211240BB60F922F933F934F935F9317
:100940006F937F938F939F93AF93BF93EF93FF9397
:100950008FEE93E00E94440DFF91EF91BF91AF9114
:100960009F918F917F916F915F914F913F912F91C7
:100970000F900BBE0F900FBE0F901F9018951F92F7
:100980000F920FB60F9211240BB60F922F933F9335
:100990004F935F936F937F938F939F93AF93BF9387
:1009A000EF93FF938CE894E00E948E02FF91EF9109
:1009B000BF91AF919F918F917F916F915F914F9177
:1009C0003F912F910F900BBE0F900FBE0F901F9075
:1009D00018951F920F920FB60F9211240BB60F921B
:1009E0002F933F934F935F936F937F938F939F9337
:1009F000AF93BF93EF93FF938CE894E00E94440D74
:100A0000FF91EF91BF91AF919F918F917F916F91E6
:100A10005F914F913F912F910F900BBE0F900FBEA2
:100A20000F901F901895CF92DF92EF92FF920F9345
:100A30001F93CF93DF93CDB7DEB7E2970FB6F8944D
:100A4000DEBF0FBECDBF8C01AE014D5C5F4FFE011E
:100A50003196D8019C91963308F0965380917B0093
:100A6000292F2870877F822B80937B0020910102A1
:100A7000B0E42B9F900111249770922B90937C00EF
:100A800080917A00806480937A0080917A0086FD5C
:100A9000FCCF209178008091790030E0382B2193B1
:100AA00031934E175F07A9F688E190E0FE01319679
:100AB00020E030E041E0281739079CF4E190F19004
:100AC000C080D180CE14DF044CF4AF0142505109F4
:100AD000DA01CD92DC92F182E08240E02F5F3F4F5D
:100AE000EACF411102C0019709F7F8018281938191
:100AF000A481B5818833F4E09F07A105B10509F50C
:100B0000A98DBA8D28E833E10E9402192FEF33E056
:100B100040E050E00E949318CA01B9010E94761784
:100B200020E030E04AE754E40E9476192DED34E2EB
:100B300046E95FEB0E94231A2DE637EE4FEE51E4B3
:100B40004DC0863B2EE49207A105B10509F5A98D9C
:100B5000BA8D28E833E10E9402192FEF33E040E01C
:100B600050E00E949318CA01B9010E94761720E054
:100B700030E04AE754E40E94761921EE3AE744E96E
:100B80005FEB0E94231A2AEF3EE741E752E426C0BA
:100B90008E3AE1E09E07A105B10519F5A98DBA8D40
:100BA00028E833E10E9402192FEF33E040E050E0E3
:100BB0000E949318CA01B9010E94761720E030E024
:100BC0004AE754E40E9476192BE83CE647E85FEBDD
:100BD0000E94231A2EEA37E441E451E40E94D5171B
:100BE00046C084399848A140B10509F045C0A98D97
:100BF000BA8D28E833E10E9402192FEF33E040E07C
:100C000050E00E949318CA01B9010E9476176B0147
:100C10007C0120E030E04FEA54E40E946F1787FD2A
:100C200029C020E030E44EE455E4C701B6010E943B
:100C30001E1A1816FCF020E030EA4CE854E4C70114
:100C4000B6010E94091920E030E04AE754E40E940E
:100C5000761920E030E849E053E40E9476199B01C0
:100C6000AC0160E070E080E89FE30E9476190E948A
:100C7000E81902C060E070E0CB01E2960FB6F8948C
:100C8000DEBF0FBECDBFDF91CF911F910F91FF90BF
:100C9000EF90DF90CF9008951F920F920FB60F92B2
:100CA00011240BB60F922F933F934F935F936F9343
:100CB0007F938F939F93AF93BF93EF93FF93809115
:100CC0002A050E94990E20912E0530912F052F5F45
:100CD0003F4F30932F0520932E0590912D0595368B
:100CE00018F096E090932905909129059430C9F168
:100CF00028F4923069F09330D1F05EC0953009F459
:100D000051C0963009F058C091E09093FA0551C057
:100D1000811152C020912E0530912F0524363105C6
:100D200008F442C01092FA0510922D051CC08130C3
:100D300009F042C0E0912D0591E09E0F90932D05A2
:100D4000F0E020912E0530912F05EE0FFF1FE75D9B
:100D5000FA4F3087278310922F0510922E0594E0CA
:100D600029C0811117C0E0912D0591E09E0F90934D
:100D70002D05F0E020912E0530912F05EE0FFF1F7D
:100D8000E75DFA4F3087278310922F0510922E05CA
:100D900093E010C020912E0530912F0525363105A6
:100DA00058F007C0811108C010922F0510922E052F
:100DB00003C095E09093290590912C059923B9F0F3
:100DC00081110AC080912B05882321F080912B0589
:100DD00061E009C02F9A0BC080912B05882331F068
:100DE00080912B0560E00E94C20E01C02F98FF91F8
:100DF000EF91BF91AF919F918F917F916F915F9193
:100E00004F913F912F910F900BBE0F900FBE0F90FF
:100E10001F9018958F929F92AF92BF92CF92DF92C0
:100E2000EF92FF920F931F93CF93DF938C016A0190
:100E30007B0120E030E04FE753E4C701B6010E9498
:100E4000D5174B015C0120E030E0A9010E941E1A79
:100E500018161CF4C501B40103C0C501B4019058B3
:100E60000E94E819EB0120E030E0A901C701B601BA
:100E70000E941E1A181614F460E001C061E0F80127
:100E800081810E94C20ECF3FD10509F014F4DD2705
:100E900002C0CFEFD0E0F801108161E0812F0E9405
:100EA000F10E209709F4B1C0CF3FD10509F4AFC0CE
:100EB000E12FF0E0EF59FC4FE4918E2F90E0FC0120
:100EC0003197E231F10508F09DC08827EE58FF4FB9
:100ED0008F4F0C94FA1884B5806884BDC7BDA7C035
:100EE00084B5806284BDC8BDA2C080918000806846
:100EF00080938000D0938900C093880098C080912F
:100F00008000806280938000D0938B00C0938A0021
:100F10008EC080918000886080938000D0938D0087
:100F2000C0938C0084C08091B00080688093B00032
:100F3000C093B3007CC08091B00080628093B00009
:100F4000C093B40074C0809190008068809390003A
:100F5000D0939900C09398006AC0809190008062FD
:100F600080939000D0939B00C0939A0060C08091C2
:100F70009000886080939000D0939D00C0939C0067
:100F800056C08091A00080688093A0008091A0004E
:100F90008F7B8093A000D093A900C093A80047C086
:100FA0008091A00080628093A000D093AB00C0939A
:100FB000AA003DC08091A00088608093A000D093DB
:100FC000AD00C093AC0033C0809120018068809355
:100FD0002001D0932901C093280129C080912001CC
:100FE000806280932001D0932B01C0932A011FC0FF
:100FF00080912001886080932001D0932D01C093BF
:101000002C0115C0C038D10514F460E001C061E0C6
:10101000812FDF91CF911F910F91FF90EF90DF9083
:10102000CF90BF90AF909F908F900C94C20EDF91A5
:10103000CF911F910F91FF90EF90DF90CF90BF90D5
:10104000AF909F908F9008958EBD00000DB407FE65
:10105000FDCF8EB50895CF93DF93EC0160E08881DA
:101060000E94C20E88E90E94240880E00E942408A1
:1010700080E00E94240880E00E94240880E00E9412
:10108000240861E088810E94C20E8BE891E00197FC
:10109000F1F760E088810E94C20E80EE0E94240871
:1010A00061E08881DF91CF910C94C20EAF92BF9224
:1010B000CF92DF92EF92FF920F931F93CF93DF9324
:1010C000CDB7DEB760970FB6F894DEBF0FBECDBFC9
:1010D0005C0160E0FC0180810E94C20E80E60E94FB
:1010E00024088E010F5F1F4F7E01F1E1EF0EF11C0E
:1010F000680180E00E94240890E0A0E0B0E0F601E2
:1011000081939193A193B1936F01EE15FF0589F738
:1011100061E0F50180810E94C20E80E090E0DC0178
:10112000F80141915191619171918F01BA2FA92FCD
:10113000982F8827840F951FA61FB71FEE15FF0550
:1011400079F79C01AD0166277727CB01621B730BF2
:10115000840B950B60960FB6F894DEBF0FBECDBF23
:10116000DF91CF911F910F91FF90EF90DF90CF9083
:10117000BF90AF9008951F93CF93DF93EC01162F8C
:1011800088818C3008F04DC061E0812F0E94F10E03
:10119000E88195E09E9FF0011124E550FA4F1F73FE
:1011A0008081807C182B10831382E8819E9FF00140
:1011B0001124E550FA4F148288816CE00E94EE18E9
:1011C0009CE0899FA001112420E030E095E0BA0165
:1011D000620F731F969FF001979FF00D1124E55049
:1011E000FA4F608166FD13C02F5F3F4F2C303105F1
:1011F00071F781110CC01092800082E08093810011
:10120000109285001092840086BB80936F00E88165
:1012100085E0E89FF0011124E550FA4F8081806459
:1012200080838881DF91CF911F9108951F920F9243
:101230000FB60F9211240BB60F922F933F934F933B
:101240005F936F937F938F939F93AF93BF93EF932E
:10125000FF938091890287FF05C01092850010924C
:10126000840016C020918902022E000C330B80915D
:10127000370690E0281739075CF43091890225E0A1
:101280003203F0011124E550FA4F808186FD15C02C
:10129000809189028F5F8093890220918902022EBA
:1012A000000C330B8091370690E02817390794F42F
:1012B000809189028C302CF10DC03091890232036B
:1012C000F0011124E550FA4F808160E08F730E9495
:1012D000C20EDECF809184009091850084349C49B9
:1012E00018F480E49CE905C0809184009091850009
:1012F000049690938900809388008FEF80938902F1
:101300002AC040918400509185003091890225E0E7
:101310003203F0011124E550FA4F81819281840F4C
:10132000951F909389008093880030918902320341
:10133000F0011124E550FA4F808186FF0CC03091F6
:1013400089023203F0011124E550FA4F808161E0F7
:101350008F730E94C20EFF91EF91BF91AF919F9149
:101360008F917F916F915F914F913F912F910F904E
:101370000BBE0F900FBE0F901F9018952F923F92AB
:101380004F925F926F927F928F929F92AF92BF9295
:10139000CF92DF92EF92FF920F931F93CF93DF9341
:1013A000CDB7DEB760970FB6F894DEBF0FBECDBFE6
:1013B0009E838D8385E12D813E81829FB001839F35
:1013C000700D1124072E000C880B990B0E947617C4
:1013D00069837A838B839C8320E030E0A9010E949B
:1013E0006F1787FF09C089819A81AB81BC81B05892
:1013F00089839A83AB83BC838CE596E00E942B089B
:101400008EE596E00E942B08AD81BE811A161B0660
:101410000CF0F6C04DEC5CEC6CEC7DE388E596E0FE
:101420000E940A074DEC5CEC6CEC7DE38AE596E0EB
:101430000E940A071A86198618861F82188A1F8634
:1014400000E010E08DEC882E8CEC982EA92C8DEB12
:10145000B82E20E030E040E450E469817A818B814D
:101460009C810E9409196B017C01B801012E000CBE
:10147000880B990B0E947617A70196010E946F179F
:1014800087FD11C04F855889BA01550F880B990BFC
:101490000E9476179B01AC01C701B6010E941E1A7B
:1014A00018160CF059C18EE596E00E9456086B871D
:1014B0007C878D879E878B859C85919581959109E9
:1014C0009E838D838CE596E00E9456084424552423
:1014D0003201461A570A680A790A1201C201AF811D
:1014E000B8858A1B9B0B080F191F8D819E8129854A
:1014F0003A85821B930B4F855889480F591F588B8B
:101500004F8755E6451651040CF444C08EE596E02D
:101510000E942B088CE596E00E942B086B857C8549
:10152000640D751D072E000C880B990B0E94761711
:1015300027E137EB41ED58E30E94D5172B013C0121
:10154000B8018F859889681B790B072E000C880BD2
:10155000990B0E9476172CEA35EC47EA57E30E9474
:10156000D5179B01AC01C301B2010E940A199B016E
:10157000AC01C501B4010E9409194B015C01AB012A
:10158000BC0170588AE596E00E940A071E821D82FF
:10159000212C312CB801012E000C880B990B0E94D4
:1015A00076179B01AC01C701B6010E946F1787FF38
:1015B00007C040E050E0BA0188E596E00E940A07C3
:1015C000AF85B889BD01BB0F880B990B0E947617B8
:1015D0009B01AC01C701B6010E946F1787FD07C0D0
:1015E0002D813E813A87298738862F8232CF40E08D
:1015F00050E060E070E88AE596E00E940A07F0CFCC
:101600002D813E81232B09F4A7C04DEC5CEC6CECE2
:101610007DEB88E596E00E940A074DEC5CEC6CECF3
:101620007DEB8AE596E00E940A07C12CD12CA12C03
:10163000B12CE12CF12C00E010E020E030E040E49F
:1016400050E469817A818B819C810E9409192B0168
:101650003C01B801012E000C880B990B0E947617F3
:10166000A30192010E946F1787FD10C0B7010F2CD4
:10167000000C880B990B0E9476179B01AC01C301EB
:10168000B2010E941E1A18160CF066C08CE596E096
:101690000E9456089B01AC0188279927DC01821B18
:1016A000930BA40BB50B44275527481B590B5E839E
:1016B0004D838EE596E00E9456084B012D813E81B8
:1016C0002A193B09020F131FAB014C195D09E40EE7
:1016D000F51E8D819E818536910564F08EE596E03C
:1016E0000E942B088CE596E00E942B08812C912CFF
:1016F0001E821D82B801012E000C880B990B0E94DE
:1017000076179B01AC01C301B2010E946F1787FFDE
:1017100007C040E050E0BA0188E596E00E940A0761
:10172000B7010F2C000C880B990B0E9476179B01B8
:10173000AC01C301B2010E946F1787FD04C06401B0
:10174000AD80BE807ACF40E050E060E070E88AE58E
:1017500096E00E940A07F3CF40E050E0BA0188E526
:1017600096E00E940A0740E050E060E070E88AE5F9
:1017700096E060960FB6F894DEBF0FBECDBFDF9146
:10178000CF911F910F91FF90EF90DF90CF90BF907E
:10179000AF909F908F907F906F905F904F903F9011
:1017A0002F900C940A0785ED8093BC008091BC00BB
:1017B00084FDFCCF1092210308954091D602262F7C
:1017C00030E0240F311D21323105DCF4209121035A
:1017D0002430C9F4FC0180E090E0861758F4309181
:1017E000D6022191DC01AA54BD4FA30FB11D2C9349
:1017F0000196F3CF8091D602680F6093D60280E005
:10180000089581E0089582E0089508950895089567
:10181000E091910280919002E81730F4F0E0EA56EE
:10182000FD4F808190E008958FEF9FEF0895909194
:10183000910280919002981750F4E92FF0E0EA5657
:10184000FD4F208130E09F5F9093910202C02FEF07
:101850003FEFC90108958091900290E0209191029C
:10186000821B91090895CF92DF92EF92FF920F931E
:101870001F93CF93DF937C01CB018A012091220338
:10188000222389F0EB016B01C40ED51ECC15DD05BA
:1018900069F06991D701ED91FC910190F081E02D03
:1018A000C7011995F3CF642F0E94DD0BC801DF91AA
:1018B000CF911F910F91FF90EF90DF90CF900895FF
:1018C000CF93DF931F92CDB7DEB7698320912203B8
:1018D0002223D1F020914503203240F021E030E076
:1018E000FC013383228380E090E015C080912303C4
:1018F000E82FF0E0EC5DFC4F998190838F5F80933F
:1019000023038093450305C061E0CE0101960E9448
:10191000DD0B81E090E00F90DF91CF91089590E092
:10192000FC013197E231F10508F04EC08827EC57F1
:10193000FF4F8F4F0C94FA18809180008F7703C06F
:10194000809180008F7D8093800008958091800039
:10195000877FF9CF84B58F7702C084B58F7D84BD32
:1019600008958091B0008F7703C08091B0008F7D83
:101970008093B0000895809190008F7707C0809188
:1019800090008F7D03C080919000877F80939000AE
:1019900008958091A0008F7707C08091A0008F7D6F
:1019A00003C08091A000877F8093A000089580915C
:1019B00020018F7707C0809120018F7D03C0809127
:1019C0002001877F8093200108950F931F93CF9369
:1019D000DF93162F072FCFE3D6E09C8521E02093DD
:1019E0002203909344031092230310924503AA8587
:1019F000BB85ED91FC9111970190F081E02D682F4E
:101A0000CD0119958A859B85DC01ED91FC910190B2
:101A1000F081E02D602F19958A859B85DC01ED9181
:101A2000FC910190F081E02D612F1995DF91CF910C
:101A30001F910F910C94A210FC01248131E030938E
:101A400022032093440310922303109245038485BC
:101A5000682B86E493E00E94600C0C94A2100F9314
:101A60001F93CF938C01C62F64600E941C0D6C2FB6
:101A70006B7FC8010E941C0D83EC90E00197F1F789
:101A8000CF911F910F910895FC01A089B1898C918C
:101A9000A689B78982FD0FC09C91818D8F5F8F735E
:101AA000228D821749F0218DDF01A20FB11D5D96B5
:101AB0009C93818F08958C9108951F920F920FB679
:101AC0000F9211240F900FBE0F901F9018951F9228
:101AD0000F920FB60F9211240BB60F922F933F93D4
:101AE0004F935F936F937F938F939F93AF93BF9326
:101AF000EF93FF938091B900887F803609F49CC0F2
:101B000068F5883209F45BC090F4803109F454C060
:101B100038F4882309F4F6C0883009F44DC0F6C0C3
:101B2000883109F44CC0803209F45DC0EFC08034C4
:101B300009F468C048F4803309F455C0883309F0CB
:101B4000E5C080931F03D8C0803509F44FC08835A5
:101B500009F45DC0883409F0D9C0D6C0883909F4C9
:101B6000C7C0A8F4883709F467C038F4883609F488
:101B700063C0803709F460C0C9C0883809F4B8C0B0
:101B8000803909F45FC0803809F0C0C05BC0803B79
:101B900009F486C038F4803A09F466C0883A09F43A
:101BA0007FC0B4C0803C09F4A7C0883C09F4A4C03D
:101BB000883B09F48AC0AAC08091FC0210C09091B1
:101BC0001E0380911D03981770F5E0911E0381E0BC
:101BD0008E0F80931E03F0E0E350FD4F80818093D1
:101BE000BB0085EC86C080931F038EC0E0911E036E
:101BF00081E08E0F80931E038091BB00F0E0E350E4
:101C0000FD4F808390911E0380911D036EC0E09173
:101C10001E0381E08E0F80931E038091BB00F0E0D5
:101C2000E350FD4F80838091200381116DC081E0DE
:101C30008093FB0284EA61C083E0809321031092C9
:101C4000F802CFCF8091F802803208F051C0E091C5
:101C5000F80281E08E0F8093F8028091BB00F0E0E3
:101C6000E852FD4F8083BDCF85EC8093BC0010927D
:101C700021038091F802803230F4E091F802F0E024
:101C8000E852FD4F10826091F80270E0E0919402FA
:101C9000F091950288ED92E019951092F80236C005
:101CA00084E0809321031092D7021092D602E09133
:101CB0009202F091930219958091D602811105C08C
:101CC00081E08093D6021092B602E091D70281E0C3
:101CD0008E0F8093D702F0E0EA54FD4F808180930D
:101CE000BB009091D7028091D602981708F479CF63
:101CF00085E88093BC000AC085EC8093BC001092FC
:101D0000210304C010921F030E94D30BFF91EF9197
:101D1000BF91AF919F918F917F916F915F914F9103
:101D20003F912F910F900BBE0F900FBE0F901F9001
:101D30001895CF93DF93282F30E0F901EF59FC4F2E
:101D40008491F901E55EFC4FD491F901EB52FD4F0E
:101D5000C491CC2391F081110E948F0CEC2FF0E004
:101D6000EE0FFF1FE554FD4FA591B491EC91ED23CB
:101D700081E090E021F480E002C080E090E0DF911B
:101D8000CF9108951F93CF93DF93282F30E0F9016F
:101D9000EF59FC4F8491F901E55EFC4FD491F901B4
:101DA000EB52FD4FC491CC23C1F0162F81110E943C
:101DB0008F0CEC2FF0E0EE0FFF1FEF55FD4FA591BC
:101DC000B4919FB7F894111104C08C91D095D82389
:101DD00002C0EC91DE2BDC939FBFDF91CF911F916E
:101DE0000895CF93DF9390E0FC01E55EFC4F2491D2
:101DF000FC01EB52FD4F8491882361F190E0880F44
:101E0000991FFC01E957FD4FC591D491FC01EF5595
:101E1000FD4FA591B491611109C09FB7F8948881D5
:101E2000209582238883EC912E230BC0623061F4CD
:101E30009FB7F8948881322F309583238883EC9163
:101E40002E2B2C939FBF06C08FB7F894E8812E2BC2
:101E500028838FBFDF91CF9108958F929F92AF9289
:101E6000BF92CF92DF92EF92FF926B017C010E94B2
:101E7000FE104B015C01C114D104E104F104F1F046
:101E80000E94FE10DC01CB0188199909AA09BB093F
:101E9000883E9340A105B10570F321E0C21AD10834
:101EA000E108F10888EE880E83E0981EA11CB11CA1
:101EB000C114D104E104F10419F7DDCFFF90EF90D4
:101EC000DF90CF90BF90AF909F908F900895009734
:101ED00069F0FC0101900020E9F73197AF01481B40
:101EE000590BBC018CE894E00C94090280E090E06E
:101EF0000895CF93DF930E94670FEC018FE492E087
:101F00000E94670F8C0F9D1FDF91CF910895CF9294
:101F1000DF92EF92FF92CF93DF9390916A06891739
:101F200020F090916B06981750F482E592E0DF91D3
:101F3000CF91FF90EF90DF90CF900C94790FC091EC
:101F40007006CC3008F07BC0282F30E0D0E0283C71
:101F50003105E4F595E09C9FF0019D9FF00D112463
:101F6000E550FA4F938128E830E06901C91AD10899
:101F700097FDD394CC0CDD1CCC0CDD1C0D2C000C7F
:101F8000EE08FF08948128E532E0291B310997FD0E
:101F90003395220F331F220F331FA901330F660B16
:101FA000770B9A01AB012C193D094E095F09A82F47
:101FB000B0E00E94B21824EB30E040E050E00E9414
:101FC0009318C20ED31EE41EF51E27C085E08C9F19
:101FD000F0018D9FF00D1124E550FA4F838148E800
:101FE00050E06A01C81AD10887FDD394CC0CDD1CDF
:101FF000CC0CDD1C2C153D0584F0448188E592E075
:10200000841B910947FD9395880F991F880F991F8D
:1020100069018C159D050CF46C018FB7F89495E05F
:102020009C9FF0019D9FF00D1124E550FA4F96E022
:10203000C91AD108CC0CDD1CD282C1828FBFDF91BE
:10204000CF91FF90EF90DF90CF9008958F929F9265
:10205000AF92BF92CF92DF92EF92FF920F931F93B6
:10206000CF93DF93CDB7DEB7A1970FB6F894DEBF5D
:102070000FBECDBF6C01990FEE08FF08F7FE2BC015
:102080006DE28CE894E00E94B0028C012227332795
:10209000A9012C193D094E095F0919A2CE018196AB
:1020A0007C019AE0892E912CA12CB12CCA01B90196
:1020B000A50194010E94BD18605DF70162937F0144
:1020C000211531054105510589F7CF010E94670FA0
:1020D000080F191F1EC0A701960119A28E010F5DDE
:1020E0001F4F8AE0C82ED12CE12CF12CCA01B90176
:1020F000A70196010E94BD18605DF80162938F01EF
:10210000211531054105510589F7CF010E94670F5F
:102110008C018FE492E00E94670F800F911FA196BF
:102120000FB6F894DEBF0FBECDBFDF91CF911F91E8
:102130000F91FF90EF90DF90CF90BF90AF909F9066
:102140008F90089530914503313208F04BC0809153
:1021500021038111FCCF9091440322E020932103BD
:1021600021E0209320032FEF20931F0310921E03E2
:1021700030931D03E4E2F3E0ADEFB2E020E032176C
:1021800021F041914D932F5FFACF1092FC022091E4
:10219000FC02990F922B9093FC029091FB029130DC
:1021A00061F41092FB029091FC029093BB0090911D
:1021B000BC0093FDF8CF95EC01C095EE9093BC0068
:1021C000909121039230E1F390911F039F3F79F0AA
:1021D00080911F03803241F080911F03803331F0E2
:1021E00084E005C081E003C082E001C083E010927A
:1021F0002303109245031092220308953FB7F894E9
:1022000080915B0790915C07A0915D07B0915E079C
:1022100026B5A89B05C02F3F19F00196A11DB11D41
:102220003FBFBA2FA92F982F8827820F911DA11D7C
:10223000B11DBC01CD0142E0660F771F881F991FB9
:102240004A95D1F708951F920F920FB60F9211245D
:102250002F933F938F939F93AF93BF938091570793
:1022600090915807A0915907B0915A07309156079D
:1022700023E0230F2D3720F40196A11DB11D05C0C9
:1022800026E8230F0296A11DB11D209356078093C7
:10229000570790935807A0935907B0935A07809116
:1022A0005B0790915C07A0915D07B0915E07019676
:1022B000A11DB11D80935B0790935C07A0935D0700
:1022C000B0935E07BF91AF919F918F913F912F91F6
:1022D0000F900FBE0F901F90189580913806909127
:1022E00039060C94401CCF93DF9300D000D0CDB7BB
:1022F000DEB7789484B5826084BD84B5816084BD86
:1023000085B5826085BD85B5816085BD80916E0093
:10231000816080936E0010928100809181008260C4
:102320008093810080918100816080938100809101
:1023300080008160809380008091B10084608093F0
:10234000B1008091B00081608093B00080919100D5
:1023500082608093910080919100816080939100D0
:10236000809190008160809390008091A1008260B4
:102370008093A1008091A10081608093A100809151
:10238000A00081608093A0008091210182608093F1
:1023900021018091210181608093210180912001A0
:1023A00081608093200180917A00846080937A001C
:1023B00080917A00826080937A0080917A008160B7
:1023C00080937A0080917A00806880937A001092DE
:1023D000C100E0919C04F0919D0482E08083E09133
:1023E0009804F09199041082E0919A04F0919B0472
:1023F0008FEC80831092A404E091A004F091A104DA
:1024000086E08083E0919E04F0919F04808180614A
:102410008083E0919E04F0919F0480818860808396
:10242000E0919E04F0919F04808180688083E09118
:102430009E04F0919F0480818F7D808361E0809174
:1024400040060E94F10E60E0809140060E94C20E9C
:1024500060E080913F060E94F10E86E493E0909345
:102460004A068093490610929102109290021092AF
:102470002303109245031092210381E080932003EF
:102480001092FB0261E084E10E94C20E61E085E1EE
:102490000E94C20E8091B9008E7F8093B900809116
:1024A000B9008D7F8093B90088E48093B80085E4FB
:1024B0008093BC0085E09CE090939302809392020D
:1024C00086E09CE0909395028093940280E090E1F6
:1024D000A0E0B0E080934C0690934D06A0934E068A
:1024E000B0934F068AE090E0A0E0B0E08093500601
:1024F00090935106A0935206B093530680E090E06B
:10250000A0E0B0E48093540690935506A09356063D
:10251000B093570660E070E185E00E94E50C6FE93A
:1025200079E380E00E94E50C0FE316E0780152E0C9
:10253000552E6AE0662E63E0762E70E5872E73E0F6
:10254000972EEBECCE2EE7E0DE2EF7019481828110
:10255000F801818F928F61E00E94F10E61E0F80135
:10256000828D0E94F10EF701908586815801FDE170
:10257000AF0EB11CF801858F968F61E00E94F10EBD
:1025800060E0F801868D0E94F10E61E0F801858D12
:102590000E94C20E4FB6F89480918F02811126C01E
:1025A000F3018491F4012491E82FF0E0EE0FFF1F76
:1025B000E957FD4FA591B4919C91822F892321F475
:1025C00061E085E30E94C20E61E085E30E94F10EA6
:1025D0008CB580618CBD8CB580648CBD61E084E37A
:1025E0000E94F10E61E083E30E94F10E80918F0260
:1025F0008F5F80938F024FBEC6010197F1F760E0B5
:10260000F801858D0E94C20E88E80E94240883E0AC
:102610000E94240861E0F801858D0E94C20EC60167
:102620000197F1F7C5010E942B085A94FFEFEF1AAA
:10263000FF0A0E5F1F4F511088CF34E6E32E36E0BD
:10264000F32E08E616E060E0F70181917F010E9419
:10265000F10E0E151F05B9F720E6E22E26E0F22E48
:102660006801FFEFCF1ADF0AF801608170E0C8014E
:1026700008960E94BB08F60195818381F701828B41
:10268000938B60E00E94F10E61E0F70183890E9464
:10269000F10E60E0F70183890E94C20EF2E0EF0EB6
:1026A000F11C860126E00A361207D1F6F894109242
:1026B000200189E08093210180E293E09093290139
:1026C00080932801109225011092240182E08093CA
:1026D000730078948093290510922D0580912A0526
:1026E00060E00E94F10E6AE070E080E090E00E94FD
:1026F0002D0F4DB75EB75C834B838DB79EB7825F5E
:1027000091090FB6F8949EBF0FBE8DBFEDB7FEB70F
:1027100031962F012DB73EB7225F31090FB6F894DD
:102720003EBF0FBE2DBF435E51401A01845E9140F3
:102730000FB6F8949EBF0FBE8DBFE45EF140FE83DE
:10274000ED838CE596E00E9456089B01AC0188273A
:102750009927DC01821B930BA40BB50B8C3E944094
:10276000A105B1054CF08EE596E00E945608613057
:102770007540810591058CF04DEC5CEC6CEC7DE3D3
:1027800088E596E00E940A074DEC5CEC6CEC7DE37A
:102790008AE596E00E940A07D4CF40E050E0BA01F3
:1027A00088E596E00E940A0740E050E060E070E8AB
:1027B0008AE596E00E940A078CE596E00E942B08C5
:1027C0008EE596E00E942B08E12CF12C1A821982EA
:1027D000C12CD12C8CE596E00E9456089B01AC01DF
:1027E00088279927DC01821B930BA40BB50B8D3E28
:1027F0009940A105B10554F48EE596E00E94560873
:10280000683D7940810591050CF05DC04DEC5CECB4
:102810006CEC7DEB88E596E00E940A074DEC5CECE1
:102820006CEC7DEB8AE596E00E940A073701660CA6
:10283000771C5201A60CB71C4101860C971C4D81D8
:102840005E81640E751E58E7E516F10419F28EE5F7
:1028500096E00E94560825E130E040E050E00E94FA
:102860009318672B682B692B71F78CE796E00E9411
:1028700013058C01F501819391935F0186E796E042
:102880000E941305F401819391934F01081B190BCA
:10289000F301019311933F01C016D10684F48035F2
:1028A00091056CF40634110554F4C8010E942610F9
:1028B00080E492E00E94790FFA82E9826801FFEFDA
:1028C000EF1AFF0AC0CF40E050E0BA0188E596E079
:1028D0000E940A0740E050E060E070E88AE596E078
:1028E0000E940A078BE492E00E94790F89819A8105
:1028F0000E94261088E790E0E981FA818E1B9F0BE9
:102900000E94BE098CE596E00E942B088EE596E0B9
:102910000E9456088EE596E00E942B084AE959E984
:1029200069E97EEB8AE596E00E940A074AE959E9DF
:1029300069E97EE388E596E00E940A0700E010E07E
:10294000212C312C8AE9482E89E9582E652C8EE3FA
:10295000782E809167060E94990E892B09F443C056
:102960006091690670E081E796E00E94BB0883E20F
:102970000E94870F64EF71E080E090E00E942D0FCD
:1029800087E30E94870F40E050E0BA0188E596E0B7
:102990000E940A0740E050E060E070E88AE596E0B7
:1029A0000E940A0764E670E080E090E00E942D0F2C
:1029B00089819A81CC970E94BE092B813C810FB6F8
:1029C000F8943EBF0FBE2DBF68EE73E080E090E04C
:1029D0000E942D0F68E873E180E090E00E942D0FC7
:1029E0000E94220380CE8EE596E00E9456084B019D
:1029F0005C018CE596E00E945608CC24DD2476012B
:102A0000C61AD70AE80AF90A8EE596E00E942B0852
:102A10008CE596E00E942B082C0C3D1C080D191D1E
:102A2000B60168197909072E000C880B990B0E94D2
:102A3000761727E137EB41ED58E30E94D5176B017C
:102A40007C01B101601B710B072E000C880B990BE8
:102A50000E9476172CEA35EC47EA57E30E94D51717
:102A60009B01AC01C701B6010E940A199B01AC0190
:102A7000C301B2010E940A192B013C01AB01BC0148
:102A800070588AE596E00E940A0762E370E080E0F1
:102A900090E00E942D0F5DCFCF92DF92EF92FF92D8
:102AA000109249031092480388EE93E0A0E0B0E052
:102AB00080934A0390934B03A0934C03B0934D0330
:102AC00024E132E0309347032093460310925503EC
:102AD000109254038093560390935703A093580386
:102AE000B093590326E232E030935303209352030C
:102AF00045E351E050935F0340935E0344E351E0AC
:102B0000509361034093600340E351E050936303AB
:102B10004093620341E351E05093650340936403A3
:102B200042E351E0509367034093660346E351E06C
:102B3000509369034093680310926B0310926C03E7
:102B400010926D0310926E031092F2031092F10333
:102B50008093F3039093F403A093F503B093F603EB
:102B60003093F0032093EF0345ED50E05093FC03C6
:102B70004093FB0344ED50E05093FE034093FD036C
:102B800040ED50E0509300044093FF0341ED50E0CE
:102B9000509302044093010442ED50E0509304042A
:102BA0004093030446ED50E050930604409305041F
:102BB000109208041092090410920A0410920B0457
:102BC00010928F0410928E0480939004909391043D
:102BD000A0939204B093930430938D0420938C04BB
:102BE00085EC90E0909399048093980484EC90E0B5
:102BF00090939B0480939A0480EC90E090939D04C2
:102C000080939C0481EC90E090939F0480939E04B9
:102C100082EC90E09093A1048093A00486EC90E075
:102C20009093A3048093A2041092A5041092A6048A
:102C30001092A7041092A8048091080290910902B2
:102C4000A0910A02B0910B028093600690936106F6
:102C5000A0936206B093630680910C0290910D02DE
:102C6000A0910E02B0910F028093640690936506C6
:102C7000A0936606B093670684E08093680687E0B9
:102C80008093690610926A0684EB80936B0686E156
:102C900080936C0688E180936D0687E180936E06D1
:102CA00089E180936F06E0913706EC3020F08FEFDA
:102CB0008093700610C081E08E0F80933706E093FA
:102CC000700685E0E89FF0011124E550FA4F88EB8B
:102CD0009BE092838183E0913706EC3020F08FEF08
:102CE0008093710610C081E08E0F80933706E093C9
:102CF000710685E0E89FF0011124E550FA4F88EB5A
:102D00009BE0928381838CE080933F0684E28093F2
:102D1000400686E08093410685E0809342068FE17D
:102D2000809343068EE18093440683E280934506B8
:102D300082E28093460685E48093470684E480938C
:102D4000480680E480934B0610925006109251067C
:102D50001092520610925306109254061092550685
:102D60001092560610925706E6E8F6E024E437E0A3
:102D70008FEF9FEFDC01128213821482158216827C
:102D800017821086118683879487A587B6878787E1
:102D9000908BA18BB28B12861182108273962E17A4
:102DA0003F0749F78DE090E00E94A81BFC011382C9
:102DB000128288E392E091838083118687E2848384
:102DC00084E1828784E083871486F0938306E0930E
:102DD0008206109284061092850685E280932A0569
:102DE00010922C05109239061092380610923B066C
:102DF00010923A0610923D0610923C0661E070E097
:102E000080E090E00E94C91C009791F090933906F1
:102E10008093380610923B0610923A0620913C06A9
:102E200030913D06232B09F04DC0FC0110824AC0B1
:102E30008091380690913906009711F00E94401C4D
:102E4000109239061092380610923D0610923C06F8
:102E500010923B0610923A068EE390E090937D0626
:102E600080937C0698E3C92E94E0D92EE12CF12CB6
:102E7000C0927E06D0927F06E0928006F092810694
:102E800060E00E94F10E81E08093010282E490E014
:102E90009093770680937606C0927806D092790652
:102EA000E0927A06F0927B0660E00E94F10E82E0EA
:102EB00090E09093450780934407FF90EF90DF9058
:102EC000CF90089510923D0610923C0661E572E0A5
:102ED00080913806909139060E94BC1DBDCF0E949A
:102EE000B11708F481E00895E89409C097FB3EF417
:102EF00090958095709561957F4F8F4F9F4F992347
:102F0000A9F0F92F96E9BB279395F69587957795C4
:102F10006795B795F111F8CFFAF4BB0F11F460FF84
:102F20001BC06F5F7F4F8F4F9F4F16C0882311F0DC
:102F300096E911C0772321F09EE8872F762F05C0F0
:102F4000662371F096E8862F70E060E02AF09A958B
:102F5000660F771F881FDAF7880F9695879597F980
:102F60000895990F0008550FAA0BE0E8FEEF16161A
:102F70001706E807F907C0F012161306E407F5076D
:102F800098F0621B730B840B950B39F40A2661F0E1
:102F9000232B242B252B21F408950A2609F4A14084
:102FA000A6958FEF811D811D08950E94E8170C944E
:102FB00059180E944B1838F00E94521820F095239F
:102FC00011F00C9442180C94481811240C948D188C
:102FD0000E946A1870F3959FC1F3950F50E0551F3A
:102FE000629FF001729FBB27F00DB11D639FAA275E
:102FF000F00DB11DAA1F649F6627B00DA11D661FAD
:10300000829F2227B00DA11D621F739FB00DA11DCD
:10301000621F839FA00D611D221F749F3327A00D87
:10302000611D231F849F600D211D822F762F6A2F23
:1030300011249F5750409AF0F1F088234AF0EE0F88
:10304000FF1FBB1F661F771F881F91505040A9F7B5
:103050009E3F510580F00C9442180C948D185F3FF0
:10306000E4F3983ED4F3869577956795B795F795F1
:10307000E7959F5FC1F7FE2B880F911D9695879569
:1030800097F9089597F99F6780E870E060E00895E8
:103090009FEF80EC089500240A9416161706180670
:1030A0000906089500240A9412161306140605064C
:1030B0000895092E0394000C11F4882352F0BB0FDD
:1030C00040F4BF2B11F460FF04C06F5F7F4F8F4F40
:1030D0009F4F089557FD9058440F551F59F05F3F7B
:1030E00071F04795880F97FB991F61F09F3F79F02A
:1030F00087950895121613061406551FF2CF4695AC
:10310000F1DF08C0161617061806991FF1CF86952D
:103110007105610508940895E894BB276627772711
:10312000CB0197F90895052E97FB1EF400940E9499
:10313000AA1857FD07D00E94BD1807FC03D04EF413
:103140000C94AA1850954095309521953F4F4F4FBC
:103150005F4F089590958095709561957F4F8F4F43
:103160009F4F08950E94DF18A59F900DB49F900D6A
:10317000A49F800D911D11240895A1E21A2EAA1B6F
:10318000BB1BFD010DC0AA1FBB1FEE1FFF1FA21717
:10319000B307E407F50720F0A21BB30BE40BF50B14
:1031A000661F771F881F991F1A9469F7609570959D
:1031B000809590959B01AC01BD01CF010895A29F20
:1031C000B001B39FC001A39F700D811D1124911DFB
:1031D000B29F700D811D1124911D0895991B79E0F6
:1031E00004C0991F961708F0961B881F7A95C9F797
:1031F00080950895EE0FFF1F881F8BBF0790F691F3
:10320000E02D19940E94DF18B7FF0895821B930BDD
:1032100008955058BB27AA270E9421190C945918C9
:103220000E944B1838F00E94521820F039F49F3F4A
:1032300019F426F40C9448180EF4E095E7FB0C946E
:103240004218E92F0E946A1858F3BA1762077307E9
:103250008407950720F079F4A6F50C948C180EF4E9
:10326000E0950B2EBA2FA02D0B01B90190010C0196
:10327000CA01A0011124FF27591B99F0593F50F4AE
:10328000503E68F11A16F040A22F232F342F442706
:10329000585FF3CF469537952795A795F0405395FE
:1032A000C9F77EF41F16BA0B620B730B840BBAF0CE
:1032B0009150A1F0FF0FBB1F661F771F881FC2F739
:1032C0000EC0BA0F621F731F841F48F4879577954D
:1032D0006795B795F7959E3F08F0B0CF9395880F07
:1032E00008F09927EE0F9795879508950E948A19FF
:1032F0000C9459180E94521858F00E944B1840F034
:1033000029F45F3F29F00C94421851110C948D1848
:103310000C9448180E946A1868F39923B1F3552356
:1033200091F3951B550BBB27AA27621773078407D8
:1033300038F09F5F5F4F220F331F441FAA1FA9F36E
:1033400035D00E2E3AF0E0E832D091505040E6955C
:10335000001CCAF72BD0FE2F29D0660F771F881FBD
:10336000BB1F261737074807AB07B0E809F0BB0BB0
:10337000802DBF01FF2793585F4F3AF09E3F5105C4
:1033800078F00C9442180C948D185F3FE4F3983E4B
:10339000D4F3869577956795B795F7959F5FC9F7AD
:1033A000880F911D9695879597F90895E1E0660F2E
:1033B000771F881FBB1F621773078407BA0720F0A7
:1033C000621B730B840BBA0BEE1F88F7E095089510
:1033D0000E94EF196894B1110C948D1808950E9401
:1033E000721888F09F5798F0B92F9927B751B0F00D
:1033F000E1F0660F771F881F991F1AF0BA95C9F779
:1034000014C0B13091F00E948C18B1E008950C9472
:103410008C18672F782F8827B85F39F0B93FCCF325
:10342000869577956795B395D9F73EF490958095F5
:10343000709561957F4F8F4F9F4F08950E94B117F0
:1034400008F48FEF0895FA01EE0FFF1F3096210563
:103450003105A1F16115710561F48038BFE39B0767
:1034600049F168949038810561F08038BFEF9B077F
:1034700041F099234AF5FF3FE1053105210519F196
:10348000E8940894E795D901AA2329F4AB2FBE2F1D
:10349000F85FD0F310C0FF5F70F4A695E0F7F7393E
:1034A00050F019F0FF3A38F49F779F930DD00F90AA
:1034B00007FC9058089546F00C94481860E070E0BE
:1034C00080E89FE308954FE79F775F934F933F9383
:1034D0002F930E941E1B2F913F914F915F910E944D
:1034E000D5170C947B1A29F416F00C9442180C94FE
:1034F0008C180C9448180E947218A8F39638A0F7FC
:1035000007F80F92E8942BE33AEA48EB5FE70E9452
:10351000EB170F920F920F924DB75EB70F920E946A
:10352000661BECE2F1E00E94AD1A4F915F91EF91C2
:10353000FF91E595EE1FFF1F49F0FE57E068442715
:10354000EE0F441FFA95E1F74195550B0E94E01AE2
:103550000F9007FE0C94D41A0895DF93CF931F9316
:103560000F93FF92EF92DF927B018C01689406C06B
:10357000DA2EEF010E94E817FE01E894A59125914B
:10358000359145915591A6F3EF010E942119FE0155
:103590009701A801DA9469F7DF90EF90FF900F91FF
:1035A0001F91CF91DF9108959B01AC0160E070E025
:1035B00080E89FE30C9476190C9442180C949A1BA3
:1035C0000E947218D8F39923C9F3940F511DA3F3E5
:1035D0009150504094F059F0882332F0660F771FD5
:1035E000881F91505040C1F79E3F51052CF7880F1E
:1035F000911D9695879597F908955F3FACF0983E99
:103600009CF0BB27869577956795B79508F4B160D0
:103610009395C1F7BB0F58F711F460FFE8CF6F5FC8
:103620007F4F8F4F9F4FE3CF0C948D1816F00C9463
:103630009A1B0C94481868940C9442180E947218B3
:10364000A8F39923C1F3AEF3DF93CF931F930F93A6
:10365000FF92C92FDD2788232AF02197660F771F55
:10366000881FDAF720E030E040E85FEB9FE388391D
:1036700020F0803E38F021968F770E940A19E4E509
:10368000F1E004C00E940A19E1E8F1E00E94AD1ADD
:103690008B01BE01EC01FB2E6F5771097595771FE9
:1036A000880B990B0E94761728E132E741E35FE32C
:1036B0000E94E817AF2D9801AE01FF900F911F9166
:1036C000CF91DF910E9421190C945918FA01DC0165
:1036D000AA0FBB1F9B01AC01BF5728F42227332739
:1036E0004427507820C0B75190F4AB2F0024469562
:1036F00037952795011CA395D2F3002071F0220F76
:10370000331F441FB395DAF30ED00C9409196130BE
:103710007105A0E88A07B94630F49B01AC01662721
:10372000772788279078309621F020833183428351
:10373000538308959F3F31F0915020F487957795FA
:103740006795B795880F911D9695879597F9089578
:103750000F931F93CF93DF938230910510F482E093
:1037600090E0E0916107F091620720E030E0A0E096
:10377000B0E0309719F140815181028113814817DF
:103780005907C8F08417950769F4109731F012961D
:103790000C93129713961C9327C000936107109304
:1037A000620722C02115310519F04217530718F49A
:1037B0009A01BD01EF01DF01F801DBCF21153105D1
:1037C000F9F0281B390B2430310580F48A819B8164
:1037D0006115710521F0FB019383828304C09093EE
:1037E000620780936107FE01329644C0FE01E20F3A
:1037F000F31F8193919322503109398328833AC072
:1038000020915F0730916007232B41F4209104023F
:10381000309105023093600720935F0720910202E8
:10382000309103022115310541F42DB73EB7409187
:10383000060250910702241B350BE0915F07F091BF
:103840006007E217F307A0F42E1B3F0B2817390778
:1038500078F0AC014E5F5F4F2417350748F04E0FEC
:103860005F1F5093600740935F078193919302C05D
:10387000E0E0F0E0CF01DF91CF911F910F9108952B
:10388000CF93DF93009709F481C0FC013297138234
:103890001282A0916107B0916207109781F4208194
:1038A0003181820F931F20915F07309160072817A5
:1038B000390751F5F0936007E0935F0767C0ED01AA
:1038C00020E030E0CE17DF0740F44A815B819E01A3
:1038D00041155105F1F0EA01F5CFD383C283408150
:1038E0005181840F951FC817D90759F48881998190
:1038F000840F951F0296918380838A819B81938395
:1039000082832115310529F4F0936207E093610762
:103910003DC0E901FB83EA8349915991C40FD51F4A
:10392000EC17FD0761F480819181840F951F029649
:10393000E90199838883828193819B838A83E0E074
:10394000F0E012968D919C911397009719F0FD016C
:10395000DC01F7CF8D919C9111979D012E5F3F4F18
:10396000820F931F20915F07309160072817390756
:1039700069F4309729F4109262071092610702C02F
:1039800013821282B0936007A0935F07DF91CF91FB
:1039900008956F927F928F929F92AF92BF92CF9233
:1039A000DF92EF92FF920F931F93CF93DF930097D5
:1039B00089F4CB01DF91CF911F910F91FF90EF9090
:1039C000DF90CF90BF90AF909F908F907F906F903F
:1039D0000C94A81BFC01E60FF71F9C012250310933
:1039E000E217F30708F4A9C0EC01D9010D911C916D
:1039F000119706171707B0F00530110508F49BC0A2
:103A0000C80104978617970708F495C0025011095A
:103A1000061B170B019311936D937C93CF010E94AA
:103A2000401C89C05B01A01AB10A4C01800E911E96
:103A3000A0916107B0916207612C712CE12CF12CEF
:103A4000109709F446C08D919C911197A815B9055E
:103A5000B1F56C0142E0C40ED11CCA14DB0478F14C
:103A60004C018A189B08640142E0C40ED11C1296D6
:103A7000BC9012971396AC91B5E0CB16D10440F0F0
:103A8000B282A38391828082D9016D937C9309C015
:103A90000E5F1F4F800F911FF90191838083EB2DE3
:103AA000FA2FE114F10431F0D7011396FC93EE9351
:103AB000129741C0F0936207E09361073CC068161B
:103AC000790608F43C017D0112960D90BC91A02D61
:103AD000B7CF80915F079091600788169906E1F44F
:103AE00066167706C8F4809102029091030200974F
:103AF00041F48DB79EB74091060250910702841B96
:103B0000950BE817F907C8F4F0936007E0935F0797
:103B1000F901718360830FC0CB010E94A81B7C0157
:103B2000009759F0A801BE010E94B31DCE010E946A
:103B3000401CC70104C0CE0102C080E090E0DF91CC
:103B4000CF911F910F91FF90EF90DF90CF90BF909A
:103B5000AF909F908F907F906F90089581E090E05C
:103B6000F8940C94C31DFB01DC0102C001900D927E
:103B700041505040D8F70895FB01DC0101900D92AF
:103B80000020E1F7089511E0C5EDD1E000E006C0A6
:103B9000802FFE010E94FA182196011DC63DD10713
:0A3BA00080E00807A9F7F894FFCFB2
:103BAA00FF01000063072000363738391B1D1A1C35
:103BBA0000000000600C330C5003070C2B0C170C90
:103BCA00080C00000000B00209023302FD02640280
:103BDA0042025602000000005503090250034F0337
:103BEA006C6F6F6F6F6F6C6C6C6C00656E64000D40
:103BFA000A00536572766F20616E676C652069737F
:103C0A00206F7574206F662072616E6765210000EF
:00000001FF
