:100000000C9495010C94C6010C94C6010C94C60185
:100010000C94C6010C94C6010C94C6010C94C60144
:100020000C94C6010C949F0B0C949F0B0C949F0B8B
:100030000C94C6010C9439030C94C6010C94C601AF
:100040000C94C6010C9429080C94C6010C94C601AA
:100050000C94C6010C94C6010C94C6010C94320E8B
:100060000C94C6010C94A8040C947E040C94C60154
:100070000C94C6010C94C6010C94C6010C94C601E4
:100080000C94C6010C94C6010C94C6010C94C601D4
:100090000C94C6010C94C6010C94C6010C94110A70
:1000A0000C94C6010C94C6010C94C6010C94C601B4
:1000B0000C94C6010C94C6010C94C6010C94BA05AC
:1000C0000C94C6010C94C6010C94C6010C94540403
:1000D0000C942A040C94C6010C9400040C94D603CE
:1000E0000C94C601D906DE06E306ED06F706700796
:1000F0000107090711071B0725072F073E074807B8
:10010000700752075C076607A809AB099A099E09A0
:10011000A409E209AF09B309B909BD09C109C709B1
:10012000CB09CF09E209D509D909DD090C942F07BC
:100130000C94B9090C9405090C94ED060C940F036A
:100140000C9401020C94B3090C9470070C94E2090E
:100150000C9466070C94F2010C94D9090C941B07BB
:100160000C9414030C94D9060C9423020C94F706F7
:100170000C94DD090C9404090C94E3060C94BD095D
:100180000C943E070C94C8010C94A8090C94C70960
:100190000C9415020C94D6160C946F020C940E035A
:1001A0000C9403090C9429090C949E090C941107D2
:1001B0000C9452070C945E090C94CB090C94CF0953
:1001C0000C9406090C94C1090C9431090C94D509BE
:1001D0000C9425070C9409070C94BC020C94D016BF
:1001E0000C94DE060C9401070C949A090C944807B1
:1001F0000C94AB090C9415090C94A4090C945C079D
:100200000C94AF090200002100240027002A002DD1
:10021000003000330001010000040107010A010061
:10022000002200250028002B002E0031003400029F
:10023000010000050108010B010000200023002639
:100240000029002C002F00320000010000030106ED
:10025000010901050505050705080808080202024D
:10026000020A0A0808040404040101010101010151
:10027000010303030303030303040707070C0C0C28
:100280000C0C0C0C0C020202020606060606060600
:10029000060B0B0B0B0B0B0B0B010210202008089D
:1002A00010204010204080020102010804020101D8
:1002B00002040810204080804020100804020180C1
:1002C0000402018040201008040201080402010118
:1002D0000204081020408001020408102040800021
:1002E000000A0B02090C0D0E0807030401000000B0
:1002F00000000000000000000000000000000000FE
:1003000000000000000000000000001211100000BA
:1003100000000000000000000000000000000000DD
:10032000000000000000D616D01611241FBECFEF2B
:10033000D1E2DEBFCDBF00E00CBF12E0A0E0B2E032
:10034000E6EBFBE300E00BBF02C007900D92A43E7A
:10035000B107D9F727E0A4EEB2E001C01D92AB3C93
:10036000B207E1F711E0C4E9D1E000E006C021974F
:100370000109802FFE010E94161AC339D10780E0BF
:100380000807A9F70E947C0E0C94C91D0C9400006C
:10039000CF92DF92EF92FF920F931F93CF93DF9351
:1003A0006C017A018B01C0E0D0E0CE15DF0581F051
:1003B000D8016D918D01D601ED91FC910190F081F4
:1003C000E02DC6011995892B11F02196EECF7E0103
:1003D000C701DF91CF911F910F91FF90EF90DF90B8
:1003E000CF900895FC01538D448D252F30E0842F4C
:1003F00090E0821B930B541710F0CF96089501974D
:100400000895FC01918D828D981761F0828DDF0136
:10041000A80FB11D5D968C91928D9F5F9F73928FF7
:1004200090E008958FEF9FEF0895FC01918D828DEC
:10043000981731F0828DE80FF11D858D90E00895B9
:100440008FEF9FEF0895FC01918D228D892F90E011
:10045000805C9F4F821B91098F739927089586ECCA
:1004600093E00E94230221E0892B09F420E0822FEF
:10047000089583E694E00E94230221E0892B09F489
:1004800020E0822F089580E095E00E94230221E081
:10049000892B09F420E0822F0895FC01848DDF016F
:1004A000A80FB11DA35ABF4F2C91848D90E00196E7
:1004B0008F739927848FA689B7892C93A089B189D6
:1004C0008C91837080648C93938D848D981306C077
:1004D0000288F389E02D80818F7D80830895EF92DB
:1004E000FF920F931F93CF93DF93EC0181E0888FEE
:1004F0009B8D8C8D981305C0E889F989808185FDD5
:1005000026C0F62E0B8D10E00F5F1F4F0F731127C3
:10051000E02E8C8DE8120CC00FB607FCFACFE889EC
:10052000F989808185FFF5CFCE010E944D02F1CF80
:100530008B8DFE01E80FF11DE35AFF4FF0829FB74C
:10054000F8940B8FEA89FB89808180620AC09FB78B
:10055000F894EE89FF896083E889F9898081837046
:10056000806480839FBF81E090E0DF91CF911F91F5
:100570000F91FF90EF900895CF93DF93EC01888D5A
:100580008823C9F0EA89FB89808185FD05C0A88997
:10059000B9898C9186FD0FC00FB607FCF5CF80811D
:1005A00085FFF2CFA889B9898C9185FFEDCFCE0167
:1005B0000E944D02E7CFDF91CF910895E0E0F0E097
:1005C000199480E090E0892B21F00E944302811170
:1005D00019C080E090E0892B41F080E090E0892B09
:1005E00021F00E940000811110C00E943902811187
:1005F0000FC080E090E0892B81F00E942F028111D2
:100600000AC008950E940000E4CF0E940000EDCFD0
:100610000E94DE02EECF0C9400000895089580E061
:1006200090E008950E94B41D0F931F93CF93DF9322
:100630008C01C62FD62FD07FD1606D2F0E94F80D70
:100640006D2FC8010E94E30980E1C89FB001112409
:10065000C62FC1606C2FC8010E94F80D6C2FC80115
:100660000E94E30981E090E0DF91CF911F910F910B
:1006700008951F920F920FB60F9211240BB60F928E
:100680002F933F934F935F936F937F938F939F939A
:10069000AF93BF93EF93FF93809100039091010379
:1006A000A0910203B0910303892B8A2B8B2B49F174
:1006B0009091FF0280910000892780930000809133
:1006C000000390910103A0910203B0910303181657
:1006D00019061A061B060CF056C080910003909173
:1006E0000103A0910203B09103030197A109B1098D
:1006F0008093000390930103A0930203B09303033C
:1007000042C080910002E4E0F2E0E4919FEF909318
:100710000002E230C9F050F4EE2399F0E13081F5A7
:1007200090916F009D7F90936F002AC0E43019F183
:10073000E0F0E53029F5909173009D7F9093730070
:100740001FC010926E001CC0909170009D7F90930E
:10075000700091E09093B0009091B100987F946008
:100760009093B1001092B3000BC0909171009D7FE7
:100770009093710005C0909172009D7F90937200DC
:1007800060E00E94D20BFF91EF91BF91AF919F91DA
:100790008F917F916F915F914F913F912F910F902A
:1007A0000BBE0F900FBE0F901F9018951F920F92C7
:1007B0000FB60F9211240BB60F922F933F934F93C6
:1007C0005F936F937F938F939F93AF93BF93EF93B9
:1007D000FF9386EC93E00E944D02FF91EF91BF9151
:1007E000AF919F918F917F916F915F914F913F91C9
:1007F0002F910F900BBE0F900FBE0F901F9018956A
:100800001F920F920FB60F9211240BB60F922F93D7
:100810003F934F935F936F937F938F939F93AF9388
:10082000BF93EF93FF9386EC93E00E94F809FF914A
:10083000EF91BF91AF919F918F917F916F915F9158
:100840004F913F912F910F900BBE0F900FBE0F90C5
:100850001F9018951F920F920FB60F9211240BB68E
:100860000F922F933F934F935F936F937F938F9349
:100870009F93AF93BF93EF93FF9383E694E00E941F
:100880004D02FF91EF91BF91AF919F918F917F9119
:100890006F915F914F913F912F910F900BBE0F90F1
:1008A0000FBE0F901F9018951F920F920FB60F92C8
:1008B00011240BB60F922F933F934F935F936F9337
:1008C0007F938F939F93AF93BF93EF93FF9383E6B1
:1008D00094E00E94F809FF91EF91BF91AF919F9131
:1008E0008F917F916F915F914F913F912F910F90D9
:1008F0000BBE0F900FBE0F901F9018951F920F9276
:100900000FB60F9211240BB60F922F933F934F9374
:100910005F936F937F938F939F93AF93BF93EF9367
:10092000FF9380E095E00E944D02FF91EF91BF910F
:10093000AF919F918F917F916F915F914F913F9177
:100940002F910F900BBE0F900FBE0F901F90189518
:100950001F920F920FB60F9211240BB60F922F9386
:100960003F934F935F936F937F938F939F93AF9337
:10097000BF93EF93FF9380E095E00E94F809FF9109
:10098000EF91BF91AF919F918F917F916F915F9107
:100990004F913F912F910F900BBE0F900FBE0F9074
:1009A0001F9018958F929F92AF92BF92CF92DF9235
:1009B000EF92FF920F931F93CF93DF93CDB7DEB7E4
:1009C0002C970FB6F894DEBF0FBECDBFCE010196B7
:1009D0004C018CE0F40111928A95E9F783E0A82E8E
:1009E000B12C0E94740D80E40E94480D8C0182E4B9
:1009F0000E94480D6C0184E40E94480D7C0186E44D
:100A00000E94480DC016D1067CF4E016F106BCF435
:100A1000C801855F9140833F914088F489819A8124
:100A200001969A8389830BC00C151D0544F4EC14C0
:100A3000FD042CF48B819C8101969C838B830E1585
:100A40001F0544F4CE14DF042CF48D819E810196A1
:100A50009E838D83053823E0120784F085E8C8164D
:100A600083E0D8067CF090E2E91693E0F9067CF486
:100A70008F819885019698878F8309C0053FE1E0B3
:100A80001E0784F0F5EFCF16F1E0DF06ECF0F5EF8E
:100A9000EF16F1E0FF06C4F089859A8501969A87E2
:100AA000898712C0043F114079F084EFC81681E0B5
:100AB000D80654F494EFE91691E0F9062CF48B85EE
:100AC0009C8501969C878B876AE070E080E090E0CF
:100AD0000E948E0CE1E0AE1AB10809F082CFF40159
:100AE000AE01435F5F4F80E090E02191319182172A
:100AF00093070CF4C9014E175F07B9F729813A81B2
:100B000028173907E1F02B813C8128173907B9F004
:100B10002D813E812817390791F02F8138852817BC
:100B2000390769F029853A852817390759F02B8547
:100B30003C852817390749F08FEF9FEF08C081E007
:100B400090E005C080E090E002C082E090E02C964A
:100B50000FB6F894DEBF0FBECDBFDF91CF911F91CE
:100B60000F91FF90EF90DF90CF90BF90AF909F904C
:100B70008F9008951F920F920FB60F9211240BB60B
:100B80000F922F933F934F935F936F937F938F9326
:100B90009F93AF93BF93EF93FF938091B0050E9413
:100BA000A90B2091B4053091B5052F5F3F4F3093CD
:100BB000B5052093B4059091B305953618F096E0ED
:100BC0009093AF059091AF059430C9F128F492301D
:100BD00069F09330D1F05EC0953009F451C0963081
:100BE00009F058C091E09093800651C0811152C025
:100BF0002091B4053091B5052436310508F442C082
:100C0000109280061092B3051CC0813009F042C0DA
:100C1000E091B30591E09E0F9093B305F0E0209131
:100C2000B4053091B505EE0FFF1FE155FA4F30873F
:100C300027831092B5051092B40594E029C0811164
:100C400017C0E091B30591E09E0F9093B305F0E0DB
:100C50002091B4053091B505EE0FFF1FE155FA4F15
:100C6000308727831092B5051092B40593E010C029
:100C70002091B4053091B5052536310558F007C0EF
:100C8000811108C01092B5051092B40503C095E01B
:100C90009093AF059091B2059923B9F081110AC0E4
:100CA0008091B105882321F08091B10561E009C0F0
:100CB0002F9A0BC08091B105882331F08091B10546
:100CC00060E00E94D20B01C02F98FF91EF91BF917D
:100CD000AF919F918F917F916F915F914F913F91D4
:100CE0002F910F900BBE0F900FBE0F901F90189575
:100CF0008F929F92AF92BF92CF92DF92EF92FF922C
:100D00000F931F93CF93DF938C016A017B0120E047
:100D100030E04FE753E4C701B6010E942A194B01A6
:100D20005C0120E030E0A9010E94A91B18161CF408
:100D3000C501B40103C0C501B40190580E941F1B36
:100D4000EB0120E030E0A901C701B6010E94A91B18
:100D5000181614F460E001C061E0F80181810E947E
:100D6000D20BCF3FD10509F014F4DD2702C0CFEF3D
:100D7000D0E0F801108161E0812F0E94330C2097B0
:100D800009F4B1C0CF3FD10509F4AFC0E12FF0E0C5
:100D9000E152FD4FE4918E2F90E0FC013197E2315A
:100DA000F10508F09DC08827EE58FF4F8F4F0C9437
:100DB000161A84B5806884BDC7BDA7C084B580629B
:100DC00084BDC8BDA2C080918000806880938000EF
:100DD000D0938900C093880098C080918000806281
:100DE00080938000D0938B00C0938A008EC0809146
:100DF0008000886080938000D0938D00C0938C0029
:100E000084C08091B00080688093B000C093B3002C
:100E10007CC08091B00080628093B000C093B40029
:100E200074C080919000806880939000D093990066
:100E3000C09398006AC08091900080628093900077
:100E4000D0939B00C0939A0060C08091900088600E
:100E500080939000D0939D00C0939C0056C08091D9
:100E6000A00080688093A0008091A0008F7B809379
:100E7000A000D093A900C093A80047C08091A00013
:100E800080628093A000D093AB00C093AA003DC0C5
:100E90008091A00088608093A000D093AD00C093A3
:100EA000AC0033C080912001806880932001D093F2
:100EB0002901C093280129C080912001806280937C
:100EC0002001D0932B01C0932A011FC080912001E3
:100ED000886080932001D0932D01C0932C0115C010
:100EE000C038D10514F460E001C061E0812FDF91CA
:100EF000CF911F910F91FF90EF90DF90CF90BF9017
:100F0000AF909F908F900C94D20BDF91CF911F9157
:100F10000F91FF90EF90DF90CF90BF90AF909F9098
:100F20008F9008958EBD00000DB407FEFDCF8EB5E5
:100F30000895CF93DF93EC0160E088810E94D20B8B
:100F400088E90E94920780E00E94920780E00E9458
:100F5000920780E00E94920780E00E94920761E081
:100F600088810E94D20B8BE891E00197F1F760E055
:100F700088810E94D20B80EE0E94920761E08881F6
:100F8000DF91CF910C94D20BAF92BF92CF92DF92B0
:100F9000EF92FF920F931F93CF93DF93CDB7DEB7FE
:100FA00060970FB6F894DEBF0FBECDBF5C0160E066
:100FB000FC0180810E94D20B80E60E9492078E0184
:100FC0000F5F1F4F7E01F1E1EF0EF11C680180E021
:100FD0000E94920790E0A0E0B0E0F6018193919327
:100FE000A193B1936F01EE15FF0589F761E0F5015B
:100FF00080810E94D20B80E090E0DC01F8014191F9
:101000005191619171918F01BA2FA92F982F882743
:10101000840F951FA61FB71FEE15FF0579F79C01DA
:10102000AD0166277727CB01621B730B840B950BF1
:1010300060960FB6F894DEBF0FBECDBFDF91CF91A3
:101040001F910F91FF90EF90DF90CF90BF90AF90E6
:1010500008951F920F920FB60F9211240BB60F92A4
:101060002F933F934F935F936F937F938F939F93B0
:10107000AF93BF93EF93FF938091FE0287FF05C06C
:10108000109285001092840016C02091FE02022E5C
:10109000000C330B8091BD0690E0281739075CF4F3
:1010A0003091FE0225E03203F0011124EF57F94F91
:1010B000808186FD15C08091FE028F5F8093FE02C5
:1010C0002091FE02022E000C330B8091BD0690E0B1
:1010D0002817390794F48091FE028C302CF10DC052
:1010E0003091FE023203F0011124EF57F94F808155
:1010F00060E08F730E94D20BDECF809184009091CC
:10110000850084349C4918F480E49CE905C08091F2
:1011100084009091850004969093890080938800C4
:101120008FEF8093FE022AC0409184005091850089
:101130003091FE0225E03203F0011124EF57F94F00
:1011400081819281840F951F9093890080938800FC
:101150003091FE023203F0011124EF57F94F8081E4
:1011600086FF0CC03091FE023203F0011124EF57CC
:10117000F94F808161E08F730E94D20BFF91EF9154
:10118000BF91AF919F918F917F916F915F914F919F
:101190003F912F910F900BBE0F900FBE0F901F909D
:1011A000189585ED8093BC008091BC0084FDFCCF38
:1011B00010929303089540914803262F30E0240FA6
:1011C000311D21323105DCF4209193032430C9F420
:1011D000FC0180E090E0861758F43091480321919B
:1011E000DC01AA5DBC4FA30FB11D2C930196F3CF78
:1011F00080914803680F6093480380E0089581E080
:10120000089582E00895089508950895E091950362
:1012100080919403E81730F4F0E0EA56FC4F8081A7
:1012200090E008958FEF9FEF08959091950380913E
:101230009403981750F4E92FF0E0EA56FC4F208110
:1012400030E09F5F9093950302C02FEF3FEFC901FD
:1012500008958091940390E020919503821B910959
:101260000895CF92DF92EF92FF920F931F93CF9347
:10127000DF937C01CB018A012091B903222389F0FD
:10128000EB016B01C40ED51ECC15DD0569F069912B
:10129000D701ED91FC910190F081E02DC7011995E6
:1012A000F3CF642F0E94DB08C801DF91CF911F911B
:1012B0000F91FF90EF90DF90CF900895CF93DF9341
:1012C0001F92CDB7DEB769832091B9032223D1F0F5
:1012D0002091B603203240F021E030E0FC0133835E
:1012E000228380E090E015C08091B703E82FF0E002
:1012F000EA5FFC4F998190838F5F8093B70380935F
:10130000B60305C061E0CE0101960E94DB0881E0D2
:1013100090E00F90DF91CF91089590E0FC0131971C
:10132000E231F10508F04EC08827EC57FF4F8F4F90
:101330000C94161A809180008F7703C080918000F2
:101340008F7D80938000089580918000877FF9CF02
:1013500084B58F7702C084B58F7D84BD0895809158
:10136000B0008F7703C08091B0008F7D8093B00074
:101370000895809190008F7707C0809190008F7DB5
:1013800003C080919000877F8093900008958091A2
:10139000A0008F7707C08091A0008F7D03C080914F
:1013A000A000877F8093A0000895809120018F770F
:1013B00007C0809120018F7D03C080912001877F2D
:1013C0008093200108950F931F93CF938C01C62F14
:1013D00064600E94F80D6C2F6B7FC8010E94F80DAD
:1013E00083EC90E00197F1F7CF911F910F91089551
:1013F000FC01A089B1898C91A689B78982FD0FC0B3
:101400009C91818D8F5F8F73228D821749F0218D82
:10141000DF01A20FB11D5D969C93818F08958C9181
:1014200008951F920F920FB60F9211240BB60F92D0
:101430002F933F934F935F936F937F938F939F93DC
:10144000AF93BF93EF93FF938091B900887F80366D
:1014500009F49CC068F5883209F45BC090F48031CF
:1014600009F454C038F4882309F4F6C0883009F42C
:101470004DC0F6C0883109F44CC0803209F45DC01B
:10148000EFC0803409F468C048F4803309F455C0D3
:10149000883309F0E5C080939103D8C0803509F402
:1014A0004FC0883509F45DC0883409F0D9C0D6C072
:1014B000883909F4C7C0A8F4883709F467C038F43C
:1014C000883609F463C0803709F460C0C9C0883821
:1014D00009F4B8C0803909F45FC0803809F0C0C091
:1014E0005BC0803B09F486C038F4803A09F466C0DA
:1014F000883A09F47FC0B4C0803C09F4A7C0883C96
:1015000009F4A4C0883B09F48AC0AAC080918E0364
:1015100010C09091900380918F03981770F5E0911F
:10152000900381E08E0F80939003F0E0E359FC4F2D
:1015300080818093BB0085EC86C0809391038EC030
:10154000E091900381E08E0F809390038091BB0027
:10155000F0E0E359FC4F80839091900380918F03DA
:101560006EC0E091900381E08E0F80939003809194
:10157000BB00F0E0E359FC4F80838091920381111E
:101580006DC081E080938D0384EA61C083E0809325
:10159000930310926C03CFCF80916C03803208F0DC
:1015A00051C0E0916C0381E08E0F80936C038091B9
:1015B000BB00F0E0E45BFC4F8083BDCF85EC809303
:1015C000BC001092930380916C03803230F4E09160
:1015D0006C03F0E0E45BFC4F108260916C0370E000
:1015E000E0914A03F0914B038CE493E0199510923B
:1015F0006C0336C084E080939303109249031092E9
:101600004803E0914603F091470319958091480300
:10161000811105C081E08093480310922603E09178
:10162000490381E08E0F80934903F0E0EA5DFC4FAF
:1016300080818093BB009091490380914803981763
:1016400008F479CF85E88093BC000AC085EC8093CC
:10165000BC001092930304C0109291030E94D10821
:10166000FF91EF91BF91AF919F918F917F916F917A
:101670005F914F913F912F910F900BBE0F900FBE36
:101680000F901F9018953091B603313208F04BC07F
:10169000809193038111FCCF9091B80322E02093B5
:1016A000930321E0209392032FEF20939103109254
:1016B000900330938F03E6E0F3E0ADE6B3E020E083
:1016C000321721F041914D932F5FFACF10928E0384
:1016D00020918E03990F922B90938E0390918D03FE
:1016E000913061F410928D0390918E039093BB0022
:1016F0009091BC0093FDF8CF95EC01C095EE9093CE
:10170000BC00909193039230E1F3909191039F3F3D
:1017100079F080919103803241F080919103803380
:1017200031F084E005C081E003C082E001C083E0C5
:101730001092B7031092B6031092B90308951F9246
:101740000F920FB60F9211240F900FBE0F901F90A3
:101750001895CF93DF93282F30E0F901E152FD4F28
:101760008491F901E756FD4FD491F901ED5AFD4FEF
:10177000C491CC2391F081110E948D09EC2FF0E0EF
:10178000EE0FFF1FE75CFD4FA591B491EC91ED23A7
:1017900081E090E021F480E002C080E090E0DF9101
:1017A000CF9108951F93CF93DF93282F30E0F90155
:1017B000E152FD4F8491F901E756FD4FD491F901B3
:1017C000ED5AFD4FC491CC23C1F0162F81110E9418
:1017D0008D09EC2FF0E0EE0FFF1FE15EFD4FA591AC
:1017E000B4919FB7F894111104C08C91D095D8236F
:1017F00002C0EC91DE2BDC939FBFDF91CF911F9154
:10180000089510929503109294031092B7031092CA
:10181000B6031092930381E08093920310928D039C
:1018200061E084E10E94D20B61E085E10E94D20B6D
:10183000E9EBF0E080818E7F808380818D7F8083E3
:1018400088E48093B80085E48093BC0083E099E04D
:10185000909347038093460384E099E090934B0371
:1018600080934A030895CF93DF9390E0FC01E756FD
:10187000FD4F2491FC01ED5AFD4F8491882361F1C5
:1018800090E0880F991FFC01EB5FFD4FC591D4914B
:10189000FC01E15EFD4FA591B491611109C09FB7B4
:1018A000F8948881209582238883EC912E230BC0A5
:1018B000623061F49FB7F8948881322F309583238A
:1018C0008883EC912E2B2C939FBF06C08FB7F89482
:1018D000E8812E2B28838FBFDF91CF910895863327
:1018E00008F0865390917B00282F2870977F922BC9
:1018F00090937B008770806480937C0080917A0055
:10190000806480937A0080917A0086FDFCCF80917C
:1019100078002091790090E0922B08958F929F9209
:10192000AF92BF92CF92DF92EF92FF926B017C0158
:101930000E940D0E4B015C01C114D104E104F104BD
:10194000F1F00E940D0EDC01CB0188199909AA095A
:10195000BB09883E9340A105B10570F321E0C21A8E
:10196000D108E108F10888EE880E83E0981EA11CDA
:10197000B11CC114D104E104F10419F7DDCFFF90CB
:10198000EF90DF90CF90BF90AF909F908F90089591
:1019900091E09093B90394E79093B8031092B70342
:1019A0001092B603682F8AEB93E00E945E098AEBDF
:1019B00093E00E94430B809193038111FCCF81E05F
:1019C00080939303809392039FEF909391031092DF
:1019D000900310928F0380938E0380918E03886E04
:1019E00080938E0380918D03813061F410928D037A
:1019F00080918E038093BB008091BC0083FDF8CF63
:101A000085EC01C085EE8093BC008091930381300A
:101A1000E1F380919003811103C09091900301C084
:101A200091E0EDE6F3E0A6E9B3E080E0891721F06C
:101A300021912D938F5FFACF109295038093940399
:101A4000811101C0FFCF8AEB93E00E941509089530
:101A5000009769F0FC0101900020E9F73197AF0190
:101A6000481B590BBC0180E095E00C94C80180E054
:101A700090E00895CF93DF930E94280DEC018EE94A
:101A800092E00E94280D8C0F9D1FDF91CF91089549
:101A9000CF93DF93C82F0E94C80CD82F81E08C0F02
:101AA0000E94C80C90E0982F88278D0F911DDF9120
:101AB000CF910895CF93C82F81E08093B90384E735
:101AC0008093B8031092B7031092B6038AEB93E0A9
:101AD0000E945E096C2F8AEB93E00E945E098AEBFC
:101AE00093E0CF910C94430B60E081E00E945A0D8B
:101AF00080E00E94C80C8111FBCF08950F931F93C3
:101B0000CF93611590E1790774F48B01C82F682F8A
:101B1000802F0E945A0D61E06C0F812FCF911F9191
:101B20000F910C945A0DCF911F910F910895E0E001
:101B3000F5E0A089B18982E08C93A485B5851C92DB
:101B4000A685B7858FEC8C93108EA489B58986E025
:101B50008C93A289B3898C9180618C93A289B3897B
:101B60008C9188608C93A289B3898C9180688C93C6
:101B70000288F389E02D80818F7D808308950F9303
:101B80001F93CF93DF93162F072FC5ECD6E09C85CC
:101B900021E02093B9039093B8031092B7031092F9
:101BA000B603AA85BB85ED91FC9111970190F08158
:101BB000E02D682FCD0119958A859B85DC01ED917B
:101BC000FC910190F081E02D602F19958A859B850D
:101BD000DC01ED91FC910190F081E02D612F1995D0
:101BE0008A859B85DF91CF911F910F910C94430BB8
:101BF000FC01248131E03093B9032093B8031092A3
:101C0000B7031092B6038485682B8AEB93E00E9499
:101C10005E098AEB93E00C94430B3FB7F8948091F4
:101C2000C3079091C407A091C507B091C60726B518
:101C3000A89B05C02F3F19F00196A11DB11D3FBF04
:101C4000BA2FA92F982F8827820F911DA11DB11D92
:101C5000BC01CD0142E0660F771F881F991F4A958E
:101C6000D1F708951F920F920FB60F9211242F9360
:101C70003F938F939F93AF93BF938091BF079091B2
:101C8000C007A091C107B091C2073091BE0723E001
:101C9000230F2D3720F40196A11DB11D05C026E8A4
:101CA000230F0296A11DB11D2093BE078093BF078D
:101CB0009093C007A093C107B093C2078091C30758
:101CC0009091C407A091C507B091C6070196A11DC8
:101CD000B11D8093C3079093C407A093C507B09329
:101CE000C607BF91AF919F918F913F912F910F9018
:101CF0000FBE0F901F901895CF93DF93CDB7DEB72F
:101D0000C656D1090FB6F894DEBF0FBECDBF78948A
:101D100084B5826084BD84B5816084BD85B58260F0
:101D200085BD85B5816085BD80916E0081608093A1
:101D30006E0010928100809181008260809381000A
:101D4000809181008160809381008091800081601A
:101D5000809380008091B10084608093B100809175
:101D6000B00081608093B000809191008260809388
:101D7000910080919100816080939100809190000A
:101D80008160809390008091A10082608093A10087
:101D90008091A10081608093A1008091A00081606A
:101DA0008093A00080912101826080932101809125
:101DB00021018160809321018091200181608093C5
:101DC000200180917A00846080937A0080917A006B
:101DD000826080937A0080917A00816080937A009B
:101DE00080917A00806880937A001092C1000E94EE
:101DF000970D61E08091C6060E94330C60E08091EF
:101E0000C6060E94D20B60E08091C5060E94330C8A
:101E10008AEB93E09093D0068093CF060E94010C4A
:101E200080E090E1A0E0B0E08093D2069093D306EA
:101E3000A093D406B093D5068AE090E0A0E0B0E08D
:101E40008093D6069093D706A093D806B093D90670
:101E500080E090E0A0E0B0E48093DA069093DB06A7
:101E6000A093DC06B093DD0660E070E185E00E949F
:101E7000BF0D6FE979E380E00E94BF0D05EC16E02D
:101E80007801B2E05B2E88E8682E82E0782E9EEC26
:101E9000892E92E0992E2BECC22E27E0D22ED7016C
:101EA00014969C91149712968C91F801818F928FC1
:101EB00061E00E94330C61E0D8015A968C910E9437
:101EC000330CF701908586815801FDE1AF0EB11CFE
:101ED000D8015D968C935D975E969C9361E00E941D
:101EE000330C60E0F801868D0E94330C61E0D8016C
:101EF0005D968C910E94D20B4FB6F8948091E402CB
:101F0000811126C0F3018491F4012491E82FF0E0BF
:101F1000EE0FFF1FEB5FFD4FA591B4919C91822FB7
:101F2000892321F461E085E30E94D20B61E085E31F
:101F30000E94330C8CB580618CBD8CB580648CBDE7
:101F400061E084E30E94330C61E083E30E94330C80
:101F50008091E4028F5F8093E4024FBEC601019737
:101F6000F1F760E0D8015D968C910E94D20B88E871
:101F70000E94920783E00E94920761E0F801858D3C
:101F80000E94D20BC6010197F1F7C5010E94990783
:101F90005A94FFEFEF1AFF0A0E5F1F4F51107FCFC9
:101FA0007AEEE72E76E0F72E0EEE16E060E0D7012F
:101FB0008D917D010E94330C0E151F05B9F726EE99
:101FC000E22E26E0F22E30EFC32E36E0D32E45E08F
:101FD000B42E5CE0952E62E0A62EF80181908F0170
:101FE00087818C3008F048C061E0882D0E94330C56
:101FF000D80117968C91B89EF0011124EF57F94F34
:10200000982D9F732081207C822E892A80821382C2
:102010001482692D0E940A1ABCE08B9FA001112432
:1020200020E030E0BA01620F731FB69EF001B79E48
:10203000F00D1124EF57F94F908196FD12C02F5FDC
:102040003F4F2C30310571F781110BC01092800089
:10205000A09281001092850010928400A6BAA092EE
:102060006F00D8011796EC91BE9EF0011124EF5736
:10207000F94F808180648083F80195818381D70145
:1020800052968C93529753969C9360E00E94330C27
:1020900061E0F70183890E94330C60E0D701539619
:1020A0008C910E94D20BB2E0EB0EF11CC016D1064F
:1020B00009F093CFF8941092200109E000932101D8
:1020C00080E293E0909329018093280110922501EA
:1020D0001092240112E01093730078941093AF05CE
:1020E0001092B3058091B00560E00E94330C0E940D
:1020F000970D0E94970D8FE392E00E94280D61E0FA
:1021000080919D050E94330C8AEB93E00E94010CA4
:1021100061E070E080E090E00E948E0C84E492E048
:102120000E94280D00939F050093A0051093A10520
:1021300085E08093A2058AE492E00E94280D80E069
:1021400098E09093A4058093A3059093A6058093AF
:10215000A5059093A8058093A7059093AA05809361
:10216000A90587E592E00E94280D80919F0566E011
:102170008F700E945A0D82E692E00E94280D809195
:10218000A00567E08F700E945A0D8091A10568E05C
:102190008F700E945A0D8091A20569E08F700E9495
:1021A0005A0D87E692E00E94280D6AE08091A3050F
:1021B0000E945A0D8091A3059091A4059F716BE038
:1021C000892F0E945A0D6EE08091A7050E945A0D3A
:1021D0008091A7059091A8059F716FE0892F0E94BB
:1021E0005A0D6CE08091A5050E945A0D8091A505BD
:1021F0009091A6059F716DE0892F0E945A0D60E1B4
:102200008091A9050E945A0D8091A9059091AA0577
:102210009F7161E1892F0E945A0D8FE692E00E9422
:102220003A0D61E080919D050E94D20B8EE792E00D
:102230000E943A0D62E070E080E090E00E948E0C17
:1022400084E892E00E943A0DE12CF12CC12C90E13F
:10225000D92E86010E191F0917FF02C00F5F1F4FED
:10226000159507950E0D1F1D0E151F05D9F1B80107
:102270008AE090E00E947E0DB8018CE090E00E9420
:102280007E0DB8018EE090E00E947E0D0E94740DDC
:1022900080E40E94480D97FD05C080E40E94480D2F
:1022A0005C0102C0A12CB12C82E40E94480D8A1569
:1022B0009B0524F082E40E94480D5C0184E40E94A6
:1022C000480D8A159B0524F084E40E94480D5C01AA
:1022D000E9EEAE16E3E0BE0674F5F8EEAF16F3E0F5
:1022E000BF0659F583EC92E00E943A0DE12CF12CE7
:1022F000C12C90E1D92E86010E191F0917FF02C0CB
:102300000F5F1F4F159507950E0D1F1D0E151F050D
:10231000D1F0B80180E190E00E947E0D0E94740D22
:1023200086E40E94480D893E23E0920744F4883EEB
:10233000934039F408C06801870178018ACF6801A9
:1023400087017801D8CF89EC92E00E943A0D88E8A5
:10235000282E83E1382E412C512C612C712CA12C7C
:10236000B12C66E08A2D0E945A0D67E0862D0E94EE
:102370005A0D68E0842D0E945A0D8AE00E94480D93
:102380008C01BC018AE090E00E947E0DB8018CE0D7
:1023900090E00E947E0DB8018EE090E00E947E0DDC
:1023A000A4E08A2E912CC12CD12C00E010E0E12C6D
:1023B000F12C0E94740D80E40E94480DE80EF91E75
:1023C00082E40E94480D080F191F84E40E94480D02
:1023D000C80ED91E41E0841A910859F7F7FE03C0D0
:1023E00053E0E50EF11CF594E794F594E79417FF9C
:1023F00002C00D5F1F4F1595079515950795D7FEE0
:1024000003C063E0C60ED11CD594C794D594C7947D
:102410003E2D2F2DE016F10614F4302F212F832F9F
:10242000922F97FF02C080E090E09601C816D9066F
:102430000CF49C015E2D4F2D0E151F0514F4502F2A
:10244000412F852F942F8130A0E19A0714F080E06E
:1024500090E1A6018C159D050CF4AC01C901841B0B
:10246000950B8215930511F1E216F30641F4BFE0D6
:10247000AB16B10424F4EFEFAE1ABE0A15C0021772
:10248000130741F4FFE06F16710424F42FEF621A72
:10249000720A0AC0C216D30639F43FE0431651044B
:1024A0001CF44FEF441A540A1C015BCF8FEC92E0EE
:1024B0000E943A0D85ED92E00E943A0D8AE892E082
:1024C0000E943A0D8091ED060E94A90B892B09F418
:1024D00055C268EE73E080E090E00E948E0C8FE8B9
:1024E00092E00E943A0D8DE30E946F0C8CE30E94F3
:1024F0006F0C8BE30E946F0C8AE30E946F0C86E3E3
:102500000E946F0C87E30E946F0C88E30E946F0C9F
:1025100089E30E946F0C1AA21EA21AA61EA61AAA6E
:102520001BAA1CAA1DAAA12CB12CC12CD12CE12CB8
:10253000F12C00E010E00E94D204892B09F027C2A0
:102540008091ED060E94A90B892B09F020C2B0C230
:102550002DEC3CEC4CE45EE3C301B2010E94A91BEC
:1025600018160CF467C284EE96E00E94C4076B0153
:102570007C01FF0CCC08DC2C76019B01AC016C2D9E
:102580007C2D8C2D9C2DAFAC2196BFAC2197229633
:10259000CFAC22972396DFAC23972496EFAC2497F9
:1025A0002596FFAC259726960FAD269727961FAD4B
:1025B00027970E942E1A60962FAF609761963FAFC3
:1025C000619762964FAF629763965FAF6397649629
:1025D0006FAF649765967FAF659766968FAF669786
:1025E00067969FAF67972FAF21963FAF21972296AF
:1025F0004FAF229723965FAF239724966FAF249710
:1026000025967FAF259726968FAF269727969FAF63
:10261000279782EE96E00E94C4076B966CAF7DAF61
:102620008EAF9FAF6B9782EE96E00E94C4076B015E
:102630007C0184EE96E00E94C407002711279801D0
:102640000C191D092E093F0968017901C61AD70A1C
:10265000E80AF90AD701C601FF0CCC08DC2C760188
:102660009C01AD016C2D7C2D8C2D9C2D2896AFAC42
:1026700028972996BFAC29972A96CFAC2A972B96F4
:10268000DFAC2B972C96EFAC2C972D96FFAC2D97AB
:102690002E960FAD2E972F961FAD2F970E94371AAB
:1026A0006C962FAF6C976D963FAF6D976E964FAF50
:1026B0006E976F965FAF6F97A0966FAFA097A1963A
:1026C0007FAFA197A2968FAFA297A3969FAFA39734
:1026D00082EE96E00E94C4076B017C0184EE96E0D6
:1026E0000E94C407F094E094D094C094C11CD11C03
:1026F000E11CF11CA7019601261B370B480B590B57
:102700002AA33BA34CA35DA33AA128963FAF2897E9
:102710004BA129964FAF29975CA12A965FAF2A97C4
:102720006DA12B966FAF2B978AA19BA1ACA1BDA1E8
:10273000BB0F880B982FDC018EA39FA3A8A7B9A776
:102740009EA12C969FAF2C972D969FAF2D972E96DE
:102750009FAF2E972F969FAF2F976AA17BA18CA139
:102760009DA10E94CB186EA77FA788AB99AB20E0F4
:1027700030E0A90160E070E088EC91EC0E94AD1AB5
:102780009B01AC016EA57FA588A999A90E94A91BF0
:1027900018160CF463C12AA93BA94CA95DA9B10183
:1027A000C4010E94551B20E030E0A9010E942A19B3
:1027B0006B017C0127E137EB41ED58E36EA57FA566
:1027C00088A999A90E942A199B01AC01C701B601E9
:1027D0000E94411A6B017C016C962FAD6C976D962F
:1027E0003FAD6D976E964FAD6E976F965FAD6F97DD
:1027F000A0966FADA097A1967FADA197A2968FAD41
:10280000A297A3969FADA3970E94551B20E030E0AE
:10281000A9010E942A199B01AC01C701B6010E94BF
:10282000411A9B01AC016AA57BA58CA59DA50E94C0
:10283000411A6AA77BA78CA79DA7A7964CAD5DAD53
:102840006EAD7FADA79780EE96E00E9478064AA510
:102850005BA56CA57DA5705880EE96E00E94780679
:1028600084EE96E00E94990782EE96E00E94990716
:1028700081EA92E00E943A0D6AE070E080E090E028
:102880000E948E0C60962FAD609761963FAD619768
:1028900062964FAD629763965FAD639764966FAD36
:1028A000649765967FAD659766968FAD66976796D8
:1028B0009FAD67972232374141055105610571058A
:1028C0008105910509F0B4F56B968CAD9DADAEAD6B
:1028D000BFAD6B97B095A095909581959F4FAF4FE9
:1028E000BF4F6C017D01FF0CCC08DC2C76019C01F4
:1028F000AD016C2D7C2D8C2D9C2DAEA8B8ACC9AC37
:10290000DAACEBACFCAC0DAD1EAD0E942E1A2EABBA
:1029100038AF49AF5AAF6BAF7CAF8DAF9EAF2232AD
:10292000374141055105610571058105910509F0A2
:102930000CF40ECE40E050E060E070E880EE96E0EF
:102940000E94780640E050E0BA018EED96E00E94C9
:10295000780640E050E0BA018EED96E00E947806DD
:1029600040E050E060E070E880EE96E00E9478067B
:1029700068EE73E080E090E00E948E0C6AE070E008
:1029800080E090E00E948E0C0E94E10297CD8CEADC
:1029900092E00E943A0D84EE96E00E94990782EE42
:1029A00096E00E9499071EAA18AE19AE1AAE1BAE89
:1029B0001CAE1DAE1EAE412C512C612C2FE3722E8D
:1029C0004AA65BA66CA67DA61AAA1BAA1CAA1DAACB
:1029D000212C312C812C912C1FAE21961FAE2197DA
:1029E00022961FAE229723961FAE239724961FAEE2
:1029F000249725961FAE259726961FAE26972796D5
:102A00001FAE279728961FAE289729961FAE2997A5
:102A10002A961FAE2A972B961FAE2B972C961FAE89
:102A20002C972D961FAE2D972E961FAE2E972F9674
:102A30001FAE2F9727E137EB41ED58E3C301B201F9
:102A40000E94401A2B013C019B01AC015058A796F3
:102A50002CAF3DAF4EAF5FAFA79785CD20E030E004
:102A6000A90160E070E088EC91E40E94AD1A9B013E
:102A7000AC016EA57FA588A999A90E94C41887FFFB
:102A80008ACE2AA93BA94CA95DA9B101C401AAA07B
:102A9000BBA0CCA0DDA0EEA0FE2C0E2D1E2D0E9412
:102AA0002E1A2AAB3BAB4CAB5DAB1B014C0173CE7A
:102AB00089EB92E00E94280D0E94D2042C01990F0C
:102AC0006608770877FE22C06DE280E095E00E94FC
:102AD0006F0222273327A90124193509460957090E
:102AE00019A2CE0181964C01CA01B9012AE030E059
:102AF00040E050E00E94E819605DD4016E934D0102
:102B0000211531054105510579F717C0A30192013F
:102B100019A2FE01B1964F01CA01B9012AE030E0C5
:102B200040E050E00E94E819605DD4016E934D01D1
:102B3000211531054105510579F7C4010E94280D81
:102B40008EE992E00E94280D8CE30E946F0C3C01FC
:102B50008BE30E946F0C4C018AE30E946F0C1C01F6
:102B600089E30E946F0C9FAB8EAB88E30E946F0CD1
:102B70002C0187E30E946F0CB4E1B69DA001B79DC4
:102B8000500D1124EAE0E89D9001E99D300D1124DB
:102B9000240F351F220E331EE49D9001E59D300D5C
:102BA00011244EA95FA9240F351FE4E1DC01EA9F3F
:102BB000C001EB9F900D1124820F931F281A390A30
:102BC000932C990C99089101492D592D692D792D36
:102BD000892D992D0E94371A2EAB38AF842E59AF0C
:102BE0006AAF7BAF8CAF9DAFB101032C000C880B9B
:102BF000990B0E94CB182B013C0120E23CEB4EEBE1
:102C00005BEC0E94A91B181654F020E23CEB4EEB43
:102C10005BE4C301B2010E94C41887FF19C091018F
:102C2000492D592D692D792D892D992DAAA0BEA048
:102C3000CAA4DEA4EAA8FBA80CA91DA90E942E1A0A
:102C40002AA33EA34AA75EA76AAB7BAB8CAB9DAB26
:102C50002AA13EA14AA55EA56AA97BA98CA99DA926
:102C60000E94551B2DEB37E346E855E30E942A19D5
:102C70006B017C0127E137EB41ED58E3C301B20161
:102C80000E942A199B01AC01C701B6010E94411A9A
:102C90006B017C012EA938AD482D59AD6AAD7BADD5
:102CA0008CAD9DAD0E94551B27E137EB41ED58E3FC
:102CB0000E942A199B01AC01C701B6010E94411A6A
:102CC0006B017C019101492D592D692D792D892D9B
:102CD000992D0E941E1A0E94551B27E137EB41EDEA
:102CE00058E30E942A192B013C012AA13EA14AA5C2
:102CF0005EA56AA97BA98CA99DA90E941E1A0E94A3
:102D0000551B2DEB37E346E855E30E942A199B013A
:102D1000AC01C301B2010E94411A2B013C012EA952
:102D200038AD482D59AD6AAD7BAD8CAD9DAD0E94DF
:102D30001E1A0E94551B27E137EB41ED58E30E9414
:102D40002A199B01AC01C301B2010E94411A20E083
:102D500030E040E05FE30E94411AAB01BC018EED20
:102D600096E00E94780620E030E040E05FE3C70193
:102D7000B6010E94411AAB01BC01705880EE96E08A
:102D80000E9478066AE070E080E090E00E948E0C7D
:102D90005101C92CD92CE92CF92C092D192DCBCB9B
:102DA0008091BE069091BF060C94461C1092BD0304
:102DB0001092BC0388EE93E0A0E0B0E08093BE03E5
:102DC0009093BF03A093C003B093C10323E132E00B
:102DD0003093BB032093BA031092C9031092C80327
:102DE0008093CA039093CB03A093CC03B093CD03FD
:102DF00025E232E03093C7032093C60345E351E058
:102E00005093D3034093D20344E351E05093D5034E
:102E10004093D40340E351E05093D7034093D6034B
:102E200041E351E05093D9034093D80342E351E08A
:102E30005093DB034093DA0346E351E05093DD0304
:102E40004093DC031092DF031092E0031092E10341
:102E50001092E20310926604109265048093670456
:102E600090936804A0936904B0936A043093640457
:102E70002093630445ED50E05093700440936F0439
:102E800044ED50E0509372044093710440ED50E0E3
:102E9000509374044093730441ED50E050937604D2
:102EA0004093750442ED50E05093780440937704CA
:102EB00046ED50E050937A044093790410927C04DC
:102EC00010927D0410927E0410927F0410920305EC
:102ED000109202058093040590930505A0930605C2
:102EE000B0930705309301052093000585EC90E031
:102EF00090930D0580930C0584EC90E090930F0562
:102F000080930E0580EC90E090931105809310055E
:102F100081EC90E0909313058093120582EC90E091
:102F2000909315058093140586EC90E09093170517
:102F3000809316051092190510921A0510921B0520
:102F400010921C0582E090E090939E0580939D0571
:102F50008091070290910802A0910902B0910A02A3
:102F60008093E6069093E706A093E806B093E906FF
:102F700080910B0290910C02A0910D02B0910E0273
:102F80008093EA069093EB06A093EC06B093ED06CF
:102F900084E08093EE0687E08093EF061092F006BF
:102FA00084EB8093F10686E18093F20688E18093BA
:102FB000F30687E18093F40689E18093F506E091BA
:102FC000BD06EC3020F08FEF8093F60610C081E054
:102FD0008E0F8093BD06E093F60685E0E89FF00132
:102FE0001124EF57F94F88EB9BE092838183E091A6
:102FF000BD06EC3020F08FEF8093F70610C081E023
:103000008E0F8093BD06E093F70685E0E89FF00100
:103010001124EF57F94F88EB9BE0928381838CE07A
:103020008093C50684E28093C60686E08093C70637
:1030300085E08093C8068FE18093C9068EE1809376
:10304000CA0683E28093CB0682E28093CC0685E4B5
:103050008093CD0684E48093CE0680E48093D106ED
:103060001092D6061092D7061092D8061092D90662
:103070001092DA061092DB061092DC061092DD0642
:10308000E0E0F7E02EEB37E08FEF9FEFDC011282FC
:103090001382148215821682178210861186838706
:1030A0009487A587B6878787908BA18BB28B128672
:1030B0001182108273962E173F0749F78DE090E03A
:1030C0000E94AE1BFC011382128287E392E091837F
:1030D0008083118687E2848384E1828784E083870A
:1030E0001486F093FD06E093FC061092FE06109203
:1030F000FF0685E28093B0051092B2051092BF06DC
:103100001092BE061092C1061092C0061092C3061D
:103110001092C20661E070E080E090E00E94CF1C57
:10312000009789F09093BF068093BE061092C10667
:103130001092C0062091C2063091C306232BC1F421
:10314000FC01108215C08091BE069091BF060097C9
:1031500011F00E94461C1092BF061092BE061092FB
:10316000C3061092C2061092C1061092C0060895BE
:103170001092C3061092C20660EA72E08091BE0609
:103180009091BF060C94C21D0E94061908F481E0BC
:103190000895E89409C097FB3EF49095809570954A
:1031A00061957F4F8F4F9F4F9923A9F0F92F96E993
:1031B000BB279395F695879577956795B795F11108
:1031C000F8CFFAF4BB0F11F460FF1BC06F5F7F4FA5
:1031D0008F4F9F4F16C0882311F096E911C07723B7
:1031E00021F09EE8872F762F05C0662371F096E8C0
:1031F000862F70E060E02AF09A95660F771F881F8F
:10320000DAF7880F9695879597F90895990F000832
:10321000550FAA0BE0E8FEEF16161706E807F907A8
:10322000C0F012161306E407F50798F0621B730B43
:10323000840B950B39F40A2661F0232B242B252BC4
:1032400021F408950A2609F4A140A6958FEF811D67
:10325000811D08950E943D190C94AE190E94A01979
:1032600038F00E94A71920F0952311F00C949719BB
:103270000C949D1911240C94E2190E94BF1970F34B
:10328000959FC1F3950F50E0551F629FF001729F0B
:10329000BB27F00DB11D639FAA27F00DB11DAA1F1A
:1032A000649F6627B00DA11D661F829F2227B00D67
:1032B000A11D621F739FB00DA11D621F839FA00DF2
:1032C000611D221F749F3327A00D611D231F849F42
:1032D000600D211D822F762F6A2F11249F57504099
:1032E0009AF0F1F088234AF0EE0FFF1FBB1F661F14
:1032F000771F881F91505040A9F79E3F510580F0DD
:103300000C9497190C94E2195F3FE4F3983ED4F3C0
:10331000869577956795B795F795E7959F5FC1F780
:10332000FE2B880F911D9695879597F9089597F92B
:103330009F6780E870E060E008959FEF80EC08955B
:1033400000240A9416161706180609060895002484
:103350000A9412161306140605060895092E0394FE
:10336000000C11F4882352F0BB0F40F4BF2B11F472
:1033700060FF04C06F5F7F4F8F4F9F4F089557FDD1
:103380009058440F551F59F05F3F71F04795880FD3
:1033900097FB991F61F09F3F79F08795089512166A
:1033A00013061406551FF2CF4695F1DF08C0161616
:1033B00017061806991FF1CF8695710561050894C7
:1033C0000895E894BB2766277727CB0197F90895DE
:1033D000A1E21A2EAA1BBB1BFD010DC0AA1FBB1F19
:1033E000EE1FFF1FA217B307E407F50720F0A21B8B
:1033F000B30BE40BF50B661F771F881F991F1A94F8
:1034000069F760957095809590959B01AC01BD0121
:10341000CF010895991B79E004C0991F961708F011
:10342000961B881F7A95C9F780950895EE0FFF1FA8
:10343000881F8BBF0790F691E02D199460957095C9
:103440008095909530954095509521953F4F4F4FE1
:103450005F4F6F4F7F4F8F4F9F4F08952A0D3B1D3A
:103460004C1D5D1D6E1D7F1D801F911F08952A1923
:103470003B094C095D096E097F09800B910B08958A
:103480005058BB27AA270E94581A0C94AE190E94C4
:10349000A01938F00E94A71920F039F49F3F19F4C1
:1034A00026F40C949D190EF4E095E7FB0C94971903
:1034B000E92F0E94BF1958F3BA17620773078407F0
:1034C000950720F079F4A6F50C94E1190EF4E09537
:1034D0000B2EBA2FA02D0B01B90190010C01CA01CE
:1034E000A0011124FF27591B99F0593F50F4503E79
:1034F00068F11A16F040A22F232F342F4427585F6B
:10350000F3CF469537952795A795F0405395C9F782
:103510007EF41F16BA0B620B730B840BBAF091503A
:10352000A1F0FF0FBB1F661F771F881FC2F70EC0D9
:10353000BA0F621F731F841F48F4879577956795AC
:10354000B795F7959E3F08F0B0CF9395880F08F098
:103550009927EE0F9795879508950E94C11A0C94AC
:10356000AE190E94A71958F00E94A01940F029F442
:103570005F3F29F00C94971951110C94E2190C94A7
:103580009D190E94BF1968F39923B1F3552391F354
:10359000951B550BBB27AA2762177307840738F0C2
:1035A0009F5F5F4F220F331F441FAA1FA9F335D01F
:1035B0000E2E3AF0E0E832D091505040E695001CD3
:1035C000CAF72BD0FE2F29D0660F771F881FBB1F8D
:1035D000261737074807AB07B0E809F0BB0B802D6B
:1035E000BF01FF2793585F4F3AF09E3F510578F097
:1035F0000C9497190C94E2195F3FE4F3983ED4F3CE
:10360000869577956795B795F7959F5FC9F7880F6A
:10361000911D9695879597F90895E1E0660F771FBC
:10362000881FBB1F621773078407BA0720F0621B4D
:10363000730B840BBA0BEE1F88F7E09508950E9478
:10364000261B6894B1110C94E21908950E94C719C1
:1036500088F09F5798F0B92F9927B751B0F0E1F053
:10366000660F771F881F991F1AF0BA95C9F714C003
:10367000B13091F00E94E119B1E008950C94E11984
:10368000672F782F8827B85F39F0B93FCCF386953C
:1036900077956795B395D9F73EF490958095709599
:1036A00061957F4F8F4F9F4F089597FB16F40E94AF
:1036B000991B0C945C1BE894F92F96EBFF2381F087
:1036C000121613061406440B9395F6958795779575
:1036D000679557954040FF23B9F71BC09927089578
:1036E000882351F49850D2F7872B762F652F542FCB
:1036F000432F322F20E0B1F3121613061406440BA9
:1037000088233AF09A95440F551F661F771F881F2C
:10371000CAF755234AF4440F551F11F460FF04C043
:103720006F5F7F4F8F4F9F4F880F9695879597F9C3
:103730000895909580957095609550954095309539
:1037400021953F4F4F4F5F4F6F4F7F4F8F4F9F4F91
:1037500008950E94061908F48FEF08950F931F93A0
:10376000CF93DF938230910510F482E090E0E091F6
:10377000C907F091CA0720E030E0A0E0B0E0309740
:1037800019F1408151810281138148175907C8F00E
:103790008417950769F4109731F012960C931297DD
:1037A00013961C9327C00093C9071093CA0722C021
:1037B0002115310519F04217530718F49A01BD017C
:1037C000EF01DF01F801DBCF21153105F9F0281BEE
:1037D000390B2430310580F48A819B816115710594
:1037E00021F0FB019383828304C09093CA078093E6
:1037F000C907FE01329644C0FE01E20FF31F819318
:10380000919322503109398328833AC02091C70708
:103810003091C807232B41F4209103023091040218
:103820003093C8072093C70720910102309102020C
:103830002115310541F42DB73EB740910502509155
:103840000602241B350BE091C707F091C807E21769
:10385000F307A0F42E1B3F0B2817390778F0AC01B3
:103860004E5F5F4F2417350748F04E0F5F1F509390
:10387000C8074093C7078193919302C0E0E0F0E04E
:10388000CF01DF91CF911F910F910895CF93DF93D7
:10389000009709F481C0FC01329713821282A09133
:1038A000C907B091CA07109781F420813181820F36
:1038B000931F2091C7073091C8072817390751F582
:1038C000F093C807E093C70767C0ED0120E030E040
:1038D000CE17DF0740F44A815B819E0141155105F7
:1038E000F1F0EA01F5CFD383C28340815181840F87
:1038F000951FC817D90759F488819981840F951F9E
:103900000296918380838A819B8193838283211590
:10391000310529F4F093CA07E093C9073DC0E901D6
:10392000FB83EA8349915991C40FD51FEC17FD071A
:1039300061F480819181840F951F0296E90199833A
:103940008883828193819B838A83E0E0F0E01296F2
:103950008D919C911397009719F0FD01DC01F7CF31
:103960008D919C9111979D012E5F3F4F820F931F68
:103970002091C7073091C8072817390769F4309795
:1039800029F41092CA071092C90702C0138212824A
:10399000B093C807A093C707DF91CF9108956F92A6
:1039A0007F928F929F92AF92BF92CF92DF92EF92CF
:1039B000FF920F931F93CF93DF93009789F4CB016E
:1039C000DF91CF911F910F91FF90EF90DF90CF90FB
:1039D000BF90AF909F908F907F906F900C94AE1B94
:1039E000FC01E60FF71F9C0122503109E217F30793
:1039F00008F4A9C0EC01D9010D911C91119706178B
:103A00001707B0F00530110508F49BC0C8010497F2
:103A10008617970708F495C002501109061B170B6B
:103A2000019311936D937C93CF010E94461C89C032
:103A30005B01A01AB10A4C01800E911EA091C9072A
:103A4000B091CA07612C712CE12CF12C109709F46C
:103A500046C08D919C911197A815B905B1F56C01DF
:103A600042E0C40ED11CCA14DB0478F14C018A1860
:103A70009B08640142E0C40ED11C1296BC901297C0
:103A80001396AC91B5E0CB16D10440F0B282A3837B
:103A900091828082D9016D937C9309C00E5F1F4F84
:103AA000800F911FF90191838083EB2DFA2FE11490
:103AB000F10431F0D7011396FC93EE93129741C0B5
:103AC000F093CA07E093C9073CC06816790608F46A
:103AD0003C017D0112960D90BC91A02DB7CF809135
:103AE000C7079091C80788169906E1F4661677060D
:103AF000C8F48091010290910202009741F48DB7C1
:103B00009EB74091050250910602841B950BE81761
:103B1000F907C8F4F093C807E093C707F901718368
:103B200060830FC0CB010E94AE1B7C01009759F04F
:103B3000A801BE010E94B91DCE010E94461CC7010A
:103B400004C0CE0102C080E090E0DF91CF911F91D0
:103B50000F91FF90EF90DF90CF90BF90AF909F902C
:103B60008F907F906F90089581E090E0F8940C948E
:103B7000C91DFB01DC0102C001900D924150504073
:103B8000D8F70895FB01DC0101900D920020E1F7C8
:103B9000089511E0C4E9D1E000E006C0802FFE01E5
:103BA0000E94161A2196011DC539D10780E0080729
:063BB000A9F7F894FFCF15
:103BB600FF0000CB072000363738391B1D1A1C00C2
:103BC6000000005E0931090F0305092909150906D8
:103BD60009000000006F02C801F201BC02230201C5
:103BE600021502000000001403C8010F030E03694A
:103BF6006E69740020776972650020436F6C6F727E
:103C06002043617065640020436F6C6F7220696E9B
:103C16007400205265640020436170706564002062
:103C2600436F6D706C65746520494E4954006C6530
:103C3600646F6E0064656C6179006D61696E007217
:103C4600656E7472652063617074657572000D0A25
:103C56000064616E7320646563656C0072656E74E2
:103C6600726520646563656C00636F756C6575725B
:103C76003A2000636F6C6F7200636C65617200635B
:103C8600617061630066696E2063616C696272616E
:043C96007465000051
:00000001FF
