:100000000C9495010C94C6010C94C6010C94C60185
:100010000C94C6010C94C6010C94C6010C94C60144
:100020000C94C6010C948D0E0C948D0E0C948D0EB8
:100030000C94C6010C94380A0C94C6010C94C601A9
:100040000C94C6010C94BE040C94C6010C94C60119
:100050000C94C6010C94C6010C94C6010C94EE09D4
:100060000C94C6010C94A70B0C947D0B0C94C60148
:100070000C94C6010C94C6010C94C6010C94C601E4
:100080000C94C6010C94C6010C94C6010C94C601D4
:100090000C94C6010C94C6010C94C6010C945B0D23
:1000A0000C94C6010C94C6010C94C6010C94C601B4
:1000B0000C94C6010C94C6010C94C6010C946903FF
:1000C0000C94C6010C94C6010C94C6010C94530BFD
:1000D0000C94290B0C94C6010C94FF0A0C94D50ABD
:1000E0000C94C60169026E0273027D02870200034E
:1000F00091029902A102AB02B502BF02CE02D80260
:100100000003E202EC02F602A80CAB0C9A0C9E0C67
:10011000A40CE20CAF0CB30CB90CBD0CC10CC70C99
:10012000CB0CCF0CE20CD50CD90CDD0C0C94BF021F
:100130000C94A7090C94B90C0C9473020C942C0920
:100140000C94EC020C94AF0C0C94E20C0C945E0C2E
:100150000C94310C0C9422030C949A0C0C94D50C36
:100160000C9487020C94CF0C0C9469020C949902A5
:100170000C94030C0C94A80C0C946E020C945A0969
:100180000C94A40C0C9418090C94DD0C0C94D90C50
:100190000C94A1020C947D020C94C8010C949E0C4A
:1001A0000C94DF080C94AB020C94CB0C0C94CE0294
:1001B0000C94B30C0C94C10C0C9409090C94B5026A
:1001C0000C9491020C94050C0C94060C0C94E20215
:1001D0000C9404020C94F6020C94C70C0C94BD0C05
:1001E0000C9441110C9400030C94AB0C0C94150C62
:1001F0000C94C6130C94040C0C94D8020C94290C87
:100200000C9405020200002100240027002A002D82
:10021000003000330001010000040107010A010061
:10022000002200250028002B002E0031003400029F
:10023000010000050108010B010000200023002639
:100240000029002C002F00320000010000030106ED
:10025000010901050505050705080808080202024D
:10026000020A0A0808040404040101010101010151
:10027000010303030303030303040707070C0C0C28
:100280000C0C0C0C0C020202020606060606060600
:10029000060B0B0B0B0B0B0B0B010210202008089D
:1002A00010204010204080020102010804020101D8
:1002B00002040810204080804020100804020180C1
:1002C0000402018040201008040201080402010118
:1002D0000204081020408001020408102040800021
:1002E000000A0B02090C0D0E0807030401000000B0
:1002F00000000000000000000000000000000000FE
:1003000000000000000000000000001211100000BA
:1003100000000000000000000000000000000000DD
:10032000000000000000C613411111241FBECFEFD2
:10033000D1E2DEBFCDBF00E00CBF12E0A0E0B2E032
:10034000E4EDF4E300E00BBF02C007900D92A83982
:10035000B107D9F727E0A8E9B2E001C01D92AD3698
:10036000B207E1F711E0C4E9D1E000E006C021974F
:100370000109802FFE010E940F17C339D10780E0C9
:100380000807A9F70E9447110C94581A0C94000012
:10039000FC01918D228D892F90E0805C9F4F821B04
:1003A00091098F7399270895E0E0F0E0199480E0B7
:1003B00090E0892B21F00E945009811119C080E042
:1003C00090E0892B41F080E090E0892B21F00E94A1
:1003D0000000811110C00E94460981110FC080E009
:1003E00090E0892B81F00E943C0981110AC0089598
:1003F0000E940000E4CF0E940000EDCF0E94D401D3
:10040000EECF0C9400000895089580E090E00895E8
:100410008F929F92AF92BF92CF92DF92EF92FF9214
:100420000F931F93CF93DF938C016A017B0120E030
:1004300030E04FE753E4C701B6010E9414164B01A8
:100440005C0120E030E0A9010E94331818161CF46A
:10045000C501B40103C0C501B40190580E94FD1745
:10046000EB0120E030E0A901C701B6010E9433187A
:10047000181614F460E001C061E0F80181810E9467
:10048000C00ECF3FD10509F014F4DD2702C0CFEF35
:10049000D0E0F801108161E0812F0E94EF0E2097DB
:1004A00009F4B1C0CF3FD10509F4AFC0E12FF0E0AE
:1004B000E152FD4FE4918E2F90E0FC013197E23143
:1004C000F10508F09DC08827EE58FF4F8F4F0C9420
:1004D0000F1784B5806884BDC7BDA7C084B580628E
:1004E00084BDC8BDA2C080918000806880938000D8
:1004F000D0938900C093880098C08091800080626A
:1005000080938000D0938B00C0938A008EC080912E
:100510008000886080938000D0938D00C0938C0011
:1005200084C08091B00080688093B000C093B30015
:100530007CC08091B00080628093B000C093B40012
:1005400074C080919000806880939000D09399004F
:10055000C09398006AC08091900080628093900060
:10056000D0939B00C0939A0060C0809190008860F7
:1005700080939000D0939D00C0939C0056C08091C2
:10058000A00080688093A0008091A0008F7B809362
:10059000A000D093A900C093A80047C08091A000FC
:1005A00080628093A000D093AB00C093AA003DC0AE
:1005B0008091A00088608093A000D093AD00C0938C
:1005C000AC0033C080912001806880932001D093DB
:1005D0002901C093280129C0809120018062809365
:1005E0002001D0932B01C0932A011FC080912001CC
:1005F000886080932001D0932D01C0932C0115C0F9
:10060000C038D10514F460E001C061E0812FDF91B2
:10061000CF911F910F91FF90EF90DF90CF90BF90FF
:10062000AF909F908F900C94C00EDF91CF911F914F
:100630000F91FF90EF90DF90CF90BF90AF909F9081
:100640008F9008950F931F93CF93DF938C01C62F44
:10065000D62FD07FD1606D2F0E941A0D6D2FC8014B
:100660000E942D0D80E1C89FB0011124C62FC160EA
:100670006C2FC8010E941A0D6C2FC8010E942D0D0D
:1006800081E090E0DF91CF911F910F910895FC01DF
:10069000848DDF01A80FB11DA35ABF4F2C91848D0B
:1006A00090E001968F739927848FA689B7892C9340
:1006B000A089B1898C91837080648C93938D848D93
:1006C000981306C00288F389E02D80818F7D808396
:1006D00008951F920F920FB60F9211240BB60F922E
:1006E0002F933F934F935F936F937F938F939F933A
:1006F000AF93BF93EF93FF9380915B050E94970E9A
:1007000020915F05309160052F5F3F4F309360056A
:1007100020935F0590915E05953618F096E09093D2
:100720005A0590915A059430C9F128F4923069F035
:100730009330D1F05EC0953009F451C0963009F085
:1007400058C091E090932B0651C0811152C0209166
:100750005F05309160052436310508F442C01092DF
:100760002B0610925E051CC0813009F042C0E0915A
:100770005E0591E09E0F90935E05F0E020915F058D
:1007800030916005EE0FFF1FE65AFA4F308727833E
:100790001092600510925F0594E029C0811117C086
:1007A000E0915E0591E09E0F90935E05F0E0209150
:1007B0005F0530916005EE0FFF1FE65AFA4F308754
:1007C00027831092600510925F0593E010C020917E
:1007D0005F05309160052536310558F007C081115D
:1007E00008C01092600510925F0503C095E09093D9
:1007F0005A0590915D059923B9F081110AC0809145
:100800005C05882321F080915C0561E009C02F9A86
:100810000BC080915C05882331F080915C0560E01D
:100820000E94C00E01C02F98FF91EF91BF91AF9130
:100830009F918F917F916F915F914F913F912F91F8
:100840000F900BBE0F900FBE0F901F9018958EBD8E
:1008500000000DB407FEFDCF8EB50895CF93DF9352
:10086000EC0160E088810E94C00E88E90E942704A4
:1008700080E00E94270480E00E94270480E00E941C
:10088000270480E00E94270461E088810E94C00E56
:100890008BE891E00197F1F760E088810E94C00E3B
:1008A00080EE0E94270461E08881DF91CF910C9453
:1008B000C00EAF92BF92CF92DF92EF92FF920F9352
:1008C0001F93CF93DF93CDB7DEB760970FB6F89441
:1008D000DEBF0FBECDBF5C0160E0FC0180810E94E5
:1008E000C00E80E60E9427048E010F5F1F4F7E011D
:1008F000F1E1EF0EF11C680180E00E94270490E016
:10090000A0E0B0E0F60181939193A193B1936F01C0
:10091000EE15FF0589F761E0F50180810E94C00EA8
:1009200080E090E0DC01F801419151916191719179
:100930008F01BA2FA92F982F8827840F951FA61FE4
:10094000B71FEE15FF0579F79C01AD0166277727E4
:10095000CB01621B730B840B950B60960FB6F8945A
:10096000DEBF0FBECDBFDF91CF911F910F91FF90E2
:10097000EF90DF90CF90BF90AF9008951F920F92AD
:100980000FB60F9211240BB60F922F933F934F93F4
:100990005F936F937F938F939F93AF93BF93EF93E7
:1009A000FF938091B10287FF05C0109285001092DD
:1009B000840016C02091B102022E000C330B8091EE
:1009C000680690E0281739075CF43091B10225E001
:1009D0003203F0011124E45DF94F808186FD15C0DA
:1009E0008091B1028F5F8093B1022091B102022EFB
:1009F000000C330B8091680690E02817390794F4B7
:100A00008091B1028C302CF10DC03091B1023203D3
:100A1000F0011124E45DF94F808160E08F730E9442
:100A2000C00EDECF809184009091850084349C4973
:100A300018F480E49CE905C08091840090918500C1
:100A4000049690938900809388008FEF8093B10281
:100A50002AC040918400509185003091B10225E078
:100A60003203F0011124E45DF94F81819281840FFA
:100A7000951F90938900809388003091B1023203D2
:100A8000F0011124E45DF94F808186FF0CC03091A4
:100A9000B1023203F0011124E45DF94F808161E07D
:100AA0008F730E94C00EFF91EF91BF91AF919F9104
:100AB0008F917F916F915F914F913F912F910F9007
:100AC0000BBE0F900FBE0F901F9018952F923F9264
:100AD0004F925F926F927F928F929F92AF92BF924E
:100AE000CF92DF92EF92FF920F931F93CF93DF93FA
:100AF000CDB7DEB766970FB6F894DEBF0FBECDBF99
:100B000097FD05C021E030E03E832D8304C04FEF08
:100B10005FEF5E834D834D815E81489F9001499FC9
:100B2000300D589F300D11243C8B2B8B86EB93E0BE
:100B3000489F9001499F300D589F300D11243C83F0
:100B40002B8337FF05C03195219531093C832B83D9
:100B50004B815C81445651095A8B498B1C861B86FC
:100B600058874F838B819C81835691099A87898707
:100B70002B853C854B895C89241735070CF0DCC13B
:100B80008B819C810E94B9108DE896E00E942E0412
:100B90008FE896E00E942E048D819E81019709F0D6
:100BA000BDC04DEC5CEC6CE47EE38BE896E00E940B
:100BB00008024DEC5CEC6CE47EE389E896E00E9470
:100BC0000802188A1F861E861D861A8219821E8AAE
:100BD0001D8A00E010E0212C312C8DEC482E8CEC8D
:100BE000582E8CE4682E8EEB782E2F8138852216B5
:100BF000330624F0021713070CF055C18FE896E076
:100C00000E9459044B015C0144275527461B570B92
:100C10005A8349838DE896E00E945904CC24DD2450
:100C20007601C61AD70AE80AF90ADE8ACD8AC60111
:100C30002D853E85821B930B280E391E89819A8152
:100C40004F855889841B950B080F191F29E5C2167B
:100C500022E0D2060CF441C08FE896E00E942E04F8
:100C60008DE896E00E942E04C80CD91CB601DD0C5C
:100C7000880B990B0E94B51527E137EB41ED58E33E
:100C80000E9414166B017C01B101601B710B072ED1
:100C9000000C880B990B0E94B5152CEA35EC47EA3D
:100CA00057E30E9414169B01AC01C701B6010E94D4
:100CB0001F179B01AC01C301B2010E941E172B013B
:100CC0003C01AB01BC0170588BE896E00E94080221
:100CD000188A1F861E861D8606C049815A81588B38
:100CE0004F87DE86CD8689859A85281639063CF0A1
:100CF00040E050E0BA0189E896E00E9408022985A8
:100D00003A85021713070CF470CF40E050E060E022
:100D100070E88BE896E00E94080267CF4D815E8103
:100D20004F3F5F4F09F0B7C04DEC5CEC6CE47EEBDD
:100D30008BE896E00E9408024DEC5CEC6CE47EEBE4
:100D400089E896E00E940802E12CF12CC12CD12CFC
:100D50001A8219821E8A1D8A00E010E0212C312C93
:100D60002F8138852216330624F0021713070CF062
:100D70009AC08FE392E00E94D90F8DE896E00E941E
:100D800059049B01AC0188279927DC01821B930B36
:100D9000A40BB50B44275527481B590B5E8B4D8B75
:100DA0008FE896E00E9459044B015C017A836983C5
:100DB0008D899E898C199D09280E391EC4018E19B2
:100DC0009F09080F191F89899A890E94B910C101CA
:100DD0000E94B910C8010E94B9108D899E89893579
:100DE0009240DCF18FE896E00E942E048DE896E0B8
:100DF0000E942E046D897E8968197909072E000CDE
:100E0000880B990B0E94B51527E137EB41ED58E3AC
:100E10000E9414166B017C01B101601B710B072E3F
:100E2000000C880B990B0E94B5152CEA35EC47EAAB
:100E300057E30E9414169B01AC01C701B6010E9442
:100E40001F1742E00E94E70F84E492E00E94650FC2
:100E5000E12CF12CC12CD12C03C07401CD88DE888B
:100E600049855A85241635063CF040E050E0BA0129
:100E700089E896E00E94080289859A850817190773
:100E80000CF46ECF40E050E060E070E88BE896E054
:100E90000E94080265CF1A8219821E8A1D8A00E00C
:100EA00010E0212C312C40E050E0BA0189E896E0B6
:100EB0000E94080240E050E060E070E88BE896E0B5
:100EC0000E940802C1010E94B910C8010E94B91015
:100ED00087E492E00E94D90F89899A890E94B9100B
:100EE0008BE492E00E94D90F8D899E890E94B910EF
:100EF00089819A810E94B9108DE896E00E94590478
:100F000090958095709561957F4F8F4F9F4F0E9470
:100F1000D1108FE896E00E9459040E94D11064E637
:100F200070E080E090E00E942B0F2B853C852F5FC6
:100F30003F4F3C872B871CCE66960FB6F894DEBFDA
:100F40000FBECDBFDF91CF911F910F91FF90EF901A
:100F5000DF90CF90BF90AF909F908F907F906F90D9
:100F60005F904F903F902F9008954F925F926F92B5
:100F70007F928F929F92AF92BF92CF92DF92EF9229
:100F8000FF920F931F93CF93DF93CDB7DEB72A97CE
:100F90000FB6F894DEBF0FBECDBF9A83898380E879
:100FA0009CE029813A81AC01249FC001259F900DCE
:100FB000349F900D11240E94B91020E83CE0A981D3
:100FC000BA810E9417170E94B51520E030E044EC6A
:100FD00051E40E948B170E94FD172B013C018DE804
:100FE00096E00E942E048FE896E00E9459048FE854
:100FF00096E00E942E044AE959E969E97EEB8BE804
:1010000096E00E9408024AE959E969E97EE389E825
:1010100096E00E94080200E010E01A8619868AE92C
:10102000882E89E9982EA92C8EE3B82ED301C2010F
:10103000815E9109A109B1098D839E83AF83B88731
:1010400029853A85C901330FAA0BBB0B2D813E813F
:101050004F81588582179307A407B5075CF0C80134
:10106000012E000CAA0BBB0B82179307A407B50730
:101070000CF076C08FE896E00E94590469837A8369
:101080008B839C838DE896E00E945904CC24DD2458
:101090007601C61AD70AE80AF90A8FE896E00E9494
:1010A0002E048DE896E00E942E04C301B2010E9436
:1010B000D11089859A850E94B910C8010E94B91083
:1010C00049855A854C0D5D1D5A87498789819A81CA
:1010D000080F191FB601681B790B072E000C880B2F
:1010E000990B0E94B51527E137EB41ED58E30E94BB
:1010F00014166B017C0169857A85601B710B072EC4
:10110000000C880B990B0E94B5152CEA35EC47EAC8
:1011100057E30E9414169B01AC01C701B6010E945F
:101120001F176B017C0142E00E94E70F84E492E00C
:101130000E94650FA7019601C501B4010E941F1707
:101140004B015C01AB01BC0170588BE896E00E943A
:10115000080262E370E080E090E00E942B0F70CF05
:1011600084E892E00E94D90F40E050E0BA0189E89B
:1011700096E00E94080240E050E060E070E88BE8F2
:1011800096E00E94080264E670E080E090E02A9613
:101190000FB6F894DEBF0FBECDBFDF91CF911F9188
:1011A0000F91FF90EF90DF90CF90BF90AF909F9006
:1011B0008F907F906F905F904F900C942B0FCF92F9
:1011C000DF92EF92FF920F931F93CF93DF936C0107
:1011D0007A018B01C0E0D0E0CE15DF0581F0D801A7
:1011E0006D918D01D601ED91FC910190F081E02D82
:1011F000C6011995892B11F02196EECF7E01C7010A
:10120000DF91CF911F910F91FF90EF90DF90CF90E2
:101210000895FC01538D448D252F30E0842F90E0FC
:10122000821B930B541710F0CF96089501970895E1
:10123000FC01918D828D981761F0828DDF01A80FDE
:10124000B11D5D968C91928D9F5F9F73928F90E000
:1012500008958FEF9FEF0895FC01918D828D98176F
:1012600031F0828DE80FF11D858D90E008958FEFAC
:101270009FEF08950E94431A83E893E00E94C801FB
:1012800021E0892B09F420E0822F089580E294E088
:101290000E94C80121E0892B09F420E0822F0895E3
:1012A0008DEB94E00E94C80121E0892B09F420E035
:1012B000822F0895EF92FF920F931F93CF93DF93A6
:1012C000EC0181E0888F9B8D8C8D981305C0E88997
:1012D000F989808185FD26C0F62E0B8D10E00F5F09
:1012E0001F4F0F731127E02E8C8DE8120CC00FB624
:1012F00007FCFACFE889F989808185FFF5CFCE0117
:101300000E944703F1CF8B8DFE01E80FF11DE35AD8
:10131000FF4FF0829FB7F8940B8FEA89FB89808199
:1013200080620AC09FB7F894EE89FF896083E889DC
:10133000F98980818370806480839FBF81E090E021
:10134000DF91CF911F910F91FF90EF900895CF9370
:10135000DF93EC01888D8823C9F0EA89FB898081BD
:1013600085FD05C0A889B9898C9186FD0FC00FB68F
:1013700007FCF5CF808185FFF2CFA889B9898C91D0
:1013800085FFEDCFCE010E944703E7CFDF91CF91DC
:1013900008953FB7F8948091BD029091BE02A0914C
:1013A000BF02B091C00226B5A89B05C02F3F19F01F
:1013B0000196A11DB11D3FBFBA2FA92F982F8827D5
:1013C000820F911DA11DB11DBC01CD0142E0660F30
:1013D000771F881F991F4A95D1F708951F920F9282
:1013E0000FB60F9211242F933F938F939F93AF9338
:1013F000BF938091B9029091BA02A091BB02B091C3
:10140000BC023091B80223E0230F2D3720F401965F
:10141000A11DB11D05C026E8230F0296A11DB11D17
:101420002093B8028093B9029093BA02A093BB02B2
:10143000B093BC028091BD029091BE02A091BF0208
:10144000B091C0020196A11DB11D8093BD02909381
:10145000BE02A093BF02B093C002BF91AF919F9113
:101460008F913F912F910F900FBE0F901F90189565
:101470001F920F920FB60F9211240BB60F922F935B
:101480003F934F935F936F937F938F939F93AF930C
:10149000BF93EF93FF938091B3029091B402A09118
:1014A000B502B091B602892B8A2B8B2B49F1909112
:1014B000B202809100008927809300008091B302DE
:1014C0009091B402A091B502B091B6021816190617
:1014D0001A061B060CF056C08091B3029091B4021C
:1014E000A091B502B091B6020197A109B10980930C
:1014F000B3029093B402A093B502B093B60242C077
:1015000080910002E4E0F2E0E4919FEF909300020A
:10151000E230C9F050F4EE2399F0E13081F590917A
:101520006F009D7F90936F002AC0E43019F1E0F0C6
:10153000E53029F5909173009D7F909373001FC053
:1015400010926E001CC0909170009D7F909370006F
:1015500091E09093B0009091B100987F9460909347
:10156000B1001092B3000BC0909171009D7F9093D9
:10157000710005C0909172009D7F9093720060E0B1
:101580000E94C00EFF91EF91BF91AF919F918F91FB
:101590007F916F915F914F913F912F910F900BBE73
:1015A0000F900FBE0F901F9018951F920F920FB6BD
:1015B0000F9211240BB60F922F933F934F935F938B
:1015C0006F937F938F939F93AF93BF93EF93FF930B
:1015D00083E893E00E944703FF91EF91BF91AF91A1
:1015E0009F918F917F916F915F914F913F912F913B
:1015F0000F900BBE0F900FBE0F901F9018951F926B
:101600000F920FB60F9211240BB60F922F933F93A8
:101610004F935F936F937F938F939F93AF93BF93FA
:10162000EF93FF9383E893E00E94420DFF91EF91C7
:10163000BF91AF919F918F917F916F915F914F91EA
:101640003F912F910F900BBE0F900FBE0F901F90E8
:1016500018951F920F920FB60F9211240BB60F928E
:101660002F933F934F935F936F937F938F939F93AA
:10167000AF93BF93EF93FF9380E294E00E94470300
:10168000FF91EF91BF91AF919F918F917F916F915A
:101690005F914F913F912F910F900BBE0F900FBE16
:1016A0000F901F9018951F920F920FB60F92112452
:1016B0000BB60F922F933F934F935F936F937F934C
:1016C0008F939F93AF93BF93EF93FF9380E294E048
:1016D0000E94420DFF91EF91BF91AF919F918F9129
:1016E0007F916F915F914F913F912F910F900BBE22
:1016F0000F900FBE0F901F9018951F920F920FB66C
:101700000F9211240BB60F922F933F934F935F9339
:101710006F937F938F939F93AF93BF93EF93FF93B9
:101720008DEB94E00E944703FF91EF91BF91AF9141
:101730009F918F917F916F915F914F913F912F91E9
:101740000F900BBE0F900FBE0F901F9018951F9219
:101750000F920FB60F9211240BB60F922F933F9357
:101760004F935F936F937F938F939F93AF93BF93A9
:10177000EF93FF938DEB94E00E94420DFF91EF9168
:10178000BF91AF919F918F917F916F915F914F9199
:101790003F912F910F900BBE0F900FBE0F901F9097
:1017A000189585ED8093BC008091BC0084FDFCCF32
:1017B00010925203089540910903262F30E0240F20
:1017C000311D21323105DCF4209152032430C9F45B
:1017D000FC0180E090E0861758F4309109032191D4
:1017E000DC01A751BD4FA30FB11D2C930196F3CF80
:1017F00080910903680F6093090380E0089581E0F8
:10180000089582E00895089508950895E091C20230
:101810008091C102E81730F4F0E0E753FD4F80817A
:1018200090E008958FEF9FEF08959091C20280910C
:10183000C102981750F4E92FF0E0E753FD4F2081E3
:1018400030E09F5F9093C20202C02FEF3FEFC901CB
:1018500008958091C10290E02091C202821B9109FB
:101860000895CF92DF92EF92FF920F931F93CF9341
:10187000DF937C01CB018A0120915303222389F05D
:10188000EB016B01C40ED51ECC15DD0569F0699125
:10189000D701ED91FC910190F081E02DC7011995E0
:1018A000F3CF642F0E94DB0BC801DF91CF911F9112
:1018B0000F91FF90EF90DF90CF900895CF93DF933B
:1018C0001F92CDB7DEB76983209153032223D1F055
:1018D00020917603203240F021E030E0FC01338398
:1018E000228380E090E015C080915403E82FF0E05F
:1018F000EB5AFC4F998190838F5F809354038093C0
:10190000760305C061E0CE0101960E94DB0B81E009
:1019100090E00F90DF91CF91089590E0FC01319716
:10192000E231F10508F04EC08827EC57FF4F8F4F8A
:101930000C940F17809180008F7703C080918000F6
:101940008F7D80938000089580918000877FF9CFFC
:1019500084B58F7702C084B58F7D84BD0895809152
:10196000B0008F7703C08091B0008F7D8093B0006E
:101970000895809190008F7707C0809190008F7DAF
:1019800003C080919000877F80939000089580919C
:10199000A0008F7707C08091A0008F7D03C0809149
:1019A000A000877F8093A0000895809120018F7709
:1019B00007C0809120018F7D03C080912001877F27
:1019C0008093200108950F931F93CF93DF93162FD9
:1019D000072FC0E7D6E09C8521E020935303909326
:1019E00075031092540310927603AA85BB85ED917E
:1019F000FC9111970190F081E02D682FCD01199590
:101A00008A859B85DC01ED91FC910190F081E02DB0
:101A1000602F19958A859B85DC01ED91FC910190E1
:101A2000F081E02D612F1995DF91CF911F910F91DA
:101A30000C94E510FC01248131E030935303209392
:101A4000750310925403109276038485682B87E700
:101A500093E00E945E0C0C94E5100F931F93CF93BC
:101A60008C01C62F64600E941A0D6C2F6B7FC80119
:101A70000E941A0D83EC90E00197F1F7CF911F912E
:101A80000F910895FC01A089B1898C91A689B7892D
:101A900082FD0FC09C91818D8F5F8F73228D821785
:101AA00049F0218DDF01A20FB11D5D969C93818FBE
:101AB00008958C9108951F920F920FB60F921124E2
:101AC0000BB60F922F933F934F935F936F937F9338
:101AD0008F939F93AF93BF93EF93FF938091B90040
:101AE000887F803609F49CC068F5883209F45BC0B1
:101AF00090F4803109F454C038F4882309F4F6C016
:101B0000883009F44DC0F6C0883109F44CC08032E9
:101B100009F45DC0EFC0803409F468C048F4803334
:101B200009F455C0883309F0E5C080935003D8C04C
:101B3000803509F44FC0883509F45DC0883409F058
:101B4000D9C0D6C0883909F4C7C0A8F4883709F4C9
:101B500067C038F4883609F463C0803709F460C080
:101B6000C9C0883809F4B8C0803909F45FC080382A
:101B700009F0C0C05BC0803B09F486C038F4803AED
:101B800009F466C0883A09F47FC0B4C0803C09F407
:101B9000A7C0883C09F4A4C0883B09F48AC0AAC045
:101BA00080912D0310C090914F0380914E039817A0
:101BB00070F5E0914F0381E08E0F80934F03F0E0CA
:101BC000E25DFC4F80818093BB0085EC86C08093F2
:101BD00050038EC0E0914F0381E08E0F80934F033E
:101BE0008091BB00F0E0E25DFC4F808390914F0359
:101BF00080914E036EC0E0914F0381E08E0F809381
:101C00004F038091BB00F0E0E25DFC4F8083809148
:101C1000510381116DC081E080932C0384EA61C07F
:101C200083E08093520310922B03CFCF80912B033C
:101C3000803208F051C0E0912B0381E08E0F809339
:101C40002B038091BB00F0E0E55FFC4F8083BDCFAC
:101C500085EC8093BC001092520380912B0380325C
:101C600030F4E0912B03F0E0E55FFC4F10826091CF
:101C70002B0370E0E091C502F091C6028BE093E087
:101C8000199510922B0336C084E080935203109272
:101C90000A0310920903E091C302F091C40219955E
:101CA00080910903811105C081E08093090310929E
:101CB000E902E0910A0381E08E0F80930A03F0E0CD
:101CC000E751FD4F80818093BB0090910A03809182
:101CD0000903981708F479CF85E88093BC000AC0FF
:101CE00085EC8093BC001092520304C01092500304
:101CF0000E94D10BFF91EF91BF91AF919F918F9176
:101D00007F916F915F914F913F912F910F900BBEFB
:101D10000F900FBE0F901F9018951F920F920FB645
:101D20000F9211240F900FBE0F901F901895CF9314
:101D3000DF93282F30E0F901E152FD4F8491F90142
:101D4000E756FD4FD491F901ED5AFD4FC491CC23D4
:101D500091F081110E948D0CEC2FF0E0EE0FFF1F2F
:101D6000E75CFD4FA591B491EC91ED2381E090E00B
:101D700021F480E002C080E090E0DF91CF910895EF
:101D80001F93CF93DF93282F30E0F901E152FD4FED
:101D90008491F901E756FD4FD491F901ED5AFD4FB9
:101DA000C491CC23C1F0162F81110E948D0CEC2F11
:101DB000F0E0EE0FFF1FE15EFD4FA591B4919FB7DC
:101DC000F894111104C08C91D095D82302C0EC91E5
:101DD000DE2BDC939FBFDF91CF911F910895CF93AE
:101DE000DF9390E0FC01E756FD4F2491FC01ED5A92
:101DF000FD4F8491882361F190E0880F991FFC01C9
:101E0000EB5FFD4FC591D491FC01E15EFD4FA591C3
:101E1000B491611109C09FB7F894888120958223FD
:101E20008883EC912E230BC0623061F49FB7F89445
:101E30008881322F309583238883EC912E2B2C932D
:101E40009FBF06C08FB7F894E8812E2B28838FBFE1
:101E5000DF91CF9108958F929F92AF92BF92CF92D0
:101E6000DF92EF92FF926B017C010E94C9094B0146
:101E70005C01C114D104E104F104F1F00E94C9092C
:101E8000DC01CB0188199909AA09BB09883E934056
:101E9000A105B10570F321E0C21AD108E108F108EB
:101EA00088EE880E83E0981EA11CB11CC114D104D9
:101EB000E104F10419F7DDCFFF90EF90DF90CF90B0
:101EC000BF90AF909F908F900895009769F0FC01AC
:101ED00001900020E9F73197AF01481B590BBC0175
:101EE0008DEB94E00C94DF0880E090E008958F92F1
:101EF0009F92AF92BF920F931F93CF93DF93CDB773
:101F0000DEB7A1970FB6F894DEBF0FBECDBF19A202
:101F1000423008F44AE08E010F5D1F4F842E912C51
:101F2000A12CB12CA50194010E94D216E62FB90173
:101F3000CA0101501109EA3014F4E05D01C0E95C06
:101F4000D801EC93232B242B252B61F7C8010E9489
:101F5000650FA1960FB6F894DEBF0FBECDBFDF911F
:101F6000CF911F910F91BF90AF909F908F90089548
:101F7000CF92DF92EF92FF92CF93DF936B017C01C0
:101F80006DE28DEB94E00E945A09EC0166277727F9
:101F9000CB016C197D098E099F094AE00E94770FD9
:101FA0008C0F9D1FDF91CF91FF90EF90DF90CF902E
:101FB0000895CF93DF930E94650FEC0184E492E0D3
:101FC0000E94650F8C0F9D1FDF91CF9108958F9216
:101FD0009F92AF92BF92CF92DF92EF92FF920F93B8
:101FE0001F93CF93DF936B017C01142F9B01AC01F6
:101FF0000E943818882319F08BE892E027C0460128
:102000005701E894B7F82FEF3FEF4FE75FE7C501BF
:10201000B4010E94381881110DC02FEF3FEF4FE738
:102020005FE7C501B4010E94AE1518161CF48FE8D5
:1020300092E00CC02FEF3FEF4FE75FE4C701B6011E
:102040000E943318181684F483E992E0DF91CF914F
:102050001F910F91FF90EF90DF90CF90BF90AF90C6
:102060009F908F900C94650F2FEF3FEF4FE75FEC41
:10207000C701B6010E94AE1587FDE6CF20E030E033
:10208000A901C701B6010E94AE1587FF0BC06DE222
:102090008DEB94E00E945A09EC01F7FAF094F7F8FE
:1020A000F09402C0C0E0D0E000E060E070E080E0CA
:1020B0009FE3101741F020E030E040E251E40E943D
:1020C0008B170F5FF6CFA70196010E941F176B01B8
:1020D0007C010E9404184B015C014AE00E94770FCA
:1020E000C80FD91F1123B9F1C501B4010E94B3155E
:1020F0009B01AC01C701B6010E941E176B017C0158
:102100006EE28DEB94E00E945A09C80FD91F20E0BF
:1021100030E040E251E4C701B6010E9414164B01C1
:102120005C010E9404186B01E12CF12C4AE0C7010C
:10213000B6010E94770FC80FD91FC701B6010E94D0
:10214000B3159B01AC01C501B4010E941E176B01C0
:102150007C011150E1F6CE01DF91CF911F910F91DB
:10216000FF90EF90DF90CF90BF90AF909F908F90B7
:102170000895CF93DF93BC01990F880B990B97FFBC
:1021800003C00E94B80F03C04AE00E94770FEC0121
:1021900084E492E00E94650F8C0F9D1FDF91CF9128
:1021A0000895CF93DF9397FF03C00E94B80F03C039
:1021B0004AE00E94770FEC0184E492E00E94650FF0
:1021C0008C0F9D1FDF91CF910895309176033132AE
:1021D00008F04BC0809152038111FCCF90917503A0
:1021E00022E02093520321E0209351032FEF20930C
:1021F000500310924F0330934E03E5E5F3E0AEE257
:10220000B3E020E0321721F041914D932F5FFACFD8
:1022100010922D0320912D03990F922B90932D0353
:1022200090912C03913061F410922C0390912D0326
:102230009093BB009091BC0093FDF8CF95EC01C04A
:1022400095EE9093BC00909152039230E1F39091FF
:1022500050039F3F79F080915003803241F080918C
:102260005003803331F084E005C081E003C082E098
:1022700001C083E01092540310927603109253032E
:1022800008958091690690916A060C94D518789407
:1022900084B5826084BD84B5816084BD85B582606B
:1022A00085BD85B5816085BD80916E00816080931C
:1022B0006E00109281008091810082608093810085
:1022C0008091810081608093810080918000816095
:1022D000809380008091B10084608093B1008091F0
:1022E000B00081608093B000809191008260809303
:1022F0009100809191008160809391008091900085
:102300008160809390008091A10082608093A10001
:102310008091A10081608093A1008091A0008160E4
:102320008093A0008091210182608093210180919F
:10233000210181608093210180912001816080933F
:10234000200180917A00846080937A0080917A00E5
:10235000826080937A0080917A00816080937A0015
:1023600080917A00806880937A001092C100E09199
:10237000CD04F091CE0482E08083E091C904F09115
:10238000CA041082E091CB04F091CC048FEC8083DE
:102390001092D504E091D104F091D20486E08083BC
:1023A000E091CF04F091D004808180618083E0913E
:1023B000CF04F091D004808188608083E091CF04C5
:1023C000F091D004808180688083E091CF04F09107
:1023D000D00480818F7D808361E0809171060E94AE
:1023E000EF0E60E0809171060E94C00E60E0809167
:1023F00070060E94EF0E87E793E090937B06809330
:102400007A061092C2021092C102109254031092E6
:1024100076031092520381E08093510310922C03B3
:1024200061E084E10E94C00E61E085E10E94C00E7F
:102430008091B9008E7F8093B9008091B9008D7F23
:102440008093B90088E48093B80085E48093BC0051
:1024500083E09CE09093C4028093C30284E09CE0FC
:102460009093C6028093C50280E090E1A0E0B0E0C6
:1024700080937D0690937E06A0937F06B09380069E
:102480008AE090E0A0E0B0E080938106909382061D
:10249000A0938306B093840680E090E0A0E0B0E4CF
:1024A0008093850690938606A0938706B09388064E
:1024B00060E070E185E00E94E30C6FE979E380E081
:1024C0000E94E30CC0E7D6E08E0152E0752E68E86A
:1024D000A62E62E0B62E7EEC872E72E0972EEBECF5
:1024E000EE2EE7E0FE2EF80194818281898F9A8F8B
:1024F00061E00E94EF0E61E08A8D0E94EF0EF8010C
:10250000908586816E01FDE1CF0ED11C8D8F9E8F4F
:1025100061E00E94EF0E60E08E8D0E94EF0E61E0A0
:102520008D8D0E94C00E6FB6F8948091B702811114
:1025300026C0F5018491F4012491E82FF0E0EE0F1C
:10254000FF1FEB5FFD4FA591B4919C91822F8923D2
:1025500021F461E085E30E94C00E61E085E30E9402
:10256000EF0E8CB580618CBD8CB580648CBD61E054
:1025700084E30E94EF0E61E083E30E94EF0E8091FE
:10258000B7028F5F8093B7026FBEC7010197F1F763
:1025900060E08D8D0E94C00E88E80E94270483E0D1
:1025A0000E94270461E08D8D0E94C00EC701019733
:1025B000F1F7C6010E942E047A940F5F1F4F2296F6
:1025C000711091CF05E916E0C9E9D6E060E0F801A5
:1025D00081918F010E94EF0EF6E009391F07B1F7D4
:1025E00001E916E08BE9E82E86E0F82E95E0D92E79
:1025F0002CE0B22E32E0C32EA9908F818C3008F0EF
:1026000044C061E08A2D0E94EF0E8F81D89EF001B8
:102610001124E45DF94F9A2D9F732081207CA22E16
:10262000A92AA082138214826B2D0E9403172CE02A
:10263000829FA001112420E030E0BA01620F731FD5
:10264000D69EF001D79EF00D1124E45DF94F9081E4
:1026500096FD12C02F5F3F4F2C30310571F781116D
:102660000BC010928000C0928100109285001092E1
:102670008400C6BAC0926F00EF81DE9EF001112483
:10268000E45DF94F8081806480839D818B81F801B6
:10269000828B938B60E00E94EF0E61E0F8018389EA
:1026A0000E94EF0E60E0F80183890E94C00E0E5F69
:1026B0001F4FEC16FD0609F09FCFF89410922001F1
:1026C00089E08093210180E293E090932901809337
:1026D0002801109225011092240182E0809373005A
:1026E000789480935A0510925E0580915B0560E0B6
:1026F0000E94EF0E809197060E94970E892B09F099
:1027000042C0809198060E94970E892BE1F18CE7D8
:1027100090E00E94B5078EEF9FEF0E94660584E669
:1027200090E00E94B50782E090E00E9466058DE28D
:1027300090E00E94B50782E090E00E94660587E382
:1027400090E00E94B5078EEF9FEF0E94660582ED34
:1027500090E00E94B50782E090E00E9466058DE25D
:1027600090E00E94B5078EEF9FEF0E9466058CE80F
:1027700090E00E94B5078CEF9FEF0E9466058AEFFC
:1027800090E00E94B5070E94D701B4CF10927A035F
:102790001092790388EE93E0A0E0B0E080937B0391
:1027A00090937C03A0937D03B0937E0323E132E0FA
:1027B0003093780320937703109286031092850359
:1027C0008093870390938803A0938903B0938A032F
:1027D00025E232E0309384032093830345E351E004
:1027E0005093900340938F0344E351E0509392033E
:1027F0004093910340E351E050939403409393033B
:1028000041E351E0509396034093950342E351E036
:10281000509398034093970346E351E050939A03F3
:102820004093990310929C0310929D0310929E0373
:1028300010929F0310922304109222048093240488
:1028400090932504A0932604B09327043093210489
:102850002093200445ED50E050932D0440932C0428
:1028600044ED50E050932F0440932E0440ED50E08F
:10287000509331044093300441ED50E050933304C1
:102880004093320442ED50E05093350440933404B9
:1028900046ED50E0509337044093360410923904CB
:1028A00010923A0410923B0410923C041092C0041F
:1028B0001092BF048093C1049093C204A093C304F8
:1028C000B093C4043093BE042093BD0485EC90E023
:1028D0009093CA048093C90484EC90E09093CC0454
:1028E0008093CB0480EC90E09093CE048093CD0451
:1028F00081EC90E09093D0048093CF0482EC90E040
:102900009093D2048093D10486EC90E09093D40409
:102910008093D3041092D6041092D7041092D80456
:102920001092D9048091070290910802A0910902A7
:10293000B0910A028093910690939206A093930619
:10294000B093940680910B0290910C02A0910D021D
:10295000B0910E028093950690939606A0939706E9
:10296000B093980684E08093990687E080939A0656
:1029700010929B0684EB80939C0686E180939D06D3
:1029800088E180939E0687E180939F0689E180938A
:10299000A006E0916806EC3020F08FEF8093A1064E
:1029A00010C081E08E0F80936806E093A10685E059
:1029B000E89FF0011124E45DF94F88EB9BE09283DE
:1029C0008183E0916806EC3020F08FEF8093A206BF
:1029D00010C081E08E0F80936806E093A20685E028
:1029E000E89FF0011124E45DF94F88EB9BE09283AE
:1029F00081838CE08093700684E28093710686E088
:102A00008093720685E0809373068FE1809374064D
:102A10008EE18093750683E28093760682E280934E
:102A2000770685E48093780684E48093790680E4D1
:102A300080937C0610928106109282061092830683
:102A400010928406109285061092860610928706D0
:102A500010928806EBEAF6E029E637E08FEF9FEF69
:102A6000DC0112821382148215821682178210866C
:102A7000118683879487A587B6878787908BA18BDC
:102A8000B28B12861182108273962E173F0749F778
:102A90008DE090E00E943D18FC011382128287E3D2
:102AA00092E091838083118687E2848384E1828728
:102AB00084E083871486F093A806E093A70610921B
:102AC000A9061092AA0685E280935B0510925D0527
:102AD00010926A061092690610926C0610926B06AC
:102AE00010926E0610926D0661E070E080E090E05A
:102AF0000E945E19009789F090936A068093690698
:102B000010926C0610926B0620916D0630916E0645
:102B1000232BC1F4FC01108215C0809169069091AD
:102B20006A06009711F00E94D51810926A0610925A
:102B3000690610926E0610926D0610926C06109245
:102B40006B06089510926E0610926D0666E472E0B0
:102B50008091690690916A060C94511A0E94F015B2
:102B600008F481E00895E89409C097FB3EF490953D
:102B70008095709561957F4F8F4F9F4F9923A9F056
:102B8000F92F96E9BB279395F695879577956795E5
:102B9000B795F111F8CFFAF4BB0F11F460FF1BC029
:102BA0006F5F7F4F8F4F9F4F16C0882311F096E9BC
:102BB00011C0772321F09EE8872F762F05C066236A
:102BC00071F096E8862F70E060E02AF09A95660F23
:102BD000771F881FDAF7880F9695879597F90895DC
:102BE000990F0008550FAA0BE0E8FEEF161617061E
:102BF000E807F907C0F012161306E407F50798F086
:102C0000621B730B840B950B39F40A2661F0232B9E
:102C1000242B252B21F408950A2609F4A140A6951A
:102C20008FEF811D811D08950E9427160C94981620
:102C30000E948A1638F00E94911620F0952311F018
:102C40000C9481160C94871611240C94CC160E94B7
:102C5000A91670F3959FC1F3950F50E0551F629F21
:102C6000F001729FBB27F00DB11D639FAA27F00DE5
:102C7000B11DAA1F649F6627B00DA11D661F829F0C
:102C80002227B00DA11D621F739FB00DA11D621FF1
:102C9000839FA00D611D221F749F3327A00D611D0E
:102CA000231F849F600D211D822F762F6A2F1124F0
:102CB0009F5750409AF0F1F088234AF0EE0FFF1F23
:102CC000BB1F661F771F881F91505040A9F79E3F7A
:102CD000510580F00C9481160C94CC165F3FE4F300
:102CE000983ED4F3869577956795B795F795E795D0
:102CF0009F5FC1F7FE2B880F911D9695879597F9D9
:102D0000089597F99F6780E870E060E008959FEF6D
:102D100080EC089500240A94161617061806090672
:102D2000089500240A941216130614060506089541
:102D3000092E0394000C11F4882352F0BB0F40F4C9
:102D4000BF2B11F460FF04C06F5F7F4F8F4F9F4F09
:102D5000089557FD9058440F551F59F05F3F71F08B
:102D60004795880F97FB991F61F09F3F79F08795F2
:102D70000895121613061406551FF2CF4695F1DF7B
:102D800008C0161617061806991FF1CF869571050B
:102D9000610508940895E894BB2766277727CB013F
:102DA00097F90895A1E21A2EAA1BBB1BFD010DC0C5
:102DB000AA1FBB1FEE1FFF1FA217B307E407F507EB
:102DC00020F0A21BB30BE40BF50B661F771F881FC7
:102DD000991F1A9469F760957095809590959B015D
:102DE000AC01BD01CF010895A29FB001B39FC00106
:102DF000A39F700D811D1124911DB29F700D811D27
:102E00001124911D0895991B79E004C0991F96170C
:102E100008F0961B881F7A95C9F780950895EE0FE4
:102E2000FF1F881F8BBF0790F691E02D19940E9419
:102E3000F416B7FF0895821B930B08955058BB27D3
:102E4000AA270E9436170C9498160E948A1638F00A
:102E50000E94911620F039F49F3F19F426F40C9447
:102E600087160EF4E095E7FB0C948116E92F0E947B
:102E7000A91658F3BA17620773078407950720F05D
:102E800079F4A6F50C94CB160EF4E0950B2EBA2F20
:102E9000A02D0B01B90190010C01CA01A001112460
:102EA000FF27591B99F0593F50F4503E68F11A160C
:102EB000F040A22F232F342F4427585FF3CF46959D
:102EC00037952795A795F0405395C9F77EF41F16BF
:102ED000BA0B620B730B840BBAF09150A1F0FF0F89
:102EE000BB1F661F771F881FC2F70EC0BA0F621F75
:102EF000731F841F48F4879577956795B795F79565
:102F00009E3F08F0B0CF9395880F08F09927EE0FF9
:102F10009795879508950E949F170C9498160E9484
:102F2000911658F00E948A1640F029F45F3F29F06C
:102F30000C94811651110C94CC160C9487160E9497
:102F4000A91668F39923B1F3552391F3951B550BFB
:102F5000BB27AA2762177307840738F09F5F5F4F6C
:102F6000220F331F441FAA1FA9F335D00E2E3AF0AB
:102F7000E0E832D091505040E695001CCAF72BD0C3
:102F8000FE2F29D0660F771F881FBB1F2617370714
:102F90004807AB07B0E809F0BB0B802DBF01FF2746
:102FA00093585F4F3AF09E3F510578F00C9481168C
:102FB0000C94CC165F3FE4F3983ED4F38695779556
:102FC0006795B795F7959F5FC9F7880F911D9695FF
:102FD000879597F90895E1E0660F771F881FBB1F5B
:102FE000621773078407BA0720F0621B730B840B08
:102FF000BA0BEE1F88F7E09508950E9404186894B4
:10300000B1110C94CC1608950E94B11688F09F5708
:1030100098F0B92F9927B751B0F0E1F0660F771FFC
:10302000881F991F1AF0BA95C9F714C0B13091F0F2
:103030000E94CB16B1E008950C94CB16672F782F21
:103040008827B85F39F0B93FCCF3869577956795B7
:10305000B395D9F73EF490958095709561957F4F23
:103060008F4F9F4F08950E94F01508F48FEF089539
:103070000E94F015880B990B08950F931F93CF931F
:10308000DF938230910510F482E090E0E0916B07CD
:10309000F0916C0720E030E0A0E0B0E0309719F14B
:1030A000408151810281138148175907C8F0841764
:1030B000950769F4109731F012960C9312971396B6
:1030C0001C9327C000936B0710936C0722C0211537
:1030D000310519F04217530718F49A01BD01EF01A9
:1030E000DF01F801DBCF21153105F9F0281B390B81
:1030F0002430310580F48A819B816115710521F0AE
:10310000FB019383828304C090936C0780936B07C9
:10311000FE01329644C0FE01E20FF31F81939193AA
:1031200022503109398328833AC0209169073091B0
:103130006A07232B41F4209103023091040230935B
:103140006A0720936907209101023091020221153C
:10315000310541F42DB73EB740910502509106026A
:10316000241B350BE0916907F0916A07E217F3071A
:10317000A0F42E1B3F0B2817390778F0AC014E5FE7
:103180005F4F2417350748F04E0F5F1F50936A07B3
:10319000409369078193919302C0E0E0F0E0CF0192
:1031A000DF91CF911F910F910895CF93DF930097F7
:1031B00009F481C0FC01329713821282A0916B073F
:1031C000B0916C07109781F420813181820F931F99
:1031D0002091690730916A072817390751F5F09354
:1031E0006A07E093690767C0ED0120E030E0CE1781
:1031F000DF0740F44A815B819E0141155105F1F0E2
:10320000EA01F5CFD383C28340815181840F951F9A
:10321000C817D90759F488819981840F951F0296A0
:10322000918380838A819B819383828321153105D9
:1032300029F4F0936C07E0936B073DC0E901FB8331
:10324000EA8349915991C40FD51FEC17FD0761F42A
:1032500080819181840F951F0296E901998388836B
:10326000828193819B838A83E0E0F0E012968D91C6
:103270009C911397009719F0FD01DC01F7CF8D9118
:103280009C9111979D012E5F3F4F820F931F2091BC
:10329000690730916A072817390769F4309729F4CC
:1032A00010926C0710926B0702C013821282B093C7
:1032B0006A07A0936907DF91CF9108956F927F927B
:1032C0008F929F92AF92BF92CF92DF92EF92FF9236
:1032D0000F931F93CF93DF93009789F4CB01DF9176
:1032E000CF911F910F91FF90EF90DF90CF90BF9003
:1032F000AF909F908F907F906F900C943D18FC0141
:10330000E60FF71F9C0122503109E217F30708F47A
:10331000A9C0EC01D9010D911C911197061717074F
:10332000B0F00530110508F49BC0C801049786175A
:10333000970708F495C002501109061B170B01935B
:1033400011936D937C93CF010E94D51889C05B01C6
:10335000A01AB10A4C01800E911EA0916B07B0918A
:103360006C07612C712CE12CF12C109709F446C0EC
:103370008D919C911197A815B905B1F56C0142E0AA
:10338000C40ED11CCA14DB0478F14C018A189B08C6
:10339000640142E0C40ED11C1296BC9012971396A1
:1033A000AC91B5E0CB16D10440F0B282A3839182F8
:1033B0008082D9016D937C9309C00E5F1F4F800FEF
:1033C000911FF90191838083EB2DFA2FE114F10411
:1033D00031F0D7011396FC93EE93129741C0F0930E
:1033E0006C07E0936B073CC06816790608F43C0153
:1033F0007D0112960D90BC91A02DB7CF80916907E9
:1034000090916A0788169906E1F466167706C8F463
:103410008091010290910202009741F48DB79EB70E
:103420004091050250910602841B950BE817F9079D
:10343000C8F4F0936A07E0936907F9017183608328
:103440000FC0CB010E943D187C01009759F0A801E4
:10345000BE010E94481ACE010E94D518C70104C0BF
:10346000CE0102C080E090E0DF91CF911F910F91DB
:10347000FF90EF90DF90CF90BF90AF909F908F9094
:103480007F906F90089581E090E0F8940C94581A22
:10349000FB01DC0102C001900D9241505040D8F771
:1034A0000895FB01DC0101900D920020E1F70895E1
:1034B00011E0C4E9D1E000E006C0802FFE010E94C7
:1034C0000F172196011DC539D10780E00807A9F71C
:0434D000F894FFCF9E
:1034D400FF00006D072000363738391B1D1A1C0009
:1034E4000000005E0C310C0502050C290C150C06BD
:1034F4000C000000005A09DF080909A709C80118CF
:10350400092C09000000002203DF08050204026CF4
:103514006F6C31000D0A006D65750076616C657520
:10352400722D2D2D2D2D2D2D2D2D2D2D2D2D2D2D82
:103534002D2D2D2D2D2D2D2D2D2D2D2D2D2D2D2DB7
:103544002D2D2D2D2D2D2D2D2D2D2D2D2D2D2D2DA7
:103554002D2D2D00706174617465006E616E0069BB
:083564006E66006F7666000040
:00000001FF
