:100000000C94D6010C9407020C9407020C9407027E
:100010000C9407020C9407020C9407020C9407023C
:100020000C9407020C94300D0C94300D0C94300D90
:100030000C9407020C948E0F0C9407020C94070288
:100040000C9407020C9471060C9407020C9407029E
:100050000C9407020C9407020C9407020C94440FB2
:100060000C9407020C94FD100C94D3100C9407020E
:100070000C9407020C9407020C9407020C940702DC
:100080000C9407020C9407020C9407020C940702CC
:100090000C9407020C9407020C9407020C94FE0BBC
:1000A0000C9407020C9407020C9407020C940702AC
:1000B0000C9407020C9407020C9407020C94FB04A6
:1000C0000C9407020C9407020C9407020C94A910DC
:1000D0000C947F100C9407020C9455100C942B1068
:1000E0000C940702AA02AF02B402BE02C802410386
:1000F000D202DA02E202EC02F60200030F03190355
:10010000410323032D033703550D580D470D4B0DA8
:10011000510D8F0D5C0D600D660D6A0D6E0D740D29
:10012000780D7C0D8F0D820D860D8A0D076342368A
:10013000B79BD8A71A39685618AEBAAB558C1D3C78
:10014000B7CC5763BD6DEDFD753EF6177231BF003C
:100150000000803F08000000BE922449123EABAA76
:10016000AA2ABECDCCCC4C3E00000080BEABAAAAD1
:10017000AA3E00000000BF000000803F0000000019
:1001800000084178D3BB4387D1133D190E3CC3BD52
:100190004282AD2B3E68EC8276BED98FE1A93E4CFF
:1001A00080EFFFBE01C4FF7F3F00000000000C9401
:1001B0002D030C94570A0C9400030C94430A0C94DE
:1001C000820E0C9441030C94BB140C94D5110C9426
:1001D0008F0D0C944B0D0C94740D0C94E2020C9446
:1001E0000F030C94D2020C94580D0C945F0A0C94DB
:1001F000BE020C94820D0C94F6020C945C0D0C94CF
:10020000310A0C94470D0C94780D0C94860D0C94C7
:1002100019030C94AA020C94600D0C9463030C94C3
:1002200046020C94340A0C9409020C94FD0E0C94B2
:10023000C8020C945F0E0C94510D0C948C0A0C9413
:10024000EC020C9437030C946E0D0C94320A0C944F
:1002500023030C94550D0C94B4020C946E0E0C9464
:10026000DA020C94350E0C94AF020C947C0D0C94B5
:10027000B00E0C94330A0C946A0D0C9445020C9445
:10028000660D0C948A0D0000200023002600290032
:100290002C002F00320000010000030106010901BB
:1002A00000002100240027002A002D003000330028
:1002B00001010000040107010A01000022002500DD
:1002C00028002B002E00310034000201000005013F
:1002D00008010B01050505050705080808080202C5
:1002E00002020A0A080804040404010101010101D0
:1002F00001010303030303030303040707070C0CB3
:100300000C0C0C0C0C0C0202020206060606060679
:1003100006060B0B0B0B0B0B0B0B0102102020081E
:100320000810204010204080020102010804020150
:1003300001020408102040808040201008040201BF
:100340008004020180402010080402010804020118
:10035000010204081020408001020408102040809F
:1003600000000A0B02090C0D0E080703040100002F
:10037000000000000000000000000000000000007D
:10038000000000000000000000000000121110003A
:10039000000000000000000000000000000000005D
:1003A0000000000000000200BB14D51111241FBE84
:1003B000CFEFD1E2DEBFCDBF00E00CBF12E0A0E086
:1003C000B2E0EEE6FAE300E00BBF02C007900D9248
:1003D000A437B107D9F727E0A4E7B2E001C01D9226
:1003E000A535B207E1F711E0C5EDD1E000E006C0A8
:1003F00021970109802FFE010E945718C43DD107A3
:1004000080E00807A9F70E94DB110C94251D0C94CD
:100410000000FC01918D228D892F90E0805C9F4F20
:10042000821B91098F7399270895E0E0F0E01994F9
:1004300080E090E0892B21F00E94A60E811119C066
:1004400080E090E0892B41F080E090E0892B21F062
:100450000E940000811110C00E949C0E81110FC0EB
:1004600080E090E0892B81F00E94920E81110AC0F9
:1004700008950E940000E4CF0E940000EDCF0E948A
:100480001502EECF0C9400000895089580E090E0EE
:1004900008958F929F92AF92BF92CF92DF92EF9288
:1004A000FF920F931F93CF93DF938C016A017B011F
:1004B00020E030E04FE753E4C701B6010E943D174A
:1004C0004B015C0120E030E0A9010E947B19181665
:1004D0001CF4C501B40103C0C501B40190580E94C9
:1004E0004519EB0120E030E0A901C701B6010E94E7
:1004F0007B19181614F460E001C061E0F8018181F5
:100500000E94900DCF3FD10509F014F4DD2702C001
:10051000CFEFD0E0F801108161E0812F0E94BF0D84
:10052000209709F4B1C0CF3FD10509F4AFC0E12F46
:10053000F0E0E05AFC4FE4918E2F90E0FC013197FF
:10054000E231F10508F09DC08827EE58FF4F8F4F2C
:100550000C94571884B5806884BDC7BDA7C084B506
:10056000806284BDC8BDA2C08091800080688093F5
:100570008000D0938900C093880098C0809180004B
:10058000806280938000D0938B00C0938A008EC0DD
:1005900080918000886080938000D0938D00C0930C
:1005A0008C0084C08091B00080688093B000C093BC
:1005B000B3007CC08091B00080628093B000C09393
:1005C000B40074C080919000806880939000D093B4
:1005D0009900C09398006AC08091900080628093D7
:1005E0009000D0939B00C0939A0060C080919000CF
:1005F000886080939000D0939D00C0939C0056C06B
:100600008091A00080688093A0008091A0008F7BE3
:100610008093A000D093A900C093A80047C0809108
:10062000A00080628093A000D093AB00C093AA008A
:100630003DC08091A00088608093A000D093AD0061
:10064000C093AC0033C0809120018068809320016A
:10065000D0932901C093280129C080912001806294
:1006600080932001D0932B01C0932A011FC0809159
:100670002001886080932001D0932D01C0932C012C
:1006800015C0C038D10514F460E001C061E0812FCD
:10069000DF91CF911F910F91FF90EF90DF90CF905E
:1006A000BF90AF909F908F900C94900DDF91CF9161
:1006B0001F910F91FF90EF90DF90CF90BF90AF9080
:1006C0009F908F9008950F931F93CF93DF938C018A
:1006D000C62FD62FD07FD1606D2F0E94BD0B6D2FFE
:1006E000C8010E94D00B80E1C89FB0011124C62F21
:1006F000C1606C2FC8010E94BD0B6C2FC8010E9405
:10070000D00B81E090E0DF91CF911F910F91089580
:10071000FC01848DDF01A80FB11DA35ABF4F2C919E
:10072000848D90E001968F739927848FA689B7896D
:100730002C93A089B1898C91837080648C93938D64
:10074000848D981306C00288F389E02D80818F7D07
:1007500080830895AF92BF92CF92DF92EF92FF9283
:100760000F931F93CF93DF93CDB7DEB7E2970FB60A
:10077000F894DEBF0FBECDBF6C015E0123E3A20E75
:10078000B11CCE0101967C01D6018D919C918530E2
:1007900038F080E492E00E94AF1180E090E029C040
:1007A0009927FC01E359F94F8081863308F086537D
:1007B00090917B00282F2870977F922B90937B003D
:1007C00020910102B0E42B9F900111248770822BAD
:1007D00080937C0080917A00806480937A0080917D
:1007E0007A0086FDFCCF809178002091790090E01E
:1007F000922BF701819391937F01AE16BF0621F6EC
:1008000088E190E0FE01319620E030E041E02817D9
:1008100039079CF461917191E080F180E616F7064A
:100820004CF4AF0142505109DA01ED92FC92718310
:10083000608340E02F5F3F4FEACF411102C0019734
:1008400009F7F60182819381A481B5818833F4E0B0
:100850009F07A105B10509F5A98DBA8D28E833E1F7
:100860000E945F182FEF33E040E050E00E94FB173A
:10087000CA01B9010E94DE1620E030E04AE754E4E4
:100880000E94D3182DED34E246E95FEB0E948019F7
:100890002DE637EE4FEE51E44DC0863B2EE4920735
:1008A000A105B10509F5A98DBA8D28E833E10E94AB
:1008B0005F182FEF33E040E050E00E94FB17CA01C1
:1008C000B9010E94DE1620E030E04AE754E40E94BD
:1008D000D31821EE3AE744E95FEB0E9480192AEF32
:1008E0003EE741E752E426C08E3AE1E09E07A105CB
:1008F000B10519F5A98DBA8D28E833E10E945F187A
:100900002FEF33E040E050E00E94FB17CA01B9012D
:100910000E94DE1620E030E04AE754E40E94D3183B
:100920002BE83CE647E85FEB0E9480192EEA37E4AB
:1009300041E451E40E943D1746C084399848A140E3
:10094000B10509F046C0A98DBA8D28E833E10E94AF
:100950005F182FEF33E040E050E00E94FB17CA0120
:10096000B9010E94DE166B017C0120E030E04FEA05
:1009700054E40E94D71687FD2AC020E030E44EE4FC
:1009800055E4C701B6010E947B19181604F120E056
:1009900030EA4CE854E4C701B6010E94661820E032
:1009A00030E04AE754E40E94D31820E030E849E000
:1009B00053E40E94D3189B01AC0160E070E080E832
:1009C0009FE30E94D3180E9445198B0102C000E0EA
:1009D00010E0C801E2960FB6F894DEBF0FBECDBF9F
:1009E000DF91CF911F910F91FF90EF90DF90CF900B
:1009F000BF90AF9008951F920F920FB60F921124DF
:100A00000BB60F922F933F934F935F936F937F9308
:100A10008F939F93AF93BF93CF93DF93EF93FF9306
:100A20002091370530E0F901E05AFC4F8491F9013B
:100A3000E65EFC4FD491F901EC52FD4FC491CC23FA
:100A400079F081110E943A0DEC2FF0E0EE0FFF1FBC
:100A5000EA57FD4FA591B491EC91ED2381E009F4A3
:100A600080E020913B0530913C052F5F3F4F309354
:100A70003C0520933B0590913A05953618F096E099
:100A800090933605909136059430C9F128F4923050
:100A900069F09330D1F05EC0953009F451C09630C2
:100AA00009F058C091E09093070651C0811152C0DF
:100AB00020913B0530913C052436310508F442C0B5
:100AC0001092070610923A051CC0813009F042C00E
:100AD000E0913A0591E09E0F90933A05F0E0209165
:100AE0003B0530913C05EE0FFF1FEA5CFA4F308763
:100AF000278310923C0510923B0594E029C0811198
:100B000017C0E0913A0591E09E0F90933A05F0E00E
:100B100020913B0530913C05EE0FFF1FEA5CFA4F38
:100B20003087278310923C0510923B0593E010C05C
:100B300020913B0530913C052536310558F007C022
:100B4000811108C010923C0510923B0503C095E04E
:100B500090933605909139059923B9F081110AC017
:100B600080913805882321F08091380561E009C023
:100B70002F9A0BC080913805882331F08091380579
:100B800060E00E94900D01C02F98FF91EF91DF91DE
:100B9000CF91BF91AF919F918F917F916F915F9115
:100BA0004F913F912F910F900BBE0F900FBE0F9062
:100BB0001F9018958EBD00000DB407FEFDCF8EB5B9
:100BC0000895CF93DF93EC0160E088810E94900D3F
:100BD00088E90E94DA0580E00E94DA0580E00E9440
:100BE000DA0580E00E94DA0580E00E94DA0561E023
:100BF00088810E94900D8BE891E00197F1F760E009
:100C000088810E94900D80EE0E94DA0561E0888163
:100C1000DF91CF910C94900DAF92BF92CF92DF9263
:100C2000EF92FF920F931F93CF93DF93CDB7DEB771
:100C300060970FB6F894DEBF0FBECDBF5C0160E0D9
:100C4000FC0180810E94900D80E60E94DA058E01F1
:100C50000F5F1F4F7E01F1E1EF0EF11C680180E094
:100C60000E94DA0590E0A0E0B0E0F6018193919354
:100C7000A193B1936F01EE15FF0589F761E0F501CE
:100C800080810E94900D80E090E0DC01F8014191AC
:100C90005191619171918F01BA2FA92F982F8827B7
:100CA000840F951FA61FB71FEE15FF0579F79C014E
:100CB000AD0166277727CB01621B730B840B950B65
:100CC00060960FB6F894DEBF0FBECDBFDF91CF9117
:100CD0001F910F91FF90EF90DF90CF90BF90AF905A
:100CE00008951F920F920FB60F9211240BB60F9218
:100CF0002F933F934F935F936F937F938F939F9324
:100D0000AF93BF93EF93FF9380918D0287FF05C050
:100D1000109285001092840016C020918D02022E40
:100D2000000C330B8091440690E0281739075CF4DF
:100D300030918D0225E03203F0011124E85FF94F74
:100D4000808186FD15C080918D028F5F80938D021A
:100D500020918D02022E000C330B8091440690E00E
:100D60002817390794F480918D028C302CF10DC036
:100D700030918D023203F0011124E85FF94F808138
:100D800060E08F730E94900DDECF8091840090917F
:100D9000850084349C4918F480E49CE905C0809166
:100DA0008400909185000496909389008093880038
:100DB0008FEF80938D022AC040918400509185006E
:100DC00030918D0225E03203F0011124E85FF94FE4
:100DD00081819281840F951F909389008093880070
:100DE00030918D023203F0011124E85FF94F8081C8
:100DF00086FF0CC030918D023203F0011124E85FB0
:100E0000F94F808161E08F730E94900DFF91EF9107
:100E1000BF91AF919F918F917F916F915F914F9112
:100E20003F912F910F900BBE0F900FBE0F901F9010
:100E300018952F923F924F925F926F927F928F926E
:100E40009F92AF92BF92CF92DF92EF92FF920F9359
:100E50001F93CF93DF93CDB7DEB760970FB6F894AB
:100E6000DEBF0FBECDBF9A83898385E129813A8198
:100E7000829FB001839F700D1124072E000C880BF8
:100E8000990B0E94DE162B013C0120E030E0A90105
:100E90000E94D71687FF04C077FA709477F8709491
:100EA0008FE492E00E94AF11C301B2010E94BB0A1D
:100EB00089E696E00E94E1058BE696E00E94E10556
:100EC00049815A81141615060CF0F6C04DEC5CEC05
:100ED0006CE47EE385E696E00E9449024DEC5CEC12
:100EE0006CE47EE387E696E00E9449021A86198642
:100EF00018861F821A821982188A1F8600E010E065
:100F0000212C312C8DEC9CECACE4BEEB8B839C83D0
:100F1000AD83BE8320E030E040E450E4C301B20181
:100F20000E9466184B015C01B101032C000C880B78
:100F3000990B0E94DE16A50194010E94D71687FD29
:100F400010C0B801012E000C880B990B0E94DE1610
:100F50009B01AC01C501B4010E947B1918160CF06D
:100F600098C18BE696E00E940C066B877C878D8784
:100F70009E87AB85BC85B195A195B109BA83A9833C
:100F800089E696E00E940C06CC24DD247601C61A80
:100F9000D70AE80AF90AD88ACF86C6012F81388590
:100FA000821B930B280E391E89819A8149855A85A7
:100FB000841B950B080F191FC601853691050CF48B
:100FC00047C08BE696E00E94E10589E696E00E9424
:100FD000E1056B857C856C0D7D1D072E000C880B53
:100FE000990B0E94DE1627E137EB41ED58E30E9492
:100FF0003D176B017C01B101601B710B072E000CCA
:10100000880B990B0E94DE162CEA35EC47EA57E371
:101010000E943D179B01AC01C701B6010E946718F1
:101020009B01AC016B817C818D819E810E94661841
:101030006B837C838D839E83AB01BC01705887E6F4
:1010400096E00E9449021A86198618861F8206C0F9
:10105000A981BA81BA87A987D886CF82B101032C2A
:10106000000C880B990B0E94DE169B01AC01C50198
:10107000B4010E94D71687FF07C040E050E0BA01D4
:1010800085E696E00E944902B801012E000C880B0B
:10109000990B0E94DE169B01AC01C501B4010E94B0
:1010A000D71687FF37CF40E050E060E070E887E672
:1010B00096E00E9449022ECF29813A81232B09F420
:1010C000E0C04DEC5CEC6CE47EEB85E696E00E94C3
:1010D00049024DEC5CEC6CE47EEB87E696E00E9406
:1010E000490218861F821C821B821A821982188A62
:1010F0001F8600E010E0212C312C20E030E040E49D
:1011000050E4C301B2010E9466186B017C01B10179
:10111000032C000C880B990B0E94DE16A701960188
:101120000E94D71687FD10C0B801012E000C880B55
:10113000990B0E94DE169B01AC01C701B6010E940B
:101140007B1918160CF0A5C084E592E00E94AF113F
:1011500089E696E00E940C069B01AC01882799273E
:10116000DC01821B930BA40BB50B44275527481BAE
:10117000590B588B4F878BE696E00E940C064B016B
:101180005C017A8369838F859889AB81BC818A1BD6
:101190009B0B280E391EC4012F813885821B930BAF
:1011A000080F191F4F85588945365105B4F18BE654
:1011B00096E00E94E10589E696E00E94E1056F85D0
:1011C000788968197909072E000C880B990B0E9401
:1011D000DE1627E137EB41ED58E30E943D174B0146
:1011E0005C01B101601B710B072E000C880B990B81
:1011F0000E94DE162CEA35EC47EA57E30E943D17C1
:101200009B01AC01C501B4010E9467180E94BB0A92
:1012100018861F821C821B8206C098868F828F854B
:1012200098899C838B83B101032C000C880B990B4C
:101230000E94DE169B01AC01C701B6010E94D716C1
:1012400087FF07C040E050E0BA0185E696E00E94C3
:101250004902B801012E000C880B990B0E94DE1682
:101260009B01AC01C701B6010E94D71687FF45CF8D
:1012700040E050E060E070E887E696E00E944902B6
:101280003CCF1A821982188A1F8600E010E0212CB8
:10129000312C40E050E0BA0185E696E00E94490218
:1012A00040E050E060E070E887E696E00E94490286
:1012B000C1010E94BD11C8010E94BD1189E592E0E3
:1012C0000E94AF1120E030E040E450E4C301B201DD
:1012D0000E9466180E94BB0A8DE592E00E94AF1141
:1012E0008F8598890E94BD1189819A810E94BD11C4
:1012F00089E696E00E940C06909580957095619520
:101300007F4F8F4F9F4F0E949B118BE696E00E946C
:101310000C0660960FB6F894DEBF0FBECDBFDF910E
:10132000CF911F910F91FF90EF90DF90CF90BF90E2
:10133000AF909F908F907F906F905F904F903F9075
:101340002F900C949B1130919802313208F04BC0D1
:10135000809196028111FCCF9091430322E020936B
:10136000960221E0209395022FEF20932103109203
:10137000200330931F03E3E2F3E0AFEFB2E020E09D
:10138000321721F041914D932F5FFACF1092FE0258
:101390002091FE02990F922B9093FE02909194025D
:1013A000913061F4109294029091FE029093BB00F0
:1013B0009091BC0093FDF8CF95EC01C095EE909311
:1013C000BC00909196029230E1F3909121039F3FEF
:1013D00079F080912103803241F0809121038033A4
:1013E00031F084E005C081E003C082E001C083E009
:1013F000109297021092980210922203089585EDA0
:101400008093BC008091BC0084FDFCCF10929602BA
:1014100008954091DB02262F30E0240F311D213248
:101420003105DCF4209196022430C9F4FC0180E0FF
:1014300090E0861758F43091DB022191DC01A5542D
:10144000BD4FA30FB11D2C930196F3CF8091DB020A
:10145000680F6093DB0280E0089581E0089582E0E8
:101460000895089508950895E0918F0280918E0265
:10147000E81730F4F0E0E556FD4F808190E00895E4
:101480008FEF9FEF089590918F0280918E029817B1
:1014900050F4E92FF0E0E556FD4F208130E09F5FEA
:1014A00090938F0202C02FEF3FEFC9010895809102
:1014B0008E0290E020918F02821B91090895CF92B5
:1014C000DF92EF92FF920F931F93CF93DF937C01F4
:1014D000CB018A0120912203222389F0EB016B01C9
:1014E000C40ED51ECC15DD0569F06991D701ED91CB
:1014F000FC910190F081E02DC7011995F3CF642F85
:101500000E94090AC801DF91CF911F910F91FF90AE
:10151000EF90DF90CF900895CF93DF931F92CDB7D8
:10152000DEB76983209122032223D1F02091980213
:10153000203240F021E030E0FC013383228380E060
:1015400090E015C080919702E82FF0E0ED5DFC4F30
:10155000998190838F5F809397028093980205C052
:1015600061E0CE0101960E94090A81E090E00F90AF
:10157000DF91CF9108954F925F926F927F928F92F9
:101580009F92AF92BF92CF92DF92EF92FF926B0148
:101590007C019B01AC010E94D019882319F084E6DC
:1015A00092E01AC046015701E894B7F82FEF3FEFD9
:1015B0004FE75FE7C501B4010E94D019811110C047
:1015C0002FEF3FEF4FE75FE7C501B4010E94D71649
:1015D000181634F488E692E00E9427117C0183C03B
:1015E0002FEF3FEF4FE75FE4C701B6010E947B1981
:1015F00018161CF48CE692E0EFCF2FEF3FEF4FE789
:101600005FECC701B6010E94D71687FDF3CF20E03B
:1016100030E0A901C701B6010E94D71687FF0BC0B1
:101620006DE289E994E00E94B00E5C01F7FAF09453
:10163000F7F8F09402C0A12CB12C2AE037ED43EA70
:101640005BE3C701B6010E9467182B013C010E94B1
:101650004C196B017C010E94DC169B01AC01C3019B
:10166000B2010E9466182B013C014AE0C701B60195
:101670000E9439117C01EA0CFB1C6EE289E994E0BE
:101680000E94B00EE80EF91E20E030E040E251E486
:10169000C301B2010E943D172B013C010E944C196D
:1016A0004B01A12CB12C4AE0C501B4010E943911B3
:1016B000E80EF91EC501B4010E94DC169B01AC01C5
:1016C000C301B2010E94661820E030E040E251E41C
:1016D0000E943D170E944C1980E090E04AE00E9471
:1016E0003911E80EF91E80E792E00E9427118E0D55
:1016F0009F1DFF90EF90DF90CF90BF90AF909F9095
:101700008F907F906F905F904F9008950F931F93ED
:10171000CF93DF93162F072FCCE4D6E09C8521E0F2
:101720002093220390934303109297021092980201
:10173000AA85BB85ED91FC9111970190F081E02D78
:10174000682FCD0119958A859B85DC01ED91FC916F
:101750000190F081E02D602F19958A859B85DC0131
:10176000ED91FC910190F081E02D612F1995DF91B1
:10177000CF911F910F910C94A309FC01248131E0BA
:101780003093220320934303109297021092980201
:101790008485682B83E593E00E948C0A0C94A3094E
:1017A0000F931F93CF938C01C62F64600E94BD0BD3
:1017B0006C2F6B7FC8010E94BD0B83EC90E00197FA
:1017C000F1F7CF911F910F910895FC01A089B18984
:1017D0008C91A689B78982FD0FC09C91818D8F5F06
:1017E0008F73228D821749F0218DDF01A20FB11D69
:1017F0005D969C93818F08958C9108951F920F920E
:101800000FB60F9211240BB60F922F933F934F9365
:101810005F936F937F938F939F93AF93BF93EF9358
:10182000FF938091B900887F803609F49CC068F5E9
:10183000883209F45BC090F4803109F454C038F464
:10184000882309F4F6C0883009F44DC0F6C0883109
:1018500009F44CC0803209F45DC0EFC0803409F453
:1018600068C048F4803309F455C0883309F0E5C0F6
:1018700080932103D8C0803509F44FC0883509F41E
:101880005DC0883409F0D9C0D6C0883909F4C7C012
:10189000A8F4883709F467C038F4883609F463C0BF
:1018A000803709F460C0C9C0883809F4B8C08039ED
:1018B00009F45FC0803809F0C0C05BC0803B09F408
:1018C00086C038F4803A09F466C0883A09F47FC0CB
:1018D000B4C0803C09F4A7C0883C09F4A4C0883B8C
:1018E00009F48AC0AAC08091FE0210C09091200322
:1018F00080911F03981770F5E091200381E08E0F0F
:1019000080932003F0E0E150FD4F80818093BB0085
:1019100085EC86C0809321038EC0E091200381E096
:101920008E0F809320038091BB00F0E0E150FD4FCB
:1019300080839091200380911F036EC0E09120036B
:1019400081E08E0F809320038091BB00F0E0E15096
:10195000FD4F80838091950281116DC081E080935D
:10196000940284EA61C083E0809396021092FD02A3
:10197000CFCF8091FD02803208F051C0E091FD028E
:1019800081E08E0F8093FD028091BB00F0E0E35276
:10199000FD4F8083BDCF85EC8093BC0010929602F2
:1019A0008091FD02803230F4E091FD02F0E0E352DC
:1019B000FD4F10826091FD0270E0E0919202F09183
:1019C00093028DED92E019951092FD0236C084E0ED
:1019D000809396021092DC021092DB02E09190025A
:1019E000F091910219958091DB02811105C081E08F
:1019F0008093DB021092BB02E091DC0281E08E0F4B
:101A00008093DC02F0E0E554FD4F80818093BB00C1
:101A10009091DC028091DB02981708F479CF85E879
:101A20008093BC000AC085EC8093BC0010929602A3
:101A300004C0109221030E94FF09FF91EF91BF9112
:101A4000AF919F918F917F916F915F914F913F9156
:101A50002F910F900BBE0F900FBE0F901F901895F7
:101A60001F920F920FB60F9211240F900FBE0F907E
:101A70001F90189590E0FC013197E231F10508F0D4
:101A80004EC08827EC57FF4F8F4F0C94571880910A
:101A900080008F7703C0809180008F7D80938000CD
:101AA000089580918000877FF9CF84B58F7702C039
:101AB00084B58F7D84BD08958091B0008F7703C079
:101AC0008091B0008F7D8093B00008958091900048
:101AD0008F7707C0809190008F7D03C08091900028
:101AE000877F8093900008958091A0008F7707C032
:101AF0008091A0008F7D03C08091A000877F80939C
:101B0000A0000895809120018F7707C08091200167
:101B10008F7D03C080912001877F809320010895ED
:101B20001F93CF93DF93282F30E0F901E05AFC4F49
:101B30008491F901E65EFC4FD491F901EC52FD4F1E
:101B4000C491CC23C1F0162F81110E943A0DEC2FC5
:101B5000F0E0EE0FFF1FE654FD4FA591B4919FB743
:101B6000F894111104C08C91D095D82302C0EC9147
:101B7000DE2BDC939FBFDF91CF911F910895CF9310
:101B8000DF9390E0FC01E65EFC4F2491FC01EC52F7
:101B9000FD4F8491882361F190E0880F991FFC012B
:101BA000E056FD4FC591D491FC01E654FD4FA5913F
:101BB000B491611109C09FB7F89488812095822360
:101BC0008883EC912E230BC0623061F49FB7F894A8
:101BD0008881322F309583238883EC912E2B2C9390
:101BE0009FBF06C08FB7F894E8812E2B28838FBF44
:101BF000DF91CF9108958F929F92AF92BF92CF9233
:101C0000DF92EF92FF926B017C010E941F0F4B014C
:101C10005C01C114D104E104F104F1F00E941F0F32
:101C2000DC01CB0188199909AA09BB09883E9340B8
:101C3000A105B10570F321E0C21AD108E108F1084D
:101C400088EE880E83E0981EA11CB11CC114D1043B
:101C5000E104F10419F7DDCFFF90EF90DF90CF9012
:101C6000BF90AF909F908F900895CF92DF92EF92A8
:101C7000FF920F931F93CF93DF936C017A018B0137
:101C8000C0E0D0E0CE15DF0581F0D8016D918D0167
:101C9000D601ED91FC910190F081E02DC6011995DE
:101CA000892B11F02196EECF7E01C701DF91CF91F4
:101CB0001F910F91FF90EF90DF90CF900895FC015E
:101CC000538D448D252F30E0842F90E0821B930BA1
:101CD000541710F0CF96089501970895FC01918D47
:101CE000828D981761F0828DDF01A80FB11D5D967E
:101CF0008C91928D9F5F9F73928F90E008958FEFEC
:101D00009FEF0895FC01918D828D981731F0828D9F
:101D1000E80FF11D858D90E008958FEF9FEF0895F6
:101D20000E94101D8FE593E00E94090221E0892B9B
:101D300009F420E0822F08958CEF93E00E940902BD
:101D400021E0892B09F420E0822F089589E994E0AD
:101D50000E94090221E0892B09F420E0822F0895D6
:101D6000EF92FF920F931F93CF93DF93EC0181E0EB
:101D7000888F9B8D8C8D981305C0E889F9898081A7
:101D800085FD26C0F62E0B8D10E00F5F1F4F0F73E1
:101D90001127E02E8C8DE8120CC00FB607FCFACF8D
:101DA000E889F989808185FFF5CFCE010E948803FB
:101DB000F1CF8B8DFE01E80FF11DE35AFF4FF0824A
:101DC0009FB7F8940B8FEA89FB89808180620AC0F3
:101DD0009FB7F894EE89FF896083E889F98980814B
:101DE0008370806480839FBF81E090E0DF91CF911A
:101DF0001F910F91FF90EF900895CF93DF93EC0127
:101E0000888D8823C9F0EA89FB89808185FD05C01A
:101E1000A889B9898C9186FD0FC00FB607FCF5CF54
:101E2000808185FFF2CFA889B9898C9185FFEDCF9C
:101E3000CE010E948803E7CFDF91CF9108953FB78D
:101E4000F89480914F0390915003A0915103B09169
:101E5000520326B5A89B05C02F3F19F00196A11D7E
:101E6000B11D3FBFBA2FA92F982F8827820F911D30
:101E7000A11DB11DBC01CD0142E0660F771F881F77
:101E8000991F4A95D1F708951F920F920FB60F929E
:101E900011242F933F938F939F93AF93BF93809180
:101EA0004B0390914C03A0914D03B0914E033091A0
:101EB0004A0323E0230F2D3720F40196A11DB11D05
:101EC00005C026E8230F0296A11DB11D20934A03E9
:101ED00080934B0390934C03A0934D03B0934E0318
:101EE00080914F0390915003A0915103B091520300
:101EF0000196A11DB11D80934F0390935003A093B1
:101F00005103B0935203BF91AF919F918F913F9135
:101F10002F910F900FBE0F901F9018951F920F9248
:101F20000FB60F9211240BB60F922F933F934F933E
:101F30005F936F937F938F939F93AF93BF93EF9331
:101F4000FF938091450390914603A0914703B09180
:101F50004803892B8A2B8B2B49F190914403809164
:101F600000008927809300008091450390914603EB
:101F7000A0914703B0914803181619061A061B06CC
:101F80000CF056C08091450390914603A091470301
:101F9000B09148030197A109B1098093450390933B
:101FA0004603A0934703B093480342C080910002C8
:101FB000E6EAF3E0E4919FEF90930002E230C9F08B
:101FC00050F4EE2399F0E13081F590916F009D7F00
:101FD00090936F002AC0E43019F1E0F0E53029F564
:101FE000909173009D7F909373001FC010926E00BC
:101FF0001CC0909170009D7F9093700091E0909331
:10200000B0009091B100987F94609093B1001092CD
:10201000B3000BC0909171009D7F9093710005C03B
:10202000909172009D7F9093720060E00E94900DED
:10203000FF91EF91BF91AF919F918F917F916F91A0
:102040005F914F913F912F910F900BBE0F900FBE5C
:102050000F901F9018951F920F920FB60F92112498
:102060000BB60F922F933F934F935F936F937F9392
:102070008F939F93AF93BF93EF93FF938FE593E07D
:102080000E948803FF91EF91BF91AF919F918F9133
:102090007F916F915F914F913F912F910F900BBE68
:1020A0000F900FBE0F901F9018951F920F920FB6B2
:1020B0000F9211240BB60F922F933F934F935F9380
:1020C0006F937F938F939F93AF93BF93EF93FF9300
:1020D0008FE593E00E94E50BFF91EF91BF91AF91E7
:1020E0009F918F917F916F915F914F913F912F9130
:1020F0000F900BBE0F900FBE0F901F9018951F9260
:102100000F920FB60F9211240BB60F922F933F939D
:102110004F935F936F937F938F939F93AF93BF93EF
:10212000EF93FF938CEF93E00E948803FF91EF9170
:10213000BF91AF919F918F917F916F915F914F91DF
:102140003F912F910F900BBE0F900FBE0F901F90DD
:1021500018951F920F920FB60F9211240BB60F9283
:102160002F933F934F935F936F937F938F939F939F
:10217000AF93BF93EF93FF938CEF93E00E94E50B37
:10218000FF91EF91BF91AF919F918F917F916F914F
:102190005F914F913F912F910F900BBE0F900FBE0B
:1021A0000F901F9018951F920F920FB60F92112447
:1021B0000BB60F922F933F934F935F936F937F9341
:1021C0008F939F93AF93BF93EF93FF9389E994E02D
:1021D0000E948803FF91EF91BF91AF919F918F91E2
:1021E0007F916F915F914F913F912F910F900BBE17
:1021F0000F900FBE0F901F9018951F920F920FB661
:102200000F9211240BB60F922F933F934F935F932E
:102210006F937F938F939F93AF93BF93EF93FF93AE
:1022200089E994E00E94E50BFF91EF91BF91AF9196
:102230009F918F917F916F915F914F913F912F91DE
:102240000F900BBE0F900FBE0F901F901895009728
:1022500069F0FC0101900020E9F73197AF01481BBC
:10226000590BBC0189E994E00C94350E80E090E0B4
:1022700008958F929F92AF92BF920F931F93CF9327
:10228000DF93CDB7DEB7A1970FB6F894DEBF0FBED0
:10229000CDBF19A2423008F44AE08E010F5D1F4FF6
:1022A000842E912CA12CB12CA50194010E941A1806
:1022B000E62FB901CA0101501109EA3014F4E05DBA
:1022C00001C0E95CD801EC93232B242B252B61F76B
:1022D000C8010E942711A1960FB6F894DEBF0FBE69
:1022E000CDBFDF91CF911F910F91BF90AF909F9085
:1022F0008F900895CF92DF92EF92FF92CF93DF936A
:102300006B017C016DE289E994E00E94B00EEC0162
:1023100066277727CB016C197D098E099F094AE052
:102320000E9439118C0F9D1FDF91CF91FF90EF908C
:10233000DF90CF900895CF93DF9397FF03C00E9463
:102340007A1103C04AE00E943911EC0180E792E063
:102350000E9427118C0F9D1FDF91CF910895CF937D
:10236000DF930E942711EC0180E792E00E94271181
:102370008C0F9D1FDF91CF910895CF93DF93BC0108
:10238000990F880B990B97FF03C00E947A1103C025
:102390004AE00E943911EC0180E792E00E94271187
:1023A0008C0F9D1FDF91CF910895809145069091EC
:1023B00046060C94A21BCF93DF93CDB7DEB778947B
:1023C00084B5826084BD84B5816084BD85B582603A
:1023D00085BD85B5816085BD80916E0081608093EB
:1023E0006E00109281008091810082608093810054
:1023F0008091810081608093810080918000816064
:10240000809380008091B10084608093B1008091BE
:10241000B00081608093B0008091910082608093D1
:102420009100809191008160809391008091900053
:102430008160809390008091A10082608093A100D0
:102440008091A10081608093A1008091A0008160B3
:102450008093A0008091210182608093210180916E
:10246000210181608093210180912001816080930E
:10247000200180917A00846080937A0080917A00B4
:10248000826080937A0080917A00816080937A00E4
:1024900080917A00806880937A001092C100E09168
:1024A000A904F091AA0482E08083E091A504F09150
:1024B000A6041082E091A704F091A8048FEC808319
:1024C0001092B104E091AD04F091AE0486E08083F7
:1024D000E091AB04F091AC04808180618083E09155
:1024E000AB04F091AC04808188608083E091AB0400
:1024F000F091AC04808180688083E091AB04F0911E
:10250000AC0480818F7D808361E080914D060E94C4
:10251000BF0D60E080914D060E94900D60E08091BB
:102520004C060E94BF0D83E593E09093570680937D
:10253000560610928F0210928E02109297021092FD
:1025400098021092960281E0809395021092940274
:1025500061E084E10E94900D61E085E10E94900DB0
:102560008091B9008E7F8093B9008091B9008D7FF2
:102570008093B90088E48093B80085E48093BC0020
:1025800081E39AE0909391028093900282E39AE033
:10259000909393028093920280E090E1A0E0B0E0FB
:1025A0008093590690935A06A0935B06B0935C06FD
:1025B0008AE090E0A0E0B0E080935D0690935E0634
:1025C000A0935F06B093600680E090E0A0E0B0E4E6
:1025D0008093610690936206A0936306B0936406AD
:1025E00060E070E185E00E94860B6FE979E380E0AE
:1025F0000E94860B0CE416E07801512CE9E06E2E67
:10260000E3E07E2EFFE48F2EF3E09F2EABECCA2E8C
:10261000A7E0DA2ED70114969C91149712968C910C
:10262000F801818F928F61E00E94BF0D61E0D801B7
:102630005A968C910E94BF0DF701908586815801B2
:10264000FDE1AF0EB11CD8015D968C935D975E964F
:102650009C9361E00E94BF0D60E0F801868D0E94AE
:10266000BF0D61E0D8015D968C910E94900D4FB630
:10267000F89480914903811126C0F3018491F401FB
:102680002491E82FF0E0EE0FFF1FE056FD4FA591DB
:10269000B4919C91822F892321F461E085E30E940B
:1026A000900D61E085E30E94BF0D8CB580618CBD0B
:1026B0008CB580648CBD61E084E30E94BF0D61E055
:1026C00083E30E94BF0D809149038F5F809349038C
:1026D0004FBEC6010197F1F760E0D8015D968C917D
:1026E0000E94900D88E80E94DA0583E00E94DA05D6
:1026F00061E0F801858D0E94900DC6010197F1F708
:10270000C5010E94E1055394FFEFEF1AFF0A0E5F27
:102710001F4F22E052127ECF61E7E62E66E0F62ED2
:1027200005E716E060E0D7018D917D010E94BF0DA5
:10273000B5E7EB16B6E0FB06A9F79DE6E92E96E0B5
:10274000F92E27E7C22E26E0D22E35E0B32E4CE03C
:10275000942E52E0A52EF80181908F0187818C3054
:1027600008F048C061E0882D0E94BF0DD80117967F
:102770008C91B89EF0011124E85FF94F982D9F735A
:102780002081207C822E892A808213821482692DE6
:102790000E944B18BCE08B9FA001112420E030E088
:1027A000BA01620F731FB69EF001B79EF00D11249F
:1027B000E85FF94F908196FD12C02F5F3F4F2C309C
:1027C000310571F781110BC010928000A092810039
:1027D0001092850010928400A6BAA0926F00D801D2
:1027E0001796EC91BE9EF0011124E85FF94F8081AD
:1027F00080648083F80195818381D70152968C9300
:10280000529753969C9360E00E94BF0D61E0F701E0
:1028100083890E94BF0D60E0D70153968C910E947E
:10282000900DB2E0EB0EF11CC016D10609F093CF6B
:10283000F8941092200189E08093210180E293E0D6
:102840009093290180932801109225011092240170
:1028500082E08093730078948093360510923A0555
:102860008091370560E00E94BF0D86E0382E6AE057
:1028700070E080E090E00E94FB0D6DB67EB6EDB793
:10288000FEB7BA970FB6F894FEBF0FBEEDBF0DB7F7
:102890001EB70F5F1F4F8DB79EB78A970FB6F8947C
:1028A0009EBF0FBE8DBFADB7BEB711967D01E4557B
:1028B000F1090FB6F894FEBF0FBEEDBF89972C014A
:1028C0008CE390E00E94190748019AE2890E911C5E
:1028D0005701680189E896E00E94AA03D6018D930A
:1028E0009D936D0183E896E00E94AA03F501819310
:1028F00091935F018AEF9FEF0E941907C814D904D2
:1029000049F7F201C12CD12C40E050E020E030E04A
:10291000D8018D919D918D01D7016D917D917D01A2
:10292000861B970B819391934817590714F46901FB
:10293000AC012F5F3F4F2531310551F78CE390E01B
:102940000E9419073C9C90013D9C300D11248CE3A2
:1029500090E0821B930B0E9419070FB6F8947EBE7D
:102960000FBE6DBE68E873E180E090E00E94FB0D51
:102970000E9418027CCFCF92DF92EF92FF921092CA
:1029800056031092550388EE93E0A0E0B0E08093E8
:10299000570390935803A0935903B0935A0324E12B
:1029A00032E0309354032093530310926203109249
:1029B00061038093630390936403A0936503B093D2
:1029C000660326E232E03093600320935F0345E321
:1029D00051E050936C0340936B0344E351E05093F8
:1029E0006E0340936D0340E351E0509370034093B6
:1029F0006F0341E351E0509372034093710342E34C
:102A000051E0509374034093730346E351E05093B5
:102A10007603409375031092780310927903109215
:102A20007A0310927B031092FF031092FE038093AF
:102A3000000490930104A0930204B0930304309324
:102A4000FD032093FC0345ED50E0509309044093AF
:102A5000080444ED50E050930B0440930A0440ED09
:102A600050E050930D0440930C0441ED50E050931E
:102A70000F0440930E0442ED50E050931104409334
:102A8000100446ED50E0509313044093120410924A
:102A90001504109216041092170410921804109244
:102AA0009C0410929B0480939D0490939E04A09399
:102AB0009F04B093A00430939A042093990485EC6A
:102AC00090E09093A6048093A50484EC90E090930A
:102AD000A8048093A70480EC90E09093AA048093CC
:102AE000A90481EC90E09093AC048093AB0482EC59
:102AF00090E09093AE048093AD0486EC90E09093C8
:102B0000B0048093AF041092B2041092B3041092F8
:102B1000B4041092B5048091080290910902A0912A
:102B20000A02B0910B0280936D0690936E06A093FB
:102B30006F06B093700680910C0290910D02A091E7
:102B40000E02B0910F028093710690937206A093CB
:102B50007306B093740684E08093750687E08093D3
:102B600076061092770684EB8093780686E1809350
:102B7000790688E180937A0687E180937B0689E174
:102B800080937C06E0914406EC3020F08FEF809338
:102B90007D0610C081E08E0F80934406E0937D0691
:102BA00085E0E89FF0011124E85FF94F88EB9BE096
:102BB00092838183E0914406EC3020F08FEF809384
:102BC0007E0610C081E08E0F80934406E0937E065F
:102BD00085E0E89FF0011124E85FF94F88EB9BE066
:102BE000928381838CE080934C0684E280934D062F
:102BF00086E080934E0685E080934F068FE18093B8
:102C000050068EE18093510683E28093520682E261
:102C10008093530685E48093540684E4809355069C
:102C200080E48093580610925D0610925E06109222
:102C30005F06109260061092610610926206109272
:102C4000630610926406E3E9F6E021E537E08FEFD2
:102C50009FEFDC0112821382148215821682178282
:102C60001086118683879487A587B6878787908B80
:102C7000A18BB28B12861182108273962E173F079A
:102C800049F78DE090E00E940A1BFC01138212823A
:102C900088E392E091838083118687E2848384E1D4
:102CA000828784E083871486F0939006E0938F06F2
:102CB000109291061092920685E280933705109249
:102CC0003905109246061092450610924806109259
:102CD000470610924A061092490661E070E080E0D3
:102CE00090E00E942B1C009791F0909346068093F1
:102CF00045061092480610924706209149063091E9
:102D00004A06232B09F046C0FC01108243C0809183
:102D1000450690914606009711F00E94A21B109262
:102D200046061092450610924A06109249061092E5
:102D300048061092470681E090E090938A068093BF
:102D4000890698E3C92E94E0D92EE12CF12CC0928B
:102D50008B06D0928C06E0928D06F0928E0660E093
:102D60000E94BF0D81E08093010282E090E0909389
:102D7000840680938306C0928506D0928606E092F0
:102D80008706F092880660E0FF90EF90DF90CF908A
:102D90000C94BF0D10924A061092490662E772E049
:102DA00080914506909146060E941E1DC4CF0E9448
:102DB000191708F481E00895E89409C097FB3EF4E0
:102DC00090958095709561957F4F8F4F9F4F992378
:102DD000A9F0F92F96E9BB279395F69587957795F6
:102DE0006795B795F111F8CFFAF4BB0F11F460FFB6
:102DF0001BC06F5F7F4F8F4F9F4F16C0882311F00E
:102E000096E911C0772321F09EE8872F762F05C021
:102E1000662371F096E8862F70E060E02AF09A95BC
:102E2000660F771F881FDAF7880F9695879597F9B1
:102E30000895990F0008550FAA0BE0E8FEEF16164B
:102E40001706E807F907C0F012161306E407F5079E
:102E500098F0621B730B840B950B39F40A2661F012
:102E6000232B242B252B21F408950A2609F4A140B5
:102E7000A6958FEF811D811D08950E9450170C9417
:102E8000C1170E94B31738F00E94BA1720F095239B
:102E900011F00C94AA170C94B01711240C94F51788
:102EA0000E94D21770F3959FC1F3950F50E0551F04
:102EB000629FF001729FBB27F00DB11D639FAA278F
:102EC000F00DB11DAA1F649F6627B00DA11D661FDE
:102ED000829F2227B00DA11D621F739FB00DA11DFF
:102EE000621F839FA00D611D221F749F3327A00DB9
:102EF000611D231F849F600D211D822F762F6A2F55
:102F000011249F5750409AF0F1F088234AF0EE0FB9
:102F1000FF1FBB1F661F771F881F91505040A9F7E6
:102F20009E3F510580F00C94AA170C94F5175F3F53
:102F3000E4F3983ED4F3869577956795B795F79522
:102F4000E7959F5FC1F7FE2B880F911D969587959A
:102F500097F9089597F99F6780E870E060E0089519
:102F60009FEF80EC089500240A94161617061806A1
:102F70000906089500240A9412161306140605067D
:102F80000895092E0394000C11F4882352F0BB0F0E
:102F900040F4BF2B11F460FF04C06F5F7F4F8F4F71
:102FA0009F4F089557FD9058440F551F59F05F3FAC
:102FB00071F04795880F97FB991F61F09F3F79F05B
:102FC00087950895121613061406551FF2CF4695DD
:102FD000F1DF08C0161617061806991FF1CF86955F
:102FE0007105610508940895E894BB276627772743
:102FF000CB0197F90895052E97FB1EF400940E94CB
:10300000121857FD07D00E941A1807FC03D04EF47F
:103010000C94121850954095309521953F4F4F4F85
:103020005F4F089590958095709561957F4F8F4F74
:103030009F4F0895A1E21A2EAA1BBB1BFD010DC0D4
:10304000AA1FBB1FEE1FFF1FA217B307E407F50758
:1030500020F0A21BB30BE40BF50B661F771F881F34
:10306000991F1A9469F760957095809590959B01CA
:10307000AC01BD01CF010895A29FB001B39FC00173
:10308000A39F700D811D1124911DB29F700D811D94
:103090001124911D0895991B79E004C0991F96177A
:1030A00008F0961B881F7A95C9F780950895EE0F52
:1030B000FF1F881F8BBF0790F691E02D19940E9487
:1030C0003C18B7FF0895821B930B08955058BB27F7
:1030D000AA270E947E180C94C1170E94B31738F0DB
:1030E0000E94BA1720F039F49F3F19F426F40C948B
:1030F000B0170EF4E095E7FB0C94AA17E92F0E9495
:10310000D21758F3BA17620773078407950720F0A0
:1031100079F4A6F50C94F4170EF4E0950B2EBA2F63
:10312000A02D0B01B90190010C01CA01A0011124CD
:10313000FF27591B99F0593F50F4503E68F11A1679
:10314000F040A22F232F342F4427585FF3CF46950A
:1031500037952795A795F0405395C9F77EF41F162C
:10316000BA0B620B730B840BBAF09150A1F0FF0FF6
:10317000BB1F661F771F881FC2F70EC0BA0F621FE2
:10318000731F841F48F4879577956795B795F795D2
:103190009E3F08F0B0CF9395880F08F09927EE0F67
:1031A0009795879508950E94E7180C94C1170E947F
:1031B000BA1758F00E94B31740F029F45F3F29F086
:1031C0000C94AA1751110C94F5170C94B0170E9487
:1031D000D21768F39923B1F3552391F3951B550B3F
:1031E000BB27AA2762177307840738F09F5F5F4FDA
:1031F000220F331F441FAA1FA9F335D00E2E3AF019
:10320000E0E832D091505040E695001CCAF72BD030
:10321000FE2F29D0660F771F881FBB1F2617370781
:103220004807AB07B0E809F0BB0B802DBF01FF27B3
:1032300093585F4F3AF09E3F510578F00C94AA17CF
:103240000C94F5175F3FE4F3983ED4F38695779599
:103250006795B795F7959F5FC9F7880F911D96956C
:10326000879597F90895E1E0660F771F881FBB1FC8
:10327000621773078407BA0720F0621B730B840B75
:10328000BA0BEE1F88F7E09508950E944C196894D8
:10329000B1110C94F51708950E94DA1788F09F5722
:1032A00098F0B92F9927B751B0F0E1F0660F771F6A
:1032B000881F991F1AF0BA95C9F714C0B13091F060
:1032C0000E94F417B1E008950C94F417672F782F3B
:1032D0008827B85F39F0B93FCCF386957795679525
:1032E000B395D9F73EF490958095709561957F4F91
:1032F0008F4F9F4F08950E94191708F48FEF08957C
:10330000FA01EE0FFF1F309621053105A1F161157D
:10331000710561F48038BFE39B0749F168949038E8
:10332000810561F08038BFEF9B0741F099234AF592
:10333000FF3FE1053105210519F1E8940894E7956F
:10334000D901AA2329F4AB2FBE2FF85FD0F310C008
:10335000FF5F70F4A695E0F7F73950F019F0FF3AE7
:1033600038F49F779F930DD00F9007FC90580895E5
:1033700046F00C94B01760E070E080E89FE3089599
:103380004FE79F775F934F933F932F930E94801A4D
:103390002F913F914F915F910E943D170C94DD1941
:1033A0000E941917880B990B089529F416F00C94B4
:1033B000AA170C94F4170C94B0170E94DA17A8F30C
:1033C0009638A0F707F80F92E8942BE33AEA48EB17
:1033D0005FE70E9453170F920F920F924DB75EB79F
:1033E0000F920E94C81AECE2F1E00E940F1A4F916E
:1033F0005F91EF91FF91E595EE1FFF1F49F0FE579A
:10340000E0684427EE0F441FFA95E1F74195550B0C
:103410000E94421A0F9007FE0C94361A0895DF930B
:10342000CF931F930F93FF92EF92DF927B018C015A
:10343000689406C0DA2EEF010E945017FE01E8944E
:10344000A5912591359145915591A6F3EF010E94E3
:103450007E18FE019701A801DA9469F7DF90EF90DA
:10346000FF900F911F91CF91DF9108959B01AC01C7
:1034700060E070E080E89FE30C94D3180C94AA17E6
:103480000C94FC1A0E94DA17D8F39923C9F3940F0D
:10349000511DA3F39150504094F059F0882332F01D
:1034A000660F771F881F91505040C1F79E3F51050E
:1034B0002CF7880F911D9695879597F908955F3F92
:1034C000ACF0983E9CF0BB27869577956795B795AD
:1034D00008F4B1609395C1F7BB0F58F711F460FF82
:1034E000E8CF6F5F7F4F8F4F9F4FE3CF0C94F5175F
:1034F00016F00C94FC1A0C94B01768940C94AA174C
:103500000E94DA17A8F39923C1F3AEF3DF93CF93A8
:103510001F930F93FF92C92FDD2788232AF021974D
:10352000660F771F881FDAF720E030E040E85FEB96
:103530009FE3883920F0803E38F021968F770E94F3
:103540006718E4E5F1E004C00E946718E1E8F1E0E3
:103550000E940F1A8B01BE01EC01FB2E6F577109FF
:103560007595771F880B990B0E94DE1628E132E7CC
:1035700041E35FE30E945017AF2D9801AE01FF9029
:103580000F911F91CF91DF910E947E180C94C1176B
:10359000FA01DC01AA0FBB1F9B01AC01BF5728F445
:1035A000222733274427507820C0B75190F4AB2FFF
:1035B0000024469537952795011CA395D2F300204A
:1035C00071F0220F331F441FB395DAF30ED00C9421
:1035D000661861307105A0E88A07B94630F49B018E
:1035E000AC016627772788279078309621F02083D2
:1035F00031834283538308959F3F31F0915020F4EB
:10360000879577956795B795880F911D96958795BE
:1036100097F908950F931F93CF93DF93823091050D
:1036200010F482E090E0E0915307F091540720E01D
:1036300030E0A0E0B0E0309719F140815181028183
:10364000138148175907C8F08417950769F4109734
:1036500031F012960C93129713961C9327C0009387
:1036600053071093540722C02115310519F0421752
:10367000530718F49A01BD01EF01DF01F801DBCF18
:1036800021153105F9F0281B390B2430310580F460
:103690008A819B816115710521F0FB0193838283EF
:1036A00004C09093540780935307FE01329644C0A0
:1036B000FE01E20FF31F8193919322503109398368
:1036C00028833AC02091510730915207232B41F4AF
:1036D0002091040230910502309352072093510744
:1036E00020910202309103022115310541F42DB7DA
:1036F0003EB74091060250910702241B350BE09122
:103700005107F0915207E217F307A0F42E1B3F0B6D
:103710002817390778F0AC014E5F5F4F2417350743
:1037200048F04E0F5F1F509352074093510781930B
:10373000919302C0E0E0F0E0CF01DF91CF911F91C3
:103740000F910895CF93DF93009709F481C0FC0196
:10375000329713821282A0915307B09154071097A9
:1037600081F420813181820F931F20915107309184
:1037700052072817390751F5F0935207E093510784
:1037800067C0ED0120E030E0CE17DF0740F44A814A
:103790005B819E0141155105F1F0EA01F5CFD3831C
:1037A000C28340815181840F951FC817D90759F4EE
:1037B00088819981840F951F0296918380838A81E5
:1037C0009B81938382832115310529F4F09354075B
:1037D000E09353073DC0E901FB83EA834991599186
:1037E000C40FD51FEC17FD0761F480819181840F10
:1037F000951F0296E90199838883828193819B8337
:103800008A83E0E0F0E012968D919C9113970097E7
:1038100019F0FD01DC01F7CF8D919C9111979D016D
:103820002E5F3F4F820F931F209151073091520717
:103830002817390769F4309729F410925407109229
:10384000530702C013821282B0935207A09351070C
:10385000DF91CF9108956F927F928F929F92AF9256
:10386000BF92CF92DF92EF92FF920F931F93CF936D
:10387000DF93009789F4CB01DF91CF911F910F91D6
:10388000FF90EF90DF90CF90BF90AF909F908F9080
:103890007F906F900C940A1BFC01E60FF71F9C01B0
:1038A00022503109E217F30708F4A9C0EC01D9014D
:1038B0000D911C91119706171707B0F005301105EF
:1038C00008F49BC0C80104978617970708F495C0B1
:1038D00002501109061B170B019311936D937C93F2
:1038E000CF010E94A21B89C05B01A01AB10A4C0142
:1038F000800E911EA0915307B0915407612C712C3A
:10390000E12CF12C109709F446C08D919C911197F0
:10391000A815B905B1F56C0142E0C40ED11CCA145A
:10392000DB0478F14C018A189B08640142E0C40E64
:10393000D11C1296BC9012971396AC91B5E0CB16A1
:10394000D10440F0B282A38391828082D9016D9329
:103950007C9309C00E5F1F4F800F911FF901918367
:103960008083EB2DFA2FE114F10431F0D701139687
:10397000FC93EE93129741C0F0935407E0935307E2
:103980003CC06816790608F43C017D0112960D9042
:10399000BC91A02DB7CF8091510790915207881606
:1039A0009906E1F466167706C8F4809102029091B8
:1039B0000302009741F48DB79EB7409106025091E3
:1039C0000702841B950BE817F907C8F4F093520718
:1039D000E0935107F901718360830FC0CB010E940E
:1039E0000A1B7C01009759F0A801BE010E94151D19
:1039F000CE010E94A21BC70104C0CE0102C080E01C
:103A000090E0DF91CF911F910F91FF90EF90DF90A9
:103A1000CF90BF90AF909F908F907F906F900895C0
:103A200081E090E0F8940C94251DFB01DC0102C0BC
:103A300001900D9241505040D8F70895FB01DC01F0
:103A400001900D920020E1F7089511E0C5EDD1E05D
:103A500000E006C0802FFE010E9457182196011D2C
:0E3A6000C63DD10780E00807A9F7F894FFCF14
:103A6E00FF01000055072000363738391B1D1A1C80
:103A7E00000000008C0A5F0A4602330A570A430A06
:103A8E00340A00000000B00E350E5F0EFD0E090266
:103A9E006E0E820E000000006303350E46024502D4
:103AAE00496E76616C696420495220696421007404
:103ABE006F7572006C6F6C31006D65750076616CA0
:103ACE00657572006E616E00696E66006F766600D7
:043ADE000D0A0000CD
:00000001FF
